{
  "_format": "hh-sol-artifact-1",
  "contractName": "Game",
  "sourceName": "contracts/Game.sol",
  "abi": [
    {
      "inputs": [],
      "stateMutability": "nonpayable",
      "type": "constructor"
    },
    {
      "inputs": [
        {
          "internalType": "address",
          "name": "target",
          "type": "address"
        }
      ],
      "name": "AddressEmptyCode",
      "type": "error"
    },
    {
      "inputs": [],
      "name": "ECDSAInvalidSignature",
      "type": "error"
    },
    {
      "inputs": [
        {
          "internalType": "uint256",
          "name": "length",
          "type": "uint256"
        }
      ],
      "name": "ECDSAInvalidSignatureLength",
      "type": "error"
    },
    {
      "inputs": [
        {
          "internalType": "bytes32",
          "name": "s",
          "type": "bytes32"
        }
      ],
      "name": "ECDSAInvalidSignatureS",
      "type": "error"
    },
    {
      "inputs": [],
      "name": "ERC721EnumerableForbiddenBatchMint",
      "type": "error"
    },
    {
      "inputs": [
        {
          "internalType": "address",
          "name": "sender",
          "type": "address"
        },
        {
          "internalType": "uint256",
          "name": "tokenId",
          "type": "uint256"
        },
        {
          "internalType": "address",
          "name": "owner",
          "type": "address"
        }
      ],
      "name": "ERC721IncorrectOwner",
      "type": "error"
    },
    {
      "inputs": [
        {
          "internalType": "address",
          "name": "operator",
          "type": "address"
        },
        {
          "internalType": "uint256",
          "name": "tokenId",
          "type": "uint256"
        }
      ],
      "name": "ERC721InsufficientApproval",
      "type": "error"
    },
    {
      "inputs": [
        {
          "internalType": "address",
          "name": "approver",
          "type": "address"
        }
      ],
      "name": "ERC721InvalidApprover",
      "type": "error"
    },
    {
      "inputs": [
        {
          "internalType": "address",
          "name": "operator",
          "type": "address"
        }
      ],
      "name": "ERC721InvalidOperator",
      "type": "error"
    },
    {
      "inputs": [
        {
          "internalType": "address",
          "name": "owner",
          "type": "address"
        }
      ],
      "name": "ERC721InvalidOwner",
      "type": "error"
    },
    {
      "inputs": [
        {
          "internalType": "address",
          "name": "receiver",
          "type": "address"
        }
      ],
      "name": "ERC721InvalidReceiver",
      "type": "error"
    },
    {
      "inputs": [
        {
          "internalType": "address",
          "name": "sender",
          "type": "address"
        }
      ],
      "name": "ERC721InvalidSender",
      "type": "error"
    },
    {
      "inputs": [
        {
          "internalType": "uint256",
          "name": "tokenId",
          "type": "uint256"
        }
      ],
      "name": "ERC721NonexistentToken",
      "type": "error"
    },
    {
      "inputs": [
        {
          "internalType": "address",
          "name": "owner",
          "type": "address"
        },
        {
          "internalType": "uint256",
          "name": "index",
          "type": "uint256"
        }
      ],
      "name": "ERC721OutOfBoundsIndex",
      "type": "error"
    },
    {
      "inputs": [],
      "name": "FailedInnerCall",
      "type": "error"
    },
    {
      "inputs": [],
      "name": "InvalidInitialization",
      "type": "error"
    },
    {
      "inputs": [],
      "name": "NotInitializing",
      "type": "error"
    },
    {
      "inputs": [
        {
          "internalType": "address",
          "name": "owner",
          "type": "address"
        }
      ],
      "name": "OwnableInvalidOwner",
      "type": "error"
    },
    {
      "inputs": [
        {
          "internalType": "address",
          "name": "account",
          "type": "address"
        }
      ],
      "name": "OwnableUnauthorizedAccount",
      "type": "error"
    },
    {
      "inputs": [
        {
          "internalType": "uint256",
          "name": "value",
          "type": "uint256"
        },
        {
          "internalType": "uint256",
          "name": "length",
          "type": "uint256"
        }
      ],
      "name": "StringsInsufficientHexLength",
      "type": "error"
    },
    {
      "anonymous": false,
      "inputs": [
        {
          "indexed": true,
          "internalType": "address",
          "name": "owner",
          "type": "address"
        },
        {
          "indexed": true,
          "internalType": "address",
          "name": "approved",
          "type": "address"
        },
        {
          "indexed": true,
          "internalType": "uint256",
          "name": "tokenId",
          "type": "uint256"
        }
      ],
      "name": "Approval",
      "type": "event"
    },
    {
      "anonymous": false,
      "inputs": [
        {
          "indexed": true,
          "internalType": "address",
          "name": "owner",
          "type": "address"
        },
        {
          "indexed": true,
          "internalType": "address",
          "name": "operator",
          "type": "address"
        },
        {
          "indexed": false,
          "internalType": "bool",
          "name": "approved",
          "type": "bool"
        }
      ],
      "name": "ApprovalForAll",
      "type": "event"
    },
    {
      "anonymous": false,
      "inputs": [
        {
          "indexed": false,
          "internalType": "uint64",
          "name": "version",
          "type": "uint64"
        }
      ],
      "name": "Initialized",
      "type": "event"
    },
    {
      "anonymous": false,
      "inputs": [
        {
          "indexed": true,
          "internalType": "address",
          "name": "previousOwner",
          "type": "address"
        },
        {
          "indexed": true,
          "internalType": "address",
          "name": "newOwner",
          "type": "address"
        }
      ],
      "name": "OwnershipTransferred",
      "type": "event"
    },
    {
      "anonymous": false,
      "inputs": [
        {
          "indexed": true,
          "internalType": "address",
          "name": "from",
          "type": "address"
        },
        {
          "indexed": true,
          "internalType": "address",
          "name": "to",
          "type": "address"
        },
        {
          "indexed": true,
          "internalType": "uint256",
          "name": "tokenId",
          "type": "uint256"
        }
      ],
      "name": "Transfer",
      "type": "event"
    },
    {
      "inputs": [],
      "name": "accountImplementation",
      "outputs": [
        {
          "internalType": "contract Wallet",
          "name": "",
          "type": "address"
        }
      ],
      "stateMutability": "view",
      "type": "function"
    },
    {
      "inputs": [
        {
          "internalType": "address",
          "name": "user",
          "type": "address"
        }
      ],
      "name": "addAllowlist",
      "outputs": [],
      "stateMutability": "nonpayable",
      "type": "function"
    },
    {
      "inputs": [
        {
          "internalType": "address",
          "name": "account",
          "type": "address"
        }
      ],
      "name": "allowlist",
      "outputs": [
        {
          "internalType": "bool",
          "name": "",
          "type": "bool"
        }
      ],
      "stateMutability": "view",
      "type": "function"
    },
    {
      "inputs": [
        {
          "internalType": "address",
          "name": "to",
          "type": "address"
        },
        {
          "internalType": "uint256",
          "name": "tokenId",
          "type": "uint256"
        }
      ],
      "name": "approve",
      "outputs": [],
      "stateMutability": "nonpayable",
      "type": "function"
    },
    {
      "inputs": [],
      "name": "awardToken",
      "outputs": [
        {
          "internalType": "address",
          "name": "",
          "type": "address"
        }
      ],
      "stateMutability": "view",
      "type": "function"
    },
    {
      "inputs": [
        {
          "internalType": "address",
          "name": "owner",
          "type": "address"
        }
      ],
      "name": "balanceOf",
      "outputs": [
        {
          "internalType": "uint256",
          "name": "",
          "type": "uint256"
        }
      ],
      "stateMutability": "view",
      "type": "function"
    },
    {
      "inputs": [
        {
          "internalType": "uint256",
          "name": "counter",
          "type": "uint256"
        }
      ],
      "name": "counterToTokenId",
      "outputs": [
        {
          "internalType": "uint256",
          "name": "tokenId",
          "type": "uint256"
        }
      ],
      "stateMutability": "view",
      "type": "function"
    },
    {
      "inputs": [
        {
          "internalType": "address",
          "name": "owner",
          "type": "address"
        }
      ],
      "name": "createAccount",
      "outputs": [
        {
          "internalType": "contract Wallet",
          "name": "ret",
          "type": "address"
        }
      ],
      "stateMutability": "nonpayable",
      "type": "function"
    },
    {
      "inputs": [
        {
          "internalType": "address",
          "name": "user",
          "type": "address"
        }
      ],
      "name": "delAllowlist",
      "outputs": [],
      "stateMutability": "nonpayable",
      "type": "function"
    },
    {
      "inputs": [
        {
          "internalType": "address",
          "name": "owner",
          "type": "address"
        },
        {
          "internalType": "uint256",
          "name": "salt",
          "type": "uint256"
        }
      ],
      "name": "getAccountAddress",
      "outputs": [
        {
          "internalType": "address",
          "name": "",
          "type": "address"
        }
      ],
      "stateMutability": "view",
      "type": "function"
    },
    {
      "inputs": [
        {
          "internalType": "address",
          "name": "owner",
          "type": "address"
        }
      ],
      "name": "getAccountAddress",
      "outputs": [
        {
          "internalType": "address",
          "name": "",
          "type": "address"
        }
      ],
      "stateMutability": "view",
      "type": "function"
    },
    {
      "inputs": [
        {
          "internalType": "uint256",
          "name": "tokenId",
          "type": "uint256"
        }
      ],
      "name": "getApproved",
      "outputs": [
        {
          "internalType": "address",
          "name": "",
          "type": "address"
        }
      ],
      "stateMutability": "view",
      "type": "function"
    },
    {
      "inputs": [
        {
          "internalType": "uint256",
          "name": "tokenId",
          "type": "uint256"
        },
        {
          "internalType": "address",
          "name": "nftAddress",
          "type": "address"
        }
      ],
      "name": "hasBadge",
      "outputs": [
        {
          "internalType": "bool",
          "name": "",
          "type": "bool"
        }
      ],
      "stateMutability": "view",
      "type": "function"
    },
    {
      "inputs": [
        {
          "internalType": "address",
          "name": "initialOwner_",
          "type": "address"
        },
        {
          "internalType": "address",
          "name": "awardToken_",
          "type": "address"
        }
      ],
      "name": "initialize",
      "outputs": [],
      "stateMutability": "nonpayable",
      "type": "function"
    },
    {
      "inputs": [
        {
          "internalType": "string",
          "name": "name_",
          "type": "string"
        },
        {
          "internalType": "string",
          "name": "symbol_",
          "type": "string"
        }
      ],
      "name": "initialize",
      "outputs": [],
      "stateMutability": "nonpayable",
      "type": "function"
    },
    {
      "inputs": [
        {
          "internalType": "address",
          "name": "owner",
          "type": "address"
        },
        {
          "internalType": "address",
          "name": "operator",
          "type": "address"
        }
      ],
      "name": "isApprovedForAll",
      "outputs": [
        {
          "internalType": "bool",
          "name": "",
          "type": "bool"
        }
      ],
      "stateMutability": "view",
      "type": "function"
    },
    {
      "inputs": [
        {
          "internalType": "uint256",
          "name": "tokenId",
          "type": "uint256"
        }
      ],
      "name": "isEnded",
      "outputs": [
        {
          "internalType": "bool",
          "name": "",
          "type": "bool"
        }
      ],
      "stateMutability": "view",
      "type": "function"
    },
    {
      "inputs": [
        {
          "internalType": "uint256",
          "name": "tokenId",
          "type": "uint256"
        }
      ],
      "name": "isOngoing",
      "outputs": [
        {
          "internalType": "bool",
          "name": "",
          "type": "bool"
        }
      ],
      "stateMutability": "view",
      "type": "function"
    },
    {
      "inputs": [
        {
          "internalType": "uint256",
          "name": "tokenId",
          "type": "uint256"
        }
      ],
      "name": "isSolved",
      "outputs": [
        {
          "internalType": "bool",
          "name": "",
          "type": "bool"
        }
      ],
      "stateMutability": "view",
      "type": "function"
    },
    {
      "inputs": [
        {
          "internalType": "uint256",
          "name": "id",
          "type": "uint256"
        }
      ],
      "name": "metas",
      "outputs": [
        {
          "components": [
            {
              "internalType": "string",
              "name": "name",
              "type": "string"
            },
            {
              "internalType": "string",
              "name": "description",
              "type": "string"
            },
            {
              "internalType": "string",
              "name": "gameType",
              "type": "string"
            },
            {
              "internalType": "bytes32",
              "name": "prompt",
              "type": "bytes32"
            },
            {
              "internalType": "bytes32",
              "name": "secret",
              "type": "bytes32"
            },
            {
              "internalType": "uint128",
              "name": "start",
              "type": "uint128"
            },
            {
              "internalType": "uint128",
              "name": "end",
              "type": "uint128"
            },
            {
              "internalType": "address",
              "name": "winner",
              "type": "address"
            }
          ],
          "internalType": "struct Metadata",
          "name": "",
          "type": "tuple"
        }
      ],
      "stateMutability": "view",
      "type": "function"
    },
    {
      "inputs": [
        {
          "internalType": "address",
          "name": "to",
          "type": "address"
        }
      ],
      "name": "mint",
      "outputs": [
        {
          "internalType": "uint256",
          "name": "tokenId",
          "type": "uint256"
        }
      ],
      "stateMutability": "pure",
      "type": "function"
    },
    {
      "inputs": [
        {
          "internalType": "address",
          "name": "to",
          "type": "address"
        },
        {
          "components": [
            {
              "internalType": "string",
              "name": "name",
              "type": "string"
            },
            {
              "internalType": "string",
              "name": "description",
              "type": "string"
            },
            {
              "internalType": "string",
              "name": "gameType",
              "type": "string"
            },
            {
              "internalType": "bytes32",
              "name": "prompt",
              "type": "bytes32"
            },
            {
              "internalType": "bytes32",
              "name": "secret",
              "type": "bytes32"
            },
            {
              "internalType": "uint128",
              "name": "start",
              "type": "uint128"
            },
            {
              "internalType": "uint128",
              "name": "end",
              "type": "uint128"
            },
            {
              "internalType": "address",
              "name": "winner",
              "type": "address"
            }
          ],
          "internalType": "struct Metadata",
          "name": "metadata",
          "type": "tuple"
        },
        {
          "internalType": "uint256",
          "name": "awards",
          "type": "uint256"
        }
      ],
      "name": "mint",
      "outputs": [
        {
          "internalType": "uint256",
          "name": "tokenId",
          "type": "uint256"
        }
      ],
      "stateMutability": "nonpayable",
      "type": "function"
    },
    {
      "inputs": [
        {
          "internalType": "bytes[]",
          "name": "data",
          "type": "bytes[]"
        }
      ],
      "name": "multicall",
      "outputs": [
        {
          "internalType": "bytes[]",
          "name": "results",
          "type": "bytes[]"
        }
      ],
      "stateMutability": "nonpayable",
      "type": "function"
    },
    {
      "inputs": [],
      "name": "name",
      "outputs": [
        {
          "internalType": "string",
          "name": "",
          "type": "string"
        }
      ],
      "stateMutability": "view",
      "type": "function"
    },
    {
      "inputs": [],
      "name": "owner",
      "outputs": [
        {
          "internalType": "address",
          "name": "",
          "type": "address"
        }
      ],
      "stateMutability": "view",
      "type": "function"
    },
    {
      "inputs": [
        {
          "internalType": "uint256",
          "name": "tokenId",
          "type": "uint256"
        }
      ],
      "name": "ownerOf",
      "outputs": [
        {
          "internalType": "address",
          "name": "",
          "type": "address"
        }
      ],
      "stateMutability": "view",
      "type": "function"
    },
    {
      "inputs": [
        {
          "internalType": "address",
          "name": "solver",
          "type": "address"
        }
      ],
      "name": "registeredSolver",
      "outputs": [
        {
          "internalType": "bool",
          "name": "registered",
          "type": "bool"
        }
      ],
      "stateMutability": "view",
      "type": "function"
    },
    {
      "inputs": [],
      "name": "renounceOwnership",
      "outputs": [],
      "stateMutability": "nonpayable",
      "type": "function"
    },
    {
      "inputs": [
        {
          "internalType": "address",
          "name": "from",
          "type": "address"
        },
        {
          "internalType": "address",
          "name": "to",
          "type": "address"
        },
        {
          "internalType": "uint256",
          "name": "tokenId",
          "type": "uint256"
        }
      ],
      "name": "safeTransferFrom",
      "outputs": [],
      "stateMutability": "nonpayable",
      "type": "function"
    },
    {
      "inputs": [
        {
          "internalType": "address",
          "name": "from",
          "type": "address"
        },
        {
          "internalType": "address",
          "name": "to",
          "type": "address"
        },
        {
          "internalType": "uint256",
          "name": "tokenId",
          "type": "uint256"
        },
        {
          "internalType": "bytes",
          "name": "data",
          "type": "bytes"
        }
      ],
      "name": "safeTransferFrom",
      "outputs": [],
      "stateMutability": "nonpayable",
      "type": "function"
    },
    {
      "inputs": [
        {
          "internalType": "address",
          "name": "",
          "type": "address"
        }
      ],
      "name": "salts",
      "outputs": [
        {
          "internalType": "uint256",
          "name": "",
          "type": "uint256"
        }
      ],
      "stateMutability": "view",
      "type": "function"
    },
    {
      "inputs": [
        {
          "internalType": "address",
          "name": "operator",
          "type": "address"
        },
        {
          "internalType": "bool",
          "name": "approved",
          "type": "bool"
        }
      ],
      "name": "setApprovalForAll",
      "outputs": [],
      "stateMutability": "nonpayable",
      "type": "function"
    },
    {
      "inputs": [
        {
          "internalType": "uint256",
          "name": "tokenId",
          "type": "uint256"
        },
        {
          "internalType": "bytes32",
          "name": "secretHash",
          "type": "bytes32"
        },
        {
          "internalType": "address",
          "name": "winner",
          "type": "address"
        },
        {
          "internalType": "bytes",
          "name": "signature",
          "type": "bytes"
        }
      ],
      "name": "solved",
      "outputs": [],
      "stateMutability": "nonpayable",
      "type": "function"
    },
    {
      "inputs": [
        {
          "internalType": "address",
          "name": "solver",
          "type": "address"
        }
      ],
      "name": "solvedAwards",
      "outputs": [
        {
          "internalType": "uint256",
          "name": "totalAwards",
          "type": "uint256"
        }
      ],
      "stateMutability": "view",
      "type": "function"
    },
    {
      "inputs": [
        {
          "internalType": "address",
          "name": "solver",
          "type": "address"
        }
      ],
      "name": "solvedCounts",
      "outputs": [
        {
          "internalType": "uint256",
          "name": "count",
          "type": "uint256"
        }
      ],
      "stateMutability": "view",
      "type": "function"
    },
    {
      "inputs": [
        {
          "internalType": "address",
          "name": "solver",
          "type": "address"
        },
        {
          "internalType": "uint256",
          "name": "",
          "type": "uint256"
        }
      ],
      "name": "solvedGames",
      "outputs": [
        {
          "internalType": "uint256",
          "name": "tokenIds",
          "type": "uint256"
        }
      ],
      "stateMutability": "view",
      "type": "function"
    },
    {
      "inputs": [
        {
          "internalType": "address",
          "name": "user",
          "type": "address"
        }
      ],
      "name": "solvedGamesTokenIds",
      "outputs": [
        {
          "internalType": "uint256[]",
          "name": "",
          "type": "uint256[]"
        }
      ],
      "stateMutability": "view",
      "type": "function"
    },
    {
      "inputs": [
        {
          "internalType": "uint256",
          "name": "",
          "type": "uint256"
        }
      ],
      "name": "solverList",
      "outputs": [
        {
          "internalType": "address",
          "name": "",
          "type": "address"
        }
      ],
      "stateMutability": "view",
      "type": "function"
    },
    {
      "inputs": [],
      "name": "solverListLength",
      "outputs": [
        {
          "internalType": "uint256",
          "name": "",
          "type": "uint256"
        }
      ],
      "stateMutability": "view",
      "type": "function"
    },
    {
      "inputs": [
        {
          "internalType": "bytes4",
          "name": "interfaceId",
          "type": "bytes4"
        }
      ],
      "name": "supportsInterface",
      "outputs": [
        {
          "internalType": "bool",
          "name": "",
          "type": "bool"
        }
      ],
      "stateMutability": "view",
      "type": "function"
    },
    {
      "inputs": [],
      "name": "symbol",
      "outputs": [
        {
          "internalType": "string",
          "name": "",
          "type": "string"
        }
      ],
      "stateMutability": "view",
      "type": "function"
    },
    {
      "inputs": [
        {
          "internalType": "uint256",
          "name": "index",
          "type": "uint256"
        }
      ],
      "name": "tokenByIndex",
      "outputs": [
        {
          "internalType": "uint256",
          "name": "",
          "type": "uint256"
        }
      ],
      "stateMutability": "view",
      "type": "function"
    },
    {
      "inputs": [
        {
          "internalType": "uint256",
          "name": "tokenId",
          "type": "uint256"
        }
      ],
      "name": "tokenIdToCounter",
      "outputs": [
        {
          "internalType": "uint256",
          "name": "counter",
          "type": "uint256"
        }
      ],
      "stateMutability": "view",
      "type": "function"
    },
    {
      "inputs": [
        {
          "internalType": "address",
          "name": "owner",
          "type": "address"
        },
        {
          "internalType": "uint256",
          "name": "index",
          "type": "uint256"
        }
      ],
      "name": "tokenOfOwnerByIndex",
      "outputs": [
        {
          "internalType": "uint256",
          "name": "",
          "type": "uint256"
        }
      ],
      "stateMutability": "view",
      "type": "function"
    },
    {
      "inputs": [
        {
          "internalType": "uint256",
          "name": "tokenId",
          "type": "uint256"
        }
      ],
      "name": "tokenURI",
      "outputs": [
        {
          "internalType": "string",
          "name": "",
          "type": "string"
        }
      ],
      "stateMutability": "view",
      "type": "function"
    },
    {
      "inputs": [],
      "name": "totalEnd",
      "outputs": [
        {
          "internalType": "uint256",
          "name": "",
          "type": "uint256"
        }
      ],
      "stateMutability": "view",
      "type": "function"
    },
    {
      "inputs": [],
      "name": "totalOngoing",
      "outputs": [
        {
          "internalType": "uint256",
          "name": "",
          "type": "uint256"
        }
      ],
      "stateMutability": "view",
      "type": "function"
    },
    {
      "inputs": [],
      "name": "totalSolved",
      "outputs": [
        {
          "internalType": "uint256",
          "name": "",
          "type": "uint256"
        }
      ],
      "stateMutability": "view",
      "type": "function"
    },
    {
      "inputs": [],
      "name": "totalSupply",
      "outputs": [
        {
          "internalType": "uint256",
          "name": "",
          "type": "uint256"
        }
      ],
      "stateMutability": "view",
      "type": "function"
    },
    {
      "inputs": [],
      "name": "totalVerified",
      "outputs": [
        {
          "internalType": "uint256",
          "name": "",
          "type": "uint256"
        }
      ],
      "stateMutability": "view",
      "type": "function"
    },
    {
      "inputs": [
        {
          "internalType": "address",
          "name": "from",
          "type": "address"
        },
        {
          "internalType": "address",
          "name": "to",
          "type": "address"
        },
        {
          "internalType": "uint256",
          "name": "tokenId",
          "type": "uint256"
        }
      ],
      "name": "transferFrom",
      "outputs": [],
      "stateMutability": "nonpayable",
      "type": "function"
    },
    {
      "inputs": [
        {
          "internalType": "address",
          "name": "newOwner",
          "type": "address"
        }
      ],
      "name": "transferOwnership",
      "outputs": [],
      "stateMutability": "nonpayable",
      "type": "function"
    },
    {
      "inputs": [
        {
          "internalType": "uint256",
          "name": "tokenId",
          "type": "uint256"
        },
        {
          "internalType": "address",
          "name": "nftAddress",
          "type": "address"
        }
      ],
      "name": "verified",
      "outputs": [],
      "stateMutability": "nonpayable",
      "type": "function"
    }
  ],
  "bytecode": "0x60806040523480156200001157600080fd5b506200001c6200002c565b620000266200002c565b620000e0565b7ff0c57e16840df040f15088dc2f81fe391c3923bec73e23a9662efc9c229c6a00805468010000000000000000900460ff16156200007d5760405163f92ee8a960e01b815260040160405180910390fd5b80546001600160401b0390811614620000dd5780546001600160401b0319166001600160401b0390811782556040519081527fc7f505b2f371ae2175ee4913f4499e1f2633a7b5936321eed1cdaeb6115181d29060200160405180910390a15b50565b615bbf80620000f06000396000f3fe60806040523480156200001157600080fd5b5060043610620003695760003560e01c8063715018a611620001dc578063b23e44801162000119578063e715de2811620000af578063f2fde38b1162000086578063f2fde38b1462000888578063f9bc3f40146200089f578063fe7f43da14620008a9578063fe9eba1514620008c057600080fd5b8063e715de281462000850578063e985e9c51462000867578063ef792662146200087e57600080fd5b8063c516e15611620000f0578063c516e1561462000805578063c87b56dd146200080e578063d2da7bca1462000825578063d3c6fd90146200083957600080fd5b8063b23e448014620007b4578063b66f7a8b14620007d7578063b88d4fde14620007ee57600080fd5b806395d89b41116200018f5780639dd3e25511620001665780639dd3e255146200072e578063a22cb4651462000751578063a7cd52cb1462000768578063ac9650d8146200078e57600080fd5b806395d89b4114620006f657806395ecc64214620007005780639859387b146200071757600080fd5b8063715018a6146200065e57806374de69e314620006685780637b80e8e6146200067f57806385604ba41462000688578063867211f314620006ae5780638da5cb5b14620006c557600080fd5b8063415fa50a11620002ab57806354c87af4116200025e5780636352211e11620002355780636352211e14620005f3578063676db981146200060a5780636a627842146200063057806370a08231146200064757600080fd5b806354c87af414620005a25780635872fe4514620005c55780635f6928e214620005dc57600080fd5b8063415fa50a146200050c57806342842e0e146200052f578063485cc95514620005465780634cd88b76146200055d5780634f6ccce71462000574578063502c040b146200058b57600080fd5b80630d253d76116200032157806323b872dd11620002f857806323b872dd14620004a157806324d7356714620004b8578063277ecfbb14620004cf5780632f745c5914620004f557600080fd5b80630d253d76146200045f57806311464fbe146200047657806318160ddd146200048a57600080fd5b80627c94b6146200036e57806301ffc9a714620003a45780630661d1dc14620003cc57806306fdde0314620003fd578063081812fc1462000416578063095ea7b31462000446575b600080fd5b620003916200037f36600462003be6565b600a6020526000908152604090205481565b6040519081526020015b60405180910390f35b620003bb620003b536600462003c1b565b620008c9565b60405190151581526020016200039b565b620003bb620003dd36600462003c3b565b6000908152600360205260409020600601546001600160a01b0316151590565b62000407620008f7565b6040516200039b919062003ca9565b6200042d6200042736600462003c3b565b620009a4565b6040516001600160a01b0390911681526020016200039b565b6200045d6200045736600462003cbe565b620009bd565b005b6200042d6200047036600462003cbe565b620009ce565b6000546200042d906001600160a01b031681565b60008051602062005b6a8339815191525462000391565b6200045d620004b236600462003ceb565b62000a96565b6200045d620004c936600462003d2c565b62000b2b565b620004e6620004e036600462003c3b565b62000d64565b6040516200039b919062003d5b565b620003916200050636600462003cbe565b62000fde565b620003916200051d36600462003be6565b600b6020526000908152604090205481565b6200045d6200054036600462003ceb565b62001057565b6200045d6200055736600462003e21565b62001079565b6200045d6200056e36600462003f26565b6200120c565b620003916200058536600462003c3b565b620012e8565b620003bb6200059c36600462003d2c565b62001368565b62000391620005b336600462003c3b565b60066020526000908152604090205481565b6200042d620005d636600462003be6565b620013e2565b6200045d620005ed36600462003be6565b62001445565b6200042d6200060436600462003c3b565b62001473565b620003bb6200061b36600462003be6565b600c6020526000908152604090205460ff1681565b620003916200064136600462003be6565b62001480565b620003916200065836600462003be6565b620014b8565b6200045d62001517565b620003916200067936600462003cbe565b6200152f565b600d5462000391565b6200069f6200069936600462003be6565b62001561565b6040516200039b919062003f90565b6200045d620006bf36600462003be6565b620015cf565b7f9016d09d72d40fdae2fd8ceac6b6234c7706214fd39c1cd1e609a0528c199300546001600160a01b03166200042d565b62000407620015fa565b620003bb6200071136600462003c3b565b6200163c565b6200042d6200072836600462003be6565b6200189d565b620003916200073f36600462003c3b565b60056020526000908152604090205481565b6200045d6200076236600462003fe5565b6200197a565b620003bb6200077936600462003be6565b60046020526000908152604090205460ff1681565b620007a56200079f36600462004021565b62001987565b6040516200039b91906200409a565b62000391620007c536600462003be6565b60016020526000908152604090205481565b620003bb620007e836600462003c3b565b62001a81565b6200045d620007ff36600462004102565b62001cc8565b60075462000391565b620004076200081f36600462003c3b565b62001ce3565b6002546200042d906001600160a01b031681565b6200045d6200084a36600462004171565b62002079565b6200039162000861366004620041d5565b62002501565b620003bb6200087836600462003e21565b6200271e565b620003916200276b565b6200045d6200089936600462003be6565b62002799565b62000391620027dd565b6200042d620008ba36600462003c3b565b620027f1565b60085462000391565b60006001600160e01b0319821663780e9d6360e01b1480620008f15750620008f1826200281c565b92915050565b60008051602062005ac283398151915280546060919081906200091a9062004302565b80601f0160208091040260200160405190810160405280929190818152602001828054620009489062004302565b8015620009995780601f106200096d5761010080835404028352916020019162000999565b820191906000526020600020905b8154815290600101906020018083116200097b57829003601f168201915b505050505091505090565b6000620009b1826200286f565b50620008f182620028ab565b620009ca828233620028e5565b5050565b600062000a8f8260001b60405180602001620009ea9062003bad565b601f1982820381018352601f9091011660408190526000546001600160a01b03888116602484015216906044015b60408051601f19818403018152918152602080830180516001600160e01b031663189acdbd60e31b179052905162000a53939291016200433e565b60408051601f198184030181529082905262000a73929160200162004382565b60405160208183030381529060405280519060200120620028f4565b9392505050565b6001600160a01b03821662000ac657604051633250574960e11b8152600060048201526024015b60405180910390fd5b600062000ad583833362002903565b9050836001600160a01b0316816001600160a01b03161462000b25576040516364283d7b60e01b81526001600160a01b038086166004830152602482018490528216604482015260640162000abd565b50505050565b3360009081526004602052604090205460ff1662000b7b5760405162461bcd60e51b815260206004820152600c60248201526b2737ba1030b63637bbb2b21760a11b604482015260640162000abd565b60008281526003602052604090206005810154426001600160801b03909116111562000bd55760405162461bcd60e51b81526020600482015260086024820152672737ba103cb2ba1760c11b604482015260640162000abd565b600581015442600160801b9091046001600160801b0316101562000c285760405162461bcd60e51b815260206004820152600960248201526827baba3230ba32b21760b91b604482015260640162000abd565b60068101546001600160a01b03161562000c775760405162461bcd60e51b815260206004820152600f60248201526e20b63932b0b23c9039b7b63b32b21760891b604482015260640162000abd565b6040516370a0823160e01b81526001600160a01b0384811660048301528316906370a0823190602401602060405180830381865afa15801562000cbe573d6000803e3d6000fd5b505050506040513d601f19601f8201168201806040525081019062000ce49190620043b5565b60000362000d275760405162461bcd60e51b815260206004820152600f60248201526e2430bb32903737903130b233b2b99760891b604482015260640162000abd565b6006810180546001600160a01b0319166001600160a01b03179055600880546001919060009062000d5a908490620043e5565b9091555050505050565b604080516101008101825260608082526020820181905291810182905260009181018290526080810182905260a0810182905260c0810182905260e0810191909152600082815260036020526040908190208151610100810190925280548290829062000dd19062004302565b80601f016020809104026020016040519081016040528092919081815260200182805462000dff9062004302565b801562000e505780601f1062000e245761010080835404028352916020019162000e50565b820191906000526020600020905b81548152906001019060200180831162000e3257829003601f168201915b5050505050815260200160018201805462000e6b9062004302565b80601f016020809104026020016040519081016040528092919081815260200182805462000e999062004302565b801562000eea5780601f1062000ebe5761010080835404028352916020019162000eea565b820191906000526020600020905b81548152906001019060200180831162000ecc57829003601f168201915b5050505050815260200160028201805462000f059062004302565b80601f016020809104026020016040519081016040528092919081815260200182805462000f339062004302565b801562000f845780601f1062000f585761010080835404028352916020019162000f84565b820191906000526020600020905b81548152906001019060200180831162000f6657829003601f168201915b5050509183525050600382015460208201526004820154604082015260058201546001600160801b038082166060840152600160801b9091041660808201526006909101546001600160a01b031660a09091015292915050565b600060008051602062005aa283398151915262000ffb84620014b8565b83106200102e5760405163295f44f760e21b81526001600160a01b03851660048201526024810184905260440162000abd565b6001600160a01b0384166000908152602091825260408082208583529092522054905092915050565b620010748383836040518060200160405280600081525062001cc8565b505050565b7ff0c57e16840df040f15088dc2f81fe391c3923bec73e23a9662efc9c229c6a008054600160401b810460ff1615906001600160401b0316600081158015620010bf5750825b90506000826001600160401b03166001148015620010dc5750303b155b905081158015620010eb575080155b156200110a5760405163f92ee8a960e01b815260040160405180910390fd5b845467ffffffffffffffff1916600117855583156200113557845460ff60401b1916600160401b1785555b620011916040518060400160405280601781526020017f436170747572652d7468652d50726f6d70742047616d650000000000000000008152506040518060400160405280600381526020016204354560ec1b81525062002a14565b6200119b62002a4c565b620011a562002a56565b620011b08762002a6a565b620011bc878762002a74565b83156200120357845460ff60401b19168555604051600181527fc7f505b2f371ae2175ee4913f4499e1f2633a7b5936321eed1cdaeb6115181d29060200160405180910390a15b50505050505050565b7ff0c57e16840df040f15088dc2f81fe391c3923bec73e23a9662efc9c229c6a008054600160401b810460ff1615906001600160401b0316600081158015620012525750825b90506000826001600160401b031660011480156200126f5750303b155b9050811580156200127e575080155b156200129d5760405163f92ee8a960e01b815260040160405180910390fd5b845467ffffffffffffffff191660011785558315620012c857845460ff60401b1916600160401b1785555b620012d4878762002a14565b620012de62002a4c565b620011bc62002a56565b600060008051602062005aa28339815191526200131260008051602062005b6a8339815191525490565b83106200133d5760405163295f44f760e21b8152600060048201526024810184905260440162000abd565b806002018381548110620013555762001355620043fb565b9060005260206000200154915050919050565b6040516370a0823160e01b81526001600160a01b038381166004830152600091908316906370a0823190602401602060405180830381865afa158015620013b3573d6000803e3d6000fd5b505050506040513d601f19601f82011682018060405250810190620013d99190620043b5565b15159392505050565b6001600160a01b0381166000908152600160209081526040808320549051620008f1926200141290820162003bad565b601f1982820381018352601f9091011660408190526000546001600160a01b038781166024840152169060440162000a18565b6200144f62002ab6565b6001600160a01b03166000908152600460205260409020805460ff19166001179055565b6000620008f1826200286f565b60405162461bcd60e51b81526020600482015260096024820152682234b9b0b13632b21760b91b604482015260009060640162000abd565b600060008051602062005ac28339815191526001600160a01b038316620014f6576040516322718ad960e21b81526000600482015260240162000abd565b6001600160a01b039092166000908152600390920160205250604090205490565b6200152162002ab6565b6200152d600062002b14565b565b600960205281600052604060002081815481106200154c57600080fd5b90600052602060002001600091509150505481565b6001600160a01b038116600090815260096020908152604091829020805483518184028101840190945280845260609392830182828015620015c357602002820191906000526020600020905b815481526020019060010190808311620015ae575b50505050509050919050565b620015d962002ab6565b6001600160a01b03166000908152600460205260409020805460ff19169055565b7f80bb2b638cc20bc4d0a60d66940f3ab4a00c1d7b313497ca82fb0b4ab0079301805460609160008051602062005ac2833981519152916200091a9062004302565b60008181526003602052604080822081516101008101909252805483929190829082906200166a9062004302565b80601f0160208091040260200160405190810160405280929190818152602001828054620016989062004302565b8015620016e95780601f10620016bd57610100808354040283529160200191620016e9565b820191906000526020600020905b815481529060010190602001808311620016cb57829003601f168201915b50505050508152602001600182018054620017049062004302565b80601f0160208091040260200160405190810160405280929190818152602001828054620017329062004302565b8015620017835780601f10620017575761010080835404028352916020019162001783565b820191906000526020600020905b8154815290600101906020018083116200176557829003601f168201915b505050505081526020016002820180546200179e9062004302565b80601f0160208091040260200160405190810160405280929190818152602001828054620017cc9062004302565b80156200181d5780601f10620017f1576101008083540402835291602001916200181d565b820191906000526020600020905b815481529060010190602001808311620017ff57829003601f168201915b5050509183525050600382015460208201526004820154604082015260058201546001600160801b038082166060840152600160801b909104811660808301526006909201546001600160a01b031660a0918201528201519192504291161180159062000a8f5750428160c001516001600160801b031610159392505050565b600080620018ab83620013e2565b90506001600160a01b0381163b8015620018c6575092915050565b6001600160a01b0384166000908152600160205260408120805491620018ec8362004411565b909155506000546040516001600160a01b0387811660248301529091169060440160408051601f198184030181529181526020820180516001600160e01b031663189acdbd60e31b17905251620019439062003bad565b620019509291906200433e565b8190604051809103906000f590508015801562001971573d6000803e3d6000fd5b50949350505050565b620009ca33838362002b85565b604080516000815260208101909152606090826001600160401b03811115620019b457620019b462003e50565b604051908082528060200260200182016040528015620019e957816020015b6060815260200190600190039081620019d35790505b50915060005b8381101562001a795762001a503086868481811062001a125762001a12620043fb565b905060200281019062001a26919062004443565b8560405160200162001a3b9392919062004493565b60405160208183030381529060405262002c39565b83828151811062001a655762001a65620043fb565b6020908102919091010152600101620019ef565b505092915050565b600081815260036020526040808220815161010081019092528054839291908290829062001aaf9062004302565b80601f016020809104026020016040519081016040528092919081815260200182805462001add9062004302565b801562001b2e5780601f1062001b025761010080835404028352916020019162001b2e565b820191906000526020600020905b81548152906001019060200180831162001b1057829003601f168201915b5050505050815260200160018201805462001b499062004302565b80601f016020809104026020016040519081016040528092919081815260200182805462001b779062004302565b801562001bc85780601f1062001b9c5761010080835404028352916020019162001bc8565b820191906000526020600020905b81548152906001019060200180831162001baa57829003601f168201915b5050505050815260200160028201805462001be39062004302565b80601f016020809104026020016040519081016040528092919081815260200182805462001c119062004302565b801562001c625780601f1062001c365761010080835404028352916020019162001c62565b820191906000526020600020905b81548152906001019060200180831162001c4457829003601f168201915b5050509183525050600382015460208201526004820154604082015260058201546001600160801b038082166060840152600160801b909104811660808301526006909201546001600160a01b031660a09091015260c090910151429116109392505050565b62001cd584848462000a96565b62000b258484848462002cb5565b606062001cf0826200286f565b506000828152600360205260408082208151610100810190925280548290829062001d1b9062004302565b80601f016020809104026020016040519081016040528092919081815260200182805462001d499062004302565b801562001d9a5780601f1062001d6e5761010080835404028352916020019162001d9a565b820191906000526020600020905b81548152906001019060200180831162001d7c57829003601f168201915b5050505050815260200160018201805462001db59062004302565b80601f016020809104026020016040519081016040528092919081815260200182805462001de39062004302565b801562001e345780601f1062001e085761010080835404028352916020019162001e34565b820191906000526020600020905b81548152906001019060200180831162001e1657829003601f168201915b5050505050815260200160028201805462001e4f9062004302565b80601f016020809104026020016040519081016040528092919081815260200182805462001e7d9062004302565b801562001ece5780601f1062001ea25761010080835404028352916020019162001ece565b820191906000526020600020905b81548152906001019060200180831162001eb057829003601f168201915b505050918352505060038201546020808301919091526004830154604083015260058301546001600160801b03808216606080860191909152600160801b9092041660808401526006909301546001600160a01b031660a09092019190915282820151929350909160009162001f45919062002deb565b608084015162001f5790602062002deb565b60405160200162001f6a929190620044bc565b604051602081830303815290604052905082604001518162001f998560a001516001600160801b031662002f80565b62001fb18660c001516001600160801b031662002f80565b62001fc98760e001516001600160a01b031662003019565b60405160200162001fdf9594939291906200456e565b6040516020818303038152906040529150506200204f826000015183602001516200200962003031565b600088815260066020526040902054620020239062002f80565b856040516020016200203a9594939291906200474e565b60405160208183030381529060405262003052565b60405160200162002061919062004872565b60405160208183030381529060405292505050919050565b3360009081526004602052604090205460ff16620020c95760405162461bcd60e51b815260206004820152600c60248201526b2737ba1030b63637bbb2b21760a11b604482015260640162000abd565b604080516020808201879052818301869052825180830384018152606090920190925280519101207f19457468657265756d205369676e6564204d6573736167653a0a3332000000006000908152601c91909152603c90206001600160a01b038316620021378284620031c3565b6001600160a01b031614620021845760405162461bcd60e51b815260206004820152601260248201527124b73b30b634b21039b4b3b730ba3ab9329760711b604482015260640162000abd565b6000858152600360209081526040918290208251918201879052910160405160208183030381529060405280519060200120816004015414620022005760405162461bcd60e51b815260206004820152601360248201527224b73b30b634b21039b2b1b932ba2430b9b41760691b604482015260640162000abd565b6005810154426001600160801b0390911611156200224c5760405162461bcd60e51b81526020600482015260086024820152672737ba103cb2ba1760c11b604482015260640162000abd565b600581015442600160801b9091046001600160801b031610156200229f5760405162461bcd60e51b815260206004820152600960248201526827baba3230ba32b21760b91b604482015260640162000abd565b60068101546001600160a01b031615620022ee5760405162461bcd60e51b815260206004820152600f60248201526e20b63932b0b23c9039b7b63b32b21760891b604482015260640162000abd565b6006810180546001600160a01b0319166001600160a01b038616179055600780546001919060009062002323908490620043e5565b90915550506001600160a01b0384166000818152600960209081526040808320805460018181018355918552838520018b9055938352600a9091528120805490919062002372908490620043e5565b90915550506002546040516370a0823160e01b81526001600160a01b038881166004830152909116906370a0823190602401602060405180830381865afa158015620023c2573d6000803e3d6000fd5b505050506040513d601f19601f82011682018060405250810190620023e89190620043b5565b6001600160a01b0385166000908152600b60205260408120805490919062002412908490620043e5565b909155505060405163189acdbd60e31b81526001600160a01b03858116600483015287169063c4d66de890602401600060405180830381600087803b1580156200245b57600080fd5b505af115801562002470573d6000803e3d6000fd5b505050506001600160a01b0384166000908152600c602052604090205460ff16620024f957600d805460018082019092557fd7b6990105719101dabeb77144f2a3385c8033acd3af97e9423a695e81ad1eb50180546001600160a01b0319166001600160a01b0387169081179091556000908152600c60205260409020805460ff191690911790555b505050505050565b6000806200250f856200189d565b9050806001600160a01b03169150620025298583620031f1565b8215620025c0576002546001600160a01b03166323b872dd336040516001600160e01b031960e084901b1681526001600160a01b0391821660048201529084166024820152604481018690526064016020604051808303816000875af115801562002598573d6000803e3d6000fd5b505050506040513d601f19601f82011682018060405250810190620025be9190620048b9565b505b5060006001620025dd60008051602062005b6a8339815191525490565b620025e991906200442d565b600081815260056020908152604080832086905585835260068252808320939093558251610100810184528751815287820151818301528784015181850152606080890151908201526080808901519082015260a0808901516001600160801b039081169183019190915260c0808a01519091169082015260e081018390528583526003909152919020815191925090819062002687908262004925565b50602082015160018201906200269e908262004925565b5060408201516002820190620026b5908262004925565b50606082015160038201556080820151600482015560a082015160c08301516001600160801b03908116600160801b02911617600582015560e090910151600690910180546001600160a01b039092166001600160a01b03199092169190911790559392505050565b6001600160a01b0391821660009081527f80bb2b638cc20bc4d0a60d66940f3ab4a00c1d7b313497ca82fb0b4ab00793056020908152604080832093909416825291909152205460ff1690565b600062002777620027dd565b60008051602062005b6a833981519152546200279491906200442d565b905090565b620027a362002ab6565b6001600160a01b038116620027cf57604051631e4fbdf760e01b81526000600482015260240162000abd565b620027da8162002b14565b50565b6000600854600754620027949190620043e5565b600d81815481106200280257600080fd5b6000918252602090912001546001600160a01b0316905081565b60006001600160e01b031982166380ac58cd60e01b14806200284e57506001600160e01b03198216635b5e139f60e01b145b80620008f157506301ffc9a760e01b6001600160e01b0319831614620008f1565b6000806200287d836200325c565b90506001600160a01b038116620008f157604051637e27328960e01b81526004810184905260240162000abd565b60009081527f80bb2b638cc20bc4d0a60d66940f3ab4a00c1d7b313497ca82fb0b4ab007930460205260409020546001600160a01b031690565b62001074838383600162003296565b600062000a8f838330620033b8565b60008062002913858585620033e2565b90506001600160a01b038116620029a0576200299a8460008051602062005b6a833981519152805460008381527f645e039705490088daad89bae25049a34f4a9072d398537b1ab2425f24cbed0360205260408120829055600182018355919091527fa42f15e5d656f8155fd7419d740a6073999f19cd6e061449ce4a257150545bf20155565b620029c6565b846001600160a01b0316816001600160a01b031614620029c657620029c68185620034f6565b6001600160a01b038516620029e657620029e0846200359e565b62002a0c565b846001600160a01b0316816001600160a01b03161462002a0c5762002a0c858562003682565b949350505050565b62002a1e620036e2565b60008051602062005ac28339815191528062002a3b848262004925565b506001810162000b25838262004925565b6200152d620036e2565b62002a60620036e2565b6200152d6200372c565b620027a3620036e2565b62002a7e620036e2565b600280546001600160a01b0319166001600160a01b03928316179055166000908152600460205260409020805460ff19166001179055565b3362002ae97f9016d09d72d40fdae2fd8ceac6b6234c7706214fd39c1cd1e609a0528c199300546001600160a01b031690565b6001600160a01b0316146200152d5760405163118cdaa760e01b815233600482015260240162000abd565b7f9016d09d72d40fdae2fd8ceac6b6234c7706214fd39c1cd1e609a0528c19930080546001600160a01b031981166001600160a01b03848116918217845560405192169182907f8be0079c531659141344cd1fd0a4f28419497f9722a3daafe3b4186f6b6457e090600090a3505050565b60008051602062005ac28339815191526001600160a01b03831662002bc957604051630b61174360e31b81526001600160a01b038416600482015260240162000abd565b6001600160a01b038481166000818152600584016020908152604080832094881680845294825291829020805460ff191687151590811790915591519182527f17307eab39ab6107e8899845ad3d59bd9653f200f220920489ca2b5937696c31910160405180910390a350505050565b6060600080846001600160a01b03168460405162002c589190620049f1565b600060405180830381855af49150503d806000811462002c95576040519150601f19603f3d011682016040523d82523d6000602084013e62002c9a565b606091505b509150915062002cac8583836200377a565b95945050505050565b6001600160a01b0383163b1562000b2557604051630a85bd0160e11b81526001600160a01b0384169063150b7a029062002cfa90339088908790879060040162004a0f565b6020604051808303816000875af192505050801562002d38575060408051601f3d908101601f1916820190925262002d359181019062004a4e565b60015b62002da6573d80801562002d69576040519150601f19603f3d011682016040523d82523d6000602084013e62002d6e565b606091505b50805160000362002d9e57604051633250574960e11b81526001600160a01b038516600482015260240162000abd565b805181602001fd5b6001600160e01b03198116630a85bd0160e11b1462002de457604051633250574960e11b81526001600160a01b038516600482015260240162000abd565b5050505050565b606082600062002dfd84600262004a6e565b62002e0a906002620043e5565b6001600160401b0381111562002e245762002e2462003e50565b6040519080825280601f01601f19166020018201604052801562002e4f576020820181803683370190505b509050600360fc1b8160008151811062002e6d5762002e6d620043fb565b60200101906001600160f81b031916908160001a905350600f60fb1b8160018151811062002e9f5762002e9f620043fb565b60200101906001600160f81b031916908160001a905350600062002ec585600262004a6e565b62002ed2906001620043e5565b90505b600181111562002f54576f181899199a1a9b1b9c1cb0b131b232b360811b83600f166010811062002f0a5762002f0a620043fb565b1a60f81b82828151811062002f235762002f23620043fb565b60200101906001600160f81b031916908160001a90535060049290921c9162002f4c8162004a88565b905062002ed5565b50811562002a0c5760405163e22e27eb60e01b8152600481018690526024810185905260440162000abd565b6060600062002f8f83620037de565b60010190506000816001600160401b0381111562002fb15762002fb162003e50565b6040519080825280601f01601f19166020018201604052801562002fdc576020820181803683370190505b5090508181016020015b600019016f181899199a1a9b1b9c1cb0b131b232b360811b600a86061a8153600a850494508462002fe657509392505050565b6060620008f16001600160a01b038316601462002deb565b606060405180608001604052806048815260200162005ae260489139905090565b606081516000036200307257505060408051602081019091526000815290565b600060405180606001604052806040815260200162005b2a6040913990506000600384516002620030a49190620043e5565b620030b0919062004aa2565b620030bd90600462004a6e565b6001600160401b03811115620030d757620030d762003e50565b6040519080825280601f01601f19166020018201604052801562003102576020820181803683370190505b50905060018201602082018586518701602081018051600082525b828410156200317a576003840193508351603f8160121c168701518653600186019550603f81600c1c168701518653600186019550603f8160061c168701518653600186019550603f81168701518653506001850194506200311d565b90525050855160039006600181146200319c5760028114620031b057620031b8565b603d6001830353603d6002830353620031b8565b603d60018303535b509195945050505050565b600080600080620031d58686620038bd565b925092509250620031e782826200390e565b5090949350505050565b6001600160a01b0382166200321d57604051633250574960e11b81526000600482015260240162000abd565b60006200322d8383600062002903565b90506001600160a01b0381161562001074576040516339e3563760e11b81526000600482015260240162000abd565b60009081527f80bb2b638cc20bc4d0a60d66940f3ab4a00c1d7b313497ca82fb0b4ab007930260205260409020546001600160a01b031690565b60008051602062005ac28339815191528180620032bb57506001600160a01b03831615155b1562003387576000620032ce856200286f565b90506001600160a01b03841615801590620032fb5750836001600160a01b0316816001600160a01b031614155b80156200331157506200330f81856200271e565b155b156200333c5760405163a9fbf51f60e01b81526001600160a01b038516600482015260240162000abd565b8215620033855784866001600160a01b0316826001600160a01b03167f8c5be1e5ebec7d5bd14f71427d1e84f3dd0314c0f7b2291e5b200ac8c7c3b92560405160405180910390a45b505b600093845260040160205250506040902080546001600160a01b0319166001600160a01b0392909216919091179055565b6000604051836040820152846020820152828152600b8101905060ff815360559020949350505050565b600060008051602062005ac28339815191528162003400856200325c565b90506001600160a01b038416156200341f576200341f818587620039d9565b6001600160a01b0381161562003462576200343f60008660008062003296565b6001600160a01b0381166000908152600383016020526040902080546000190190555b6001600160a01b0386161562003494576001600160a01b03861660009081526003830160205260409020805460010190555b600085815260028301602052604080822080546001600160a01b0319166001600160a01b038a811691821790925591518893918516917fddf252ad1be2c89b69c2b068fc378daa952ba7f163c4a11628f55a4df523b3ef91a495945050505050565b60008051602062005aa283398151915260006200351384620014b8565b600084815260018401602052604090205490915080821462003569576001600160a01b03851660009081526020848152604080832085845282528083205484845281842081905583526001860190915290208190555b50600092835260018201602090815260408085208590556001600160a01b039095168452918252838320908352905290812055565b60008051602062005b6a8339815191525460008051602062005aa283398151915290600090620035d1906001906200442d565b6000848152600384016020526040812054600285018054939450909284908110620036005762003600620043fb565b9060005260206000200154905080846002018381548110620036265762003626620043fb565b60009182526020808320909101929092558281526003860190915260408082208490558682528120556002840180548062003665576200366562004ac5565b600190038181906000526020600020016000905590555050505050565b60008051602062005aa283398151915260006001620036a185620014b8565b620036ad91906200442d565b6001600160a01b0390941660009081526020838152604080832087845282528083208690559482526001909301909252502055565b7ff0c57e16840df040f15088dc2f81fe391c3923bec73e23a9662efc9c229c6a0054600160401b900460ff166200152d57604051631afcd79f60e31b815260040160405180910390fd5b6040516200373a9062003bbb565b604051809103906000f08015801562003757573d6000803e3d6000fd5b50600080546001600160a01b0319166001600160a01b0392909216919091179055565b60608262003793576200378d8262003a43565b62000a8f565b8151158015620037ab57506001600160a01b0384163b155b15620037d657604051639996b31560e01b81526001600160a01b038516600482015260240162000abd565b508062000a8f565b60008072184f03e93ff9f4daa797ed6e38ed64bf6a1f0160401b83106200381e5772184f03e93ff9f4daa797ed6e38ed64bf6a1f0160401b830492506040015b6d04ee2d6d415b85acef810000000083106200384b576d04ee2d6d415b85acef8100000000830492506020015b662386f26fc1000083106200386a57662386f26fc10000830492506010015b6305f5e100831062003883576305f5e100830492506008015b61271083106200389857612710830492506004015b60648310620038ab576064830492506002015b600a8310620008f15760010192915050565b60008060008351604103620038fb5760208401516040850151606086015160001a620038ec8882858562003a6d565b95509550955050505062003907565b50508151600091506002905b9250925092565b600082600381111562003925576200392562004adb565b036200392f575050565b600182600381111562003946576200394662004adb565b03620039655760405163f645eedf60e01b815260040160405180910390fd5b60028260038111156200397c576200397c62004adb565b036200399f5760405163fce698f760e01b81526004810182905260240162000abd565b6003826003811115620039b657620039b662004adb565b03620009ca576040516335e2f38360e21b81526004810182905260240162000abd565b620039e683838362003b41565b62001074576001600160a01b03831662003a1757604051637e27328960e01b81526004810182905260240162000abd565b60405163177e802f60e01b81526001600160a01b03831660048201526024810182905260440162000abd565b80511562003a545780518082602001fd5b604051630a12f52160e11b815260040160405180910390fd5b600080807f7fffffffffffffffffffffffffffffff5d576e7357a4501ddfe92f46681b20a084111562003aaa575060009150600390508262003b37565b604080516000808252602082018084528a905260ff891692820192909252606081018790526080810186905260019060a0016020604051602081039080840390855afa15801562003aff573d6000803e3d6000fd5b5050604051601f1901519150506001600160a01b03811662003b2d5750600092506001915082905062003b37565b9250600091508190505b9450945094915050565b60006001600160a01b0383161580159062002a0c5750826001600160a01b0316846001600160a01b0316148062003b7f575062003b7f84846200271e565b8062002a0c5750826001600160a01b031662003b9b83620028ab565b6001600160a01b031614949350505050565b61040a8062004af283390190565b610ba68062004efc83390190565b80356001600160a01b038116811462003be157600080fd5b919050565b60006020828403121562003bf957600080fd5b62000a8f8262003bc9565b6001600160e01b031981168114620027da57600080fd5b60006020828403121562003c2e57600080fd5b813562000a8f8162003c04565b60006020828403121562003c4e57600080fd5b5035919050565b60005b8381101562003c7257818101518382015260200162003c58565b50506000910152565b6000815180845262003c9581602086016020860162003c55565b601f01601f19169290920160200192915050565b60208152600062000a8f602083018462003c7b565b6000806040838503121562003cd257600080fd5b62003cdd8362003bc9565b946020939093013593505050565b60008060006060848603121562003d0157600080fd5b62003d0c8462003bc9565b925062003d1c6020850162003bc9565b9150604084013590509250925092565b6000806040838503121562003d4057600080fd5b8235915062003d526020840162003bc9565b90509250929050565b602081526000825161010080602085015262003d7c61012085018362003c7b565b91506020850151601f198086850301604087015262003d9c848362003c7b565b935060408701519150808685030160608701525062003dbc838262003c7b565b92505060608501516080850152608085015160a085015260a085015162003dee60c08601826001600160801b03169052565b5060c08501516001600160801b03811660e08601525060e08501516001600160a01b038116858301525090949350505050565b6000806040838503121562003e3557600080fd5b62003e408362003bc9565b915062003d526020840162003bc9565b634e487b7160e01b600052604160045260246000fd5b60405161010081016001600160401b038111828210171562003e8c5762003e8c62003e50565b60405290565b600082601f83011262003ea457600080fd5b81356001600160401b038082111562003ec15762003ec162003e50565b604051601f8301601f19908116603f0116810190828211818310171562003eec5762003eec62003e50565b8160405283815286602085880101111562003f0657600080fd5b836020870160208301376000602085830101528094505050505092915050565b6000806040838503121562003f3a57600080fd5b82356001600160401b038082111562003f5257600080fd5b62003f608683870162003e92565b9350602085013591508082111562003f7757600080fd5b5062003f868582860162003e92565b9150509250929050565b6020808252825182820181905260009190848201906040850190845b8181101562003fca5783518352928401929184019160010162003fac565b50909695505050505050565b8015158114620027da57600080fd5b6000806040838503121562003ff957600080fd5b620040048362003bc9565b91506020830135620040168162003fd6565b809150509250929050565b600080602083850312156200403557600080fd5b82356001600160401b03808211156200404d57600080fd5b818501915085601f8301126200406257600080fd5b8135818111156200407257600080fd5b8660208260051b85010111156200408857600080fd5b60209290920196919550909350505050565b600060208083016020845280855180835260408601915060408160051b87010192506020870160005b82811015620040f557603f19888603018452620040e285835162003c7b565b94509285019290850190600101620040c3565b5092979650505050505050565b600080600080608085870312156200411957600080fd5b620041248562003bc9565b9350620041346020860162003bc9565b92506040850135915060608501356001600160401b038111156200415757600080fd5b620041658782880162003e92565b91505092959194509250565b600080600080608085870312156200418857600080fd5b8435935060208501359250620041a16040860162003bc9565b915060608501356001600160401b038111156200415757600080fd5b80356001600160801b038116811462003be157600080fd5b600080600060608486031215620041eb57600080fd5b620041f68462003bc9565b925060208401356001600160401b03808211156200421357600080fd5b9085019061010082880312156200422957600080fd5b6200423362003e66565b8235828111156200424357600080fd5b620042518982860162003e92565b8252506020830135828111156200426757600080fd5b620042758982860162003e92565b6020830152506040830135828111156200428e57600080fd5b6200429c8982860162003e92565b6040830152506060830135606082015260808301356080820152620042c460a08401620041bd565b60a0820152620042d760c08401620041bd565b60c0820152620042ea60e0840162003bc9565b60e08201529497949650505050604092909201359150565b600181811c908216806200431757607f821691505b6020821081036200433857634e487b7160e01b600052602260045260246000fd5b50919050565b6001600160a01b038316815260406020820181905260009062002a0c9083018462003c7b565b600081516200437881856020860162003c55565b9290920192915050565b600083516200439681846020880162003c55565b835190830190620043ac81836020880162003c55565b01949350505050565b600060208284031215620043c857600080fd5b5051919050565b634e487b7160e01b600052601160045260246000fd5b80820180821115620008f157620008f1620043cf565b634e487b7160e01b600052603260045260246000fd5b600060018201620044265762004426620043cf565b5060010190565b81810381811115620008f157620008f1620043cf565b6000808335601e198436030181126200445b57600080fd5b8301803591506001600160401b038211156200447657600080fd5b6020019150368190038213156200448c57600080fd5b9250929050565b828482376000838201600081528351620044b281836020880162003c55565b0195945050505050565b7f7b2274726169745f74797065223a202250726f6d7074222c202276616c75652281526000621d101160e91b80602084015284516200450381602386016020890162003c55565b62089f4b60ea1b60239185019182018190527f7b2274726169745f74797065223a2022536563726574222c202276616c756522602683015260468201929092528451916200455983604984016020890162003c55565b91016049810191909152604c01949350505050565b605b60f81b81527f7b2274726169745f74797065223a202254797065222c202276616c7565223a206001820152601160f91b60218201528551600090620045bd816022850160208b0162003c55565b62089f4b60ea1b6022918401918201528651620045e2816025840160208b0162003c55565b7f7b22646973706c61795f74797065223a202264617465222c202274726169745f602592909101918201527f74797065223a202253746172742064617465222c202276616c7565223a2022006045820152855162004648816064840160208a0162003c55565b6200474162004734620047266200471f620046e2620046d3620046cc6200467d6064898b010162089f4b60ea1b815260030190565b7f7b22646973706c61795f74797065223a202264617465222c202274726169745f81527f74797065223a2022456e642064617465222c202276616c7565223a20220000006020820152603d0190565b8c62004364565b62089f4b60ea1b815260030190565b7f7b2274726169745f74797065223a202257696e6e65722061646472657373222c81526a10113b30b63ab2911d101160a91b6020820152602b0190565b8862004364565b61227d60f01b815260020190565b605d60f81b815260010190565b9998505050505050505050565b607b60f81b815268113730b6b2911d101160b91b600182015285516000906200477f81600a850160208b0162003c55565b6201116160ed1b600a9184019182018190526f113232b9b1b934b83a34b7b7111d101160811b600d8301528751620047bf81601d850160208c0162003c55565b80830192505080601d83015250691134b6b0b3b2911d101160b11b60208201528551620047f481602a840160208a0162003c55565b85519101906200480c81602a84016020890162003c55565b62004741620048656200485e6200484562004836602a86880101632e706e6760e01b815260040190565b6201116160ed1b815260030190565b6c1130ba3a3934b13aba32b9911d60991b8152600d0190565b8762004364565b607d60f81b815260010190565b7f646174613a6170706c69636174696f6e2f6a736f6e3b6261736536342c000000815260008251620048ac81601d85016020870162003c55565b91909101601d0192915050565b600060208284031215620048cc57600080fd5b815162000a8f8162003fd6565b601f82111562001074576000816000526020600020601f850160051c81016020861015620049045750805b601f850160051c820191505b81811015620024f95782815560010162004910565b81516001600160401b0381111562004941576200494162003e50565b620049598162004952845462004302565b84620048d9565b602080601f831160018114620049915760008415620049785750858301515b600019600386901b1c1916600185901b178555620024f9565b600085815260208120601f198616915b82811015620049c257888601518255948401946001909101908401620049a1565b5085821015620049e15787850151600019600388901b60f8161c191681555b5050505050600190811b01905550565b6000825162004a0581846020870162003c55565b9190910192915050565b6001600160a01b038581168252841660208201526040810183905260806060820181905260009062004a449083018462003c7b565b9695505050505050565b60006020828403121562004a6157600080fd5b815162000a8f8162003c04565b8082028115828204841417620008f157620008f1620043cf565b60008162004a9a5762004a9a620043cf565b506000190190565b60008262004ac057634e487b7160e01b600052601260045260246000fd5b500490565b634e487b7160e01b600052603160045260246000fd5b634e487b7160e01b600052602160045260246000fdfe608060405260405161040a38038061040a83398101604081905261002291610268565b61002c8282610033565b5050610352565b61003c82610092565b6040516001600160a01b038316907fbc7cd75a20ee27fd9adebab32041f755214dbc6bffa90cc0225b39da2e5c2d3b90600090a280511561008657610081828261010e565b505050565b61008e610185565b5050565b806001600160a01b03163b6000036100cd57604051634c9c8ce360e01b81526001600160a01b03821660048201526024015b60405180910390fd5b7f360894a13ba1a3210667c828492db98dca3e2076cc3735a920a3ca505d382bbc80546001600160a01b0319166001600160a01b0392909216919091179055565b6060600080846001600160a01b03168460405161012b9190610336565b600060405180830381855af49150503d8060008114610166576040519150601f19603f3d011682016040523d82523d6000602084013e61016b565b606091505b50909250905061017c8583836101a6565b95945050505050565b34156101a45760405163b398979f60e01b815260040160405180910390fd5b565b6060826101bb576101b682610205565b6101fe565b81511580156101d257506001600160a01b0384163b155b156101fb57604051639996b31560e01b81526001600160a01b03851660048201526024016100c4565b50805b9392505050565b8051156102155780518082602001fd5b604051630a12f52160e11b815260040160405180910390fd5b634e487b7160e01b600052604160045260246000fd5b60005b8381101561025f578181015183820152602001610247565b50506000910152565b6000806040838503121561027b57600080fd5b82516001600160a01b038116811461029257600080fd5b60208401519092506001600160401b03808211156102af57600080fd5b818501915085601f8301126102c357600080fd5b8151818111156102d5576102d561022e565b604051601f8201601f19908116603f011681019083821181831017156102fd576102fd61022e565b8160405282815288602084870101111561031657600080fd5b610327836020830160208801610244565b80955050505050509250929050565b60008251610348818460208701610244565b9190910192915050565b60aa806103606000396000f3fe6080604052600a600c565b005b60186014601a565b6051565b565b6000604c7f360894a13ba1a3210667c828492db98dca3e2076cc3735a920a3ca505d382bbc546001600160a01b031690565b905090565b3660008037600080366000845af43d6000803e808015606f573d6000f35b3d6000fdfea2646970667358221220bd42728c374f7f0ddc17b53ec61cdb40d51094c5fa601cbd894add86d0771b8264736f6c6343000818003360a060405234801561001057600080fd5b50338061003757604051631e4fbdf760e01b81526000600482015260240160405180910390fd5b6100408161004a565b503360805261009a565b600080546001600160a01b038381166001600160a01b0319831681178455604051919092169283917f8be0079c531659141344cd1fd0a4f28419497f9722a3daafe3b4186f6b6457e09190a35050565b608051610aea6100bc6000396000818161017001526104d40152610aea6000f3fe60806040526004361061007f5760003560e01c8063b61d27f61161004e578063b61d27f61461013e578063c45a01551461015e578063c4d66de814610192578063f2fde38b146101b257600080fd5b8063150b7a021461008b57806347e1da2a146100d5578063715018a6146100f55780638da5cb5b1461010c57600080fd5b3661008657005b600080fd5b34801561009757600080fd5b506100b76100a63660046106e7565b630a85bd0160e11b95945050505050565b6040516001600160e01b031990911681526020015b60405180910390f35b6100e86100e336600461079b565b6101d2565b6040516100cc9190610885565b34801561010157600080fd5b5061010a610461565b005b34801561011857600080fd5b506000546001600160a01b03165b6040516001600160a01b0390911681526020016100cc565b61015161014c3660046108e9565b610475565b6040516100cc9190610943565b34801561016a57600080fd5b506101267f000000000000000000000000000000000000000000000000000000000000000081565b34801561019e57600080fd5b5061010a6101ad36600461095d565b6104c9565b3480156101be57600080fd5b5061010a6101cd36600461095d565b610520565b60606101dc610552565b85821480156101f257508315806101f257508382145b6102385760405162461bcd60e51b81526020600482015260126024820152710eee4dedcce40c2e4e4c2f240d8cadccee8d60731b60448201526064015b60405180910390fd5b8167ffffffffffffffff81111561025157610251610978565b60405190808252806020026020018201604052801561028457816020015b606081526020019060019003908161026f5790505b509050600084900361036a5760005b868110156103645760008888838181106102af576102af61098e565b90506020020160208101906102c4919061095d565b90503660008686858181106102db576102db61098e565b90506020028101906102ed91906109a4565b91509150600061033584600085858080601f01602080910402602001604051908101604052809392919081815260200183838082843760009201919091525061057f92505050565b90508086868151811061034a5761034a61098e565b602002602001018190525084600101945050505050610293565b50610457565b60005b868110156104555760008888838181106103895761038961098e565b905060200201602081019061039e919061095d565b90503660008686858181106103b5576103b561098e565b90506020028101906103c791906109a4565b915091506000610426848b8b888181106103e3576103e361098e565b9050602002013585858080601f01602080910402602001604051908101604052809392919081815260200183838082843760009201919091525061057f92505050565b90508086868151811061043b5761043b61098e565b60200260200101819052508460010194505050505061036d565b505b9695505050505050565b610469610552565b6104736000610632565b565b606061047f610552565b6104c0858585858080601f01602080910402602001604051908101604052809392919081815260200183838082843760009201919091525061057f92505050565b95945050505050565b336001600160a01b037f000000000000000000000000000000000000000000000000000000000000000016146105145760405163118cdaa760e01b815233600482015260240161022f565b61051d81610632565b50565b610528610552565b6001600160a01b03811661051457604051631e4fbdf760e01b81526000600482015260240161022f565b6000546001600160a01b031633146104735760405163118cdaa760e01b815233600482015260240161022f565b60606000846001600160a01b0316848460405161059c91906109eb565b60006040518083038185875af1925050503d80600081146105d9576040519150601f19603f3d011682016040523d82523d6000602084013e6105de565b606091505b50925090508061062a576044825110156105f757600080fd5b600482019150818060200190518101906106119190610a07565b60405162461bcd60e51b815260040161022f9190610943565b509392505050565b600080546001600160a01b038381166001600160a01b0319831681178455604051919092169283917f8be0079c531659141344cd1fd0a4f28419497f9722a3daafe3b4186f6b6457e09190a35050565b80356001600160a01b038116811461069957600080fd5b919050565b60008083601f8401126106b057600080fd5b50813567ffffffffffffffff8111156106c857600080fd5b6020830191508360208285010111156106e057600080fd5b9250929050565b6000806000806000608086880312156106ff57600080fd5b61070886610682565b945061071660208701610682565b935060408601359250606086013567ffffffffffffffff81111561073957600080fd5b6107458882890161069e565b969995985093965092949392505050565b60008083601f84011261076857600080fd5b50813567ffffffffffffffff81111561078057600080fd5b6020830191508360208260051b85010111156106e057600080fd5b600080600080600080606087890312156107b457600080fd5b863567ffffffffffffffff808211156107cc57600080fd5b6107d88a838b01610756565b909850965060208901359150808211156107f157600080fd5b6107fd8a838b01610756565b9096509450604089013591508082111561081657600080fd5b5061082389828a01610756565b979a9699509497509295939492505050565b60005b83811015610850578181015183820152602001610838565b50506000910152565b60008151808452610871816020860160208601610835565b601f01601f19169290920160200192915050565b600060208083016020845280855180835260408601915060408160051b87010192506020870160005b828110156108dc57603f198886030184526108ca858351610859565b945092850192908501906001016108ae565b5092979650505050505050565b600080600080606085870312156108ff57600080fd5b61090885610682565b935060208501359250604085013567ffffffffffffffff81111561092b57600080fd5b6109378782880161069e565b95989497509550505050565b6020815260006109566020830184610859565b9392505050565b60006020828403121561096f57600080fd5b61095682610682565b634e487b7160e01b600052604160045260246000fd5b634e487b7160e01b600052603260045260246000fd5b6000808335601e198436030181126109bb57600080fd5b83018035915067ffffffffffffffff8211156109d657600080fd5b6020019150368190038213156106e057600080fd5b600082516109fd818460208701610835565b9190910192915050565b600060208284031215610a1957600080fd5b815167ffffffffffffffff80821115610a3157600080fd5b818401915084601f830112610a4557600080fd5b815181811115610a5757610a57610978565b604051601f8201601f19908116603f01168101908382118183101715610a7f57610a7f610978565b81604052828152876020848701011115610a9857600080fd5b610aa9836020830160208801610835565b97965050505050505056fea26469706673582212209388cc9441e0986bee120b32be1c29eda96e129a50bcb254300c50efe2aac76364736f6c63430008180033645e039705490088daad89bae25049a34f4a9072d398537b1ab2425f24cbed0080bb2b638cc20bc4d0a60d66940f3ab4a00c1d7b313497ca82fb0b4ab007930068747470733a2f2f7261772e67697468756275736572636f6e74656e742e636f6d2f70726f6d70746f7765722f7765626170702f6d61696e2f7372632f6173736574732f6e66742f4142434445464748494a4b4c4d4e4f505152535455565758595a6162636465666768696a6b6c6d6e6f707172737475767778797a303132333435363738392b2f645e039705490088daad89bae25049a34f4a9072d398537b1ab2425f24cbed02a26469706673582212209806f4695177392d95c50d803f661803c0627a402b2916094032b9b05b081a6d64736f6c63430008180033",
  "linkReferences": {},
  "deployedLinkReferences": {}
}