{
  "_format": "hh-sol-artifact-1",
  "contractName": "Game",
  "sourceName": "contracts/Game.sol",
  "abi": [
    {
      "inputs": [],
      "stateMutability": "nonpayable",
      "type": "constructor"
    },
    {
      "inputs": [
        {
          "internalType": "address",
          "name": "target",
          "type": "address"
        }
      ],
      "name": "AddressEmptyCode",
      "type": "error"
    },
    {
      "inputs": [],
      "name": "ECDSAInvalidSignature",
      "type": "error"
    },
    {
      "inputs": [
        {
          "internalType": "uint256",
          "name": "length",
          "type": "uint256"
        }
      ],
      "name": "ECDSAInvalidSignatureLength",
      "type": "error"
    },
    {
      "inputs": [
        {
          "internalType": "bytes32",
          "name": "s",
          "type": "bytes32"
        }
      ],
      "name": "ECDSAInvalidSignatureS",
      "type": "error"
    },
    {
      "inputs": [],
      "name": "ERC721EnumerableForbiddenBatchMint",
      "type": "error"
    },
    {
      "inputs": [
        {
          "internalType": "address",
          "name": "sender",
          "type": "address"
        },
        {
          "internalType": "uint256",
          "name": "tokenId",
          "type": "uint256"
        },
        {
          "internalType": "address",
          "name": "owner",
          "type": "address"
        }
      ],
      "name": "ERC721IncorrectOwner",
      "type": "error"
    },
    {
      "inputs": [
        {
          "internalType": "address",
          "name": "operator",
          "type": "address"
        },
        {
          "internalType": "uint256",
          "name": "tokenId",
          "type": "uint256"
        }
      ],
      "name": "ERC721InsufficientApproval",
      "type": "error"
    },
    {
      "inputs": [
        {
          "internalType": "address",
          "name": "approver",
          "type": "address"
        }
      ],
      "name": "ERC721InvalidApprover",
      "type": "error"
    },
    {
      "inputs": [
        {
          "internalType": "address",
          "name": "operator",
          "type": "address"
        }
      ],
      "name": "ERC721InvalidOperator",
      "type": "error"
    },
    {
      "inputs": [
        {
          "internalType": "address",
          "name": "owner",
          "type": "address"
        }
      ],
      "name": "ERC721InvalidOwner",
      "type": "error"
    },
    {
      "inputs": [
        {
          "internalType": "address",
          "name": "receiver",
          "type": "address"
        }
      ],
      "name": "ERC721InvalidReceiver",
      "type": "error"
    },
    {
      "inputs": [
        {
          "internalType": "address",
          "name": "sender",
          "type": "address"
        }
      ],
      "name": "ERC721InvalidSender",
      "type": "error"
    },
    {
      "inputs": [
        {
          "internalType": "uint256",
          "name": "tokenId",
          "type": "uint256"
        }
      ],
      "name": "ERC721NonexistentToken",
      "type": "error"
    },
    {
      "inputs": [
        {
          "internalType": "address",
          "name": "owner",
          "type": "address"
        },
        {
          "internalType": "uint256",
          "name": "index",
          "type": "uint256"
        }
      ],
      "name": "ERC721OutOfBoundsIndex",
      "type": "error"
    },
    {
      "inputs": [],
      "name": "FailedInnerCall",
      "type": "error"
    },
    {
      "inputs": [],
      "name": "InvalidInitialization",
      "type": "error"
    },
    {
      "inputs": [],
      "name": "NotInitializing",
      "type": "error"
    },
    {
      "inputs": [
        {
          "internalType": "address",
          "name": "owner",
          "type": "address"
        }
      ],
      "name": "OwnableInvalidOwner",
      "type": "error"
    },
    {
      "inputs": [
        {
          "internalType": "address",
          "name": "account",
          "type": "address"
        }
      ],
      "name": "OwnableUnauthorizedAccount",
      "type": "error"
    },
    {
      "inputs": [
        {
          "internalType": "uint256",
          "name": "value",
          "type": "uint256"
        },
        {
          "internalType": "uint256",
          "name": "length",
          "type": "uint256"
        }
      ],
      "name": "StringsInsufficientHexLength",
      "type": "error"
    },
    {
      "anonymous": false,
      "inputs": [
        {
          "indexed": true,
          "internalType": "address",
          "name": "owner",
          "type": "address"
        },
        {
          "indexed": true,
          "internalType": "address",
          "name": "approved",
          "type": "address"
        },
        {
          "indexed": true,
          "internalType": "uint256",
          "name": "tokenId",
          "type": "uint256"
        }
      ],
      "name": "Approval",
      "type": "event"
    },
    {
      "anonymous": false,
      "inputs": [
        {
          "indexed": true,
          "internalType": "address",
          "name": "owner",
          "type": "address"
        },
        {
          "indexed": true,
          "internalType": "address",
          "name": "operator",
          "type": "address"
        },
        {
          "indexed": false,
          "internalType": "bool",
          "name": "approved",
          "type": "bool"
        }
      ],
      "name": "ApprovalForAll",
      "type": "event"
    },
    {
      "anonymous": false,
      "inputs": [
        {
          "indexed": false,
          "internalType": "uint64",
          "name": "version",
          "type": "uint64"
        }
      ],
      "name": "Initialized",
      "type": "event"
    },
    {
      "anonymous": false,
      "inputs": [
        {
          "indexed": true,
          "internalType": "address",
          "name": "previousOwner",
          "type": "address"
        },
        {
          "indexed": true,
          "internalType": "address",
          "name": "newOwner",
          "type": "address"
        }
      ],
      "name": "OwnershipTransferred",
      "type": "event"
    },
    {
      "anonymous": false,
      "inputs": [
        {
          "indexed": true,
          "internalType": "address",
          "name": "from",
          "type": "address"
        },
        {
          "indexed": true,
          "internalType": "address",
          "name": "to",
          "type": "address"
        },
        {
          "indexed": true,
          "internalType": "uint256",
          "name": "tokenId",
          "type": "uint256"
        }
      ],
      "name": "Transfer",
      "type": "event"
    },
    {
      "inputs": [],
      "name": "accountImplementation",
      "outputs": [
        {
          "internalType": "contract Wallet",
          "name": "",
          "type": "address"
        }
      ],
      "stateMutability": "view",
      "type": "function"
    },
    {
      "inputs": [
        {
          "internalType": "address",
          "name": "to",
          "type": "address"
        },
        {
          "internalType": "uint256",
          "name": "tokenId",
          "type": "uint256"
        }
      ],
      "name": "approve",
      "outputs": [],
      "stateMutability": "nonpayable",
      "type": "function"
    },
    {
      "inputs": [],
      "name": "awardToken",
      "outputs": [
        {
          "internalType": "address",
          "name": "",
          "type": "address"
        }
      ],
      "stateMutability": "view",
      "type": "function"
    },
    {
      "inputs": [
        {
          "internalType": "address",
          "name": "owner",
          "type": "address"
        }
      ],
      "name": "balanceOf",
      "outputs": [
        {
          "internalType": "uint256",
          "name": "",
          "type": "uint256"
        }
      ],
      "stateMutability": "view",
      "type": "function"
    },
    {
      "inputs": [
        {
          "internalType": "uint256",
          "name": "counter",
          "type": "uint256"
        }
      ],
      "name": "counterToTokenId",
      "outputs": [
        {
          "internalType": "uint256",
          "name": "tokenId",
          "type": "uint256"
        }
      ],
      "stateMutability": "view",
      "type": "function"
    },
    {
      "inputs": [
        {
          "internalType": "address",
          "name": "owner",
          "type": "address"
        }
      ],
      "name": "createAccount",
      "outputs": [
        {
          "internalType": "contract Wallet",
          "name": "ret",
          "type": "address"
        }
      ],
      "stateMutability": "nonpayable",
      "type": "function"
    },
    {
      "inputs": [],
      "name": "gameStatus",
      "outputs": [
        {
          "internalType": "uint256",
          "name": "totalChallanges",
          "type": "uint256"
        },
        {
          "internalType": "uint256",
          "name": "ongoingChallanges",
          "type": "uint256"
        },
        {
          "internalType": "uint256",
          "name": "solvedChallanges",
          "type": "uint256"
        },
        {
          "internalType": "uint256",
          "name": "verifiedChallanges",
          "type": "uint256"
        }
      ],
      "stateMutability": "view",
      "type": "function"
    },
    {
      "inputs": [
        {
          "internalType": "address",
          "name": "owner",
          "type": "address"
        },
        {
          "internalType": "uint256",
          "name": "salt",
          "type": "uint256"
        }
      ],
      "name": "getAccountAddress",
      "outputs": [
        {
          "internalType": "address",
          "name": "",
          "type": "address"
        }
      ],
      "stateMutability": "view",
      "type": "function"
    },
    {
      "inputs": [
        {
          "internalType": "address",
          "name": "owner",
          "type": "address"
        }
      ],
      "name": "getAccountAddress",
      "outputs": [
        {
          "internalType": "address",
          "name": "",
          "type": "address"
        }
      ],
      "stateMutability": "view",
      "type": "function"
    },
    {
      "inputs": [
        {
          "internalType": "uint256",
          "name": "tokenId",
          "type": "uint256"
        }
      ],
      "name": "getApproved",
      "outputs": [
        {
          "internalType": "address",
          "name": "",
          "type": "address"
        }
      ],
      "stateMutability": "view",
      "type": "function"
    },
    {
      "inputs": [
        {
          "internalType": "uint256",
          "name": "startNumber",
          "type": "uint256"
        },
        {
          "internalType": "uint256",
          "name": "endNumber",
          "type": "uint256"
        }
      ],
      "name": "getNfts",
      "outputs": [
        {
          "components": [
            {
              "internalType": "uint256",
              "name": "id",
              "type": "uint256"
            },
            {
              "internalType": "string",
              "name": "name",
              "type": "string"
            },
            {
              "internalType": "string",
              "name": "description",
              "type": "string"
            },
            {
              "internalType": "string",
              "name": "gameType",
              "type": "string"
            },
            {
              "internalType": "string",
              "name": "imageUri",
              "type": "string"
            },
            {
              "internalType": "uint128",
              "name": "startDate",
              "type": "uint128"
            },
            {
              "internalType": "uint128",
              "name": "endDate",
              "type": "uint128"
            },
            {
              "internalType": "uint256",
              "name": "awards",
              "type": "uint256"
            },
            {
              "internalType": "address",
              "name": "winner",
              "type": "address"
            }
          ],
          "internalType": "struct Game.NftData[]",
          "name": "data",
          "type": "tuple[]"
        }
      ],
      "stateMutability": "view",
      "type": "function"
    },
    {
      "inputs": [
        {
          "internalType": "address",
          "name": "user",
          "type": "address"
        }
      ],
      "name": "getPortfolioMaker",
      "outputs": [
        {
          "components": [
            {
              "internalType": "uint256",
              "name": "id",
              "type": "uint256"
            },
            {
              "internalType": "string",
              "name": "name",
              "type": "string"
            },
            {
              "internalType": "string",
              "name": "description",
              "type": "string"
            },
            {
              "internalType": "string",
              "name": "gameType",
              "type": "string"
            },
            {
              "internalType": "string",
              "name": "imageUri",
              "type": "string"
            },
            {
              "internalType": "uint128",
              "name": "startDate",
              "type": "uint128"
            },
            {
              "internalType": "uint128",
              "name": "endDate",
              "type": "uint128"
            },
            {
              "internalType": "uint256",
              "name": "awards",
              "type": "uint256"
            },
            {
              "internalType": "address",
              "name": "winner",
              "type": "address"
            }
          ],
          "internalType": "struct Game.NftData[]",
          "name": "data",
          "type": "tuple[]"
        }
      ],
      "stateMutability": "view",
      "type": "function"
    },
    {
      "inputs": [
        {
          "internalType": "address",
          "name": "user",
          "type": "address"
        }
      ],
      "name": "getPortfolioSolver",
      "outputs": [
        {
          "components": [
            {
              "internalType": "uint256",
              "name": "id",
              "type": "uint256"
            },
            {
              "internalType": "string",
              "name": "name",
              "type": "string"
            },
            {
              "internalType": "string",
              "name": "description",
              "type": "string"
            },
            {
              "internalType": "string",
              "name": "gameType",
              "type": "string"
            },
            {
              "internalType": "string",
              "name": "imageUri",
              "type": "string"
            },
            {
              "internalType": "uint128",
              "name": "startDate",
              "type": "uint128"
            },
            {
              "internalType": "uint128",
              "name": "endDate",
              "type": "uint128"
            },
            {
              "internalType": "uint256",
              "name": "awards",
              "type": "uint256"
            },
            {
              "internalType": "address",
              "name": "winner",
              "type": "address"
            }
          ],
          "internalType": "struct Game.NftData[]",
          "name": "data",
          "type": "tuple[]"
        }
      ],
      "stateMutability": "view",
      "type": "function"
    },
    {
      "inputs": [
        {
          "internalType": "uint256",
          "name": "tokenId",
          "type": "uint256"
        },
        {
          "internalType": "address",
          "name": "nftAddress",
          "type": "address"
        }
      ],
      "name": "hasBadge",
      "outputs": [
        {
          "internalType": "bool",
          "name": "",
          "type": "bool"
        }
      ],
      "stateMutability": "view",
      "type": "function"
    },
    {
      "inputs": [
        {
          "internalType": "address",
          "name": "initialOwner_",
          "type": "address"
        },
        {
          "internalType": "address",
          "name": "awardToken_",
          "type": "address"
        }
      ],
      "name": "initialize",
      "outputs": [],
      "stateMutability": "nonpayable",
      "type": "function"
    },
    {
      "inputs": [
        {
          "internalType": "string",
          "name": "name_",
          "type": "string"
        },
        {
          "internalType": "string",
          "name": "symbol_",
          "type": "string"
        }
      ],
      "name": "initialize",
      "outputs": [],
      "stateMutability": "nonpayable",
      "type": "function"
    },
    {
      "inputs": [
        {
          "internalType": "address",
          "name": "owner",
          "type": "address"
        },
        {
          "internalType": "address",
          "name": "operator",
          "type": "address"
        }
      ],
      "name": "isApprovedForAll",
      "outputs": [
        {
          "internalType": "bool",
          "name": "",
          "type": "bool"
        }
      ],
      "stateMutability": "view",
      "type": "function"
    },
    {
      "inputs": [
        {
          "internalType": "uint256",
          "name": "tokenId",
          "type": "uint256"
        }
      ],
      "name": "isEnded",
      "outputs": [
        {
          "internalType": "bool",
          "name": "",
          "type": "bool"
        }
      ],
      "stateMutability": "view",
      "type": "function"
    },
    {
      "inputs": [
        {
          "internalType": "uint256",
          "name": "tokenId",
          "type": "uint256"
        }
      ],
      "name": "isOngoing",
      "outputs": [
        {
          "internalType": "bool",
          "name": "",
          "type": "bool"
        }
      ],
      "stateMutability": "view",
      "type": "function"
    },
    {
      "inputs": [
        {
          "internalType": "uint256",
          "name": "tokenId",
          "type": "uint256"
        }
      ],
      "name": "isSolved",
      "outputs": [
        {
          "internalType": "bool",
          "name": "",
          "type": "bool"
        }
      ],
      "stateMutability": "view",
      "type": "function"
    },
    {
      "inputs": [
        {
          "internalType": "uint256",
          "name": "tokenId",
          "type": "uint256"
        }
      ],
      "name": "metas",
      "outputs": [
        {
          "internalType": "string",
          "name": "name",
          "type": "string"
        },
        {
          "internalType": "string",
          "name": "description",
          "type": "string"
        },
        {
          "internalType": "string",
          "name": "gameType",
          "type": "string"
        },
        {
          "internalType": "bytes32",
          "name": "prompt",
          "type": "bytes32"
        },
        {
          "internalType": "bytes32",
          "name": "secret",
          "type": "bytes32"
        },
        {
          "internalType": "uint128",
          "name": "start",
          "type": "uint128"
        },
        {
          "internalType": "uint128",
          "name": "end",
          "type": "uint128"
        },
        {
          "internalType": "address",
          "name": "winner",
          "type": "address"
        }
      ],
      "stateMutability": "view",
      "type": "function"
    },
    {
      "inputs": [
        {
          "internalType": "address",
          "name": "to",
          "type": "address"
        }
      ],
      "name": "mint",
      "outputs": [
        {
          "internalType": "uint256",
          "name": "tokenId",
          "type": "uint256"
        }
      ],
      "stateMutability": "pure",
      "type": "function"
    },
    {
      "inputs": [
        {
          "internalType": "address",
          "name": "to",
          "type": "address"
        },
        {
          "components": [
            {
              "internalType": "string",
              "name": "name",
              "type": "string"
            },
            {
              "internalType": "string",
              "name": "description",
              "type": "string"
            },
            {
              "internalType": "string",
              "name": "gameType",
              "type": "string"
            },
            {
              "internalType": "bytes32",
              "name": "prompt",
              "type": "bytes32"
            },
            {
              "internalType": "bytes32",
              "name": "secret",
              "type": "bytes32"
            },
            {
              "internalType": "uint128",
              "name": "start",
              "type": "uint128"
            },
            {
              "internalType": "uint128",
              "name": "end",
              "type": "uint128"
            },
            {
              "internalType": "address",
              "name": "winner",
              "type": "address"
            }
          ],
          "internalType": "struct Metadata",
          "name": "metadata",
          "type": "tuple"
        },
        {
          "internalType": "uint256",
          "name": "awards",
          "type": "uint256"
        }
      ],
      "name": "mint",
      "outputs": [
        {
          "internalType": "uint256",
          "name": "tokenId",
          "type": "uint256"
        }
      ],
      "stateMutability": "nonpayable",
      "type": "function"
    },
    {
      "inputs": [
        {
          "internalType": "bytes[]",
          "name": "data",
          "type": "bytes[]"
        }
      ],
      "name": "multicall",
      "outputs": [
        {
          "internalType": "bytes[]",
          "name": "results",
          "type": "bytes[]"
        }
      ],
      "stateMutability": "nonpayable",
      "type": "function"
    },
    {
      "inputs": [],
      "name": "name",
      "outputs": [
        {
          "internalType": "string",
          "name": "",
          "type": "string"
        }
      ],
      "stateMutability": "view",
      "type": "function"
    },
    {
      "inputs": [],
      "name": "owner",
      "outputs": [
        {
          "internalType": "address",
          "name": "",
          "type": "address"
        }
      ],
      "stateMutability": "view",
      "type": "function"
    },
    {
      "inputs": [
        {
          "internalType": "uint256",
          "name": "tokenId",
          "type": "uint256"
        }
      ],
      "name": "ownerOf",
      "outputs": [
        {
          "internalType": "address",
          "name": "",
          "type": "address"
        }
      ],
      "stateMutability": "view",
      "type": "function"
    },
    {
      "inputs": [
        {
          "internalType": "address",
          "name": "solver",
          "type": "address"
        }
      ],
      "name": "registeredSolver",
      "outputs": [
        {
          "internalType": "bool",
          "name": "registered",
          "type": "bool"
        }
      ],
      "stateMutability": "view",
      "type": "function"
    },
    {
      "inputs": [],
      "name": "renounceOwnership",
      "outputs": [],
      "stateMutability": "nonpayable",
      "type": "function"
    },
    {
      "inputs": [
        {
          "internalType": "address",
          "name": "from",
          "type": "address"
        },
        {
          "internalType": "address",
          "name": "to",
          "type": "address"
        },
        {
          "internalType": "uint256",
          "name": "tokenId",
          "type": "uint256"
        }
      ],
      "name": "safeTransferFrom",
      "outputs": [],
      "stateMutability": "nonpayable",
      "type": "function"
    },
    {
      "inputs": [
        {
          "internalType": "address",
          "name": "from",
          "type": "address"
        },
        {
          "internalType": "address",
          "name": "to",
          "type": "address"
        },
        {
          "internalType": "uint256",
          "name": "tokenId",
          "type": "uint256"
        },
        {
          "internalType": "bytes",
          "name": "data",
          "type": "bytes"
        }
      ],
      "name": "safeTransferFrom",
      "outputs": [],
      "stateMutability": "nonpayable",
      "type": "function"
    },
    {
      "inputs": [
        {
          "internalType": "address",
          "name": "",
          "type": "address"
        }
      ],
      "name": "salts",
      "outputs": [
        {
          "internalType": "uint256",
          "name": "",
          "type": "uint256"
        }
      ],
      "stateMutability": "view",
      "type": "function"
    },
    {
      "inputs": [
        {
          "internalType": "address",
          "name": "operator",
          "type": "address"
        },
        {
          "internalType": "bool",
          "name": "approved",
          "type": "bool"
        }
      ],
      "name": "setApprovalForAll",
      "outputs": [],
      "stateMutability": "nonpayable",
      "type": "function"
    },
    {
      "inputs": [
        {
          "internalType": "uint256",
          "name": "tokenId",
          "type": "uint256"
        },
        {
          "internalType": "address",
          "name": "winner",
          "type": "address"
        },
        {
          "internalType": "bytes",
          "name": "signature",
          "type": "bytes"
        }
      ],
      "name": "solved",
      "outputs": [],
      "stateMutability": "nonpayable",
      "type": "function"
    },
    {
      "inputs": [
        {
          "internalType": "address",
          "name": "solver",
          "type": "address"
        }
      ],
      "name": "solvedAwards",
      "outputs": [
        {
          "internalType": "uint256",
          "name": "totalAwards",
          "type": "uint256"
        }
      ],
      "stateMutability": "view",
      "type": "function"
    },
    {
      "inputs": [
        {
          "internalType": "address",
          "name": "solver",
          "type": "address"
        }
      ],
      "name": "solvedCounts",
      "outputs": [
        {
          "internalType": "uint256",
          "name": "count",
          "type": "uint256"
        }
      ],
      "stateMutability": "view",
      "type": "function"
    },
    {
      "inputs": [
        {
          "internalType": "address",
          "name": "solver",
          "type": "address"
        },
        {
          "internalType": "uint256",
          "name": "",
          "type": "uint256"
        }
      ],
      "name": "solvedGames",
      "outputs": [
        {
          "internalType": "uint256",
          "name": "tokenIds",
          "type": "uint256"
        }
      ],
      "stateMutability": "view",
      "type": "function"
    },
    {
      "inputs": [
        {
          "internalType": "uint256",
          "name": "",
          "type": "uint256"
        }
      ],
      "name": "solverList",
      "outputs": [
        {
          "internalType": "address",
          "name": "",
          "type": "address"
        }
      ],
      "stateMutability": "view",
      "type": "function"
    },
    {
      "inputs": [
        {
          "internalType": "bytes4",
          "name": "interfaceId",
          "type": "bytes4"
        }
      ],
      "name": "supportsInterface",
      "outputs": [
        {
          "internalType": "bool",
          "name": "",
          "type": "bool"
        }
      ],
      "stateMutability": "view",
      "type": "function"
    },
    {
      "inputs": [],
      "name": "symbol",
      "outputs": [
        {
          "internalType": "string",
          "name": "",
          "type": "string"
        }
      ],
      "stateMutability": "view",
      "type": "function"
    },
    {
      "inputs": [
        {
          "internalType": "uint256",
          "name": "index",
          "type": "uint256"
        }
      ],
      "name": "tokenByIndex",
      "outputs": [
        {
          "internalType": "uint256",
          "name": "",
          "type": "uint256"
        }
      ],
      "stateMutability": "view",
      "type": "function"
    },
    {
      "inputs": [
        {
          "internalType": "uint256",
          "name": "tokenId",
          "type": "uint256"
        }
      ],
      "name": "tokenIdToCounter",
      "outputs": [
        {
          "internalType": "uint256",
          "name": "counter",
          "type": "uint256"
        }
      ],
      "stateMutability": "view",
      "type": "function"
    },
    {
      "inputs": [
        {
          "internalType": "address",
          "name": "owner",
          "type": "address"
        },
        {
          "internalType": "uint256",
          "name": "index",
          "type": "uint256"
        }
      ],
      "name": "tokenOfOwnerByIndex",
      "outputs": [
        {
          "internalType": "uint256",
          "name": "",
          "type": "uint256"
        }
      ],
      "stateMutability": "view",
      "type": "function"
    },
    {
      "inputs": [
        {
          "internalType": "uint256",
          "name": "tokenId",
          "type": "uint256"
        }
      ],
      "name": "tokenURI",
      "outputs": [
        {
          "internalType": "string",
          "name": "",
          "type": "string"
        }
      ],
      "stateMutability": "view",
      "type": "function"
    },
    {
      "inputs": [],
      "name": "totalEnd",
      "outputs": [
        {
          "internalType": "uint256",
          "name": "",
          "type": "uint256"
        }
      ],
      "stateMutability": "view",
      "type": "function"
    },
    {
      "inputs": [],
      "name": "totalOngoing",
      "outputs": [
        {
          "internalType": "uint256",
          "name": "",
          "type": "uint256"
        }
      ],
      "stateMutability": "view",
      "type": "function"
    },
    {
      "inputs": [],
      "name": "totalSolved",
      "outputs": [
        {
          "internalType": "uint256",
          "name": "",
          "type": "uint256"
        }
      ],
      "stateMutability": "view",
      "type": "function"
    },
    {
      "inputs": [],
      "name": "totalSupply",
      "outputs": [
        {
          "internalType": "uint256",
          "name": "",
          "type": "uint256"
        }
      ],
      "stateMutability": "view",
      "type": "function"
    },
    {
      "inputs": [],
      "name": "totalVerified",
      "outputs": [
        {
          "internalType": "uint256",
          "name": "",
          "type": "uint256"
        }
      ],
      "stateMutability": "view",
      "type": "function"
    },
    {
      "inputs": [
        {
          "internalType": "address",
          "name": "from",
          "type": "address"
        },
        {
          "internalType": "address",
          "name": "to",
          "type": "address"
        },
        {
          "internalType": "uint256",
          "name": "tokenId",
          "type": "uint256"
        }
      ],
      "name": "transferFrom",
      "outputs": [],
      "stateMutability": "nonpayable",
      "type": "function"
    },
    {
      "inputs": [
        {
          "internalType": "address",
          "name": "newOwner",
          "type": "address"
        }
      ],
      "name": "transferOwnership",
      "outputs": [],
      "stateMutability": "nonpayable",
      "type": "function"
    },
    {
      "inputs": [
        {
          "internalType": "uint256",
          "name": "tokenId",
          "type": "uint256"
        },
        {
          "internalType": "address",
          "name": "nftAddress",
          "type": "address"
        }
      ],
      "name": "verified",
      "outputs": [],
      "stateMutability": "nonpayable",
      "type": "function"
    }
  ],
  "bytecode": "0x6080604052346200002e576200001462000033565b6200001e62000033565b6040516181229081620000d38239f35b600080fd5b7ff0c57e16840df040f15088dc2f81fe391c3923bec73e23a9662efc9c229c6a00805460ff8160401c16620000c0576001600160401b036002600160401b0319828216016200008157505050565b6001600160401b031990911681179091556040519081527fc7f505b2f371ae2175ee4913f4499e1f2633a7b5936321eed1cdaeb6115181d290602090a1565b60405163f92ee8a960e01b8152600490fdfe60808060405260043610156200001457600080fd5b600090813560e01c9081627c94b614620054035750806301ffc9a714620052d75780630661d1dc146200527257806306fdde031462005135578063081812fc14620050aa578063095ea7b31462004f025780630d253d761462004db557806311464fbe1462004d6257806318160ddd1462004d0557806323b872dd1462004ce857806324d735671462004ae4578063277ecfbb14620049db5780632f745c59146200498f578063415fa50a146200492857806342842e0e14620048f9578063485cc95514620040835780634cd88b761462003a3c5780634f6ccce71462003999578063502c040b14620038a857806354c87af4146200385e578063572edf7914620034805780635872fe4514620034385780636352211e14620033f7578063676db981146200338b5780636a62784214620032f057806370a0823114620032a8578063715018a614620031e6578063722fed7e146200316957806374de69e314620030e15780638ad4154d1462002c825780638da5cb5b1462002c0f57806395d89b411462002abd57806395ecc64214620029bd5780639859387b14620029575780639dd3e255146200290d578063a22cb46514620027df578063a4abc3f91462002468578063ac9650d81462002205578063b23e4480146200219e578063b66f7a8b14620020b9578063b88d4fde1462002040578063c516e1561462002002578063c87b56dd14620017c3578063d2da7bca146200176f578063e715de2814620008d0578063e985e9c5146200080e578063ef79266214620007d1578063f2fde38b146200077e578063f9bc3f401462000732578063fac6350d1462000344578063fe7f43da14620002d15763fe9eba15146200029157600080fd5b34620002ce57807ffffffffffffffffffffffffffffffffffffffffffffffffffffffffffffffffc360112620002ce576020600754604051908152f35b80fd5b5034620002ce5760207ffffffffffffffffffffffffffffffffffffffffffffffffffffffffffffffffc360112620002ce5760043590600c54821015620002ce57602073ffffffffffffffffffffffffffffffffffffffff6200033484620059da565b9190546040519260031b1c168152f35b5034620002ce5760407ffffffffffffffffffffffffffffffffffffffffffffffffffffffffffffffffc360112620002ce576024357f645e039705490088daad89bae25049a34f4a9072d398537b1ab2425f24cbed025480821162000729575b50620003bd620003b760043583620065a4565b62006228565b9060043573ffffffffffffffffffffffffffffffffffffffff60025416905b828110620003f85760405180620003f486826200584b565b0390f35b8085526004602052604085205490818652600360205260408620916040516200042181620055d2565b6200042c84620056f3565b81526200043c60018501620056f3565b602082015273ffffffffffffffffffffffffffffffffffffffff60066200046660028701620056f3565b95866040850152600381015460608501526004810154608085015260058101546fffffffffffffffffffffffffffffffff811660a086015260801c60c085015201541660e0820152805191602082015191604051620004c58162005694565b604881527f68747470733a2f2f7261772e67697468756275736572636f6e74656e742e636f60208201527f6d2f70726f6d70746f7765722f7765626170702f6d61696e2f7372632f61737360408201527f6574732f6e66742f0000000000000000000000000000000000000000000000006060820152620005b560246200054c88620069da565b92604051938162000568869351809260208087019101620054af565b82016200057f8251809360208085019101620054af565b017f2e706e67000000000000000000000000000000000000000000000000000000006020820152036004810184520182620056b1565b6fffffffffffffffffffffffffffffffff60a083015116906fffffffffffffffffffffffffffffffff60c0840151169273ffffffffffffffffffffffffffffffffffffffff604051957f70a082310000000000000000000000000000000000000000000000000000000087521660048601526020856024818d5afa9485156200071e578d95620006d0575b509060019873ffffffffffffffffffffffffffffffffffffffff60e0620006c8999897969594015116956040519762000679896200561f565b8a8952602089015260408801526060870152608086015260a085015260c084015260e0830152610100820152620006b360043584620065a4565b90620006c08289620062de565b5286620062de565b5001620003dc565b969594509291906020873d60201162000715575b81620006f360209383620056b1565b810103126200071057955194959394939192909190600162000640565b600080fd5b3d9150620006e4565b6040513d8f823e3d90fd5b905038620003a4565b5034620002ce57807ffffffffffffffffffffffffffffffffffffffffffffffffffffffffffffffffc360112620002ce57602062000776600654600754906200614b565b604051908152f35b5034620002ce5760207ffffffffffffffffffffffffffffffffffffffffffffffffffffffffffffffffc360112620002ce57620007ce620007be62005467565b620007c862006969565b62006804565b80f35b5034620002ce57807ffffffffffffffffffffffffffffffffffffffffffffffffffffffffffffffffc360112620002ce57602062000776620067c6565b5034620002ce5760407ffffffffffffffffffffffffffffffffffffffffffffffffffffffffffffffffc360112620002ce576200084a62005467565b73ffffffffffffffffffffffffffffffffffffffff620008b36200086d6200548b565b9273ffffffffffffffffffffffffffffffffffffffff166000527f80bb2b638cc20bc4d0a60d66940f3ab4a00c1d7b313497ca82fb0b4ab0079305602052604060002090565b9116600052602052602060ff604060002054166040519015158152f35b5034620002ce577ffffffffffffffffffffffffffffffffffffffffffffffffffffffffffffffffc6060813601126200176b576200090d62005467565b906024359067ffffffffffffffff82116200140f576101009082360301126200140b57604051906200093f82620055d2565b806004013567ffffffffffffffff81116200176757620009669060043691840101620057fe565b8252602481013567ffffffffffffffff811162001767576200098f9060043691840101620057fe565b602083015260448101359067ffffffffffffffff82116200176757620009be60e49260043691840101620057fe565b60408401526064810135606084015260848101356080840152620009e560a4820162005a2b565b60a0840152620009f860c4820162005a2b565b60c0840152013573ffffffffffffffffffffffffffffffffffffffff81168103620007105760e082015273ffffffffffffffffffffffffffffffffffffffff62000a428362006489565b169173ffffffffffffffffffffffffffffffffffffffff8116156200173657826000527f80bb2b638cc20bc4d0a60d66940f3ab4a00c1d7b313497ca82fb0b4ab0079302908160205273ffffffffffffffffffffffffffffffffffffffff60406000205416918262001667575b62000af98273ffffffffffffffffffffffffffffffffffffffff166000527f80bb2b638cc20bc4d0a60d66940f3ab4a00c1d7b313497ca82fb0b4ab0079303602052604060002090565b6001815401905584600052602052604060002073ffffffffffffffffffffffffffffffffffffffff82167fffffffffffffffffffffffff00000000000000000000000000000000000000008254161790558373ffffffffffffffffffffffffffffffffffffffff8216837fddf252ad1be2c89b69c2b068fc378daa952ba7f163c4a11628f55a4df523b3ef600080a48162001566577f645e039705490088daad89bae25049a34f4a9072d398537b1ab2425f24cbed0254846000527f645e039705490088daad89bae25049a34f4a9072d398537b1ab2425f24cbed0360205260406000205562000be9846200643c565b73ffffffffffffffffffffffffffffffffffffffff8116820362001458575b50620014275760443562001363575b7f645e039705490088daad89bae25049a34f4a9072d398537b1ab2425f24cbed0254807fffffffffffffffffffffffffffffffffffffffffffffffffffffffffffffffff8101116200133657807fffffffffffffffffffffffffffffffffffffffffffffffffffffffffffffffff809201855260046020528360408620558385526005602052016040842055805190602081015190604081015160608201516080830151916fffffffffffffffffffffffffffffffff60c08160a08701511695015116946040519662000cea88620055d2565b8752602087015260408601526060850152608084015260a083015260c08201528260e0820152818352600360205260408320815180519067ffffffffffffffff8211620011e257819062000d3f84546200557c565b601f8111620012e3575b50602090601f83116001146200121b5787926200120f575b50507fffffffffffffffffffffffffffffffffffffffffffffffffffffffffffffffff8260011b9260031b1c19161781555b602082015180519067ffffffffffffffff8211620011e257819062000dbc60018501546200557c565b601f81116200118c575b50602090601f8311600114620010be578792620010b2575b50507fffffffffffffffffffffffffffffffffffffffffffffffffffffffffffffffff8260011b9260031b1c19161760018201555b604082015193845167ffffffffffffffff8111620010855762000e3a60028401546200557c565b95601f87116200103b575b602096508690601f831160011462000f5657928260069373ffffffffffffffffffffffffffffffffffffffff969360e096849262000f4a575b50507fffffffffffffffffffffffffffffffffffffffffffffffffffffffffffffffff8260011b9260031b1c19161760028301555b606086015160038301556080860151600483015560058201906fffffffffffffffffffffffffffffffff60a0880151168254917fffffffffffffffffffffffffffffffff0000000000000000000000000000000060c08a015160801b1692161717905501920151167fffffffffffffffffffffffff0000000000000000000000000000000000000000825416179055604051908152f35b01519050388062000e7e565b9060028501845287842091845b7fffffffffffffffffffffffffffffffffffffffffffffffffffffffffffffffe0851681106200102357508373ffffffffffffffffffffffffffffffffffffffff969360e09693600193837fffffffffffffffffffffffffffffffffffffffffffffffffffffffffffffffe0600699161062000feb575b505050811b01600283015562000eb3565b01517fffffffffffffffffffffffffffffffffffffffffffffffffffffffffffffffff60f88460031b161c1916905538808062000fda565b91928960018192868501518155019401920162000f63565b60028401835260208320601f830160051c8101602084106200107d575b601f890160051c820181106200107057505062000e45565b6000815560010162001058565b508062001058565b6024827f4e487b710000000000000000000000000000000000000000000000000000000081526041600452fd5b01519050388062000dde565b9250600184018752602087209087935b7fffffffffffffffffffffffffffffffffffffffffffffffffffffffffffffffe084168510620011705760019450837fffffffffffffffffffffffffffffffffffffffffffffffffffffffffffffffe081161062001138575b505050811b01600182015562000e13565b01517fffffffffffffffffffffffffffffffffffffffffffffffffffffffffffffffff60f88460031b161c1916905538808062001127565b81810151835560209485019460019093019290910190620010ce565b90915060018401875260208720601f840160051c810160208510620011da575b90849392915b601f830160051c82018110620011ca57505062000dc6565b60008155859450600101620011b2565b5080620011ac565b6024867f4e487b710000000000000000000000000000000000000000000000000000000081526041600452fd5b01519050388062000d61565b9250838752602087209087935b7fffffffffffffffffffffffffffffffffffffffffffffffffffffffffffffffe084168510620012c75760019450837fffffffffffffffffffffffffffffffffffffffffffffffffffffffffffffffe08116106200128f575b505050811b01815562000d93565b01517fffffffffffffffffffffffffffffffffffffffffffffffffffffffffffffffff60f88460031b161c1916905538808062001281565b8181015183556020948501946001909301929091019062001228565b90915083875260208720601f840160051c8101602085106200132e575b90849392915b601f830160051c820181106200131e57505062000d49565b6000815585945060010162001306565b508062001300565b6024847f4e487b710000000000000000000000000000000000000000000000000000000081526011600452fd5b82602073ffffffffffffffffffffffffffffffffffffffff600254166064604051809481937f23b872dd00000000000000000000000000000000000000000000000000000000835233600484015288602484015260443560448401525af180156200141c57620013d5575b5062000c17565b6020813d60201162001413575b81620013f160209383620056b1565b810103126200140f5751801515036200140b5738620013ce565b8280fd5b8380fd5b3d9150620013e2565b6040513d86823e3d90fd5b602483604051907f73c6ac6e0000000000000000000000000000000000000000000000000000000082526004820152fd5b6200146381620063a0565b807fffffffffffffffffffffffffffffffffffffffffffffffffffffffffffffffff810111620015375773ffffffffffffffffffffffffffffffffffffffff7fffffffffffffffffffffffffffffffffffffffffffffffffffffffffffffffff92166000527f645e039705490088daad89bae25049a34f4a9072d398537b1ab2425f24cbed00602052604060002082820160005260205284604060002055846000527f645e039705490088daad89bae25049a34f4a9072d398537b1ab2425f24cbed01602052016040600020553862000c08565b7f4e487b7100000000000000000000000000000000000000000000000000000000600052601160045260246000fd5b73ffffffffffffffffffffffffffffffffffffffff8116821462000be9576200158f82620063a0565b846000527f645e039705490088daad89bae25049a34f4a9072d398537b1ab2425f24cbed01806020526040600020549082820362001616575b50508460005260006040812055826000527f645e039705490088daad89bae25049a34f4a9072d398537b1ab2425f24cbed006020526040600020906000526020526000604081205562000be9565b60008581527f645e039705490088daad89bae25049a34f4a9072d398537b1ab2425f24cbed0060209081526040808320868452825280832054858452818420819055835292905220553880620015c8565b620016c0856000527f80bb2b638cc20bc4d0a60d66940f3ab4a00c1d7b313497ca82fb0b4ab007930460205260406000207fffffffffffffffffffffffff00000000000000000000000000000000000000008154169055565b6200170a8373ffffffffffffffffffffffffffffffffffffffff166000527f80bb2b638cc20bc4d0a60d66940f3ab4a00c1d7b313497ca82fb0b4ab0079303602052604060002090565b7fffffffffffffffffffffffffffffffffffffffffffffffffffffffffffffffff815401905562000aaf565b602484604051907f64a0ae920000000000000000000000000000000000000000000000000000000082526004820152fd5b8480fd5b5080fd5b5034620002ce57807ffffffffffffffffffffffffffffffffffffffffffffffffffffffffffffffffc360112620002ce57602073ffffffffffffffffffffffffffffffffffffffff60025416604051908152f35b5034620002ce5760207ffffffffffffffffffffffffffffffffffffffffffffffffffffffffffffffffc360112620002ce5762001802600435620068c8565b5060043581526003602052604081209073ffffffffffffffffffffffffffffffffffffffff6006604051936200183885620055d2565b6200184381620056f3565b85526200185360018201620056f3565b60208601526200186660028201620056f3565b6040860152600381015460608601526004810154608086015260058101546fffffffffffffffffffffffffffffffff811660a087015260801c60c086015201541660e083015281519060208301519260405193620018c48562005694565b6048855262001953604060208701947f68747470733a2f2f7261772e67697468756275736572636f6e74656e742e636f86527f6d2f70726f6d70746f7765722f7765626170702f6d61696e2f7372632f617373828901527f6574732f6e66742f0000000000000000000000000000000000000000000000006060890152600435815260056020522054620069da565b9160408101519062001969606082015162006ba4565b9162001979608083015162006ba4565b906200199b6fffffffffffffffffffffffffffffffff60a085015116620069da565b9473ffffffffffffffffffffffffffffffffffffffff60e0620019d46fffffffffffffffffffffffffffffffff60c088015116620069da565b9501511696879860405199620019ea8b6200563d565b602a8b5260208b01996040368c378b511562001fd35760308b538b516001101562001fd357607860218d015360295b6001811162001f61575062001f2957506040519b8c809c602082017f7b000000000000000000000000000000000000000000000000000000000000009052602182017f226e616d65223a2022000000000000000000000000000000000000000000000090528051602a819301916020019162001a9592620054af565b8c01937f222c2000000000000000000000000000000000000000000000000000000000009485602a820152602d81017f226465736372697074696f6e223a202200000000000000000000000000000000905281519182603d8301916020019162001aff92620054af565b019084603d830152604082017f22696d616765223a2022000000000000000000000000000000000000000000009052519182604a830162001b4092620054af565b0181519182604a8301916020019162001b5992620054af565b0190604a82017f2e706e67000000000000000000000000000000000000000000000000000000009052604e820152605181017f2261747472696275746573223a205b00000000000000000000000000000000009052606081017f7b2274726169745f74797065223a202254797065222c202276616c7565223a209052608081017f220000000000000000000000000000000000000000000000000000000000000090528151918260818301916020019162001c1492620054af565b017f227d2c000000000000000000000000000000000000000000000000000000000093846081830152608482017f7b2274726169745f74797065223a202250726f6d7074222c202276616c75652290527f3a20220000000000000000000000000000000000000000000000000000000000918260a48201528151918260a78301916020019162001ca492620054af565b01908460a783015260aa82017f7b2274726169745f74797065223a2022536563726574222c202276616c756522905260ca8201528151918260cd8301916020019162001cf092620054af565b01928260cd850152827f7b22646973706c61795f74797065223a202264617465222c202274726169745f918260d087015260f086017f74797065223a202253746172742064617465222c202276616c7565223a202200905261010f9581519182888301916020019162001d6392620054af565b019485015261011284015261013283017f74797065223a2022456e642064617465222c202276616c7565223a2022000000905261014f9281519182858301916020019162001db192620054af565b019182015261015281017f7b2274726169745f74797065223a202257696e6e65722061646472657373222c905261017281017f202276616c7565223a2022000000000000000000000000000000000000000000905261017d9251918284830162001e1b92620054af565b019081017f227d000000000000000000000000000000000000000000000000000000000000905261017f81017f5d00000000000000000000000000000000000000000000000000000000000000905261018081017f7d00000000000000000000000000000000000000000000000000000000000000905203610161810182526101810162001eaa9082620056b1565b62001eb59062006d01565b6040518091602082017f646174613a6170706c69636174696f6e2f6a736f6e3b6261736536342c000000905280519081603d8401916020019162001ef992620054af565b810103601d81018252603d0162001f119082620056b1565b60405180916020825260208201620003f491620054d4565b604490604051907fe22e27eb000000000000000000000000000000000000000000000000000000008252600482015260146024820152fd5b90600f8116601081101562001fd3577f3031323334353637383961626364656600000000000000000000000000000000901a62001f9f838f62006b92565b5360041c90801562001537577fffffffffffffffffffffffffffffffffffffffffffffffffffffffffffffffff0162001a19565b7f4e487b7100000000000000000000000000000000000000000000000000000000600052603260045260246000fd5b5034620002ce57807ffffffffffffffffffffffffffffffffffffffffffffffffffffffffffffffffc360112620002ce576020600654604051908152f35b5034620002ce5760807ffffffffffffffffffffffffffffffffffffffffffffffffffffffffffffffffc360112620002ce576200207c62005467565b620020866200548b565b6064359167ffffffffffffffff83116200140f57620020ae620007ce933690600401620057fe565b916044359162006607565b5034620002ce5760207ffffffffffffffffffffffffffffffffffffffffffffffffffffffffffffffffc360112620002ce576040602091600435815260038352206040516200210881620055d2565b6200211382620056f3565b81526200212360018301620056f3565b838201526200213560028301620056f3565b6040820152600382015460608201526004820154608082015260e073ffffffffffffffffffffffffffffffffffffffff600660058501546fffffffffffffffffffffffffffffffff811660a086015260801c948560c08601520154169101526040519042118152f35b5034620002ce5760207ffffffffffffffffffffffffffffffffffffffffffffffffffffffffffffffffc360112620002ce57604060209173ffffffffffffffffffffffffffffffffffffffff620021f462005467565b168152600183522054604051908152f35b5034620002ce576020807ffffffffffffffffffffffffffffffffffffffffffffffffffffffffffffffffc3601126200176b5760043567ffffffffffffffff8082116200140f57366023830112156200140f578160040135818111620017675760059160243683851b8601820111620024645760405187959492916200228b826200565a565b868252878201936200229d866200620f565b96620022ad6040519889620056b1565b8688527fffffffffffffffffffffffffffffffffffffffffffffffffffffffffffffffe0620022dc886200620f565b01895b8181106200245457505088917fffffffffffffffffffffffffffffffffffffffffffffffffffffffffffffffbd82360301925b8881106200239b578b8b8b60405191838301848452825180915260408401948060408360051b870101940192955b8287106200234e5785850386f35b9091929382806200238a837fffffffffffffffffffffffffffffffffffffffffffffffffffffffffffffffc08a600196030186528851620054d4565b960192019601959291909262002340565b8481839d9c9d1b8401013584811215620024505783019085820135918883116200244c576044018d8336038213620002ce578062002428928f6200241162002404918f988e60019a60405195838794868601998a37840191858301938a855251938491620054af565b01038084520182620056b1565b5190305af46200242062006b5d565b903062007062565b62002434828d620062de565b5262002441818c620062de565b50019a999a62002312565b8d80fd5b8c80fd5b60608a82018d01528b01620022df565b8680fd5b5034620002ce5760207ffffffffffffffffffffffffffffffffffffffffffffffffffffffffffffffffc360112620002ce57620024a462005467565b90620024b082620063a0565b620024bb8162006228565b91809373ffffffffffffffffffffffffffffffffffffffff60025416945b838110620024f15760405180620003f487826200584b565b620024fd818362006159565b908184526005602052604084205460036020526040852088604051946200252486620055d2565b6200252f83620056f3565b86526200253f60018401620056f3565b602087015273ffffffffffffffffffffffffffffffffffffffff60066200256960028601620056f3565b948560408a0152600381015460608a0152600481015460808a015260058101546fffffffffffffffffffffffffffffffff811660a08b015260801c60c08a015201541660e08701528580519360208201519060405191620025ca8362005694565b604883527f68747470733a2f2f7261772e67697468756275736572636f6e74656e742e636f60208401527f6d2f70726f6d70746f7765722f7765626170702f6d61696e2f7372632f61737360408401527f6574732f6e66742f00000000000000000000000000000000000000000000000060608401526200268f6020620026518a620069da565b9460405195816200266c8893518092868087019101620054af565b82016200268282518093868085019101620054af565b01038086520184620056b1565b602073ffffffffffffffffffffffffffffffffffffffff60246fffffffffffffffffffffffffffffffff60c08160a08a0151169801511697604051998a9384927f70a082310000000000000000000000000000000000000000000000000000000084521660048301525afa958615620027d4578c9662002784575b5073ffffffffffffffffffffffffffffffffffffffff60e060019b0151169660405198620027388a6200561f565b8952602089015260408801526060870152608086015260a085015260c084015260e08301526101008201526200276f8288620062de565b526200277c8187620062de565b5001620024d9565b99955060208a3d602011620027cb575b81620027a360209383620056b1565b8101031262000710579851949873ffffffffffffffffffffffffffffffffffffffff6200270a565b3d915062002794565b6040513d8e823e3d90fd5b5034620002ce5760407ffffffffffffffffffffffffffffffffffffffffffffffffffffffffffffffffc360112620002ce576200281b62005467565b602435908115158092036200140b5773ffffffffffffffffffffffffffffffffffffffff16908115620028dc573360009081527f80bb2b638cc20bc4d0a60d66940f3ab4a00c1d7b313497ca82fb0b4ab0079305602052604090208260005260205260406000207fffffffffffffffffffffffffffffffffffffffffffffffffffffffffffffff0081541660ff83161790556040519081527f17307eab39ab6107e8899845ad3d59bd9653f200f220920489ca2b5937696c3160203392a380f35b602482604051907f5b08ba180000000000000000000000000000000000000000000000000000000082526004820152fd5b5034620002ce5760207ffffffffffffffffffffffffffffffffffffffffffffffffffffffffffffffffc360112620002ce5760406020916004358152600483522054604051908152f35b5034620002ce5760207ffffffffffffffffffffffffffffffffffffffffffffffffffffffffffffffffc360112620002ce5760206200299f6200299962005467565b62006489565b73ffffffffffffffffffffffffffffffffffffffff60405191168152f35b5034620002ce5760207ffffffffffffffffffffffffffffffffffffffffffffffffffffffffffffffffc360112620002ce5760406020916004358152600383522060405162002a0c81620055d2565b62002a1782620056f3565b815262002a2760018301620056f3565b8382015262002a3960028301620056f3565b6040820152600382015460608201526004820154608082015260058201549060e073ffffffffffffffffffffffffffffffffffffffff60066fffffffffffffffffffffffffffffffff8516948560a086015260801c958660c0860152015416910152421015908162002ab1575b506040519015158152f35b90504211153862002aa6565b5034620002ce57807ffffffffffffffffffffffffffffffffffffffffffffffffffffffffffffffffc360112620002ce576040517f80bb2b638cc20bc4d0a60d66940f3ab4a00c1d7b313497ca82fb0b4ab0079301805482600062002b22836200557c565b928383526020946001918660018216918260001462002bcc57505060011462002b6c575b505062002b5692500383620056b1565b620003f4604051928284938452830190620054d4565b8592506000527ff4bad0a69248f59680a4f2b3000328cec71a413447c96781cfe5996daa8c456e906000915b85831062002bb357505062002b569350820101858062002b46565b8054838901850152879450869390920191810162002b98565b9150935062002b569592507fffffffffffffffffffffffffffffffffffffffffffffffffffffffffffffff0091501682840152151560051b820101858062002b46565b5034620002ce57807ffffffffffffffffffffffffffffffffffffffffffffffffffffffffffffffffc360112620002ce57602073ffffffffffffffffffffffffffffffffffffffff7f9016d09d72d40fdae2fd8ceac6b6234c7706214fd39c1cd1e609a0528c1993005416604051908152f35b5034620002ce5760607ffffffffffffffffffffffffffffffffffffffffffffffffffffffffffffffffc360112620002ce5760043562002cc16200548b565b6044359167ffffffffffffffff808411620017675762002d2962002cee62002d33953690600401620057fe565b62002cf862006969565b7f19457468657265756d205369676e6564204d6573736167653a0a333200000000875283601c52603c872062006f37565b9095919562006f76565b73ffffffffffffffffffffffffffffffffffffffff93928416928416831462003083578185526020906003825260066040872062002d9c600582015462002d8f426fffffffffffffffffffffffffffffffff8316111562006019565b429060801c10156200607f565b01847fffffffffffffffffffffffff0000000000000000000000000000000000000000825462002dcf89821615620060e5565b161790556006546001810180911162003056576006558386526008825260408620928354680100000000000000009485821015620030295762002e1e828492600162002e549501815562005a12565b9091907fffffffffffffffffffffffffffffffffffffffffffffffffffffffffffffffff83549160031b92831b921b1916179055565b84875260098352604087208054906001820180921162002ffc57908893929155602484888060025416931692604051928380927f70a082310000000000000000000000000000000000000000000000000000000082528660048301525afa9081156200141c57849162002fc9575b50868452600a855262002edb604085209182546200614b565b9055803b156200140b5782906024604051809581937fc4d66de80000000000000000000000000000000000000000000000000000000083528a60048401525af1801562002fbe5762002fa7575b5050600b908386525260ff6040852054161562002f43578380f35b600c549081101562002f7a5780600162002f619201600c55620059da565b909283549160031b92831b921b19161790553880808380f35b6024847f4e487b710000000000000000000000000000000000000000000000000000000081526041600452fd5b8196929611620010855760405293600b3862002f28565b6040513d89823e3d90fd5b90508481813d831162002ff4575b62002fe38183620056b1565b810103126200140f57513862002ec2565b503d62002fd7565b6024897f4e487b710000000000000000000000000000000000000000000000000000000081526011600452fd5b6024897f4e487b710000000000000000000000000000000000000000000000000000000081526041600452fd5b6024877f4e487b710000000000000000000000000000000000000000000000000000000081526011600452fd5b60646040517f08c379a000000000000000000000000000000000000000000000000000000000815260206004820152601260248201527f496e76616c6964207369676e61747572652e00000000000000000000000000006044820152fd5b5034620002ce5760407ffffffffffffffffffffffffffffffffffffffffffffffffffffffffffffffffc360112620002ce576200311d62005467565b73ffffffffffffffffffffffffffffffffffffffff16815260086020526040812080546024359290831015620002ce5760206200315b848462005a12565b90546040519160031b1c8152f35b5034620002ce57807ffffffffffffffffffffffffffffffffffffffffffffffffffffffffffffffffc360112620002ce5760807f645e039705490088daad89bae25049a34f4a9072d398537b1ab2425f24cbed0254620031c8620067c6565b60065460075491604051938452602084015260408301526060820152f35b5034620002ce57807ffffffffffffffffffffffffffffffffffffffffffffffffffffffffffffffffc360112620002ce576200322162006969565b8073ffffffffffffffffffffffffffffffffffffffff7f9016d09d72d40fdae2fd8ceac6b6234c7706214fd39c1cd1e609a0528c1993008054907fffffffffffffffffffffffff000000000000000000000000000000000000000082169055167f8be0079c531659141344cd1fd0a4f28419497f9722a3daafe3b4186f6b6457e08280a380f35b5034620002ce5760207ffffffffffffffffffffffffffffffffffffffffffffffffffffffffffffffffc360112620002ce57602062000776620032ea62005467565b620063a0565b5034620002ce5760207ffffffffffffffffffffffffffffffffffffffffffffffffffffffffffffffffc360112620002ce576200332c62005467565b5060646040517f08c379a000000000000000000000000000000000000000000000000000000000815260206004820152600960248201527f44697361626c65642e00000000000000000000000000000000000000000000006044820152fd5b5034620002ce5760207ffffffffffffffffffffffffffffffffffffffffffffffffffffffffffffffffc360112620002ce5760ff604060209273ffffffffffffffffffffffffffffffffffffffff620033e362005467565b168152600b84522054166040519015158152f35b5034620002ce5760207ffffffffffffffffffffffffffffffffffffffffffffffffffffffffffffffffc360112620002ce5760206200299f600435620068c8565b5034620002ce5760207ffffffffffffffffffffffffffffffffffffffffffffffffffffffffffffffffc360112620002ce5760206200299f6200347a62005467565b620062f3565b5034620002ce5760207ffffffffffffffffffffffffffffffffffffffffffffffffffffffffffffffffc360112620002ce5773ffffffffffffffffffffffffffffffffffffffff620034d162005467565b1681526008602052604081209060405191826020825491828152019183526020832090835b8181106200384757505050826200350f910383620056b1565b81516200351c8162006228565b91809373ffffffffffffffffffffffffffffffffffffffff60025416905b838610620035525760405180620003f487826200584b565b6200355e8682620062de565b5195868452600560205260408420546003602052604085206040516200358481620055d2565b6200358f82620056f3565b81526200359f60018301620056f3565b6020820152620035b260028301620056f3565b91826040830152600381015460608301526004810154608083015260058101546fffffffffffffffffffffffffffffffff811660a084015260801c60c08301526006015473ffffffffffffffffffffffffffffffffffffffff1660e0820152805191602082015190604051620036288162005694565b604881527f68747470733a2f2f7261772e67697468756275736572636f6e74656e742e636f60208201527f6d2f70726f6d70746f7765722f7765626170702f6d61696e2f7372632f61737360408201527f6574732f6e66742f0000000000000000000000000000000000000000000000006060820152620036a986620069da565b9060405191818392519081602085019160200191620036c892620054af565b820181519182602083019160200191620036e292620054af565b0103808252602001620036f69082620056b1565b60a08401516fffffffffffffffffffffffffffffffff169160c08501516fffffffffffffffffffffffffffffffff16936040519e8f907f70a0823100000000000000000000000000000000000000000000000000000000825273ffffffffffffffffffffffffffffffffffffffff166004820152808c5a92602491602094fa958615620027d4578c966200380a575b60019a9b9c9d9e9f5060e073ffffffffffffffffffffffffffffffffffffffff910151169660405198620037b98a6200561f565b8952602089015260408801526060870152608086015260a085015260c084015260e0830152610100820152620037f08289620062de565b52620037fd8188620062de565b500194939291906200353a565b955060208f813d83116200383f575b620038258183620056b1565b810103126200383b579d519c9d8e9d9562003785565b8b80fd5b503d62003819565b8254845260209093019260019283019201620034f6565b5034620002ce5760207ffffffffffffffffffffffffffffffffffffffffffffffffffffffffffffffffc360112620002ce5760406020916004358152600583522054604051908152f35b5034620002ce5760407ffffffffffffffffffffffffffffffffffffffffffffffffffffffffffffffffc360112620002ce5773ffffffffffffffffffffffffffffffffffffffff602081620038fc6200548b565b16916024604051809481937f70a082310000000000000000000000000000000000000000000000000000000083526004351660048301525afa9081156200398e57829162003952575b6020826040519015158152f35b90506020813d60201162003985575b816200397060209383620056b1565b810103126200176b5760209150513862003945565b3d915062003961565b6040513d84823e3d90fd5b5034620002ce5760207ffffffffffffffffffffffffffffffffffffffffffffffffffffffffffffffffc360112620002ce57600435907f645e039705490088daad89bae25049a34f4a9072d398537b1ab2425f24cbed025482101562003a065760206200315b8362005984565b604491604051917fa57d13dc00000000000000000000000000000000000000000000000000000000835260048301526024820152fd5b5034620002ce5760407ffffffffffffffffffffffffffffffffffffffffffffffffffffffffffffffffc360112620002ce5767ffffffffffffffff6004358181116200140b5762003a92903690600401620057fe565b906024358181116200140f5762003aae903690600401620057fe565b917ff0c57e16840df040f15088dc2f81fe391c3923bec73e23a9662efc9c229c6a009182549360ff8560401c161592828616958615806200407b575b6001809814908162004070575b15908162004066575b506200403c5784877fffffffffffffffffffffffffffffffffffffffffffffffff0000000000000000831617875562004006575b5062003b3f62006edd565b805183811162003e9e577f80bb2b638cc20bc4d0a60d66940f3ab4a00c1d7b313497ca82fb0b4ab0079300908062003b7883546200557c565b93601f9485811162003f94575b5060209085831160011462003ed7578b9262003ecb575b50507fffffffffffffffffffffffffffffffffffffffffffffffffffffffffffffffff828a1b9260031b1c19161790555b81519083821162003e9e5781907f80bb2b638cc20bc4d0a60d66940f3ab4a00c1d7b313497ca82fb0b4ab00793019362003c0885546200557c565b82811162003e2a575b50602091831160011462003d6d57899262003d61575b50507fffffffffffffffffffffffffffffffffffffffffffffffffffffffffffffffff82881b9260031b1c19161790555b62003c6262006edd565b62003c6c62006edd565b60405190610c738083019182118383101762003d34579082916200747a8339039085f080156200141c5773ffffffffffffffffffffffffffffffffffffffff167fffffffffffffffffffffffff000000000000000000000000000000000000000085541617845562003cdc578280f35b7fc7f505b2f371ae2175ee4913f4499e1f2633a7b5936321eed1cdaeb6115181d291817fffffffffffffffffffffffffffffffffffffffffffffff00ffffffffffffffff60209354169055604051908152a138808280f35b6024877f4e487b710000000000000000000000000000000000000000000000000000000081526041600452fd5b01519050388062003c27565b907fffffffffffffffffffffffffffffffffffffffffffffffffffffffffffffffe089941691858b527ff4bad0a69248f59680a4f2b3000328cec71a413447c96781cfe5996daa8c456e928b5b81811062003e115750841162003dd9575b505050811b01905562003c58565b01517fffffffffffffffffffffffffffffffffffffffffffffffffffffffffffffffff60f88460031b161c1916905538808062003dcb565b8284015185558b96909401936020938401930162003dba565b90919250848a527ff4bad0a69248f59680a4f2b3000328cec71a413447c96781cfe5996daa8c456e8380860160051c8201926020871062003e94575b9186958c929594930160051c01915b82811062003e8557505062003c11565b8c81558695508b910162003e75565b9250819262003e66565b6024887f4e487b710000000000000000000000000000000000000000000000000000000081526041600452fd5b01519050388062003b9c565b907fffffffffffffffffffffffffffffffffffffffffffffffffffffffffffffffe08b941691858d527f37c58c799b6609234b945e882912ee9ad34948a1dfaa20a97485e1a7752bbf81928d5b81811062003f7b5750841162003f43575b505050811b01905562003bcd565b01517fffffffffffffffffffffffffffffffffffffffffffffffffffffffffffffffff60f88460031b161c1916905538808062003f35565b8284015185558d96909401936020938401930162003f24565b909150838b527f37c58c799b6609234b945e882912ee9ad34948a1dfaa20a97485e1a7752bbf818580850160051c8201926020861062003ffc575b918c91869594930160051c01915b82811062003fed57505062003b85565b8d81558594508c910162003fdd565b9250819262003fcf565b7fffffffffffffffffffffffffffffffffffffffffffffff00000000000000000016680100000000000000011785553862003b34565b60046040517ff92ee8a9000000000000000000000000000000000000000000000000000000008152fd5b9050153862003b00565b303b15915062003af7565b508462003aea565b5034620002ce5760407ffffffffffffffffffffffffffffffffffffffffffffffffffffffffffffffffc360112620002ce57620040bf62005467565b620040c96200548b565b907ff0c57e16840df040f15088dc2f81fe391c3923bec73e23a9662efc9c229c6a00549067ffffffffffffffff821680159081620048e8575b6001149081620048dd575b159081620048d3575b506200403c5760017fffffffffffffffffffffffffffffffffffffffffffffffff00000000000000008316177ff0c57e16840df040f15088dc2f81fe391c3923bec73e23a9662efc9c229c6a005560ff8260401c16156200487d575b604051620041808162005677565b601781527f436170747572652d7468652d50726f6d70742047616d65000000000000000000602082015260405190620041b98262005677565b600382527f43545000000000000000000000000000000000000000000000000000000000006020830152620041ed62006edd565b80519067ffffffffffffffff821162003d345781906200422e7f80bb2b638cc20bc4d0a60d66940f3ab4a00c1d7b313497ca82fb0b4ab0079300546200557c565b601f8111620047b1575b50602090601f83116001146200468c57889262004680575b50507fffffffffffffffffffffffffffffffffffffffffffffffffffffffffffffffff8260011b9260031b1c1916177f80bb2b638cc20bc4d0a60d66940f3ab4a00c1d7b313497ca82fb0b4ab0079300555b80519067ffffffffffffffff8211620011e2578190620042e37f80bb2b638cc20bc4d0a60d66940f3ab4a00c1d7b313497ca82fb0b4ab0079301546200557c565b601f8111620045b1575b50602090601f8311600114620044b1578792620044a5575b50507fffffffffffffffffffffffffffffffffffffffffffffffffffffffffffffffff8260011b9260031b1c1916177f80bb2b638cc20bc4d0a60d66940f3ab4a00c1d7b313497ca82fb0b4ab0079301555b6200436162006edd565b6200436b62006edd565b604051610c738082019082821067ffffffffffffffff83111762003d34579082916200747a8339039085f09081156200141c5760ff93620043f073ffffffffffffffffffffffffffffffffffffffff92837fffffffffffffffffffffffff0000000000000000000000000000000000000000951685895416178855620007c862006edd565b620043fa62006edd565b1690600254161760025560401c1615620044115780f35b7fffffffffffffffffffffffffffffffffffffffffffffff00ffffffffffffffff7ff0c57e16840df040f15088dc2f81fe391c3923bec73e23a9662efc9c229c6a0054167ff0c57e16840df040f15088dc2f81fe391c3923bec73e23a9662efc9c229c6a00557fc7f505b2f371ae2175ee4913f4499e1f2633a7b5936321eed1cdaeb6115181d2602060405160018152a180f35b01519050388062004305565b7f80bb2b638cc20bc4d0a60d66940f3ab4a00c1d7b313497ca82fb0b4ab007930188527ff4bad0a69248f59680a4f2b3000328cec71a413447c96781cfe5996daa8c456e927fffffffffffffffffffffffffffffffffffffffffffffffffffffffffffffffe016885b81811062004598575090846001959493921062004560575b505050811b017f80bb2b638cc20bc4d0a60d66940f3ab4a00c1d7b313497ca82fb0b4ab00793015562004357565b01517fffffffffffffffffffffffffffffffffffffffffffffffffffffffffffffffff60f88460031b161c1916905538808062004532565b929360206001819287860151815501950193016200451a565b9091507f80bb2b638cc20bc4d0a60d66940f3ab4a00c1d7b313497ca82fb0b4ab00793018752601f830160051c7ff4bad0a69248f59680a4f2b3000328cec71a413447c96781cfe5996daa8c456e01906020841062004657575b90601f8493920160051c7ff4bad0a69248f59680a4f2b3000328cec71a413447c96781cfe5996daa8c456e01905b818110620046485750620042ed565b88815584935060010162004639565b7ff4bad0a69248f59680a4f2b3000328cec71a413447c96781cfe5996daa8c456e91506200460b565b01519050388062004250565b92507f80bb2b638cc20bc4d0a60d66940f3ab4a00c1d7b313497ca82fb0b4ab007930088527f37c58c799b6609234b945e882912ee9ad34948a1dfaa20a97485e1a7752bbf819088935b7fffffffffffffffffffffffffffffffffffffffffffffffffffffffffffffffe084168510620047955760019450837fffffffffffffffffffffffffffffffffffffffffffffffffffffffffffffffe08116106200475d575b505050811b017f80bb2b638cc20bc4d0a60d66940f3ab4a00c1d7b313497ca82fb0b4ab007930055620042a2565b01517fffffffffffffffffffffffffffffffffffffffffffffffffffffffffffffffff60f88460031b161c191690553880806200472f565b81810151835560209485019460019093019290910190620046d6565b9091507f80bb2b638cc20bc4d0a60d66940f3ab4a00c1d7b313497ca82fb0b4ab00793008852601f830160051c7f37c58c799b6609234b945e882912ee9ad34948a1dfaa20a97485e1a7752bbf81016020841062004855575b908392915b601f820160051c7f37c58c799b6609234b945e882912ee9ad34948a1dfaa20a97485e1a7752bbf8101811062004846575062004238565b8981558493506001016200480f565b507f37c58c799b6609234b945e882912ee9ad34948a1dfaa20a97485e1a7752bbf816200480a565b680100000000000000017fffffffffffffffffffffffffffffffffffffffffffffff0000000000000000008316177ff0c57e16840df040f15088dc2f81fe391c3923bec73e23a9662efc9c229c6a005562004172565b9050153862004116565b303b1591506200410d565b604084901c60ff1615915062004102565b5034620002ce57620007ce6200490f3662005519565b90604051926200491f846200565a565b85845262006607565b5034620002ce5760207ffffffffffffffffffffffffffffffffffffffffffffffffffffffffffffffffc360112620002ce57604060209173ffffffffffffffffffffffffffffffffffffffff6200497e62005467565b168152600a83522054604051908152f35b5034620002ce5760407ffffffffffffffffffffffffffffffffffffffffffffffffffffffffffffffffc360112620002ce57602062000776620049d162005467565b6024359062006159565b5034620002ce5760207ffffffffffffffffffffffffffffffffffffffffffffffffffffffffffffffffc360112620002ce57604062004a9291600435815260036020522062004a2a81620056f3565b9062004a3960018201620056f3565b62004a4760028301620056f3565b9160038101549262004ab060048301549162004aa173ffffffffffffffffffffffffffffffffffffffff600660058701549601541695604051998a99610100808c528b0190620054d4565b9089820360208b0152620054d4565b908782036040890152620054d4565b93606086015260808501526fffffffffffffffffffffffffffffffff811660a085015260801c60c084015260e08301520390f35b5034620002ce5760407ffffffffffffffffffffffffffffffffffffffffffffffffffffffffffffffffc360112620002ce57600435602462004b256200548b565b9162004b3062006969565b80845260206003815260066040862062004b68600582015462002d8f426fffffffffffffffffffffffffffffffff8316111562006019565b01938185549373ffffffffffffffffffffffffffffffffffffffff95869162004b9483881615620060e5565b8260405195869485937f70a08231000000000000000000000000000000000000000000000000000000008552166004840152165afa90811562004cdd57869162004ca6575b501562004c4857507fffffffffffffffffffffffff0000000000000000000000000000000000000000161790556007546001810180911162004c1b5760075580f35b6024827f4e487b710000000000000000000000000000000000000000000000000000000081526011600452fd5b606490604051907f08c379a00000000000000000000000000000000000000000000000000000000082526004820152600f60248201527f48617665206e6f206261646765732e00000000000000000000000000000000006044820152fd5b90508181813d831162004cd5575b62004cc08183620056b1565b8101031262004cd157513862004bd9565b8580fd5b503d62004cb4565b6040513d88823e3d90fd5b5034620002ce57620007ce62004cfe3662005519565b9162005a7b565b5034620002ce57807ffffffffffffffffffffffffffffffffffffffffffffffffffffffffffffffffc360112620002ce5760207f645e039705490088daad89bae25049a34f4a9072d398537b1ab2425f24cbed0254604051908152f35b5034620002ce57807ffffffffffffffffffffffffffffffffffffffffffffffffffffffffffffffffc360112620002ce5773ffffffffffffffffffffffffffffffffffffffff6020915416604051908152f35b5034620002ce5760407ffffffffffffffffffffffffffffffffffffffffffffffffffffffffffffffffc360112620002ce5762004df162005467565b9062004ef96102de6200240462004eed602080966040519062004e1783870183620056b1565b858252828201956200719c873962004e9662004ec373ffffffffffffffffffffffffffffffffffffffff809a5416928a604051917fc4d66de800000000000000000000000000000000000000000000000000000000888401521660248201526024815262004e85816200563d565b604051928391878301958662005a49565b037fffffffffffffffffffffffffffffffffffffffffffffffffffffffffffffffe08101835282620056b1565b60405195869362004edd868601998a9251928391620054af565b84019151809386840190620054af565b51902060243562006949565b60405191168152f35b5034620002ce5760407ffffffffffffffffffffffffffffffffffffffffffffffffffffffffffffffffc360112620002ce5762004f3e62005467565b60243562004f4c81620068c8565b3315158062005089575b8062005029575b62004ff957819073ffffffffffffffffffffffffffffffffffffffff809416938491167f8c5be1e5ebec7d5bd14f71427d1e84f3dd0314c0f7b2291e5b200ac8c7c3b9258680a482527f80bb2b638cc20bc4d0a60d66940f3ab4a00c1d7b313497ca82fb0b4ab007930460205260408220907fffffffffffffffffffffffff000000000000000000000000000000000000000082541617905580f35b60246040517fa9fbf51f000000000000000000000000000000000000000000000000000000008152336004820152fd5b50620050748173ffffffffffffffffffffffffffffffffffffffff166000527f80bb2b638cc20bc4d0a60d66940f3ab4a00c1d7b313497ca82fb0b4ab0079305602052604060002090565b33855260205260ff6040852054161562004f5d565b503373ffffffffffffffffffffffffffffffffffffffff8216141562004f56565b5034620002ce5760207ffffffffffffffffffffffffffffffffffffffffffffffffffffffffffffffffc360112620002ce5773ffffffffffffffffffffffffffffffffffffffff60406020926004356200510481620068c8565b5081527f80bb2b638cc20bc4d0a60d66940f3ab4a00c1d7b313497ca82fb0b4ab00793048452205416604051908152f35b5034620002ce57807ffffffffffffffffffffffffffffffffffffffffffffffffffffffffffffffffc360112620002ce576040519080827f80bb2b638cc20bc4d0a60d66940f3ab4a00c1d7b313497ca82fb0b4ab00793009283546200519b816200557c565b93848452602095600192876001821691826000146200522d575050600114620051d0575b50505062002b5692500383620056b1565b8152859250907f37c58c799b6609234b945e882912ee9ad34948a1dfaa20a97485e1a7752bbf815b8583106200521457505062002b569350820101388080620051bf565b80548389018501528794508693909201918101620051f8565b925094505062002b569592507fffffffffffffffffffffffffffffffffffffffffffffffffffffffffffffff0091501682840152151560051b820101388080620051bf565b5034620002ce5760207ffffffffffffffffffffffffffffffffffffffffffffffffffffffffffffffffc360112620002ce5773ffffffffffffffffffffffffffffffffffffffff60066040602093600435815260038552200154161515604051908152f35b5034620002ce5760207ffffffffffffffffffffffffffffffffffffffffffffffffffffffffffffffffc360112620002ce576004357fffffffff0000000000000000000000000000000000000000000000000000000081168091036200176b57807f780e9d6300000000000000000000000000000000000000000000000000000000602092149081156200537057506040519015158152f35b7f80ac58cd00000000000000000000000000000000000000000000000000000000811491508115620053d8575b8115620053ad575b508262002aa6565b7f01ffc9a70000000000000000000000000000000000000000000000000000000091501482620053a5565b7f5b5e139f00000000000000000000000000000000000000000000000000000000811491506200539d565b9050346200176b5760207ffffffffffffffffffffffffffffffffffffffffffffffffffffffffffffffffc3601126200176b57604060209273ffffffffffffffffffffffffffffffffffffffff6200545a62005467565b1681526009845220548152f35b6004359073ffffffffffffffffffffffffffffffffffffffff821682036200071057565b6024359073ffffffffffffffffffffffffffffffffffffffff821682036200071057565b60005b838110620054c35750506000910152565b8181015183820152602001620054b2565b907fffffffffffffffffffffffffffffffffffffffffffffffffffffffffffffffe0601f6020936200551281518092818752878088019101620054af565b0116010190565b7ffffffffffffffffffffffffffffffffffffffffffffffffffffffffffffffffc6060910112620007105773ffffffffffffffffffffffffffffffffffffffff906004358281168103620007105791602435908116810362000710579060443590565b90600182811c92168015620055c7575b60208310146200559857565b7f4e487b7100000000000000000000000000000000000000000000000000000000600052602260045260246000fd5b91607f16916200558c565b610100810190811067ffffffffffffffff821117620055f057604052565b7f4e487b7100000000000000000000000000000000000000000000000000000000600052604160045260246000fd5b610120810190811067ffffffffffffffff821117620055f057604052565b6060810190811067ffffffffffffffff821117620055f057604052565b6020810190811067ffffffffffffffff821117620055f057604052565b6040810190811067ffffffffffffffff821117620055f057604052565b6080810190811067ffffffffffffffff821117620055f057604052565b90601f7fffffffffffffffffffffffffffffffffffffffffffffffffffffffffffffffe0910116810190811067ffffffffffffffff821117620055f057604052565b9060405191826000825462005708816200557c565b908184526020946001916001811690816000146200578057506001146200573d575b5050506200573b92500383620056b1565b565b600090815285812095935091905b818310620057675750506200573b93508201013880806200572a565b855488840185015294850194879450918301916200574b565b9150506200573b9593507fffffffffffffffffffffffffffffffffffffffffffffffffffffffffffffff0091501682840152151560051b8201013880806200572a565b67ffffffffffffffff8111620055f057601f017fffffffffffffffffffffffffffffffffffffffffffffffffffffffffffffffe01660200190565b81601f8201121562000710578035906200581882620057c3565b92620058286040519485620056b1565b828452602083830101116200071057816000926020809301838601378301015290565b6020808201908083528351809252604092604081018260408560051b8401019601946000925b85841062005883575050505050505090565b909192939495968580827fffffffffffffffffffffffffffffffffffffffffffffffffffffffffffffffc085600195030187528a51906200591c62005908620058f4620058e36101208651865287870151908089880152860190620054d4565b8a8601518582038c870152620054d4565b6060808601519085830390860152620054d4565b6080808501519084830390850152620054d4565b9160a080820151906fffffffffffffffffffffffffffffffff8092169084015260c09081830151169083015260e0808201519083015273ffffffffffffffffffffffffffffffffffffffff610100809201511691015299019401940192959493919062005871565b7f645e039705490088daad89bae25049a34f4a9072d398537b1ab2425f24cbed02805482101562001fd3576000527fa42f15e5d656f8155fd7419d740a6073999f19cd6e061449ce4a257150545bf20190600090565b600c5481101562001fd357600c6000527fdf6966c971051c3d54ec59162606531493a51404a002842f56009d7e5cf4a8c70190600090565b805482101562001fd35760005260206000200190600090565b35906fffffffffffffffffffffffffffffffff821682036200071057565b60409073ffffffffffffffffffffffffffffffffffffffff62005a7894931681528160208201520190620054d4565b90565b909173ffffffffffffffffffffffffffffffffffffffff80841692831562005fe8576000938385527f80bb2b638cc20bc4d0a60d66940f3ab4a00c1d7b313497ca82fb0b4ab0079302946020868152604097858984205416973315158062005ec1575b50881590811562005df2575b62005b348373ffffffffffffffffffffffffffffffffffffffff166000527f80bb2b638cc20bc4d0a60d66940f3ab4a00c1d7b313497ca82fb0b4ab0079303602052604060002090565b600181540190558885528352898420857fffffffffffffffffffffffff000000000000000000000000000000000000000082541617905587858a7fddf252ad1be2c89b69c2b068fc378daa952ba7f163c4a11628f55a4df523b3ef8780a41562005d11577f645e039705490088daad89bae25049a34f4a9072d398537b1ab2425f24cbed02548784527f645e039705490088daad89bae25049a34f4a9072d398537b1ab2425f24cbed0383528984205562005bef876200643c565b83880362005c46575b50505050169283830362005c0c5750505050565b6064945051927f64283d7b000000000000000000000000000000000000000000000000000000008452600484015260248301526044820152fd5b62005c5190620063a0565b927fffffffffffffffffffffffffffffffffffffffffffffffffffffffffffffffff840193841162005ce45782917f645e039705490088daad89bae25049a34f4a9072d398537b1ab2425f24cbed01918a94527f645e039705490088daad89bae25049a34f4a9072d398537b1ab2425f24cbed008152838320858452815287848420558783525220553880808062005bf8565b6024837f4e487b710000000000000000000000000000000000000000000000000000000081526011600452fd5b87841462005bef5762005d2488620063a0565b8784527f645e039705490088daad89bae25049a34f4a9072d398537b1ab2425f24cbed018084528a8520549082820362005d9c575b5050878452838a8120558884527f645e039705490088daad89bae25049a34f4a9072d398537b1ab2425f24cbed0083528984209084528252828981205562005bef565b8a86527f645e039705490088daad89bae25049a34f4a9072d398537b1ab2425f24cbed008086528c872084885286528c872054908c885286528c87208388528652808d882055865284528a852055388062005d59565b62005e4b896000527f80bb2b638cc20bc4d0a60d66940f3ab4a00c1d7b313497ca82fb0b4ab007930460205260406000207fffffffffffffffffffffffff00000000000000000000000000000000000000008154169055565b62005e958a73ffffffffffffffffffffffffffffffffffffffff166000527f80bb2b638cc20bc4d0a60d66940f3ab4a00c1d7b313497ca82fb0b4ab0079303602052604060002090565b7fffffffffffffffffffffffffffffffffffffffffffffffffffffffffffffffff815401905562005aea565b8062005f44575b1562005ed5573862005ade565b89888a62005f0c5760249151907f7e2732890000000000000000000000000000000000000000000000000000000082526004820152fd5b90517f177e802f0000000000000000000000000000000000000000000000000000000081523360048201526024810191909152604490fd5b50338914801562005f8b575b8062005ec857508784527f80bb2b638cc20bc4d0a60d66940f3ab4a00c1d7b313497ca82fb0b4ab0079304835233878b862054161462005ec8565b5062005fd68973ffffffffffffffffffffffffffffffffffffffff166000527f80bb2b638cc20bc4d0a60d66940f3ab4a00c1d7b313497ca82fb0b4ab0079305602052604060002090565b338552835260ff8a8520541662005f50565b60246040517f64a0ae9200000000000000000000000000000000000000000000000000000000815260006004820152fd5b156200602157565b60646040517f08c379a000000000000000000000000000000000000000000000000000000000815260206004820152600860248201527f4e6f74207965742e0000000000000000000000000000000000000000000000006044820152fd5b156200608757565b60646040517f08c379a000000000000000000000000000000000000000000000000000000000815260206004820152600960248201527f4f757464617465642e00000000000000000000000000000000000000000000006044820152fd5b15620060ed57565b60646040517f08c379a000000000000000000000000000000000000000000000000000000000815260206004820152600f60248201527f416c726561647920736f6c7665642e00000000000000000000000000000000006044820152fd5b919082018092116200153757565b6200616481620063a0565b821015620061be5773ffffffffffffffffffffffffffffffffffffffff166000527f645e039705490088daad89bae25049a34f4a9072d398537b1ab2425f24cbed0060205260406000209060005260205260406000205490565b6040517fa57d13dc00000000000000000000000000000000000000000000000000000000815273ffffffffffffffffffffffffffffffffffffffff9190911660048201526024810191909152604490fd5b67ffffffffffffffff8111620055f05760051b60200190565b9062006234826200620f565b604090620062466040519182620056b1565b8381527fffffffffffffffffffffffffffffffffffffffffffffffffffffffffffffffe06200627682956200620f565b019160005b838110620062895750505050565b602090825162006299816200561f565b60008152606083908082840152808684015280808401526080830152600060a0830152600060c0830152600060e083015260006101008301528286010152016200627b565b805182101562001fd35760209160051b010190565b62005a789073ffffffffffffffffffffffffffffffffffffffff809116806000526200240462006396602060018152604060002054946102de9462004e9662004ec36040519362006347868a0186620056b1565b888552858501986200719c8a396000541692604051907fc4d66de8000000000000000000000000000000000000000000000000000000008783015260248201526024815262004e85816200563d565b5190209062006949565b73ffffffffffffffffffffffffffffffffffffffff8116156200640b57620064079073ffffffffffffffffffffffffffffffffffffffff166000527f80bb2b638cc20bc4d0a60d66940f3ab4a00c1d7b313497ca82fb0b4ab0079303602052604060002090565b5490565b60246040517f89c62b6400000000000000000000000000000000000000000000000000000000815260006004820152fd5b7f645e039705490088daad89bae25049a34f4a9072d398537b1ab2425f24cbed029081549168010000000000000000831015620055f0578262002e1e9160016200573b9501905562005984565b6200649481620062f3565b803b62006589575073ffffffffffffffffffffffffffffffffffffffff809116600090808252600160205260408220908154917fffffffffffffffffffffffffffffffffffffffffffffffffffffffffffffffff831462001336576001830190558383541690604051907fc4d66de800000000000000000000000000000000000000000000000000000000602083015260248201526024815262006538816200563d565b604051916102de8084019084821067ffffffffffffffff83111762003d3457918493916200656c936200719c863962005a49565b039083f59081156200657d57501690565b604051903d90823e3d90fd5b73ffffffffffffffffffffffffffffffffffffffff91501690565b919082039182116200153757565b90620065be82620057c3565b620065cd6040519182620056b1565b8281527fffffffffffffffffffffffffffffffffffffffffffffffffffffffffffffffe0620065fd8294620057c3565b0190602036910137565b91906200661682828562005a7b565b803b62006624575b50505050565b6200668f73ffffffffffffffffffffffffffffffffffffffff809216946040519384937f150b7a0200000000000000000000000000000000000000000000000000000000968786523360048701521660248501526044840152608060648401526084830190620054d4565b03906020816000938185885af1908290826200675e575b5050620066fa5782620066b862006b5d565b8051919082620066f357602482604051907f64a0ae920000000000000000000000000000000000000000000000000000000082526004820152fd5b9050602001fd5b7fffffffff0000000000000000000000000000000000000000000000000000000016036200672d5750388080806200661e565b602490604051907f64a0ae920000000000000000000000000000000000000000000000000000000082526004820152fd5b909192506020813d602011620067bd575b816200677e60209383620056b1565b810103126200176b5751907fffffffff0000000000000000000000000000000000000000000000000000000082168203620002ce5750903880620066a6565b3d91506200676f565b62005a787f645e039705490088daad89bae25049a34f4a9072d398537b1ab2425f24cbed0254620067fd600654600754906200614b565b90620065a4565b73ffffffffffffffffffffffffffffffffffffffff80911690811562006897577f9016d09d72d40fdae2fd8ceac6b6234c7706214fd39c1cd1e609a0528c199300805490837fffffffffffffffffffffffff00000000000000000000000000000000000000008316179055167f8be0079c531659141344cd1fd0a4f28419497f9722a3daafe3b4186f6b6457e0600080a3565b60246040517f1e4fbdf700000000000000000000000000000000000000000000000000000000815260006004820152fd5b806000527f80bb2b638cc20bc4d0a60d66940f3ab4a00c1d7b313497ca82fb0b4ab007930260205273ffffffffffffffffffffffffffffffffffffffff6040600020541690811562006918575090565b602490604051907f7e2732890000000000000000000000000000000000000000000000000000000082526004820152fd5b605591600b9160405191604083015260208201523081520160ff81532090565b73ffffffffffffffffffffffffffffffffffffffff7f9016d09d72d40fdae2fd8ceac6b6234c7706214fd39c1cd1e609a0528c19930054163303620069aa57565b60246040517f118cdaa7000000000000000000000000000000000000000000000000000000008152336004820152fd5b806000917a184f03e93ff9f4daa797ed6e38ed64bf6a1f0100000000000000008082101562006b4e575b506d04ee2d6d415b85acef81000000008083101562006b3e575b50662386f26fc100008083101562006b2e575b506305f5e1008083101562006b1e575b506127108083101562006b0e575b50606482101562006afd575b600a8092101562006af2575b60019081602162006a7b60018701620065b2565b95860101905b62006a8e575b5050505090565b7fffffffffffffffffffffffffffffffffffffffffffffffffffffffffffffffff849101917f30313233343536373839616263646566000000000000000000000000000000008282061a83530491821562006aec5791908262006a81565b62006a87565b916001019162006a67565b919060646002910491019162006a5b565b6004919392049101913862006a4f565b6008919392049101913862006a41565b6010919392049101913862006a31565b6020919392049101913862006a1e565b60409350810491503862006a04565b3d1562006b8d573d9062006b7182620057c3565b9162006b816040519384620056b1565b82523d6000602084013e565b606090565b90815181101562001fd3570160200190565b806040519162006bb48362005694565b6042835260208301606036823783511562001fd3576030905382516001906001101562001fd357607860218501536041905b80821162006c3157505062006bf9575090565b604490604051907fe22e27eb000000000000000000000000000000000000000000000000000000008252600482015260206024820152fd5b9091600f8116601081101562006cd3577f3031323334353637383961626364656600000000000000000000000000000000901a62006c70848762006b92565b5360041c91801562006ca5577fffffffffffffffffffffffffffffffffffffffffffffffffffffffffffffffff019062006be6565b602460007f4e487b710000000000000000000000000000000000000000000000000000000081526011600452fd5b602460007f4e487b710000000000000000000000000000000000000000000000000000000081526032600452fd5b9081511562006ec6576040519162006d19836200563d565b604083527f4142434445464748494a4b4c4d4e4f505152535455565758595a61626364656660208401527f6768696a6b6c6d6e6f707172737475767778797a303132333435363738392b2f604084015280519260029160028501809511620015375760038095047f3fffffffffffffffffffffffffffffffffffffffffffffffffffffffffffffff81168103620015375762006dbb9060029694961b620065b2565b926020840192829183518401976020890192835194600085525b8a811062006e785750505050600393949596505251068060011462006e295760021462006e00575090565b7fffffffffffffffffffffffffffffffffffffffffffffffffffffffffffffffff603d91015390565b507ffffffffffffffffffffffffffffffffffffffffffffffffffffffffffffffffe81603d7fffffffffffffffffffffffffffffffffffffffffffffffffffffffffffffffff81940153015390565b836004919b989b019a8b51600190603f9082828260121c16870101518453828282600c1c16870101518385015382828260061c16870101518785015316840101518582015301969962006dd5565b905060405162006ed6816200565a565b6000815290565b60ff7ff0c57e16840df040f15088dc2f81fe391c3923bec73e23a9662efc9c229c6a005460401c161562006f0d57565b60046040517fd7e6bcf8000000000000000000000000000000000000000000000000000000008152fd5b815191906041830362006f6b5762006f6492506020820151906060604084015193015160001a9062007107565b9192909190565b505060009160029190565b600481101562007033578062006f8a575050565b6001810362006fbd5760046040517ff645eedf000000000000000000000000000000000000000000000000000000008152fd5b6002810362006ff757602482604051907ffce698f70000000000000000000000000000000000000000000000000000000082526004820152fd5b600314620070025750565b602490604051907fd78bce0c0000000000000000000000000000000000000000000000000000000082526004820152fd5b7f4e487b7100000000000000000000000000000000000000000000000000000000600052602160045260246000fd5b90620070a357508051156200707957805190602001fd5b60046040517f1425ea42000000000000000000000000000000000000000000000000000000008152fd5b81511580620070fd575b620070b6575090565b60249073ffffffffffffffffffffffffffffffffffffffff604051917f9996b315000000000000000000000000000000000000000000000000000000008352166004820152fd5b50803b15620070ad565b91907f7fffffffffffffffffffffffffffffff5d576e7357a4501ddfe92f46681b20a084116200718f57926020929160ff608095604051948552168484015260408301526060820152600092839182805260015afa156200657d57805173ffffffffffffffffffffffffffffffffffffffff8116156200718657918190565b50809160019190565b5050506000916003919056fe60806040526102de8038038061001481610194565b92833981019060408183031261018f5780516001600160a01b03811680820361018f5760208381015190936001600160401b03821161018f570184601f8201121561018f5780519061006d610068836101cf565b610194565b9582875285838301011161018f57849060005b83811061017b57505060009186010152813b15610163577f360894a13ba1a3210667c828492db98dca3e2076cc3735a920a3ca505d382bbc80546001600160a01b03191682179055604051907fbc7cd75a20ee27fd9adebab32041f755214dbc6bffa90cc0225b39da2e5c2d3b600080a28351156101455750600080848461012c96519101845af4903d1561013c573d61011c610068826101cf565b908152600081943d92013e6101ea565b505b6040516090908161024e8239f35b606092506101ea565b9250505034610154575061012e565b63b398979f60e01b8152600490fd5b60249060405190634c9c8ce360e01b82526004820152fd5b818101830151888201840152869201610080565b600080fd5b6040519190601f01601f191682016001600160401b038111838210176101b957604052565b634e487b7160e01b600052604160045260246000fd5b6001600160401b0381116101b957601f01601f191660200190565b9061021157508051156101ff57805190602001fd5b604051630a12f52160e11b8152600490fd5b81511580610244575b610222575090565b604051639996b31560e01b81526001600160a01b039091166004820152602490fd5b50803b1561021a56fe608060405273ffffffffffffffffffffffffffffffffffffffff7f360894a13ba1a3210667c828492db98dca3e2076cc3735a920a3ca505d382bbc54166000808092368280378136915af43d82803e156056573d90f35b3d90fdfea26469706673582212203409c5e3645254405cec23bd4d81aeddd5cfe35adffde4b964c788aa78461f0f64736f6c6343000818003360a0806040523461008e5733156100785760008054336001600160a01b03198216811783556040519290916001600160a01b0316907f8be0079c531659141344cd1fd0a4f28419497f9722a3daafe3b4186f6b6457e09080a333608052610bdf90816100948239608051818181610609015261067f0152f35b631e4fbdf760e01b815260006004820152602490fd5b600080fdfe6080604052600436101561001b575b361561001957600080fd5b005b6000803560e01c908163150b7a021461009e5750806347e1da2a14610099578063715018a6146100945780638da5cb5b1461008f578063b61d27f61461008a578063c45a015514610085578063c4d66de8146100805763f2fde38b0361000e576106de565b61062d565b6105be565b610538565b6104e6565b610449565b6102a0565b346101335760807ffffffffffffffffffffffffffffffffffffffffffffffffffffffffffffffffc360112610133576100d8600435610136565b6100e3602435610136565b60643567ffffffffffffffff811161012f57610103903690600401610159565b50507f150b7a020000000000000000000000000000000000000000000000000000000060805260206080f35b5080fd5b80fd5b73ffffffffffffffffffffffffffffffffffffffff81160361015457565b600080fd5b9181601f840112156101545782359167ffffffffffffffff8311610154576020838186019501011161015457565b9181601f840112156101545782359167ffffffffffffffff8311610154576020808501948460051b01011161015457565b60005b8381106101cb5750506000910152565b81810151838201526020016101bb565b907fffffffffffffffffffffffffffffffffffffffffffffffffffffffffffffffe0601f602093610217815180928187528780880191016101b8565b0116010190565b6020808201906020835283518092526040830192602060408460051b8301019501936000915b8483106102545750505050505090565b9091929394958480610290837fffffffffffffffffffffffffffffffffffffffffffffffffffffffffffffffc086600196030187528a516101db565b9801930193019194939290610244565b60607ffffffffffffffffffffffffffffffffffffffffffffffffffffffffffffffffc3601126101545767ffffffffffffffff600435818111610154576102eb903690600401610187565b60243583811161015457610303903690600401610187565b9190936044359081116101545761031e903690600401610187565b9190926103296109f9565b82821480610438575b61033b90610777565b6103448361086c565b95816103c057505060005b81811061037057505050505061036c905b6040519182918261021e565b0390f35b806103a4610389610384600194868a6108fd565b610912565b61039e61039784888a61091f565b36916109b9565b90610a6f565b6103ae82896109e5565b526103b981886109e5565b500161034f565b9160009391935b8181106103de575050505050505061036c90610360565b8061041c6103f2610384600194868c6108fd565b61041661040084888c61091f565b919061040d868c8c6108fd565b359236916109b9565b91610b15565b610426828b6109e5565b52610431818a6109e5565b50016103c7565b508015806103325750808314610332565b34610154576000807ffffffffffffffffffffffffffffffffffffffffffffffffffffffffffffffffc360112610133576104816109f9565b8073ffffffffffffffffffffffffffffffffffffffff81547fffffffffffffffffffffffff000000000000000000000000000000000000000081168355167f8be0079c531659141344cd1fd0a4f28419497f9722a3daafe3b4186f6b6457e08280a380f35b346101545760007ffffffffffffffffffffffffffffffffffffffffffffffffffffffffffffffffc36011261015457602073ffffffffffffffffffffffffffffffffffffffff60005416604051908152f35b60607ffffffffffffffffffffffffffffffffffffffffffffffffffffffffffffffffc3601126101545760043561056e81610136565b60443567ffffffffffffffff81116101545761036c916105a06105986105aa933690600401610159565b6103976109f9565b9060243590610b15565b6040519182916020835260208301906101db565b346101545760007ffffffffffffffffffffffffffffffffffffffffffffffffffffffffffffffffc36011261015457602060405173ffffffffffffffffffffffffffffffffffffffff7f0000000000000000000000000000000000000000000000000000000000000000168152f35b346101545760207ffffffffffffffffffffffffffffffffffffffffffffffffffffffffffffffffc3601126101545760043561066881610136565b73ffffffffffffffffffffffffffffffffffffffff7f00000000000000000000000000000000000000000000000000000000000000001633036106ae5761001990610b3c565b60246040517f118cdaa7000000000000000000000000000000000000000000000000000000008152336004820152fd5b346101545760207ffffffffffffffffffffffffffffffffffffffffffffffffffffffffffffffffc3601126101545760043561071981610136565b6107216109f9565b73ffffffffffffffffffffffffffffffffffffffff8116156107465761001990610b3c565b60246040517f1e4fbdf700000000000000000000000000000000000000000000000000000000815260006004820152fd5b1561077e57565b60646040517f08c379a000000000000000000000000000000000000000000000000000000000815260206004820152601260248201527f77726f6e67206172726179206c656e67746800000000000000000000000000006044820152fd5b7f4e487b7100000000000000000000000000000000000000000000000000000000600052604160045260246000fd5b907fffffffffffffffffffffffffffffffffffffffffffffffffffffffffffffffe0601f604051930116820182811067ffffffffffffffff82111761084f57604052565b6107dc565b67ffffffffffffffff811161084f5760051b60200190565b9061087e61087983610854565b61080b565b8281527fffffffffffffffffffffffffffffffffffffffffffffffffffffffffffffffe06108ac8294610854565b019060005b8281106108bd57505050565b8060606020809385010152016108b1565b7f4e487b7100000000000000000000000000000000000000000000000000000000600052603260045260246000fd5b919081101561090d5760051b0190565b6108ce565b3561091c81610136565b90565b919081101561090d5760051b810135907fffffffffffffffffffffffffffffffffffffffffffffffffffffffffffffffe18136030182121561015457019081359167ffffffffffffffff8311610154576020018236038113610154579190565b67ffffffffffffffff811161084f57601f017fffffffffffffffffffffffffffffffffffffffffffffffffffffffffffffffe01660200190565b9291926109c86108798361097f565b938285528282011161015457816000926020928387013784010152565b805182101561090d5760209160051b010190565b73ffffffffffffffffffffffffffffffffffffffff6000541633036106ae57565b6020818303126101545780519067ffffffffffffffff8211610154570181601f82011215610154578051610a506108798261097f565b92818452602082840101116101545761091c91602080850191016101b8565b81516000939284928392916020019083905af1913d15610b0d573d90610a976108798361097f565b9182523d81602084013e5b819315610aad575050565b604482511061013357610b09610acf8360248060048301518301019101610a1a565b6040519182917f08c379a00000000000000000000000000000000000000000000000000000000083526020600484015260248301906101db565b0390fd5b606090610aa2565b825160009493859384936020909201915af1913d15610b0d573d90610a976108798361097f565b6000549073ffffffffffffffffffffffffffffffffffffffff80911691827fffffffffffffffffffffffff0000000000000000000000000000000000000000821617600055167f8be0079c531659141344cd1fd0a4f28419497f9722a3daafe3b4186f6b6457e0600080a356fea2646970667358221220e7ff2dcb7dd25f0e1c02d38698786ad34fbe930f75f5d40dea3bbb0a92aa67e264736f6c63430008180033a26469706673582212200799c42cb2bc34ba9df14c2ae7a29be5055dcbf3cebd733d4b69cc2a26a9dc6964736f6c63430008180033",
  "linkReferences": {},
  "deployedLinkReferences": {}
}