{
  "_format": "hh-sol-artifact-1",
  "contractName": "Game",
  "sourceName": "contracts/Game.sol",
  "abi": [
    {
      "inputs": [],
      "stateMutability": "nonpayable",
      "type": "constructor"
    },
    {
      "inputs": [
        {
          "internalType": "address",
          "name": "target",
          "type": "address"
        }
      ],
      "name": "AddressEmptyCode",
      "type": "error"
    },
    {
      "inputs": [],
      "name": "ECDSAInvalidSignature",
      "type": "error"
    },
    {
      "inputs": [
        {
          "internalType": "uint256",
          "name": "length",
          "type": "uint256"
        }
      ],
      "name": "ECDSAInvalidSignatureLength",
      "type": "error"
    },
    {
      "inputs": [
        {
          "internalType": "bytes32",
          "name": "s",
          "type": "bytes32"
        }
      ],
      "name": "ECDSAInvalidSignatureS",
      "type": "error"
    },
    {
      "inputs": [],
      "name": "ERC721EnumerableForbiddenBatchMint",
      "type": "error"
    },
    {
      "inputs": [
        {
          "internalType": "address",
          "name": "sender",
          "type": "address"
        },
        {
          "internalType": "uint256",
          "name": "tokenId",
          "type": "uint256"
        },
        {
          "internalType": "address",
          "name": "owner",
          "type": "address"
        }
      ],
      "name": "ERC721IncorrectOwner",
      "type": "error"
    },
    {
      "inputs": [
        {
          "internalType": "address",
          "name": "operator",
          "type": "address"
        },
        {
          "internalType": "uint256",
          "name": "tokenId",
          "type": "uint256"
        }
      ],
      "name": "ERC721InsufficientApproval",
      "type": "error"
    },
    {
      "inputs": [
        {
          "internalType": "address",
          "name": "approver",
          "type": "address"
        }
      ],
      "name": "ERC721InvalidApprover",
      "type": "error"
    },
    {
      "inputs": [
        {
          "internalType": "address",
          "name": "operator",
          "type": "address"
        }
      ],
      "name": "ERC721InvalidOperator",
      "type": "error"
    },
    {
      "inputs": [
        {
          "internalType": "address",
          "name": "owner",
          "type": "address"
        }
      ],
      "name": "ERC721InvalidOwner",
      "type": "error"
    },
    {
      "inputs": [
        {
          "internalType": "address",
          "name": "receiver",
          "type": "address"
        }
      ],
      "name": "ERC721InvalidReceiver",
      "type": "error"
    },
    {
      "inputs": [
        {
          "internalType": "address",
          "name": "sender",
          "type": "address"
        }
      ],
      "name": "ERC721InvalidSender",
      "type": "error"
    },
    {
      "inputs": [
        {
          "internalType": "uint256",
          "name": "tokenId",
          "type": "uint256"
        }
      ],
      "name": "ERC721NonexistentToken",
      "type": "error"
    },
    {
      "inputs": [
        {
          "internalType": "address",
          "name": "owner",
          "type": "address"
        },
        {
          "internalType": "uint256",
          "name": "index",
          "type": "uint256"
        }
      ],
      "name": "ERC721OutOfBoundsIndex",
      "type": "error"
    },
    {
      "inputs": [],
      "name": "FailedInnerCall",
      "type": "error"
    },
    {
      "inputs": [],
      "name": "InvalidInitialization",
      "type": "error"
    },
    {
      "inputs": [],
      "name": "NotInitializing",
      "type": "error"
    },
    {
      "inputs": [
        {
          "internalType": "address",
          "name": "owner",
          "type": "address"
        }
      ],
      "name": "OwnableInvalidOwner",
      "type": "error"
    },
    {
      "inputs": [
        {
          "internalType": "address",
          "name": "account",
          "type": "address"
        }
      ],
      "name": "OwnableUnauthorizedAccount",
      "type": "error"
    },
    {
      "inputs": [
        {
          "internalType": "uint256",
          "name": "value",
          "type": "uint256"
        },
        {
          "internalType": "uint256",
          "name": "length",
          "type": "uint256"
        }
      ],
      "name": "StringsInsufficientHexLength",
      "type": "error"
    },
    {
      "anonymous": false,
      "inputs": [
        {
          "indexed": true,
          "internalType": "address",
          "name": "owner",
          "type": "address"
        },
        {
          "indexed": true,
          "internalType": "address",
          "name": "approved",
          "type": "address"
        },
        {
          "indexed": true,
          "internalType": "uint256",
          "name": "tokenId",
          "type": "uint256"
        }
      ],
      "name": "Approval",
      "type": "event"
    },
    {
      "anonymous": false,
      "inputs": [
        {
          "indexed": true,
          "internalType": "address",
          "name": "owner",
          "type": "address"
        },
        {
          "indexed": true,
          "internalType": "address",
          "name": "operator",
          "type": "address"
        },
        {
          "indexed": false,
          "internalType": "bool",
          "name": "approved",
          "type": "bool"
        }
      ],
      "name": "ApprovalForAll",
      "type": "event"
    },
    {
      "anonymous": false,
      "inputs": [
        {
          "indexed": false,
          "internalType": "uint64",
          "name": "version",
          "type": "uint64"
        }
      ],
      "name": "Initialized",
      "type": "event"
    },
    {
      "anonymous": false,
      "inputs": [
        {
          "indexed": true,
          "internalType": "address",
          "name": "previousOwner",
          "type": "address"
        },
        {
          "indexed": true,
          "internalType": "address",
          "name": "newOwner",
          "type": "address"
        }
      ],
      "name": "OwnershipTransferred",
      "type": "event"
    },
    {
      "anonymous": false,
      "inputs": [
        {
          "indexed": true,
          "internalType": "address",
          "name": "from",
          "type": "address"
        },
        {
          "indexed": true,
          "internalType": "address",
          "name": "to",
          "type": "address"
        },
        {
          "indexed": true,
          "internalType": "uint256",
          "name": "tokenId",
          "type": "uint256"
        }
      ],
      "name": "Transfer",
      "type": "event"
    },
    {
      "inputs": [],
      "name": "accountImplementation",
      "outputs": [
        {
          "internalType": "contract Wallet",
          "name": "",
          "type": "address"
        }
      ],
      "stateMutability": "view",
      "type": "function"
    },
    {
      "inputs": [
        {
          "internalType": "address",
          "name": "to",
          "type": "address"
        },
        {
          "internalType": "uint256",
          "name": "tokenId",
          "type": "uint256"
        }
      ],
      "name": "approve",
      "outputs": [],
      "stateMutability": "nonpayable",
      "type": "function"
    },
    {
      "inputs": [],
      "name": "awardToken",
      "outputs": [
        {
          "internalType": "address",
          "name": "",
          "type": "address"
        }
      ],
      "stateMutability": "view",
      "type": "function"
    },
    {
      "inputs": [
        {
          "internalType": "address",
          "name": "owner",
          "type": "address"
        }
      ],
      "name": "balanceOf",
      "outputs": [
        {
          "internalType": "uint256",
          "name": "",
          "type": "uint256"
        }
      ],
      "stateMutability": "view",
      "type": "function"
    },
    {
      "inputs": [
        {
          "internalType": "uint256",
          "name": "counter",
          "type": "uint256"
        }
      ],
      "name": "counterToTokenId",
      "outputs": [
        {
          "internalType": "uint256",
          "name": "tokenId",
          "type": "uint256"
        }
      ],
      "stateMutability": "view",
      "type": "function"
    },
    {
      "inputs": [
        {
          "internalType": "address",
          "name": "owner",
          "type": "address"
        }
      ],
      "name": "createAccount",
      "outputs": [
        {
          "internalType": "contract Wallet",
          "name": "ret",
          "type": "address"
        }
      ],
      "stateMutability": "nonpayable",
      "type": "function"
    },
    {
      "inputs": [],
      "name": "gameStatus",
      "outputs": [
        {
          "internalType": "uint256",
          "name": "totalChallanges",
          "type": "uint256"
        },
        {
          "internalType": "uint256",
          "name": "ongoingChallanges",
          "type": "uint256"
        },
        {
          "internalType": "uint256",
          "name": "solvedChallanges",
          "type": "uint256"
        },
        {
          "internalType": "uint256",
          "name": "verifiedChallanges",
          "type": "uint256"
        }
      ],
      "stateMutability": "view",
      "type": "function"
    },
    {
      "inputs": [
        {
          "internalType": "address",
          "name": "owner",
          "type": "address"
        },
        {
          "internalType": "uint256",
          "name": "salt",
          "type": "uint256"
        }
      ],
      "name": "getAccountAddress",
      "outputs": [
        {
          "internalType": "address",
          "name": "",
          "type": "address"
        }
      ],
      "stateMutability": "view",
      "type": "function"
    },
    {
      "inputs": [
        {
          "internalType": "address",
          "name": "owner",
          "type": "address"
        }
      ],
      "name": "getAccountAddress",
      "outputs": [
        {
          "internalType": "address",
          "name": "",
          "type": "address"
        }
      ],
      "stateMutability": "view",
      "type": "function"
    },
    {
      "inputs": [
        {
          "internalType": "uint256",
          "name": "tokenId",
          "type": "uint256"
        }
      ],
      "name": "getApproved",
      "outputs": [
        {
          "internalType": "address",
          "name": "",
          "type": "address"
        }
      ],
      "stateMutability": "view",
      "type": "function"
    },
    {
      "inputs": [
        {
          "internalType": "uint256",
          "name": "startNumber",
          "type": "uint256"
        },
        {
          "internalType": "uint256",
          "name": "endNumber",
          "type": "uint256"
        }
      ],
      "name": "getNfts",
      "outputs": [
        {
          "components": [
            {
              "internalType": "uint256",
              "name": "id",
              "type": "uint256"
            },
            {
              "internalType": "string",
              "name": "name",
              "type": "string"
            },
            {
              "internalType": "string",
              "name": "description",
              "type": "string"
            },
            {
              "internalType": "string",
              "name": "gameType",
              "type": "string"
            },
            {
              "internalType": "string",
              "name": "imageUri",
              "type": "string"
            },
            {
              "internalType": "uint128",
              "name": "startDate",
              "type": "uint128"
            },
            {
              "internalType": "uint128",
              "name": "endDate",
              "type": "uint128"
            },
            {
              "internalType": "uint256",
              "name": "awards",
              "type": "uint256"
            }
          ],
          "internalType": "struct Game.NftData[]",
          "name": "data",
          "type": "tuple[]"
        }
      ],
      "stateMutability": "view",
      "type": "function"
    },
    {
      "inputs": [
        {
          "internalType": "address",
          "name": "user",
          "type": "address"
        }
      ],
      "name": "getPortfolioMaker",
      "outputs": [
        {
          "components": [
            {
              "internalType": "uint256",
              "name": "id",
              "type": "uint256"
            },
            {
              "internalType": "string",
              "name": "name",
              "type": "string"
            },
            {
              "internalType": "string",
              "name": "description",
              "type": "string"
            },
            {
              "internalType": "string",
              "name": "gameType",
              "type": "string"
            },
            {
              "internalType": "string",
              "name": "imageUri",
              "type": "string"
            },
            {
              "internalType": "uint128",
              "name": "startDate",
              "type": "uint128"
            },
            {
              "internalType": "uint128",
              "name": "endDate",
              "type": "uint128"
            },
            {
              "internalType": "uint256",
              "name": "awards",
              "type": "uint256"
            }
          ],
          "internalType": "struct Game.NftData[]",
          "name": "data",
          "type": "tuple[]"
        }
      ],
      "stateMutability": "view",
      "type": "function"
    },
    {
      "inputs": [
        {
          "internalType": "address",
          "name": "user",
          "type": "address"
        }
      ],
      "name": "getPortfolioSolver",
      "outputs": [
        {
          "components": [
            {
              "internalType": "uint256",
              "name": "id",
              "type": "uint256"
            },
            {
              "internalType": "string",
              "name": "name",
              "type": "string"
            },
            {
              "internalType": "string",
              "name": "description",
              "type": "string"
            },
            {
              "internalType": "string",
              "name": "gameType",
              "type": "string"
            },
            {
              "internalType": "string",
              "name": "imageUri",
              "type": "string"
            },
            {
              "internalType": "uint128",
              "name": "startDate",
              "type": "uint128"
            },
            {
              "internalType": "uint128",
              "name": "endDate",
              "type": "uint128"
            },
            {
              "internalType": "uint256",
              "name": "awards",
              "type": "uint256"
            }
          ],
          "internalType": "struct Game.NftData[]",
          "name": "data",
          "type": "tuple[]"
        }
      ],
      "stateMutability": "view",
      "type": "function"
    },
    {
      "inputs": [
        {
          "internalType": "uint256",
          "name": "tokenId",
          "type": "uint256"
        },
        {
          "internalType": "address",
          "name": "nftAddress",
          "type": "address"
        }
      ],
      "name": "hasBadge",
      "outputs": [
        {
          "internalType": "bool",
          "name": "",
          "type": "bool"
        }
      ],
      "stateMutability": "view",
      "type": "function"
    },
    {
      "inputs": [
        {
          "internalType": "address",
          "name": "initialOwner_",
          "type": "address"
        },
        {
          "internalType": "address",
          "name": "awardToken_",
          "type": "address"
        }
      ],
      "name": "initialize",
      "outputs": [],
      "stateMutability": "nonpayable",
      "type": "function"
    },
    {
      "inputs": [
        {
          "internalType": "string",
          "name": "name_",
          "type": "string"
        },
        {
          "internalType": "string",
          "name": "symbol_",
          "type": "string"
        }
      ],
      "name": "initialize",
      "outputs": [],
      "stateMutability": "nonpayable",
      "type": "function"
    },
    {
      "inputs": [
        {
          "internalType": "address",
          "name": "owner",
          "type": "address"
        },
        {
          "internalType": "address",
          "name": "operator",
          "type": "address"
        }
      ],
      "name": "isApprovedForAll",
      "outputs": [
        {
          "internalType": "bool",
          "name": "",
          "type": "bool"
        }
      ],
      "stateMutability": "view",
      "type": "function"
    },
    {
      "inputs": [
        {
          "internalType": "uint256",
          "name": "tokenId",
          "type": "uint256"
        }
      ],
      "name": "isEnded",
      "outputs": [
        {
          "internalType": "bool",
          "name": "",
          "type": "bool"
        }
      ],
      "stateMutability": "view",
      "type": "function"
    },
    {
      "inputs": [
        {
          "internalType": "uint256",
          "name": "tokenId",
          "type": "uint256"
        }
      ],
      "name": "isOngoing",
      "outputs": [
        {
          "internalType": "bool",
          "name": "",
          "type": "bool"
        }
      ],
      "stateMutability": "view",
      "type": "function"
    },
    {
      "inputs": [
        {
          "internalType": "uint256",
          "name": "tokenId",
          "type": "uint256"
        }
      ],
      "name": "isSolved",
      "outputs": [
        {
          "internalType": "bool",
          "name": "",
          "type": "bool"
        }
      ],
      "stateMutability": "view",
      "type": "function"
    },
    {
      "inputs": [
        {
          "internalType": "uint256",
          "name": "tokenId",
          "type": "uint256"
        }
      ],
      "name": "metas",
      "outputs": [
        {
          "internalType": "string",
          "name": "name",
          "type": "string"
        },
        {
          "internalType": "string",
          "name": "description",
          "type": "string"
        },
        {
          "internalType": "string",
          "name": "gameType",
          "type": "string"
        },
        {
          "internalType": "bytes32",
          "name": "prompt",
          "type": "bytes32"
        },
        {
          "internalType": "bytes32",
          "name": "secret",
          "type": "bytes32"
        },
        {
          "internalType": "uint128",
          "name": "start",
          "type": "uint128"
        },
        {
          "internalType": "uint128",
          "name": "end",
          "type": "uint128"
        },
        {
          "internalType": "address",
          "name": "winner",
          "type": "address"
        }
      ],
      "stateMutability": "view",
      "type": "function"
    },
    {
      "inputs": [
        {
          "internalType": "address",
          "name": "to",
          "type": "address"
        }
      ],
      "name": "mint",
      "outputs": [
        {
          "internalType": "uint256",
          "name": "tokenId",
          "type": "uint256"
        }
      ],
      "stateMutability": "pure",
      "type": "function"
    },
    {
      "inputs": [
        {
          "internalType": "address",
          "name": "to",
          "type": "address"
        },
        {
          "components": [
            {
              "internalType": "string",
              "name": "name",
              "type": "string"
            },
            {
              "internalType": "string",
              "name": "description",
              "type": "string"
            },
            {
              "internalType": "string",
              "name": "gameType",
              "type": "string"
            },
            {
              "internalType": "bytes32",
              "name": "prompt",
              "type": "bytes32"
            },
            {
              "internalType": "bytes32",
              "name": "secret",
              "type": "bytes32"
            },
            {
              "internalType": "uint128",
              "name": "start",
              "type": "uint128"
            },
            {
              "internalType": "uint128",
              "name": "end",
              "type": "uint128"
            },
            {
              "internalType": "address",
              "name": "winner",
              "type": "address"
            }
          ],
          "internalType": "struct Metadata",
          "name": "metadata",
          "type": "tuple"
        },
        {
          "internalType": "uint256",
          "name": "awards",
          "type": "uint256"
        }
      ],
      "name": "mint",
      "outputs": [
        {
          "internalType": "uint256",
          "name": "tokenId",
          "type": "uint256"
        }
      ],
      "stateMutability": "nonpayable",
      "type": "function"
    },
    {
      "inputs": [
        {
          "internalType": "bytes[]",
          "name": "data",
          "type": "bytes[]"
        }
      ],
      "name": "multicall",
      "outputs": [
        {
          "internalType": "bytes[]",
          "name": "results",
          "type": "bytes[]"
        }
      ],
      "stateMutability": "nonpayable",
      "type": "function"
    },
    {
      "inputs": [],
      "name": "name",
      "outputs": [
        {
          "internalType": "string",
          "name": "",
          "type": "string"
        }
      ],
      "stateMutability": "view",
      "type": "function"
    },
    {
      "inputs": [],
      "name": "owner",
      "outputs": [
        {
          "internalType": "address",
          "name": "",
          "type": "address"
        }
      ],
      "stateMutability": "view",
      "type": "function"
    },
    {
      "inputs": [
        {
          "internalType": "uint256",
          "name": "tokenId",
          "type": "uint256"
        }
      ],
      "name": "ownerOf",
      "outputs": [
        {
          "internalType": "address",
          "name": "",
          "type": "address"
        }
      ],
      "stateMutability": "view",
      "type": "function"
    },
    {
      "inputs": [
        {
          "internalType": "address",
          "name": "solver",
          "type": "address"
        }
      ],
      "name": "registeredSolver",
      "outputs": [
        {
          "internalType": "bool",
          "name": "registered",
          "type": "bool"
        }
      ],
      "stateMutability": "view",
      "type": "function"
    },
    {
      "inputs": [],
      "name": "renounceOwnership",
      "outputs": [],
      "stateMutability": "nonpayable",
      "type": "function"
    },
    {
      "inputs": [
        {
          "internalType": "address",
          "name": "from",
          "type": "address"
        },
        {
          "internalType": "address",
          "name": "to",
          "type": "address"
        },
        {
          "internalType": "uint256",
          "name": "tokenId",
          "type": "uint256"
        }
      ],
      "name": "safeTransferFrom",
      "outputs": [],
      "stateMutability": "nonpayable",
      "type": "function"
    },
    {
      "inputs": [
        {
          "internalType": "address",
          "name": "from",
          "type": "address"
        },
        {
          "internalType": "address",
          "name": "to",
          "type": "address"
        },
        {
          "internalType": "uint256",
          "name": "tokenId",
          "type": "uint256"
        },
        {
          "internalType": "bytes",
          "name": "data",
          "type": "bytes"
        }
      ],
      "name": "safeTransferFrom",
      "outputs": [],
      "stateMutability": "nonpayable",
      "type": "function"
    },
    {
      "inputs": [
        {
          "internalType": "address",
          "name": "",
          "type": "address"
        }
      ],
      "name": "salts",
      "outputs": [
        {
          "internalType": "uint256",
          "name": "",
          "type": "uint256"
        }
      ],
      "stateMutability": "view",
      "type": "function"
    },
    {
      "inputs": [
        {
          "internalType": "address",
          "name": "operator",
          "type": "address"
        },
        {
          "internalType": "bool",
          "name": "approved",
          "type": "bool"
        }
      ],
      "name": "setApprovalForAll",
      "outputs": [],
      "stateMutability": "nonpayable",
      "type": "function"
    },
    {
      "inputs": [
        {
          "internalType": "uint256",
          "name": "tokenId",
          "type": "uint256"
        },
        {
          "internalType": "address",
          "name": "winner",
          "type": "address"
        },
        {
          "internalType": "bytes",
          "name": "signature",
          "type": "bytes"
        }
      ],
      "name": "solved",
      "outputs": [],
      "stateMutability": "nonpayable",
      "type": "function"
    },
    {
      "inputs": [
        {
          "internalType": "address",
          "name": "solver",
          "type": "address"
        }
      ],
      "name": "solvedAwards",
      "outputs": [
        {
          "internalType": "uint256",
          "name": "totalAwards",
          "type": "uint256"
        }
      ],
      "stateMutability": "view",
      "type": "function"
    },
    {
      "inputs": [
        {
          "internalType": "address",
          "name": "solver",
          "type": "address"
        }
      ],
      "name": "solvedCounts",
      "outputs": [
        {
          "internalType": "uint256",
          "name": "count",
          "type": "uint256"
        }
      ],
      "stateMutability": "view",
      "type": "function"
    },
    {
      "inputs": [
        {
          "internalType": "address",
          "name": "solver",
          "type": "address"
        },
        {
          "internalType": "uint256",
          "name": "",
          "type": "uint256"
        }
      ],
      "name": "solvedGames",
      "outputs": [
        {
          "internalType": "uint256",
          "name": "tokenIds",
          "type": "uint256"
        }
      ],
      "stateMutability": "view",
      "type": "function"
    },
    {
      "inputs": [
        {
          "internalType": "uint256",
          "name": "",
          "type": "uint256"
        }
      ],
      "name": "solverList",
      "outputs": [
        {
          "internalType": "address",
          "name": "",
          "type": "address"
        }
      ],
      "stateMutability": "view",
      "type": "function"
    },
    {
      "inputs": [
        {
          "internalType": "bytes4",
          "name": "interfaceId",
          "type": "bytes4"
        }
      ],
      "name": "supportsInterface",
      "outputs": [
        {
          "internalType": "bool",
          "name": "",
          "type": "bool"
        }
      ],
      "stateMutability": "view",
      "type": "function"
    },
    {
      "inputs": [],
      "name": "symbol",
      "outputs": [
        {
          "internalType": "string",
          "name": "",
          "type": "string"
        }
      ],
      "stateMutability": "view",
      "type": "function"
    },
    {
      "inputs": [
        {
          "internalType": "uint256",
          "name": "index",
          "type": "uint256"
        }
      ],
      "name": "tokenByIndex",
      "outputs": [
        {
          "internalType": "uint256",
          "name": "",
          "type": "uint256"
        }
      ],
      "stateMutability": "view",
      "type": "function"
    },
    {
      "inputs": [
        {
          "internalType": "uint256",
          "name": "tokenId",
          "type": "uint256"
        }
      ],
      "name": "tokenIdToCounter",
      "outputs": [
        {
          "internalType": "uint256",
          "name": "counter",
          "type": "uint256"
        }
      ],
      "stateMutability": "view",
      "type": "function"
    },
    {
      "inputs": [
        {
          "internalType": "address",
          "name": "owner",
          "type": "address"
        },
        {
          "internalType": "uint256",
          "name": "index",
          "type": "uint256"
        }
      ],
      "name": "tokenOfOwnerByIndex",
      "outputs": [
        {
          "internalType": "uint256",
          "name": "",
          "type": "uint256"
        }
      ],
      "stateMutability": "view",
      "type": "function"
    },
    {
      "inputs": [
        {
          "internalType": "uint256",
          "name": "tokenId",
          "type": "uint256"
        }
      ],
      "name": "tokenURI",
      "outputs": [
        {
          "internalType": "string",
          "name": "",
          "type": "string"
        }
      ],
      "stateMutability": "view",
      "type": "function"
    },
    {
      "inputs": [],
      "name": "totalEnd",
      "outputs": [
        {
          "internalType": "uint256",
          "name": "",
          "type": "uint256"
        }
      ],
      "stateMutability": "view",
      "type": "function"
    },
    {
      "inputs": [],
      "name": "totalOngoing",
      "outputs": [
        {
          "internalType": "uint256",
          "name": "",
          "type": "uint256"
        }
      ],
      "stateMutability": "view",
      "type": "function"
    },
    {
      "inputs": [],
      "name": "totalSolved",
      "outputs": [
        {
          "internalType": "uint256",
          "name": "",
          "type": "uint256"
        }
      ],
      "stateMutability": "view",
      "type": "function"
    },
    {
      "inputs": [],
      "name": "totalSupply",
      "outputs": [
        {
          "internalType": "uint256",
          "name": "",
          "type": "uint256"
        }
      ],
      "stateMutability": "view",
      "type": "function"
    },
    {
      "inputs": [],
      "name": "totalVerified",
      "outputs": [
        {
          "internalType": "uint256",
          "name": "",
          "type": "uint256"
        }
      ],
      "stateMutability": "view",
      "type": "function"
    },
    {
      "inputs": [
        {
          "internalType": "address",
          "name": "from",
          "type": "address"
        },
        {
          "internalType": "address",
          "name": "to",
          "type": "address"
        },
        {
          "internalType": "uint256",
          "name": "tokenId",
          "type": "uint256"
        }
      ],
      "name": "transferFrom",
      "outputs": [],
      "stateMutability": "nonpayable",
      "type": "function"
    },
    {
      "inputs": [
        {
          "internalType": "address",
          "name": "newOwner",
          "type": "address"
        }
      ],
      "name": "transferOwnership",
      "outputs": [],
      "stateMutability": "nonpayable",
      "type": "function"
    },
    {
      "inputs": [
        {
          "internalType": "uint256",
          "name": "tokenId",
          "type": "uint256"
        },
        {
          "internalType": "address",
          "name": "nftAddress",
          "type": "address"
        }
      ],
      "name": "verified",
      "outputs": [],
      "stateMutability": "nonpayable",
      "type": "function"
    }
  ],
  "bytecode": "0x6080604052346200002e576200001462000033565b6200001e62000033565b604051617ddf9081620000d38239f35b600080fd5b7ff0c57e16840df040f15088dc2f81fe391c3923bec73e23a9662efc9c229c6a00805460ff8160401c16620000c0576001600160401b036002600160401b0319828216016200008157505050565b6001600160401b031990911681179091556040519081527fc7f505b2f371ae2175ee4913f4499e1f2633a7b5936321eed1cdaeb6115181d290602090a1565b60405163f92ee8a960e01b8152600490fdfe60808060405260043610156200001457600080fd5b600090813560e01c9081627c94b614620051205750806301ffc9a71462004ff45780630661d1dc1462004f8f57806306fdde031462004e52578063081812fc1462004dc7578063095ea7b31462004c1f5780630d253d761462004ad257806311464fbe1462004a7f57806318160ddd1462004a2257806323b872dd1462004a0557806324d735671462004801578063277ecfbb14620046f85780632f745c5914620046ac578063415fa50a146200464557806342842e0e1462004616578063485cc9551462003da05780634cd88b7614620037595780634f6ccce714620036b6578063502c040b14620035c557806354c87af4146200357b578063572edf7914620032255780635872fe4514620031dd5780636352211e146200319c578063676db98114620031305780636a627842146200309557806370a08231146200304d578063715018a61462002f8b578063722fed7e1462002f0e57806374de69e31462002e865780638ad4154d1462002a275780638da5cb5b14620029b457806395d89b41146200286257806395ecc64214620027625780639859387b14620026fc5780639dd3e25514620026b2578063a22cb4651462002584578063a4abc3f914620022b7578063ac9650d81462002061578063b23e44801462001ffa578063b66f7a8b1462001f15578063b88d4fde1462001e9c578063c516e1561462001e5e578063c87b56dd14620016b9578063d2da7bca1462001665578063e715de2814620007c6578063e985e9c51462000704578063ef79266214620006c7578063f2fde38b1462000674578063f9bc3f401462000628578063fac6350d1462000344578063fe7f43da14620002d15763fe9eba15146200029157600080fd5b34620002ce57807ffffffffffffffffffffffffffffffffffffffffffffffffffffffffffffffffc360112620002ce576020600754604051908152f35b80fd5b5034620002ce5760207ffffffffffffffffffffffffffffffffffffffffffffffffffffffffffffffffc360112620002ce5760043590600c54821015620002ce57602073ffffffffffffffffffffffffffffffffffffffff62000334846200569b565b9190546040519260031b1c168152f35b5034620002ce5760407ffffffffffffffffffffffffffffffffffffffffffffffffffffffffffffffffc360112620002ce57620003906200038a60043560243562006251565b62005ee9565b60025473ffffffffffffffffffffffffffffffffffffffff166004355b6024358110620003cb5760405180620003c785826200552d565b0390f35b80845260046020526040842054908185526003602052604085209160405190620003f582620052ef565b6200040084620053d5565b82526200041060018501620053d5565b602083015273ffffffffffffffffffffffffffffffffffffffff60066200043a60028701620053d5565b95866040860152600381015460608601526004810154608086015260058101546fffffffffffffffffffffffffffffffff811660a087015260801c60c086015201541660e0830152815191602081015190604051620004998162005359565b898152620004eb6020620004ad8862006687565b926040519381620004c88693518092868087019101620051cc565b8201620004de82518093868085019101620051cc565b0103808452018262005393565b6fffffffffffffffffffffffffffffffff60c08160a085015116930151169273ffffffffffffffffffffffffffffffffffffffff604051957f70a082310000000000000000000000000000000000000000000000000000000087521660048601526020856024818c5afa9485156200061d578b95620005d3575b5090600197620005cb9695949392604051966200058288620052ef565b898852602088015260408701526060860152608085015260a084015260c083015260e0820152620005b66004358462006251565b90620005c3828862005f97565b528562005f97565b5001620003ad565b9594509291906020863d60201162000614575b81620005f56020938362005393565b810103126200060f57945193949192909190600162000565565b600080fd5b3d9150620005e6565b6040513d8d823e3d90fd5b5034620002ce57807ffffffffffffffffffffffffffffffffffffffffffffffffffffffffffffffffc360112620002ce5760206200066c6006546007549062005e0c565b604051908152f35b5034620002ce5760207ffffffffffffffffffffffffffffffffffffffffffffffffffffffffffffffffc360112620002ce57620006c4620006b462005184565b620006be62006616565b620064b1565b80f35b5034620002ce57807ffffffffffffffffffffffffffffffffffffffffffffffffffffffffffffffffc360112620002ce5760206200066c62006473565b5034620002ce5760407ffffffffffffffffffffffffffffffffffffffffffffffffffffffffffffffffc360112620002ce576200074062005184565b73ffffffffffffffffffffffffffffffffffffffff620007a962000763620051a8565b9273ffffffffffffffffffffffffffffffffffffffff166000527f80bb2b638cc20bc4d0a60d66940f3ab4a00c1d7b313497ca82fb0b4ab0079305602052604060002090565b9116600052602052602060ff604060002054166040519015158152f35b5034620002ce577ffffffffffffffffffffffffffffffffffffffffffffffffffffffffffffffffc60608136011262001661576200080362005184565b906024359067ffffffffffffffff821162001305576101009082360301126200130157604051906200083582620052ef565b806004013567ffffffffffffffff81116200165d576200085c9060043691840101620054e0565b8252602481013567ffffffffffffffff81116200165d57620008859060043691840101620054e0565b602083015260448101359067ffffffffffffffff82116200165d57620008b460e49260043691840101620054e0565b60408401526064810135606084015260848101356080840152620008db60a48201620056ec565b60a0840152620008ee60c48201620056ec565b60c0840152013573ffffffffffffffffffffffffffffffffffffffff811681036200060f5760e082015273ffffffffffffffffffffffffffffffffffffffff620009388362006142565b169173ffffffffffffffffffffffffffffffffffffffff8116156200162c57826000527f80bb2b638cc20bc4d0a60d66940f3ab4a00c1d7b313497ca82fb0b4ab0079302908160205273ffffffffffffffffffffffffffffffffffffffff6040600020541691826200155d575b620009ef8273ffffffffffffffffffffffffffffffffffffffff166000527f80bb2b638cc20bc4d0a60d66940f3ab4a00c1d7b313497ca82fb0b4ab0079303602052604060002090565b6001815401905584600052602052604060002073ffffffffffffffffffffffffffffffffffffffff82167fffffffffffffffffffffffff00000000000000000000000000000000000000008254161790558373ffffffffffffffffffffffffffffffffffffffff8216837fddf252ad1be2c89b69c2b068fc378daa952ba7f163c4a11628f55a4df523b3ef600080a4816200145c577f645e039705490088daad89bae25049a34f4a9072d398537b1ab2425f24cbed0254846000527f645e039705490088daad89bae25049a34f4a9072d398537b1ab2425f24cbed0360205260406000205562000adf84620060f5565b73ffffffffffffffffffffffffffffffffffffffff811682036200134e575b506200131d5760443562001259575b7f645e039705490088daad89bae25049a34f4a9072d398537b1ab2425f24cbed0254807fffffffffffffffffffffffffffffffffffffffffffffffffffffffffffffffff8101116200122c57807fffffffffffffffffffffffffffffffffffffffffffffffffffffffffffffffff809201855260046020528360408620558385526005602052016040842055805190602081015190604081015160608201516080830151916fffffffffffffffffffffffffffffffff60c08160a08701511695015116946040519662000be088620052ef565b8752602087015260408601526060850152608084015260a083015260c08201528260e0820152818352600360205260408320815180519067ffffffffffffffff8211620010d857819062000c35845462005299565b601f8111620011d9575b50602090601f83116001146200111157879262001105575b50507fffffffffffffffffffffffffffffffffffffffffffffffffffffffffffffffff8260011b9260031b1c19161781555b602082015180519067ffffffffffffffff8211620010d857819062000cb2600185015462005299565b601f811162001082575b50602090601f831160011462000fb457879262000fa8575b50507fffffffffffffffffffffffffffffffffffffffffffffffffffffffffffffffff8260011b9260031b1c19161760018201555b604082015193845167ffffffffffffffff811162000f7b5762000d30600284015462005299565b95601f871162000f31575b602096508690601f831160011462000e4c57928260069373ffffffffffffffffffffffffffffffffffffffff969360e096849262000e40575b50507fffffffffffffffffffffffffffffffffffffffffffffffffffffffffffffffff8260011b9260031b1c19161760028301555b606086015160038301556080860151600483015560058201906fffffffffffffffffffffffffffffffff60a0880151168254917fffffffffffffffffffffffffffffffff0000000000000000000000000000000060c08a015160801b1692161717905501920151167fffffffffffffffffffffffff0000000000000000000000000000000000000000825416179055604051908152f35b01519050388062000d74565b9060028501845287842091845b7fffffffffffffffffffffffffffffffffffffffffffffffffffffffffffffffe08516811062000f1957508373ffffffffffffffffffffffffffffffffffffffff969360e09693600193837fffffffffffffffffffffffffffffffffffffffffffffffffffffffffffffffe0600699161062000ee1575b505050811b01600283015562000da9565b01517fffffffffffffffffffffffffffffffffffffffffffffffffffffffffffffffff60f88460031b161c1916905538808062000ed0565b91928960018192868501518155019401920162000e59565b60028401835260208320601f830160051c81016020841062000f73575b601f890160051c8201811062000f6657505062000d3b565b6000815560010162000f4e565b508062000f4e565b6024827f4e487b710000000000000000000000000000000000000000000000000000000081526041600452fd5b01519050388062000cd4565b9250600184018752602087209087935b7fffffffffffffffffffffffffffffffffffffffffffffffffffffffffffffffe084168510620010665760019450837fffffffffffffffffffffffffffffffffffffffffffffffffffffffffffffffe08116106200102e575b505050811b01600182015562000d09565b01517fffffffffffffffffffffffffffffffffffffffffffffffffffffffffffffffff60f88460031b161c191690553880806200101d565b8181015183556020948501946001909301929091019062000fc4565b90915060018401875260208720601f840160051c810160208510620010d0575b90849392915b601f830160051c82018110620010c057505062000cbc565b60008155859450600101620010a8565b5080620010a2565b6024867f4e487b710000000000000000000000000000000000000000000000000000000081526041600452fd5b01519050388062000c57565b9250838752602087209087935b7fffffffffffffffffffffffffffffffffffffffffffffffffffffffffffffffe084168510620011bd5760019450837fffffffffffffffffffffffffffffffffffffffffffffffffffffffffffffffe081161062001185575b505050811b01815562000c89565b01517fffffffffffffffffffffffffffffffffffffffffffffffffffffffffffffffff60f88460031b161c1916905538808062001177565b818101518355602094850194600190930192909101906200111e565b90915083875260208720601f840160051c81016020851062001224575b90849392915b601f830160051c820181106200121457505062000c3f565b60008155859450600101620011fc565b5080620011f6565b6024847f4e487b710000000000000000000000000000000000000000000000000000000081526011600452fd5b82602073ffffffffffffffffffffffffffffffffffffffff600254166064604051809481937f23b872dd00000000000000000000000000000000000000000000000000000000835233600484015288602484015260443560448401525af180156200131257620012cb575b5062000b0d565b6020813d60201162001309575b81620012e76020938362005393565b8101031262001305575180151503620013015738620012c4565b8280fd5b8380fd5b3d9150620012d8565b6040513d86823e3d90fd5b602483604051907f73c6ac6e0000000000000000000000000000000000000000000000000000000082526004820152fd5b620013598162006059565b807fffffffffffffffffffffffffffffffffffffffffffffffffffffffffffffffff8101116200142d5773ffffffffffffffffffffffffffffffffffffffff7fffffffffffffffffffffffffffffffffffffffffffffffffffffffffffffffff92166000527f645e039705490088daad89bae25049a34f4a9072d398537b1ab2425f24cbed00602052604060002082820160005260205284604060002055846000527f645e039705490088daad89bae25049a34f4a9072d398537b1ab2425f24cbed01602052016040600020553862000afe565b7f4e487b7100000000000000000000000000000000000000000000000000000000600052601160045260246000fd5b73ffffffffffffffffffffffffffffffffffffffff8116821462000adf57620014858262006059565b846000527f645e039705490088daad89bae25049a34f4a9072d398537b1ab2425f24cbed0180602052604060002054908282036200150c575b50508460005260006040812055826000527f645e039705490088daad89bae25049a34f4a9072d398537b1ab2425f24cbed006020526040600020906000526020526000604081205562000adf565b60008581527f645e039705490088daad89bae25049a34f4a9072d398537b1ab2425f24cbed0060209081526040808320868452825280832054858452818420819055835292905220553880620014be565b620015b6856000527f80bb2b638cc20bc4d0a60d66940f3ab4a00c1d7b313497ca82fb0b4ab007930460205260406000207fffffffffffffffffffffffff00000000000000000000000000000000000000008154169055565b620016008373ffffffffffffffffffffffffffffffffffffffff166000527f80bb2b638cc20bc4d0a60d66940f3ab4a00c1d7b313497ca82fb0b4ab0079303602052604060002090565b7fffffffffffffffffffffffffffffffffffffffffffffffffffffffffffffffff8154019055620009a5565b602484604051907f64a0ae920000000000000000000000000000000000000000000000000000000082526004820152fd5b8480fd5b5080fd5b5034620002ce57807ffffffffffffffffffffffffffffffffffffffffffffffffffffffffffffffffc360112620002ce57602073ffffffffffffffffffffffffffffffffffffffff60025416604051908152f35b5034620002ce5760207ffffffffffffffffffffffffffffffffffffffffffffffffffffffffffffffffc360112620002ce57620016f860043562006575565b50600435815260036020526040812073ffffffffffffffffffffffffffffffffffffffff6006604051926200172d84620052ef565b6200173881620053d5565b84526200174860018201620053d5565b60208501526200175b60028201620053d5565b6040850152600381015460608501526004810154608085015260058101546fffffffffffffffffffffffffffffffff811660a086015260801c60c085015201541660e08201528051906020810151620017d26040805195620017bd8762005359565b80875260043581526005602052205462006687565b91604081015190620017e8606082015162006851565b90620017f8608082015162006851565b620018196fffffffffffffffffffffffffffffffff60a08401511662006687565b9373ffffffffffffffffffffffffffffffffffffffff60e0620018526fffffffffffffffffffffffffffffffff60c08701511662006687565b9401511695869760405198620018688a6200533c565b602a8a5260208a01986040368b378a511562001e2f5760308a538a516001101562001e2f57607860218c015360295b6001811162001dbd575062001d8557506040519a8b809b602082017f7b000000000000000000000000000000000000000000000000000000000000009052602182017f226e616d65223a2022000000000000000000000000000000000000000000000090528051602a81930191602001916200191392620051cc565b8b01927f222c2000000000000000000000000000000000000000000000000000000000009384602a820152602d81017f226465736372697074696f6e223a202200000000000000000000000000000000905281519182603d830191602001916200197d92620051cc565b0183603d820152604081017f22696d616765223a202200000000000000000000000000000000000000000000905281519182604a83019160200191620019c392620051cc565b0181519182604a83019160200191620019dc92620051cc565b0190604a820152604d81017f2261747472696275746573223a205b00000000000000000000000000000000009052605c81017f7b2274726169745f74797065223a202254797065222c202276616c7565223a209052607c81017f2200000000000000000000000000000000000000000000000000000000000000905281519182607d8301916020019162001a7092620051cc565b017f227d2c00000000000000000000000000000000000000000000000000000000009384607d830152608082017f7b2274726169745f74797065223a202250726f6d7074222c202276616c75652290527f3a20220000000000000000000000000000000000000000000000000000000000918260a08201528151918260a38301916020019162001b0092620051cc565b01908460a383015260a682017f7b2274726169745f74797065223a2022536563726574222c202276616c756522905260c68201528151918260c98301916020019162001b4c92620051cc565b01928260c9850152827f7b22646973706c61795f74797065223a202264617465222c202274726169745f918260cc87015260ec86017f74797065223a202253746172742064617465222c202276616c7565223a202200905261010b9581519182888301916020019162001bbf92620051cc565b019485015261010e84015261012e83017f74797065223a2022456e642064617465222c202276616c7565223a2022000000905261014b9281519182858301916020019162001c0d92620051cc565b019182015261014e81017f7b2274726169745f74797065223a202257696e6e65722061646472657373222c905261016e81017f202276616c7565223a202200000000000000000000000000000000000000000090526101799251918284830162001c7792620051cc565b019081017f227d000000000000000000000000000000000000000000000000000000000000905261017b81017f5d00000000000000000000000000000000000000000000000000000000000000905261017c81017f7d0000000000000000000000000000000000000000000000000000000000000090520361015d8101825261017d0162001d06908262005393565b62001d1190620069be565b6040518091602082017f646174613a6170706c69636174696f6e2f6a736f6e3b6261736536342c000000905280519081603d8401916020019162001d5592620051cc565b810103601d81018252603d0162001d6d908262005393565b60405180916020825260208201620003c791620051f1565b604490604051907fe22e27eb000000000000000000000000000000000000000000000000000000008252600482015260146024820152fd5b90600f8116601081101562001e2f577f3031323334353637383961626364656600000000000000000000000000000000901a62001dfb838e6200683f565b5360041c9080156200142d577fffffffffffffffffffffffffffffffffffffffffffffffffffffffffffffffff0162001897565b7f4e487b7100000000000000000000000000000000000000000000000000000000600052603260045260246000fd5b5034620002ce57807ffffffffffffffffffffffffffffffffffffffffffffffffffffffffffffffffc360112620002ce576020600654604051908152f35b5034620002ce5760807ffffffffffffffffffffffffffffffffffffffffffffffffffffffffffffffffc360112620002ce5762001ed862005184565b62001ee2620051a8565b6064359167ffffffffffffffff8311620013055762001f0a620006c4933690600401620054e0565b9160443591620062b4565b5034620002ce5760207ffffffffffffffffffffffffffffffffffffffffffffffffffffffffffffffffc360112620002ce5760406020916004358152600383522060405162001f6481620052ef565b62001f6f82620053d5565b815262001f7f60018301620053d5565b8382015262001f9160028301620053d5565b6040820152600382015460608201526004820154608082015260e073ffffffffffffffffffffffffffffffffffffffff600660058501546fffffffffffffffffffffffffffffffff811660a086015260801c948560c08601520154169101526040519042118152f35b5034620002ce5760207ffffffffffffffffffffffffffffffffffffffffffffffffffffffffffffffffc360112620002ce57604060209173ffffffffffffffffffffffffffffffffffffffff6200205062005184565b168152600183522054604051908152f35b5034620002ce576020807ffffffffffffffffffffffffffffffffffffffffffffffffffffffffffffffffc360112620016615760043567ffffffffffffffff808211620013055736602383011215620013055781600401358181116200165d5760059160243683851b8601820111620022b3576040518795949291620020e78262005359565b86825287820193620020f98662005ed0565b9662002109604051988962005393565b8688527fffffffffffffffffffffffffffffffffffffffffffffffffffffffffffffffe0620021388862005ed0565b01895b818110620022a357505088917fffffffffffffffffffffffffffffffffffffffffffffffffffffffffffffffbd82360301925b888110620021f7578b8b8b60405191838301848452825180915260408401948060408360051b870101940192955b828710620021aa5785850386f35b909192938280620021e6837fffffffffffffffffffffffffffffffffffffffffffffffffffffffffffffffc08a600196030186528851620051f1565b96019201960195929190926200219c565b8481839d9c9d1b84010135848112156200229f5783019085820135918883116200229b576044018d8336038213620002ce578062002277928f62002260620004de918f988e60019a60405195838794868601998a37840191858301938a855251938491620051cc565b5190305af46200226f6200680a565b903062006d1f565b62002283828d62005f97565b5262002290818c62005f97565b50019a999a6200216e565b8d80fd5b8c80fd5b60608a82018d01528b016200213b565b8680fd5b5034620002ce5760207ffffffffffffffffffffffffffffffffffffffffffffffffffffffffffffffffc360112620002ce57620022f362005184565b620022fe8162006059565b620023098162005ee9565b91839073ffffffffffffffffffffffffffffffffffffffff60025416915b8381106200233f5760405180620003c787826200552d565b806200234d84928462005e1a565b808852600560205287604081205491600360205260408220604051906200237482620052ef565b6200237f81620053d5565b82526200238f60018201620053d5565b602083015273ffffffffffffffffffffffffffffffffffffffff6006620023b960028401620053d5565b92836040860152600381015460608601526004810154608086015260058101546fffffffffffffffffffffffffffffffff811660a087015260801c60c086015201541660e0830152815190602083015160405192620024188462005359565b8684526200246a60206200242c8a62006687565b956040519681620024478993518092868087019101620051cc565b82016200245d82518093868085019101620051cc565b0103808752018562005393565b602073ffffffffffffffffffffffffffffffffffffffff60246fffffffffffffffffffffffffffffffff60c08160a08b01511699015116986040519d8e9384927f70a082310000000000000000000000000000000000000000000000000000000084521660048301525afa9687156200257857966200253d575b6001995060405197620024f789620052ef565b8852602088015260408701526060860152608085015260a084015260c083015260e082015262002528828862005f97565b5262002535818762005f97565b500162002327565b95506020893d6020116200256f575b816200255b6020938362005393565b810103126200060f576001985195620024e4565b3d91506200254c565b604051903d90823e3d90fd5b5034620002ce5760407ffffffffffffffffffffffffffffffffffffffffffffffffffffffffffffffffc360112620002ce57620025c062005184565b60243590811515809203620013015773ffffffffffffffffffffffffffffffffffffffff1690811562002681573360009081527f80bb2b638cc20bc4d0a60d66940f3ab4a00c1d7b313497ca82fb0b4ab0079305602052604090208260005260205260406000207fffffffffffffffffffffffffffffffffffffffffffffffffffffffffffffff0081541660ff83161790556040519081527f17307eab39ab6107e8899845ad3d59bd9653f200f220920489ca2b5937696c3160203392a380f35b602482604051907f5b08ba180000000000000000000000000000000000000000000000000000000082526004820152fd5b5034620002ce5760207ffffffffffffffffffffffffffffffffffffffffffffffffffffffffffffffffc360112620002ce5760406020916004358152600483522054604051908152f35b5034620002ce5760207ffffffffffffffffffffffffffffffffffffffffffffffffffffffffffffffffc360112620002ce576020620027446200273e62005184565b62006142565b73ffffffffffffffffffffffffffffffffffffffff60405191168152f35b5034620002ce5760207ffffffffffffffffffffffffffffffffffffffffffffffffffffffffffffffffc360112620002ce57604060209160043581526003835220604051620027b181620052ef565b620027bc82620053d5565b8152620027cc60018301620053d5565b83820152620027de60028301620053d5565b6040820152600382015460608201526004820154608082015260058201549060e073ffffffffffffffffffffffffffffffffffffffff60066fffffffffffffffffffffffffffffffff8516948560a086015260801c958660c0860152015416910152421015908162002856575b506040519015158152f35b9050421115386200284b565b5034620002ce57807ffffffffffffffffffffffffffffffffffffffffffffffffffffffffffffffffc360112620002ce576040517f80bb2b638cc20bc4d0a60d66940f3ab4a00c1d7b313497ca82fb0b4ab00793018054826000620028c78362005299565b92838352602094600191866001821691826000146200297157505060011462002911575b5050620028fb9250038362005393565b620003c7604051928284938452830190620051f1565b8592506000527ff4bad0a69248f59680a4f2b3000328cec71a413447c96781cfe5996daa8c456e906000915b85831062002958575050620028fb93508201018580620028eb565b805483890185015287945086939092019181016200293d565b91509350620028fb9592507fffffffffffffffffffffffffffffffffffffffffffffffffffffffffffffff0091501682840152151560051b8201018580620028eb565b5034620002ce57807ffffffffffffffffffffffffffffffffffffffffffffffffffffffffffffffffc360112620002ce57602073ffffffffffffffffffffffffffffffffffffffff7f9016d09d72d40fdae2fd8ceac6b6234c7706214fd39c1cd1e609a0528c1993005416604051908152f35b5034620002ce5760607ffffffffffffffffffffffffffffffffffffffffffffffffffffffffffffffffc360112620002ce5760043562002a66620051a8565b6044359167ffffffffffffffff8084116200165d5762002ace62002a9362002ad8953690600401620054e0565b62002a9d62006616565b7f19457468657265756d205369676e6564204d6573736167653a0a333200000000875283601c52603c872062006bf4565b9095919562006c33565b73ffffffffffffffffffffffffffffffffffffffff93928416928416831462002e28578185526020906003825260066040872062002b41600582015462002b34426fffffffffffffffffffffffffffffffff8316111562005cda565b429060801c101562005d40565b01847fffffffffffffffffffffffff0000000000000000000000000000000000000000825462002b748982161562005da6565b161790556006546001810180911162002dfb57600655838652600882526040862092835468010000000000000000948582101562002dce5762002bc3828492600162002bf995018155620056d3565b9091907fffffffffffffffffffffffffffffffffffffffffffffffffffffffffffffffff83549160031b92831b921b1916179055565b84875260098352604087208054906001820180921162002da157908893929155602484888060025416931692604051928380927f70a082310000000000000000000000000000000000000000000000000000000082528660048301525afa9081156200131257849162002d6e575b50868452600a855262002c806040852091825462005e0c565b9055803b15620013015782906024604051809581937fc4d66de80000000000000000000000000000000000000000000000000000000083528a60048401525af1801562002d635762002d4c575b5050600b908386525260ff6040852054161562002ce8578380f35b600c549081101562002d1f5780600162002d069201600c556200569b565b909283549160031b92831b921b19161790553880808380f35b6024847f4e487b710000000000000000000000000000000000000000000000000000000081526041600452fd5b819692961162000f7b5760405293600b3862002ccd565b6040513d89823e3d90fd5b90508481813d831162002d99575b62002d88818362005393565b810103126200130557513862002c67565b503d62002d7c565b6024897f4e487b710000000000000000000000000000000000000000000000000000000081526011600452fd5b6024897f4e487b710000000000000000000000000000000000000000000000000000000081526041600452fd5b6024877f4e487b710000000000000000000000000000000000000000000000000000000081526011600452fd5b60646040517f08c379a000000000000000000000000000000000000000000000000000000000815260206004820152601260248201527f496e76616c6964207369676e61747572652e00000000000000000000000000006044820152fd5b5034620002ce5760407ffffffffffffffffffffffffffffffffffffffffffffffffffffffffffffffffc360112620002ce5762002ec262005184565b73ffffffffffffffffffffffffffffffffffffffff16815260086020526040812080546024359290831015620002ce57602062002f008484620056d3565b90546040519160031b1c8152f35b5034620002ce57807ffffffffffffffffffffffffffffffffffffffffffffffffffffffffffffffffc360112620002ce5760807f645e039705490088daad89bae25049a34f4a9072d398537b1ab2425f24cbed025462002f6d62006473565b60065460075491604051938452602084015260408301526060820152f35b5034620002ce57807ffffffffffffffffffffffffffffffffffffffffffffffffffffffffffffffffc360112620002ce5762002fc662006616565b8073ffffffffffffffffffffffffffffffffffffffff7f9016d09d72d40fdae2fd8ceac6b6234c7706214fd39c1cd1e609a0528c1993008054907fffffffffffffffffffffffff000000000000000000000000000000000000000082169055167f8be0079c531659141344cd1fd0a4f28419497f9722a3daafe3b4186f6b6457e08280a380f35b5034620002ce5760207ffffffffffffffffffffffffffffffffffffffffffffffffffffffffffffffffc360112620002ce5760206200066c6200308f62005184565b62006059565b5034620002ce5760207ffffffffffffffffffffffffffffffffffffffffffffffffffffffffffffffffc360112620002ce57620030d162005184565b5060646040517f08c379a000000000000000000000000000000000000000000000000000000000815260206004820152600960248201527f44697361626c65642e00000000000000000000000000000000000000000000006044820152fd5b5034620002ce5760207ffffffffffffffffffffffffffffffffffffffffffffffffffffffffffffffffc360112620002ce5760ff604060209273ffffffffffffffffffffffffffffffffffffffff6200318862005184565b168152600b84522054166040519015158152f35b5034620002ce5760207ffffffffffffffffffffffffffffffffffffffffffffffffffffffffffffffffc360112620002ce5760206200274460043562006575565b5034620002ce5760207ffffffffffffffffffffffffffffffffffffffffffffffffffffffffffffffffc360112620002ce576020620027446200321f62005184565b62005fac565b5034620002ce5760207ffffffffffffffffffffffffffffffffffffffffffffffffffffffffffffffffc360112620002ce5773ffffffffffffffffffffffffffffffffffffffff6200327662005184565b1681526008602052604081206040518082602082945493848152019085526020852092855b81811062003561575050620032b39250038262005393565b8051620032c08162005ee9565b918373ffffffffffffffffffffffffffffffffffffffff60025416915b838610620032f55760405180620003c787826200552d565b62003301868262005f97565b519586835260056020526040832054600360205260408420604051906200332882620052ef565b6200333381620053d5565b82526200334360018201620053d5565b60208301526200335660028201620053d5565b90816040840152600381015460608401526004810154608084015260058101546fffffffffffffffffffffffffffffffff811660a085015260801c60c08401526006015473ffffffffffffffffffffffffffffffffffffffff1660e083015281519160208101519160405190620033cd8262005359565b888252620033db8662006687565b9160405192818492519081602085019160200191620033fa92620051cc565b8201815191826020830191602001916200341492620051cc565b010380835260200162003428908362005393565b60a08301516fffffffffffffffffffffffffffffffff169260c001516fffffffffffffffffffffffffffffffff1693604051809e7f70a0823100000000000000000000000000000000000000000000000000000000825273ffffffffffffffffffffffffffffffffffffffff1690600401528d808c5a92602491602094fa95861562003556578a9662003519575b6001999a9b9c9d9e5060405197620034ce89620052ef565b8852602088015260408701526060860152608085015260a084015260c083015260e0820152620034ff828962005f97565b526200350c818862005f97565b50019493929190620032dd565b955060208e813d83116200354e575b62003534818362005393565b810103126200354a579c519b9c8d9c95620034b6565b8980fd5b503d62003528565b6040513d8c823e3d90fd5b84548352600194850194869450602090930192016200329b565b5034620002ce5760207ffffffffffffffffffffffffffffffffffffffffffffffffffffffffffffffffc360112620002ce5760406020916004358152600583522054604051908152f35b5034620002ce5760407ffffffffffffffffffffffffffffffffffffffffffffffffffffffffffffffffc360112620002ce5773ffffffffffffffffffffffffffffffffffffffff60208162003619620051a8565b16916024604051809481937f70a082310000000000000000000000000000000000000000000000000000000083526004351660048301525afa908115620036ab5782916200366f575b6020826040519015158152f35b90506020813d602011620036a2575b816200368d6020938362005393565b81010312620016615760209150513862003662565b3d91506200367e565b6040513d84823e3d90fd5b5034620002ce5760207ffffffffffffffffffffffffffffffffffffffffffffffffffffffffffffffffc360112620002ce57600435907f645e039705490088daad89bae25049a34f4a9072d398537b1ab2425f24cbed02548210156200372357602062002f008362005645565b604491604051917fa57d13dc00000000000000000000000000000000000000000000000000000000835260048301526024820152fd5b5034620002ce5760407ffffffffffffffffffffffffffffffffffffffffffffffffffffffffffffffffc360112620002ce5767ffffffffffffffff6004358181116200130157620037af903690600401620054e0565b906024358181116200130557620037cb903690600401620054e0565b917ff0c57e16840df040f15088dc2f81fe391c3923bec73e23a9662efc9c229c6a009182549360ff8560401c1615928286169586158062003d98575b6001809814908162003d8d575b15908162003d83575b5062003d595784877fffffffffffffffffffffffffffffffffffffffffffffffff0000000000000000831617875562003d23575b506200385c62006b9a565b805183811162003bbb577f80bb2b638cc20bc4d0a60d66940f3ab4a00c1d7b313497ca82fb0b4ab0079300908062003895835462005299565b93601f9485811162003cb1575b5060209085831160011462003bf4578b9262003be8575b50507fffffffffffffffffffffffffffffffffffffffffffffffffffffffffffffffff828a1b9260031b1c19161790555b81519083821162003bbb5781907f80bb2b638cc20bc4d0a60d66940f3ab4a00c1d7b313497ca82fb0b4ab00793019362003925855462005299565b82811162003b47575b50602091831160011462003a8a57899262003a7e575b50507fffffffffffffffffffffffffffffffffffffffffffffffffffffffffffffffff82881b9260031b1c19161790555b6200397f62006b9a565b6200398962006b9a565b60405190610c738083019182118383101762003a5157908291620071378339039085f08015620013125773ffffffffffffffffffffffffffffffffffffffff167fffffffffffffffffffffffff0000000000000000000000000000000000000000855416178455620039f9578280f35b7fc7f505b2f371ae2175ee4913f4499e1f2633a7b5936321eed1cdaeb6115181d291817fffffffffffffffffffffffffffffffffffffffffffffff00ffffffffffffffff60209354169055604051908152a138808280f35b6024877f4e487b710000000000000000000000000000000000000000000000000000000081526041600452fd5b01519050388062003944565b907fffffffffffffffffffffffffffffffffffffffffffffffffffffffffffffffe089941691858b527ff4bad0a69248f59680a4f2b3000328cec71a413447c96781cfe5996daa8c456e928b5b81811062003b2e5750841162003af6575b505050811b01905562003975565b01517fffffffffffffffffffffffffffffffffffffffffffffffffffffffffffffffff60f88460031b161c1916905538808062003ae8565b8284015185558b96909401936020938401930162003ad7565b90919250848a527ff4bad0a69248f59680a4f2b3000328cec71a413447c96781cfe5996daa8c456e8380860160051c8201926020871062003bb1575b9186958c929594930160051c01915b82811062003ba25750506200392e565b8c81558695508b910162003b92565b9250819262003b83565b6024887f4e487b710000000000000000000000000000000000000000000000000000000081526041600452fd5b015190503880620038b9565b907fffffffffffffffffffffffffffffffffffffffffffffffffffffffffffffffe08b941691858d527f37c58c799b6609234b945e882912ee9ad34948a1dfaa20a97485e1a7752bbf81928d5b81811062003c985750841162003c60575b505050811b019055620038ea565b01517fffffffffffffffffffffffffffffffffffffffffffffffffffffffffffffffff60f88460031b161c1916905538808062003c52565b8284015185558d96909401936020938401930162003c41565b909150838b527f37c58c799b6609234b945e882912ee9ad34948a1dfaa20a97485e1a7752bbf818580850160051c8201926020861062003d19575b918c91869594930160051c01915b82811062003d0a575050620038a2565b8d81558594508c910162003cfa565b9250819262003cec565b7fffffffffffffffffffffffffffffffffffffffffffffff00000000000000000016680100000000000000011785553862003851565b60046040517ff92ee8a9000000000000000000000000000000000000000000000000000000008152fd5b905015386200381d565b303b15915062003814565b508462003807565b5034620002ce5760407ffffffffffffffffffffffffffffffffffffffffffffffffffffffffffffffffc360112620002ce5762003ddc62005184565b62003de6620051a8565b907ff0c57e16840df040f15088dc2f81fe391c3923bec73e23a9662efc9c229c6a00549067ffffffffffffffff82168015908162004605575b6001149081620045fa575b159081620045f0575b5062003d595760017fffffffffffffffffffffffffffffffffffffffffffffffff00000000000000008316177ff0c57e16840df040f15088dc2f81fe391c3923bec73e23a9662efc9c229c6a005560ff8260401c16156200459a575b60405162003e9d8162005376565b601781527f436170747572652d7468652d50726f6d70742047616d6500000000000000000060208201526040519062003ed68262005376565b600382527f4354500000000000000000000000000000000000000000000000000000000000602083015262003f0a62006b9a565b80519067ffffffffffffffff821162003a5157819062003f4b7f80bb2b638cc20bc4d0a60d66940f3ab4a00c1d7b313497ca82fb0b4ab00793005462005299565b601f8111620044ce575b50602090601f8311600114620043a95788926200439d575b50507fffffffffffffffffffffffffffffffffffffffffffffffffffffffffffffffff8260011b9260031b1c1916177f80bb2b638cc20bc4d0a60d66940f3ab4a00c1d7b313497ca82fb0b4ab0079300555b80519067ffffffffffffffff8211620010d8578190620040007f80bb2b638cc20bc4d0a60d66940f3ab4a00c1d7b313497ca82fb0b4ab00793015462005299565b601f8111620042ce575b50602090601f8311600114620041ce578792620041c2575b50507fffffffffffffffffffffffffffffffffffffffffffffffffffffffffffffffff8260011b9260031b1c1916177f80bb2b638cc20bc4d0a60d66940f3ab4a00c1d7b313497ca82fb0b4ab0079301555b6200407e62006b9a565b6200408862006b9a565b604051610c738082019082821067ffffffffffffffff83111762003a5157908291620071378339039085f0908115620013125760ff936200410d73ffffffffffffffffffffffffffffffffffffffff92837fffffffffffffffffffffffff0000000000000000000000000000000000000000951685895416178855620006be62006b9a565b6200411762006b9a565b1690600254161760025560401c16156200412e5780f35b7fffffffffffffffffffffffffffffffffffffffffffffff00ffffffffffffffff7ff0c57e16840df040f15088dc2f81fe391c3923bec73e23a9662efc9c229c6a0054167ff0c57e16840df040f15088dc2f81fe391c3923bec73e23a9662efc9c229c6a00557fc7f505b2f371ae2175ee4913f4499e1f2633a7b5936321eed1cdaeb6115181d2602060405160018152a180f35b01519050388062004022565b7f80bb2b638cc20bc4d0a60d66940f3ab4a00c1d7b313497ca82fb0b4ab007930188527ff4bad0a69248f59680a4f2b3000328cec71a413447c96781cfe5996daa8c456e927fffffffffffffffffffffffffffffffffffffffffffffffffffffffffffffffe016885b818110620042b557509084600195949392106200427d575b505050811b017f80bb2b638cc20bc4d0a60d66940f3ab4a00c1d7b313497ca82fb0b4ab00793015562004074565b01517fffffffffffffffffffffffffffffffffffffffffffffffffffffffffffffffff60f88460031b161c191690553880806200424f565b9293602060018192878601518155019501930162004237565b9091507f80bb2b638cc20bc4d0a60d66940f3ab4a00c1d7b313497ca82fb0b4ab00793018752601f830160051c7ff4bad0a69248f59680a4f2b3000328cec71a413447c96781cfe5996daa8c456e01906020841062004374575b90601f8493920160051c7ff4bad0a69248f59680a4f2b3000328cec71a413447c96781cfe5996daa8c456e01905b8181106200436557506200400a565b88815584935060010162004356565b7ff4bad0a69248f59680a4f2b3000328cec71a413447c96781cfe5996daa8c456e915062004328565b01519050388062003f6d565b92507f80bb2b638cc20bc4d0a60d66940f3ab4a00c1d7b313497ca82fb0b4ab007930088527f37c58c799b6609234b945e882912ee9ad34948a1dfaa20a97485e1a7752bbf819088935b7fffffffffffffffffffffffffffffffffffffffffffffffffffffffffffffffe084168510620044b25760019450837fffffffffffffffffffffffffffffffffffffffffffffffffffffffffffffffe08116106200447a575b505050811b017f80bb2b638cc20bc4d0a60d66940f3ab4a00c1d7b313497ca82fb0b4ab00793005562003fbf565b01517fffffffffffffffffffffffffffffffffffffffffffffffffffffffffffffffff60f88460031b161c191690553880806200444c565b81810151835560209485019460019093019290910190620043f3565b9091507f80bb2b638cc20bc4d0a60d66940f3ab4a00c1d7b313497ca82fb0b4ab00793008852601f830160051c7f37c58c799b6609234b945e882912ee9ad34948a1dfaa20a97485e1a7752bbf81016020841062004572575b908392915b601f820160051c7f37c58c799b6609234b945e882912ee9ad34948a1dfaa20a97485e1a7752bbf8101811062004563575062003f55565b8981558493506001016200452c565b507f37c58c799b6609234b945e882912ee9ad34948a1dfaa20a97485e1a7752bbf8162004527565b680100000000000000017fffffffffffffffffffffffffffffffffffffffffffffff0000000000000000008316177ff0c57e16840df040f15088dc2f81fe391c3923bec73e23a9662efc9c229c6a005562003e8f565b9050153862003e33565b303b15915062003e2a565b604084901c60ff1615915062003e1f565b5034620002ce57620006c46200462c3662005236565b90604051926200463c8462005359565b858452620062b4565b5034620002ce5760207ffffffffffffffffffffffffffffffffffffffffffffffffffffffffffffffffc360112620002ce57604060209173ffffffffffffffffffffffffffffffffffffffff6200469b62005184565b168152600a83522054604051908152f35b5034620002ce5760407ffffffffffffffffffffffffffffffffffffffffffffffffffffffffffffffffc360112620002ce5760206200066c620046ee62005184565b6024359062005e1a565b5034620002ce5760207ffffffffffffffffffffffffffffffffffffffffffffffffffffffffffffffffc360112620002ce576040620047af9160043581526003602052206200474781620053d5565b906200475660018201620053d5565b6200476460028301620053d5565b91600381015492620047cd600483015491620047be73ffffffffffffffffffffffffffffffffffffffff600660058701549601541695604051998a99610100808c528b0190620051f1565b9089820360208b0152620051f1565b908782036040890152620051f1565b93606086015260808501526fffffffffffffffffffffffffffffffff811660a085015260801c60c084015260e08301520390f35b5034620002ce5760407ffffffffffffffffffffffffffffffffffffffffffffffffffffffffffffffffc360112620002ce57600435602462004842620051a8565b916200484d62006616565b80845260206003815260066040862062004885600582015462002b34426fffffffffffffffffffffffffffffffff8316111562005cda565b01938185549373ffffffffffffffffffffffffffffffffffffffff958691620048b18388161562005da6565b8260405195869485937f70a08231000000000000000000000000000000000000000000000000000000008552166004840152165afa908115620049fa578691620049c3575b50156200496557507fffffffffffffffffffffffff00000000000000000000000000000000000000001617905560075460018101809111620049385760075580f35b6024827f4e487b710000000000000000000000000000000000000000000000000000000081526011600452fd5b606490604051907f08c379a00000000000000000000000000000000000000000000000000000000082526004820152600f60248201527f48617665206e6f206261646765732e00000000000000000000000000000000006044820152fd5b90508181813d8311620049f2575b620049dd818362005393565b81010312620049ee575138620048f6565b8580fd5b503d620049d1565b6040513d88823e3d90fd5b5034620002ce57620006c462004a1b3662005236565b916200573c565b5034620002ce57807ffffffffffffffffffffffffffffffffffffffffffffffffffffffffffffffffc360112620002ce5760207f645e039705490088daad89bae25049a34f4a9072d398537b1ab2425f24cbed0254604051908152f35b5034620002ce57807ffffffffffffffffffffffffffffffffffffffffffffffffffffffffffffffffc360112620002ce5773ffffffffffffffffffffffffffffffffffffffff6020915416604051908152f35b5034620002ce5760407ffffffffffffffffffffffffffffffffffffffffffffffffffffffffffffffffc360112620002ce5762004b0e62005184565b9062004c166102de620004de62004c0a602080966040519062004b348387018362005393565b8582528282019562006e59873962004bb362004be073ffffffffffffffffffffffffffffffffffffffff809a5416928a604051917fc4d66de800000000000000000000000000000000000000000000000000000000888401521660248201526024815262004ba2816200533c565b60405192839187830195866200570a565b037fffffffffffffffffffffffffffffffffffffffffffffffffffffffffffffffe0810183528262005393565b60405195869362004bfa868601998a9251928391620051cc565b84019151809386840190620051cc565b519020602435620065f6565b60405191168152f35b5034620002ce5760407ffffffffffffffffffffffffffffffffffffffffffffffffffffffffffffffffc360112620002ce5762004c5b62005184565b60243562004c698162006575565b3315158062004da6575b8062004d46575b62004d1657819073ffffffffffffffffffffffffffffffffffffffff809416938491167f8c5be1e5ebec7d5bd14f71427d1e84f3dd0314c0f7b2291e5b200ac8c7c3b9258680a482527f80bb2b638cc20bc4d0a60d66940f3ab4a00c1d7b313497ca82fb0b4ab007930460205260408220907fffffffffffffffffffffffff000000000000000000000000000000000000000082541617905580f35b60246040517fa9fbf51f000000000000000000000000000000000000000000000000000000008152336004820152fd5b5062004d918173ffffffffffffffffffffffffffffffffffffffff166000527f80bb2b638cc20bc4d0a60d66940f3ab4a00c1d7b313497ca82fb0b4ab0079305602052604060002090565b33855260205260ff6040852054161562004c7a565b503373ffffffffffffffffffffffffffffffffffffffff8216141562004c73565b5034620002ce5760207ffffffffffffffffffffffffffffffffffffffffffffffffffffffffffffffffc360112620002ce5773ffffffffffffffffffffffffffffffffffffffff604060209260043562004e218162006575565b5081527f80bb2b638cc20bc4d0a60d66940f3ab4a00c1d7b313497ca82fb0b4ab00793048452205416604051908152f35b5034620002ce57807ffffffffffffffffffffffffffffffffffffffffffffffffffffffffffffffffc360112620002ce576040519080827f80bb2b638cc20bc4d0a60d66940f3ab4a00c1d7b313497ca82fb0b4ab007930092835462004eb88162005299565b938484526020956001928760018216918260001462004f4a57505060011462004eed575b505050620028fb9250038362005393565b8152859250907f37c58c799b6609234b945e882912ee9ad34948a1dfaa20a97485e1a7752bbf815b85831062004f31575050620028fb935082010138808062004edc565b8054838901850152879450869390920191810162004f15565b9250945050620028fb9592507fffffffffffffffffffffffffffffffffffffffffffffffffffffffffffffff0091501682840152151560051b82010138808062004edc565b5034620002ce5760207ffffffffffffffffffffffffffffffffffffffffffffffffffffffffffffffffc360112620002ce5773ffffffffffffffffffffffffffffffffffffffff60066040602093600435815260038552200154161515604051908152f35b5034620002ce5760207ffffffffffffffffffffffffffffffffffffffffffffffffffffffffffffffffc360112620002ce576004357fffffffff0000000000000000000000000000000000000000000000000000000081168091036200166157807f780e9d6300000000000000000000000000000000000000000000000000000000602092149081156200508d57506040519015158152f35b7f80ac58cd00000000000000000000000000000000000000000000000000000000811491508115620050f5575b8115620050ca575b50826200284b565b7f01ffc9a70000000000000000000000000000000000000000000000000000000091501482620050c2565b7f5b5e139f0000000000000000000000000000000000000000000000000000000081149150620050ba565b905034620016615760207ffffffffffffffffffffffffffffffffffffffffffffffffffffffffffffffffc3601126200166157604060209273ffffffffffffffffffffffffffffffffffffffff6200517762005184565b1681526009845220548152f35b6004359073ffffffffffffffffffffffffffffffffffffffff821682036200060f57565b6024359073ffffffffffffffffffffffffffffffffffffffff821682036200060f57565b60005b838110620051e05750506000910152565b8181015183820152602001620051cf565b907fffffffffffffffffffffffffffffffffffffffffffffffffffffffffffffffe0601f6020936200522f81518092818752878088019101620051cc565b0116010190565b7ffffffffffffffffffffffffffffffffffffffffffffffffffffffffffffffffc60609101126200060f5773ffffffffffffffffffffffffffffffffffffffff9060043582811681036200060f579160243590811681036200060f579060443590565b90600182811c92168015620052e4575b6020831014620052b557565b7f4e487b7100000000000000000000000000000000000000000000000000000000600052602260045260246000fd5b91607f1691620052a9565b610100810190811067ffffffffffffffff8211176200530d57604052565b7f4e487b7100000000000000000000000000000000000000000000000000000000600052604160045260246000fd5b6060810190811067ffffffffffffffff8211176200530d57604052565b6020810190811067ffffffffffffffff8211176200530d57604052565b6040810190811067ffffffffffffffff8211176200530d57604052565b90601f7fffffffffffffffffffffffffffffffffffffffffffffffffffffffffffffffe0910116810190811067ffffffffffffffff8211176200530d57604052565b90604051918260008254620053ea8162005299565b908184526020946001916001811690816000146200546257506001146200541f575b5050506200541d9250038362005393565b565b600090815285812095935091905b818310620054495750506200541d93508201013880806200540c565b855488840185015294850194879450918301916200542d565b9150506200541d9593507fffffffffffffffffffffffffffffffffffffffffffffffffffffffffffffff0091501682840152151560051b8201013880806200540c565b67ffffffffffffffff81116200530d57601f017fffffffffffffffffffffffffffffffffffffffffffffffffffffffffffffffe01660200190565b81601f820112156200060f57803590620054fa82620054a5565b926200550a604051948562005393565b828452602083830101116200060f57816000926020809301838601378301015290565b6020808201908083528351809252604092604081018260408560051b8401019601946000925b85841062005565575050505050505090565b909192939495968580827fffffffffffffffffffffffffffffffffffffffffffffffffffffffffffffffc085600195030187528a5190620055fe620055ea620055d6620055c56101008651865287870151908089880152860190620051f1565b8a8601518582038c870152620051f1565b6060808601519085830390860152620051f1565b6080808501519084830390850152620051f1565b9160a080820151906fffffffffffffffffffffffffffffffff8092169084015260c09081830151169083015260e08091015191015299019401940192959493919062005553565b7f645e039705490088daad89bae25049a34f4a9072d398537b1ab2425f24cbed02805482101562001e2f576000527fa42f15e5d656f8155fd7419d740a6073999f19cd6e061449ce4a257150545bf20190600090565b600c5481101562001e2f57600c6000527fdf6966c971051c3d54ec59162606531493a51404a002842f56009d7e5cf4a8c70190600090565b805482101562001e2f5760005260206000200190600090565b35906fffffffffffffffffffffffffffffffff821682036200060f57565b60409073ffffffffffffffffffffffffffffffffffffffff6200573994931681528160208201520190620051f1565b90565b909173ffffffffffffffffffffffffffffffffffffffff80841692831562005ca9576000938385527f80bb2b638cc20bc4d0a60d66940f3ab4a00c1d7b313497ca82fb0b4ab0079302946020868152604097858984205416973315158062005b82575b50881590811562005ab3575b620057f58373ffffffffffffffffffffffffffffffffffffffff166000527f80bb2b638cc20bc4d0a60d66940f3ab4a00c1d7b313497ca82fb0b4ab0079303602052604060002090565b600181540190558885528352898420857fffffffffffffffffffffffff000000000000000000000000000000000000000082541617905587858a7fddf252ad1be2c89b69c2b068fc378daa952ba7f163c4a11628f55a4df523b3ef8780a415620059d2577f645e039705490088daad89bae25049a34f4a9072d398537b1ab2425f24cbed02548784527f645e039705490088daad89bae25049a34f4a9072d398537b1ab2425f24cbed03835289842055620058b087620060f5565b83880362005907575b505050501692838303620058cd5750505050565b6064945051927f64283d7b000000000000000000000000000000000000000000000000000000008452600484015260248301526044820152fd5b620059129062006059565b927fffffffffffffffffffffffffffffffffffffffffffffffffffffffffffffffff8401938411620059a55782917f645e039705490088daad89bae25049a34f4a9072d398537b1ab2425f24cbed01918a94527f645e039705490088daad89bae25049a34f4a9072d398537b1ab2425f24cbed0081528383208584528152878484205587835252205538808080620058b9565b6024837f4e487b710000000000000000000000000000000000000000000000000000000081526011600452fd5b878414620058b057620059e58862006059565b8784527f645e039705490088daad89bae25049a34f4a9072d398537b1ab2425f24cbed018084528a8520549082820362005a5d575b5050878452838a8120558884527f645e039705490088daad89bae25049a34f4a9072d398537b1ab2425f24cbed00835289842090845282528289812055620058b0565b8a86527f645e039705490088daad89bae25049a34f4a9072d398537b1ab2425f24cbed008086528c872084885286528c872054908c885286528c87208388528652808d882055865284528a852055388062005a1a565b62005b0c896000527f80bb2b638cc20bc4d0a60d66940f3ab4a00c1d7b313497ca82fb0b4ab007930460205260406000207fffffffffffffffffffffffff00000000000000000000000000000000000000008154169055565b62005b568a73ffffffffffffffffffffffffffffffffffffffff166000527f80bb2b638cc20bc4d0a60d66940f3ab4a00c1d7b313497ca82fb0b4ab0079303602052604060002090565b7fffffffffffffffffffffffffffffffffffffffffffffffffffffffffffffffff8154019055620057ab565b8062005c05575b1562005b9657386200579f565b89888a62005bcd5760249151907f7e2732890000000000000000000000000000000000000000000000000000000082526004820152fd5b90517f177e802f0000000000000000000000000000000000000000000000000000000081523360048201526024810191909152604490fd5b50338914801562005c4c575b8062005b8957508784527f80bb2b638cc20bc4d0a60d66940f3ab4a00c1d7b313497ca82fb0b4ab0079304835233878b862054161462005b89565b5062005c978973ffffffffffffffffffffffffffffffffffffffff166000527f80bb2b638cc20bc4d0a60d66940f3ab4a00c1d7b313497ca82fb0b4ab0079305602052604060002090565b338552835260ff8a8520541662005c11565b60246040517f64a0ae9200000000000000000000000000000000000000000000000000000000815260006004820152fd5b1562005ce257565b60646040517f08c379a000000000000000000000000000000000000000000000000000000000815260206004820152600860248201527f4e6f74207965742e0000000000000000000000000000000000000000000000006044820152fd5b1562005d4857565b60646040517f08c379a000000000000000000000000000000000000000000000000000000000815260206004820152600960248201527f4f757464617465642e00000000000000000000000000000000000000000000006044820152fd5b1562005dae57565b60646040517f08c379a000000000000000000000000000000000000000000000000000000000815260206004820152600f60248201527f416c726561647920736f6c7665642e00000000000000000000000000000000006044820152fd5b919082018092116200142d57565b62005e258162006059565b82101562005e7f5773ffffffffffffffffffffffffffffffffffffffff166000527f645e039705490088daad89bae25049a34f4a9072d398537b1ab2425f24cbed0060205260406000209060005260205260406000205490565b6040517fa57d13dc00000000000000000000000000000000000000000000000000000000815273ffffffffffffffffffffffffffffffffffffffff9190911660048201526024810191909152604490fd5b67ffffffffffffffff81116200530d5760051b60200190565b9062005ef58262005ed0565b60409062005f07604051918262005393565b8381527fffffffffffffffffffffffffffffffffffffffffffffffffffffffffffffffe062005f37829562005ed0565b019160005b83811062005f4a5750505050565b602090825162005f5a81620052ef565b60008152606083908082840152808684015280808401526080830152600060a0830152600060c0830152600060e083015282860101520162005f3c565b805182101562001e2f5760209160051b010190565b620057399073ffffffffffffffffffffffffffffffffffffffff80911680600052620004de6200604f602060018152604060002054946102de9462004bb362004be06040519362006000868a018662005393565b8885528585019862006e598a396000541692604051907fc4d66de8000000000000000000000000000000000000000000000000000000008783015260248201526024815262004ba2816200533c565b51902090620065f6565b73ffffffffffffffffffffffffffffffffffffffff811615620060c457620060c09073ffffffffffffffffffffffffffffffffffffffff166000527f80bb2b638cc20bc4d0a60d66940f3ab4a00c1d7b313497ca82fb0b4ab0079303602052604060002090565b5490565b60246040517f89c62b6400000000000000000000000000000000000000000000000000000000815260006004820152fd5b7f645e039705490088daad89bae25049a34f4a9072d398537b1ab2425f24cbed0290815491680100000000000000008310156200530d578262002bc39160016200541d9501905562005645565b6200614d8162005fac565b803b62006236575073ffffffffffffffffffffffffffffffffffffffff809116600090808252600160205260408220908154917fffffffffffffffffffffffffffffffffffffffffffffffffffffffffffffffff83146200122c576001830190558383541690604051907fc4d66de8000000000000000000000000000000000000000000000000000000006020830152602482015260248152620061f1816200533c565b604051916102de8084019084821067ffffffffffffffff83111762003a515791849391620062259362006e5986396200570a565b039083f59081156200257857501690565b73ffffffffffffffffffffffffffffffffffffffff91501690565b919082039182116200142d57565b906200626b82620054a5565b6200627a604051918262005393565b8281527fffffffffffffffffffffffffffffffffffffffffffffffffffffffffffffffe0620062aa8294620054a5565b0190602036910137565b9190620062c38282856200573c565b803b620062d1575b50505050565b6200633c73ffffffffffffffffffffffffffffffffffffffff809216946040519384937f150b7a0200000000000000000000000000000000000000000000000000000000968786523360048701521660248501526044840152608060648401526084830190620051f1565b03906020816000938185885af1908290826200640b575b5050620063a75782620063656200680a565b8051919082620063a057602482604051907f64a0ae920000000000000000000000000000000000000000000000000000000082526004820152fd5b9050602001fd5b7fffffffff000000000000000000000000000000000000000000000000000000001603620063da575038808080620062cb565b602490604051907f64a0ae920000000000000000000000000000000000000000000000000000000082526004820152fd5b909192506020813d6020116200646a575b816200642b6020938362005393565b81010312620016615751907fffffffff0000000000000000000000000000000000000000000000000000000082168203620002ce575090388062006353565b3d91506200641c565b620057397f645e039705490088daad89bae25049a34f4a9072d398537b1ab2425f24cbed0254620064aa6006546007549062005e0c565b9062006251565b73ffffffffffffffffffffffffffffffffffffffff80911690811562006544577f9016d09d72d40fdae2fd8ceac6b6234c7706214fd39c1cd1e609a0528c199300805490837fffffffffffffffffffffffff00000000000000000000000000000000000000008316179055167f8be0079c531659141344cd1fd0a4f28419497f9722a3daafe3b4186f6b6457e0600080a3565b60246040517f1e4fbdf700000000000000000000000000000000000000000000000000000000815260006004820152fd5b806000527f80bb2b638cc20bc4d0a60d66940f3ab4a00c1d7b313497ca82fb0b4ab007930260205273ffffffffffffffffffffffffffffffffffffffff60406000205416908115620065c5575090565b602490604051907f7e2732890000000000000000000000000000000000000000000000000000000082526004820152fd5b605591600b9160405191604083015260208201523081520160ff81532090565b73ffffffffffffffffffffffffffffffffffffffff7f9016d09d72d40fdae2fd8ceac6b6234c7706214fd39c1cd1e609a0528c199300541633036200665757565b60246040517f118cdaa7000000000000000000000000000000000000000000000000000000008152336004820152fd5b806000917a184f03e93ff9f4daa797ed6e38ed64bf6a1f01000000000000000080821015620067fb575b506d04ee2d6d415b85acef810000000080831015620067eb575b50662386f26fc1000080831015620067db575b506305f5e10080831015620067cb575b5061271080831015620067bb575b506064821015620067aa575b600a809210156200679f575b60019081602162006728600187016200625f565b95860101905b6200673b575b5050505090565b7fffffffffffffffffffffffffffffffffffffffffffffffffffffffffffffffff849101917f30313233343536373839616263646566000000000000000000000000000000008282061a83530491821562006799579190826200672e565b62006734565b916001019162006714565b919060646002910491019162006708565b60049193920491019138620066fc565b60089193920491019138620066ee565b60109193920491019138620066de565b60209193920491019138620066cb565b604093508104915038620066b1565b3d156200683a573d906200681e82620054a5565b916200682e604051938462005393565b82523d6000602084013e565b606090565b90815181101562001e2f570160200190565b80604051916080830183811067ffffffffffffffff8211176200530d576040526042835260208301606036823783511562001e2f576030905382516001906001101562001e2f57607860218501536041905b808211620068ee575050620068b6575090565b604490604051907fe22e27eb000000000000000000000000000000000000000000000000000000008252600482015260206024820152fd5b9091600f8116601081101562006990577f3031323334353637383961626364656600000000000000000000000000000000901a6200692d84876200683f565b5360041c91801562006962577fffffffffffffffffffffffffffffffffffffffffffffffffffffffffffffffff0190620068a3565b602460007f4e487b710000000000000000000000000000000000000000000000000000000081526011600452fd5b602460007f4e487b710000000000000000000000000000000000000000000000000000000081526032600452fd5b9081511562006b835760405191620069d6836200533c565b604083527f4142434445464748494a4b4c4d4e4f505152535455565758595a61626364656660208401527f6768696a6b6c6d6e6f707172737475767778797a303132333435363738392b2f6040840152805192600291600285018095116200142d5760038095047f3fffffffffffffffffffffffffffffffffffffffffffffffffffffffffffffff811681036200142d5762006a789060029694961b6200625f565b926020840192829183518401976020890192835194600085525b8a811062006b355750505050600393949596505251068060011462006ae65760021462006abd575090565b7fffffffffffffffffffffffffffffffffffffffffffffffffffffffffffffffff603d91015390565b507ffffffffffffffffffffffffffffffffffffffffffffffffffffffffffffffffe81603d7fffffffffffffffffffffffffffffffffffffffffffffffffffffffffffffffff81940153015390565b836004919b989b019a8b51600190603f9082828260121c16870101518453828282600c1c16870101518385015382828260061c16870101518785015316840101518582015301969962006a92565b905060405162006b938162005359565b6000815290565b60ff7ff0c57e16840df040f15088dc2f81fe391c3923bec73e23a9662efc9c229c6a005460401c161562006bca57565b60046040517fd7e6bcf8000000000000000000000000000000000000000000000000000000008152fd5b815191906041830362006c285762006c2192506020820151906060604084015193015160001a9062006dc4565b9192909190565b505060009160029190565b600481101562006cf0578062006c47575050565b6001810362006c7a5760046040517ff645eedf000000000000000000000000000000000000000000000000000000008152fd5b6002810362006cb457602482604051907ffce698f70000000000000000000000000000000000000000000000000000000082526004820152fd5b60031462006cbf5750565b602490604051907fd78bce0c0000000000000000000000000000000000000000000000000000000082526004820152fd5b7f4e487b7100000000000000000000000000000000000000000000000000000000600052602160045260246000fd5b9062006d60575080511562006d3657805190602001fd5b60046040517f1425ea42000000000000000000000000000000000000000000000000000000008152fd5b8151158062006dba575b62006d73575090565b60249073ffffffffffffffffffffffffffffffffffffffff604051917f9996b315000000000000000000000000000000000000000000000000000000008352166004820152fd5b50803b1562006d6a565b91907f7fffffffffffffffffffffffffffffff5d576e7357a4501ddfe92f46681b20a0841162006e4c57926020929160ff608095604051948552168484015260408301526060820152600092839182805260015afa156200257857805173ffffffffffffffffffffffffffffffffffffffff81161562006e4357918190565b50809160019190565b5050506000916003919056fe60806040526102de8038038061001481610194565b92833981019060408183031261018f5780516001600160a01b03811680820361018f5760208381015190936001600160401b03821161018f570184601f8201121561018f5780519061006d610068836101cf565b610194565b9582875285838301011161018f57849060005b83811061017b57505060009186010152813b15610163577f360894a13ba1a3210667c828492db98dca3e2076cc3735a920a3ca505d382bbc80546001600160a01b03191682179055604051907fbc7cd75a20ee27fd9adebab32041f755214dbc6bffa90cc0225b39da2e5c2d3b600080a28351156101455750600080848461012c96519101845af4903d1561013c573d61011c610068826101cf565b908152600081943d92013e6101ea565b505b6040516090908161024e8239f35b606092506101ea565b9250505034610154575061012e565b63b398979f60e01b8152600490fd5b60249060405190634c9c8ce360e01b82526004820152fd5b818101830151888201840152869201610080565b600080fd5b6040519190601f01601f191682016001600160401b038111838210176101b957604052565b634e487b7160e01b600052604160045260246000fd5b6001600160401b0381116101b957601f01601f191660200190565b9061021157508051156101ff57805190602001fd5b604051630a12f52160e11b8152600490fd5b81511580610244575b610222575090565b604051639996b31560e01b81526001600160a01b039091166004820152602490fd5b50803b1561021a56fe608060405273ffffffffffffffffffffffffffffffffffffffff7f360894a13ba1a3210667c828492db98dca3e2076cc3735a920a3ca505d382bbc54166000808092368280378136915af43d82803e156056573d90f35b3d90fdfea26469706673582212203409c5e3645254405cec23bd4d81aeddd5cfe35adffde4b964c788aa78461f0f64736f6c6343000818003360a0806040523461008e5733156100785760008054336001600160a01b03198216811783556040519290916001600160a01b0316907f8be0079c531659141344cd1fd0a4f28419497f9722a3daafe3b4186f6b6457e09080a333608052610bdf90816100948239608051818181610609015261067f0152f35b631e4fbdf760e01b815260006004820152602490fd5b600080fdfe6080604052600436101561001b575b361561001957600080fd5b005b6000803560e01c908163150b7a021461009e5750806347e1da2a14610099578063715018a6146100945780638da5cb5b1461008f578063b61d27f61461008a578063c45a015514610085578063c4d66de8146100805763f2fde38b0361000e576106de565b61062d565b6105be565b610538565b6104e6565b610449565b6102a0565b346101335760807ffffffffffffffffffffffffffffffffffffffffffffffffffffffffffffffffc360112610133576100d8600435610136565b6100e3602435610136565b60643567ffffffffffffffff811161012f57610103903690600401610159565b50507f150b7a020000000000000000000000000000000000000000000000000000000060805260206080f35b5080fd5b80fd5b73ffffffffffffffffffffffffffffffffffffffff81160361015457565b600080fd5b9181601f840112156101545782359167ffffffffffffffff8311610154576020838186019501011161015457565b9181601f840112156101545782359167ffffffffffffffff8311610154576020808501948460051b01011161015457565b60005b8381106101cb5750506000910152565b81810151838201526020016101bb565b907fffffffffffffffffffffffffffffffffffffffffffffffffffffffffffffffe0601f602093610217815180928187528780880191016101b8565b0116010190565b6020808201906020835283518092526040830192602060408460051b8301019501936000915b8483106102545750505050505090565b9091929394958480610290837fffffffffffffffffffffffffffffffffffffffffffffffffffffffffffffffc086600196030187528a516101db565b9801930193019194939290610244565b60607ffffffffffffffffffffffffffffffffffffffffffffffffffffffffffffffffc3601126101545767ffffffffffffffff600435818111610154576102eb903690600401610187565b60243583811161015457610303903690600401610187565b9190936044359081116101545761031e903690600401610187565b9190926103296109f9565b82821480610438575b61033b90610777565b6103448361086c565b95816103c057505060005b81811061037057505050505061036c905b6040519182918261021e565b0390f35b806103a4610389610384600194868a6108fd565b610912565b61039e61039784888a61091f565b36916109b9565b90610a6f565b6103ae82896109e5565b526103b981886109e5565b500161034f565b9160009391935b8181106103de575050505050505061036c90610360565b8061041c6103f2610384600194868c6108fd565b61041661040084888c61091f565b919061040d868c8c6108fd565b359236916109b9565b91610b15565b610426828b6109e5565b52610431818a6109e5565b50016103c7565b508015806103325750808314610332565b34610154576000807ffffffffffffffffffffffffffffffffffffffffffffffffffffffffffffffffc360112610133576104816109f9565b8073ffffffffffffffffffffffffffffffffffffffff81547fffffffffffffffffffffffff000000000000000000000000000000000000000081168355167f8be0079c531659141344cd1fd0a4f28419497f9722a3daafe3b4186f6b6457e08280a380f35b346101545760007ffffffffffffffffffffffffffffffffffffffffffffffffffffffffffffffffc36011261015457602073ffffffffffffffffffffffffffffffffffffffff60005416604051908152f35b60607ffffffffffffffffffffffffffffffffffffffffffffffffffffffffffffffffc3601126101545760043561056e81610136565b60443567ffffffffffffffff81116101545761036c916105a06105986105aa933690600401610159565b6103976109f9565b9060243590610b15565b6040519182916020835260208301906101db565b346101545760007ffffffffffffffffffffffffffffffffffffffffffffffffffffffffffffffffc36011261015457602060405173ffffffffffffffffffffffffffffffffffffffff7f0000000000000000000000000000000000000000000000000000000000000000168152f35b346101545760207ffffffffffffffffffffffffffffffffffffffffffffffffffffffffffffffffc3601126101545760043561066881610136565b73ffffffffffffffffffffffffffffffffffffffff7f00000000000000000000000000000000000000000000000000000000000000001633036106ae5761001990610b3c565b60246040517f118cdaa7000000000000000000000000000000000000000000000000000000008152336004820152fd5b346101545760207ffffffffffffffffffffffffffffffffffffffffffffffffffffffffffffffffc3601126101545760043561071981610136565b6107216109f9565b73ffffffffffffffffffffffffffffffffffffffff8116156107465761001990610b3c565b60246040517f1e4fbdf700000000000000000000000000000000000000000000000000000000815260006004820152fd5b1561077e57565b60646040517f08c379a000000000000000000000000000000000000000000000000000000000815260206004820152601260248201527f77726f6e67206172726179206c656e67746800000000000000000000000000006044820152fd5b7f4e487b7100000000000000000000000000000000000000000000000000000000600052604160045260246000fd5b907fffffffffffffffffffffffffffffffffffffffffffffffffffffffffffffffe0601f604051930116820182811067ffffffffffffffff82111761084f57604052565b6107dc565b67ffffffffffffffff811161084f5760051b60200190565b9061087e61087983610854565b61080b565b8281527fffffffffffffffffffffffffffffffffffffffffffffffffffffffffffffffe06108ac8294610854565b019060005b8281106108bd57505050565b8060606020809385010152016108b1565b7f4e487b7100000000000000000000000000000000000000000000000000000000600052603260045260246000fd5b919081101561090d5760051b0190565b6108ce565b3561091c81610136565b90565b919081101561090d5760051b810135907fffffffffffffffffffffffffffffffffffffffffffffffffffffffffffffffe18136030182121561015457019081359167ffffffffffffffff8311610154576020018236038113610154579190565b67ffffffffffffffff811161084f57601f017fffffffffffffffffffffffffffffffffffffffffffffffffffffffffffffffe01660200190565b9291926109c86108798361097f565b938285528282011161015457816000926020928387013784010152565b805182101561090d5760209160051b010190565b73ffffffffffffffffffffffffffffffffffffffff6000541633036106ae57565b6020818303126101545780519067ffffffffffffffff8211610154570181601f82011215610154578051610a506108798261097f565b92818452602082840101116101545761091c91602080850191016101b8565b81516000939284928392916020019083905af1913d15610b0d573d90610a976108798361097f565b9182523d81602084013e5b819315610aad575050565b604482511061013357610b09610acf8360248060048301518301019101610a1a565b6040519182917f08c379a00000000000000000000000000000000000000000000000000000000083526020600484015260248301906101db565b0390fd5b606090610aa2565b825160009493859384936020909201915af1913d15610b0d573d90610a976108798361097f565b6000549073ffffffffffffffffffffffffffffffffffffffff80911691827fffffffffffffffffffffffff0000000000000000000000000000000000000000821617600055167f8be0079c531659141344cd1fd0a4f28419497f9722a3daafe3b4186f6b6457e0600080a356fea2646970667358221220e7ff2dcb7dd25f0e1c02d38698786ad34fbe930f75f5d40dea3bbb0a92aa67e264736f6c63430008180033a2646970667358221220b0e2f6690ca144be0e2c08cf1f745f9beb7048afea1504d4de2cd5a7dc88c7f364736f6c63430008180033",
  "linkReferences": {},
  "deployedLinkReferences": {}
}