{
  "_format": "hh-sol-artifact-1",
  "contractName": "GameFrontend",
  "sourceName": "contracts/GameFrontend.sol",
  "abi": [
    {
      "inputs": [
        {
          "internalType": "address",
          "name": "gameContract_",
          "type": "address"
        }
      ],
      "stateMutability": "nonpayable",
      "type": "constructor"
    },
    {
      "inputs": [],
      "name": "gameContract",
      "outputs": [
        {
          "internalType": "contract IGame",
          "name": "",
          "type": "address"
        }
      ],
      "stateMutability": "view",
      "type": "function"
    },
    {
      "inputs": [],
      "name": "gameStatus",
      "outputs": [
        {
          "internalType": "uint256",
          "name": "totalChallanges",
          "type": "uint256"
        },
        {
          "internalType": "uint256",
          "name": "ongoingChallanges",
          "type": "uint256"
        },
        {
          "internalType": "uint256",
          "name": "solvedChallanges",
          "type": "uint256"
        },
        {
          "internalType": "uint256",
          "name": "verifiedChallanges",
          "type": "uint256"
        }
      ],
      "stateMutability": "view",
      "type": "function"
    },
    {
      "inputs": [
        {
          "internalType": "uint256",
          "name": "startNumber",
          "type": "uint256"
        },
        {
          "internalType": "uint256",
          "name": "endNumber",
          "type": "uint256"
        }
      ],
      "name": "getNfts",
      "outputs": [
        {
          "components": [
            {
              "internalType": "uint256",
              "name": "id",
              "type": "uint256"
            },
            {
              "internalType": "uint256",
              "name": "tokenId",
              "type": "uint256"
            },
            {
              "internalType": "string",
              "name": "name",
              "type": "string"
            },
            {
              "internalType": "string",
              "name": "description",
              "type": "string"
            },
            {
              "internalType": "string",
              "name": "gameType",
              "type": "string"
            },
            {
              "internalType": "bytes32",
              "name": "prompt",
              "type": "bytes32"
            },
            {
              "internalType": "bytes32",
              "name": "secret",
              "type": "bytes32"
            },
            {
              "internalType": "string",
              "name": "imageUri",
              "type": "string"
            },
            {
              "internalType": "uint128",
              "name": "startDate",
              "type": "uint128"
            },
            {
              "internalType": "uint128",
              "name": "endDate",
              "type": "uint128"
            },
            {
              "internalType": "uint256",
              "name": "awards",
              "type": "uint256"
            },
            {
              "internalType": "address",
              "name": "winner",
              "type": "address"
            }
          ],
          "internalType": "struct NftData[]",
          "name": "data",
          "type": "tuple[]"
        }
      ],
      "stateMutability": "view",
      "type": "function"
    },
    {
      "inputs": [
        {
          "internalType": "address",
          "name": "user",
          "type": "address"
        }
      ],
      "name": "getPortfolioMaker",
      "outputs": [
        {
          "components": [
            {
              "internalType": "uint256",
              "name": "id",
              "type": "uint256"
            },
            {
              "internalType": "uint256",
              "name": "tokenId",
              "type": "uint256"
            },
            {
              "internalType": "string",
              "name": "name",
              "type": "string"
            },
            {
              "internalType": "string",
              "name": "description",
              "type": "string"
            },
            {
              "internalType": "string",
              "name": "gameType",
              "type": "string"
            },
            {
              "internalType": "bytes32",
              "name": "prompt",
              "type": "bytes32"
            },
            {
              "internalType": "bytes32",
              "name": "secret",
              "type": "bytes32"
            },
            {
              "internalType": "string",
              "name": "imageUri",
              "type": "string"
            },
            {
              "internalType": "uint128",
              "name": "startDate",
              "type": "uint128"
            },
            {
              "internalType": "uint128",
              "name": "endDate",
              "type": "uint128"
            },
            {
              "internalType": "uint256",
              "name": "awards",
              "type": "uint256"
            },
            {
              "internalType": "address",
              "name": "winner",
              "type": "address"
            }
          ],
          "internalType": "struct NftData[]",
          "name": "data",
          "type": "tuple[]"
        }
      ],
      "stateMutability": "view",
      "type": "function"
    },
    {
      "inputs": [
        {
          "internalType": "address",
          "name": "user",
          "type": "address"
        }
      ],
      "name": "getPortfolioSolver",
      "outputs": [
        {
          "components": [
            {
              "internalType": "uint256",
              "name": "id",
              "type": "uint256"
            },
            {
              "internalType": "uint256",
              "name": "tokenId",
              "type": "uint256"
            },
            {
              "internalType": "string",
              "name": "name",
              "type": "string"
            },
            {
              "internalType": "string",
              "name": "description",
              "type": "string"
            },
            {
              "internalType": "string",
              "name": "gameType",
              "type": "string"
            },
            {
              "internalType": "bytes32",
              "name": "prompt",
              "type": "bytes32"
            },
            {
              "internalType": "bytes32",
              "name": "secret",
              "type": "bytes32"
            },
            {
              "internalType": "string",
              "name": "imageUri",
              "type": "string"
            },
            {
              "internalType": "uint128",
              "name": "startDate",
              "type": "uint128"
            },
            {
              "internalType": "uint128",
              "name": "endDate",
              "type": "uint128"
            },
            {
              "internalType": "uint256",
              "name": "awards",
              "type": "uint256"
            },
            {
              "internalType": "address",
              "name": "winner",
              "type": "address"
            }
          ],
          "internalType": "struct NftData[]",
          "name": "data",
          "type": "tuple[]"
        }
      ],
      "stateMutability": "view",
      "type": "function"
    },
    {
      "inputs": [
        {
          "internalType": "uint256",
          "name": "topk",
          "type": "uint256"
        }
      ],
      "name": "getTopSolvers",
      "outputs": [
        {
          "internalType": "address[]",
          "name": "solvers",
          "type": "address[]"
        },
        {
          "internalType": "uint256[]",
          "name": "counts",
          "type": "uint256[]"
        },
        {
          "internalType": "uint256[]",
          "name": "awards",
          "type": "uint256[]"
        }
      ],
      "stateMutability": "view",
      "type": "function"
    }
  ],
  "bytecode": "0x60a060405234801561001057600080fd5b506040516200239e3803806200239e83398101604081905261003191610042565b6001600160a01b0316608052610072565b60006020828403121561005457600080fd5b81516001600160a01b038116811461006b57600080fd5b9392505050565b608051612246620001586000396000818160f2015281816101480152818161031f015281816103ab015281816103da015281816104f8015281816105270152818161063d0152818161066c015281816107a1015281816108c4015281816109ab01528181610a5301528181610b1201528181610c0701528181610cb801528181610dd301528181610f1401528181610f96015281816110180152818161109a0152818161114d01528181611242015281816112d3015281816113620152818161147d015281816115bb015281816116ca01528181611761015261187c01526122466000f3fe608060405234801561001057600080fd5b50600436106100625760003560e01c80631cb04b7814610067578063572edf7914610092578063722fed7e146100b2578063a4abc3f9146100da578063d3f33009146100ed578063fac6350d1461012c575b600080fd5b61007a610075366004611bc9565b61013f565b60405161008993929190611c1e565b60405180910390f35b6100a56100a0366004611cac565b610aed565b6040516100899190611d20565b6100ba610f0c565b604080519485526020850193909352918301526060820152608001610089565b6100a56100e8366004611cac565b611128565b6101147f000000000000000000000000000000000000000000000000000000000000000081565b6040516001600160a01b039091168152602001610089565b6100a561013a366004611e59565b6115b5565b606080606060007f00000000000000000000000000000000000000000000000000000000000000006001600160a01b0316637b80e8e66040518163ffffffff1660e01b8152600401602060405180830381865afa1580156101a4573d6000803e3d6000fd5b505050506040513d601f19601f820116820180604052508101906101c89190611e7b565b9050808511156101d6578094505b50836001600160401b038111156101ef576101ef611e94565b604051908082528060200260200182016040528015610218578160200160208202803683370190505b509250836001600160401b0381111561023357610233611e94565b60405190808252806020026020018201604052801561025c578160200160208202803683370190505b509150836001600160401b0381111561027757610277611e94565b6040519080825280602002602001820160405280156102a0578160200160208202803683370190505b5090506000846001600160401b038111156102bd576102bd611e94565b6040519080825280602002602001820160405280156102e6578160200160208202803683370190505b50905060005b8581101561031a578082828151811061030757610307611eaa565b60209081029190910101526001016102ec565b50845b7f00000000000000000000000000000000000000000000000000000000000000006001600160a01b0316637b80e8e66040518163ffffffff1660e01b8152600401602060405180830381865afa15801561037b573d6000803e3d6000fd5b505050506040513d601f19601f8201168201806040525081019061039f9190611e7b565b8110156108b4576000807f00000000000000000000000000000000000000000000000000000000000000006001600160a01b031663415fa50a7f00000000000000000000000000000000000000000000000000000000000000006001600160a01b031663fe7f43da87868151811061041957610419611eaa565b60200260200101516040518263ffffffff1660e01b815260040161043f91815260200190565b602060405180830381865afa15801561045c573d6000803e3d6000fd5b505050506040513d601f19601f820116820180604052508101906104809190611ed0565b6040516001600160e01b031960e084901b1681526001600160a01b039091166004820152602401602060405180830381865afa1580156104c4573d6000803e3d6000fd5b505050506040513d601f19601f820116820180604052508101906104e89190611e7b565b905060015b8881101561078857817f00000000000000000000000000000000000000000000000000000000000000006001600160a01b031663415fa50a7f00000000000000000000000000000000000000000000000000000000000000006001600160a01b031663fe7f43da89868151811061056657610566611eaa565b60200260200101516040518263ffffffff1660e01b815260040161058c91815260200190565b602060405180830381865afa1580156105a9573d6000803e3d6000fd5b505050506040513d601f19601f820116820180604052508101906105cd9190611ed0565b6040516001600160e01b031960e084901b1681526001600160a01b039091166004820152602401602060405180830381865afa158015610611573d6000803e3d6000fd5b505050506040513d601f19601f820116820180604052508101906106359190611e7b565b1015610780577f00000000000000000000000000000000000000000000000000000000000000006001600160a01b031663415fa50a7f00000000000000000000000000000000000000000000000000000000000000006001600160a01b031663fe7f43da8885815181106106ab576106ab611eaa565b60200260200101516040518263ffffffff1660e01b81526004016106d191815260200190565b602060405180830381865afa1580156106ee573d6000803e3d6000fd5b505050506040513d601f19601f820116820180604052508101906107129190611ed0565b6040516001600160e01b031960e084901b1681526001600160a01b039091166004820152602401602060405180830381865afa158015610756573d6000803e3d6000fd5b505050506040513d601f19601f8201168201806040525081019061077a9190611e7b565b91508092505b6001016104ed565b50604051637f3fa1ed60e11b81526004810184905281907f00000000000000000000000000000000000000000000000000000000000000006001600160a01b03169063415fa50a90829063fe7f43da90602401602060405180830381865afa1580156107f8573d6000803e3d6000fd5b505050506040513d601f19601f8201168201806040525081019061081c9190611ed0565b6040516001600160e01b031960e084901b1681526001600160a01b039091166004820152602401602060405180830381865afa158015610860573d6000803e3d6000fd5b505050506040513d601f19601f820116820180604052508101906108849190611e7b565b11156108aa578284838151811061089d5761089d611eaa565b6020026020010181815250505b505060010161031d565b5060005b85811015610ae45760007f00000000000000000000000000000000000000000000000000000000000000006001600160a01b031663fe7f43da84848151811061090357610903611eaa565b60200260200101516040518263ffffffff1660e01b815260040161092991815260200190565b602060405180830381865afa158015610946573d6000803e3d6000fd5b505050506040513d601f19601f8201168201806040525081019061096a9190611ed0565b90508086838151811061097f5761097f611eaa565b6001600160a01b039283166020918202929092010152604051623e4a5b60e11b815282821660048201527f000000000000000000000000000000000000000000000000000000000000000090911690627c94b690602401602060405180830381865afa1580156109f3573d6000803e3d6000fd5b505050506040513d601f19601f82011682018060405250810190610a179190611e7b565b858381518110610a2957610a29611eaa565b60209081029190910101526040516320afd28560e11b81526001600160a01b0382811660048301527f0000000000000000000000000000000000000000000000000000000000000000169063415fa50a90602401602060405180830381865afa158015610a9a573d6000803e3d6000fd5b505050506040513d601f19601f82011682018060405250810190610abe9190611e7b565b848381518110610ad057610ad0611eaa565b6020908102919091010152506001016108b8565b50509193909250565b60405163215812e960e21b81526001600160a01b0382811660048301526060916000917f000000000000000000000000000000000000000000000000000000000000000016906385604ba490602401600060405180830381865afa158015610b59573d6000803e3d6000fd5b505050506040513d6000823e601f3d908101601f19168201604052610b819190810190611f46565b8051909150806001600160401b03811115610b9e57610b9e611e94565b604051908082528060200260200182016040528015610bd757816020015b610bc4611b47565b815260200190600190039081610bbc5790505b50925060005b81811015610f04576000838281518110610bf957610bf9611eaa565b6020026020010151905060007f00000000000000000000000000000000000000000000000000000000000000006001600160a01b03166354c87af4836040518263ffffffff1660e01b8152600401610c5391815260200190565b602060405180830381865afa158015610c70573d6000803e3d6000fd5b505050506040513d601f19601f82011682018060405250810190610c949190611e7b565b60405163277ecfbb60e01b8152600481018490529091506000906001600160a01b037f0000000000000000000000000000000000000000000000000000000000000000169063277ecfbb90602401600060405180830381865afa158015610cff573d6000803e3d6000fd5b505050506040513d6000823e601f3d908101601f19168201604052610d27919081019061206d565b905060006040518061018001604052808481526020018581526020018360000151815260200183602001518152602001836040015181526020018360600151815260200183608001518152602001610d7d6119bc565b610d86866119dc565b604051602001610d97929190612169565b60405160208183030381529060405281526020018360a001516001600160801b031681526020018360c001516001600160801b031681526020017f00000000000000000000000000000000000000000000000000000000000000006001600160a01b031663d2da7bca6040518163ffffffff1660e01b8152600401602060405180830381865afa158015610e2f573d6000803e3d6000fd5b505050506040513d601f19601f82011682018060405250810190610e539190611ed0565b6040516370a0823160e01b81526001600160a01b03888116600483015291909116906370a0823190602401602060405180830381865afa158015610e9b573d6000803e3d6000fd5b505050506040513d601f19601f82011682018060405250810190610ebf9190611e7b565b81526020018360e001516001600160a01b0316815250905080888681518110610eea57610eea611eaa565b602002602001018190525084600101945050505050610bdd565b505050919050565b6000806000807f00000000000000000000000000000000000000000000000000000000000000006001600160a01b03166318160ddd6040518163ffffffff1660e01b8152600401602060405180830381865afa158015610f70573d6000803e3d6000fd5b505050506040513d601f19601f82011682018060405250810190610f949190611e7b565b7f00000000000000000000000000000000000000000000000000000000000000006001600160a01b031663ef7926626040518163ffffffff1660e01b8152600401602060405180830381865afa158015610ff2573d6000803e3d6000fd5b505050506040513d601f19601f820116820180604052508101906110169190611e7b565b7f00000000000000000000000000000000000000000000000000000000000000006001600160a01b031663c516e1566040518163ffffffff1660e01b8152600401602060405180830381865afa158015611074573d6000803e3d6000fd5b505050506040513d601f19601f820116820180604052508101906110989190611e7b565b7f00000000000000000000000000000000000000000000000000000000000000006001600160a01b031663fe9eba156040518163ffffffff1660e01b8152600401602060405180830381865afa1580156110f6573d6000803e3d6000fd5b505050506040513d601f19601f8201168201806040525081019061111a9190611e7b565b935093509350935090919293565b6040516370a0823160e01b81526001600160a01b0382811660048301526060916000917f000000000000000000000000000000000000000000000000000000000000000016906370a0823190602401602060405180830381865afa158015611194573d6000803e3d6000fd5b505050506040513d601f19601f820116820180604052508101906111b89190611e7b565b9050806001600160401b038111156111d2576111d2611e94565b60405190808252806020026020018201604052801561120b57816020015b6111f8611b47565b8152602001906001900390816111f05790505b50915060005b818110156115ae57604051632f745c5960e01b81526001600160a01b038581166004830152602482018390526000917f000000000000000000000000000000000000000000000000000000000000000090911690632f745c5990604401602060405180830381865afa15801561128b573d6000803e3d6000fd5b505050506040513d601f19601f820116820180604052508101906112af9190611e7b565b6040516315321ebd60e21b8152600481018290529091506000906001600160a01b037f000000000000000000000000000000000000000000000000000000000000000016906354c87af490602401602060405180830381865afa15801561131a573d6000803e3d6000fd5b505050506040513d601f19601f8201168201806040525081019061133e9190611e7b565b60405163277ecfbb60e01b8152600481018490529091506000906001600160a01b037f0000000000000000000000000000000000000000000000000000000000000000169063277ecfbb90602401600060405180830381865afa1580156113a9573d6000803e3d6000fd5b505050506040513d6000823e601f3d908101601f191682016040526113d1919081019061206d565b9050600060405180610180016040528084815260200185815260200183600001518152602001836020015181526020018360400151815260200183606001518152602001836080015181526020016114276119bc565b611430866119dc565b604051602001611441929190612169565b60405160208183030381529060405281526020018360a001516001600160801b031681526020018360c001516001600160801b031681526020017f00000000000000000000000000000000000000000000000000000000000000006001600160a01b031663d2da7bca6040518163ffffffff1660e01b8152600401602060405180830381865afa1580156114d9573d6000803e3d6000fd5b505050506040513d601f19601f820116820180604052508101906114fd9190611ed0565b6040516370a0823160e01b81526001600160a01b03888116600483015291909116906370a0823190602401602060405180830381865afa158015611545573d6000803e3d6000fd5b505050506040513d601f19601f820116820180604052508101906115699190611e7b565b81526020018360e001516001600160a01b031681525090508087868151811061159457611594611eaa565b602002602001018190525084600101945050505050611211565b5050919050565b606060007f00000000000000000000000000000000000000000000000000000000000000006001600160a01b03166318160ddd6040518163ffffffff1660e01b8152600401602060405180830381865afa158015611617573d6000803e3d6000fd5b505050506040513d601f19601f8201168201806040525081019061163b9190611e7b565b905080831115611649578092505b5061165483836121a7565b6001600160401b0381111561166b5761166b611e94565b6040519080825280602002602001820160405280156116a457816020015b611691611b47565b8152602001906001900390816116895790505b509050825b828110156119b557604051639dd3e25560e01b8152600481018290526000907f00000000000000000000000000000000000000000000000000000000000000006001600160a01b031690639dd3e25590602401602060405180830381865afa158015611719573d6000803e3d6000fd5b505050506040513d601f19601f8201168201806040525081019061173d9190611e7b565b60405163277ecfbb60e01b8152600481018290529091506000906001600160a01b037f0000000000000000000000000000000000000000000000000000000000000000169063277ecfbb90602401600060405180830381865afa1580156117a8573d6000803e3d6000fd5b505050506040513d6000823e601f3d908101601f191682016040526117d0919081019061206d565b9050600060405180610180016040528085815260200184815260200183600001518152602001836020015181526020018360400151815260200183606001518152602001836080015181526020016118266119bc565b61182f876119dc565b604051602001611840929190612169565b60405160208183030381529060405281526020018360a001516001600160801b031681526020018360c001516001600160801b031681526020017f00000000000000000000000000000000000000000000000000000000000000006001600160a01b031663d2da7bca6040518163ffffffff1660e01b8152600401602060405180830381865afa1580156118d8573d6000803e3d6000fd5b505050506040513d601f19601f820116820180604052508101906118fc9190611ed0565b6040516370a0823160e01b81526001600160a01b03878116600483015291909116906370a0823190602401602060405180830381865afa158015611944573d6000803e3d6000fd5b505050506040513d601f19601f820116820180604052508101906119689190611e7b565b815260e08401516001600160a01b03166020909101529050808561198c89876121a7565b8151811061199c5761199c611eaa565b60200260200101819052508360010193505050506116a9565b5092915050565b60606040518060800160405280604881526020016121c960489139905090565b606060006119e983611a6e565b60010190506000816001600160401b03811115611a0857611a08611e94565b6040519080825280601f01601f191660200182016040528015611a32576020820181803683370190505b5090508181016020015b600019016f181899199a1a9b1b9c1cb0b131b232b360811b600a86061a8153600a8504945084611a3c57509392505050565b60008072184f03e93ff9f4daa797ed6e38ed64bf6a1f0160401b8310611aad5772184f03e93ff9f4daa797ed6e38ed64bf6a1f0160401b830492506040015b6d04ee2d6d415b85acef81000000008310611ad9576d04ee2d6d415b85acef8100000000830492506020015b662386f26fc100008310611af757662386f26fc10000830492506010015b6305f5e1008310611b0f576305f5e100830492506008015b6127108310611b2357612710830492506004015b60648310611b35576064830492506002015b600a8310611b41576001015b92915050565b604051806101800160405280600081526020016000815260200160608152602001606081526020016060815260200160008019168152602001600080191681526020016060815260200160006001600160801b0316815260200160006001600160801b031681526020016000815260200160006001600160a01b031681525090565b600060208284031215611bdb57600080fd5b5035919050565b60008151808452602080850194506020840160005b83811015611c1357815187529582019590820190600101611bf7565b509495945050505050565b606080825284519082018190526000906020906080840190828801845b82811015611c605781516001600160a01b031684529284019290840190600101611c3b565b5050508381036020850152611c758187611be2565b9150508281036040840152611c8a8185611be2565b9695505050505050565b6001600160a01b0381168114611ca957600080fd5b50565b600060208284031215611cbe57600080fd5b8135611cc981611c94565b9392505050565b60005b83811015611ceb578181015183820152602001611cd3565b50506000910152565b60008151808452611d0c816020860160208601611cd0565b601f01601f19169290920160200192915050565b600060208083018184528085518083526040925060408601915060408160051b87010184880160005b83811015611e4b57603f198984030185528151610180815185528882015189860152878201518189870152611d8082870182611cf4565b91505060608083015186830382880152611d9a8382611cf4565b9250505060808083015186830382880152611db58382611cf4565b9250505060a080830151818701525060c080830151818701525060e08083015186830382880152611de68382611cf4565b9250505061010080830151611e05828801826001600160801b03169052565b5050610120828101516001600160801b0316908601526101408083015190860152610160918201516001600160a01b031691909401529386019390860190600101611d49565b509098975050505050505050565b60008060408385031215611e6c57600080fd5b50508035926020909101359150565b600060208284031215611e8d57600080fd5b5051919050565b634e487b7160e01b600052604160045260246000fd5b634e487b7160e01b600052603260045260246000fd5b8051611ecb81611c94565b919050565b600060208284031215611ee257600080fd5b8151611cc981611c94565b60405161010081016001600160401b0381118282101715611f1057611f10611e94565b60405290565b604051601f8201601f191681016001600160401b0381118282101715611f3e57611f3e611e94565b604052919050565b60006020808385031215611f5957600080fd5b82516001600160401b0380821115611f7057600080fd5b818501915085601f830112611f8457600080fd5b815181811115611f9657611f96611e94565b8060051b9150611fa7848301611f16565b8181529183018401918481019088841115611fc157600080fd5b938501935b83851015611fdf57845182529385019390850190611fc6565b98975050505050505050565b600082601f830112611ffc57600080fd5b81516001600160401b0381111561201557612015611e94565b612028601f8201601f1916602001611f16565b81815284602083860101111561203d57600080fd5b61204e826020830160208701611cd0565b949350505050565b80516001600160801b0381168114611ecb57600080fd5b60006020828403121561207f57600080fd5b81516001600160401b038082111561209657600080fd5b9083019061010082860312156120ab57600080fd5b6120b3611eed565b8251828111156120c257600080fd5b6120ce87828601611feb565b8252506020830151828111156120e357600080fd5b6120ef87828601611feb565b60208301525060408301518281111561210757600080fd5b61211387828601611feb565b604083015250606083015160608201526080830151608082015261213960a08401612056565b60a082015261214a60c08401612056565b60c082015261215b60e08401611ec0565b60e082015295945050505050565b6000835161217b818460208801611cd0565b83519083019061218f818360208801611cd0565b632e706e6760e01b9101908152600401949350505050565b81810381811115611b4157634e487b7160e01b600052601160045260246000fdfe68747470733a2f2f7261772e67697468756275736572636f6e74656e742e636f6d2f70726f6d70746f7765722f7765626170702f6d61696e2f7372632f6173736574732f6e66742fa264697066735822122087cd3dfe1ee388c3f05f8be6f1699de697e25b4b426d3230877658d6bd5bea7f64736f6c63430008180033",
  "linkReferences": {},
  "deployedLinkReferences": {}
}