{
  "_format": "hh-sol-artifact-1",
  "contractName": "GameFrontend",
  "sourceName": "contracts/GameFrontend.sol",
  "abi": [
    {
      "inputs": [
        {
          "internalType": "address",
          "name": "gameContract_",
          "type": "address"
        }
      ],
      "stateMutability": "nonpayable",
      "type": "constructor"
    },
    {
      "inputs": [],
      "name": "gameContract",
      "outputs": [
        {
          "internalType": "contract IGame",
          "name": "",
          "type": "address"
        }
      ],
      "stateMutability": "view",
      "type": "function"
    },
    {
      "inputs": [],
      "name": "gameStatus",
      "outputs": [
        {
          "internalType": "uint256",
          "name": "totalChallanges",
          "type": "uint256"
        },
        {
          "internalType": "uint256",
          "name": "ongoingChallanges",
          "type": "uint256"
        },
        {
          "internalType": "uint256",
          "name": "solvedChallanges",
          "type": "uint256"
        },
        {
          "internalType": "uint256",
          "name": "verifiedChallanges",
          "type": "uint256"
        }
      ],
      "stateMutability": "view",
      "type": "function"
    },
    {
      "inputs": [
        {
          "internalType": "uint256",
          "name": "startNumber",
          "type": "uint256"
        },
        {
          "internalType": "uint256",
          "name": "endNumber",
          "type": "uint256"
        }
      ],
      "name": "getNfts",
      "outputs": [
        {
          "components": [
            {
              "internalType": "uint256",
              "name": "id",
              "type": "uint256"
            },
            {
              "internalType": "string",
              "name": "name",
              "type": "string"
            },
            {
              "internalType": "string",
              "name": "description",
              "type": "string"
            },
            {
              "internalType": "string",
              "name": "gameType",
              "type": "string"
            },
            {
              "internalType": "bytes32",
              "name": "prompt",
              "type": "bytes32"
            },
            {
              "internalType": "bytes32",
              "name": "secret",
              "type": "bytes32"
            },
            {
              "internalType": "string",
              "name": "imageUri",
              "type": "string"
            },
            {
              "internalType": "uint128",
              "name": "startDate",
              "type": "uint128"
            },
            {
              "internalType": "uint128",
              "name": "endDate",
              "type": "uint128"
            },
            {
              "internalType": "uint256",
              "name": "awards",
              "type": "uint256"
            },
            {
              "internalType": "address",
              "name": "winner",
              "type": "address"
            }
          ],
          "internalType": "struct NftData[]",
          "name": "data",
          "type": "tuple[]"
        }
      ],
      "stateMutability": "view",
      "type": "function"
    },
    {
      "inputs": [
        {
          "internalType": "address",
          "name": "user",
          "type": "address"
        }
      ],
      "name": "getPortfolioMaker",
      "outputs": [
        {
          "components": [
            {
              "internalType": "uint256",
              "name": "id",
              "type": "uint256"
            },
            {
              "internalType": "string",
              "name": "name",
              "type": "string"
            },
            {
              "internalType": "string",
              "name": "description",
              "type": "string"
            },
            {
              "internalType": "string",
              "name": "gameType",
              "type": "string"
            },
            {
              "internalType": "bytes32",
              "name": "prompt",
              "type": "bytes32"
            },
            {
              "internalType": "bytes32",
              "name": "secret",
              "type": "bytes32"
            },
            {
              "internalType": "string",
              "name": "imageUri",
              "type": "string"
            },
            {
              "internalType": "uint128",
              "name": "startDate",
              "type": "uint128"
            },
            {
              "internalType": "uint128",
              "name": "endDate",
              "type": "uint128"
            },
            {
              "internalType": "uint256",
              "name": "awards",
              "type": "uint256"
            },
            {
              "internalType": "address",
              "name": "winner",
              "type": "address"
            }
          ],
          "internalType": "struct NftData[]",
          "name": "data",
          "type": "tuple[]"
        }
      ],
      "stateMutability": "view",
      "type": "function"
    },
    {
      "inputs": [
        {
          "internalType": "address",
          "name": "user",
          "type": "address"
        }
      ],
      "name": "getPortfolioSolver",
      "outputs": [
        {
          "components": [
            {
              "internalType": "uint256",
              "name": "id",
              "type": "uint256"
            },
            {
              "internalType": "string",
              "name": "name",
              "type": "string"
            },
            {
              "internalType": "string",
              "name": "description",
              "type": "string"
            },
            {
              "internalType": "string",
              "name": "gameType",
              "type": "string"
            },
            {
              "internalType": "bytes32",
              "name": "prompt",
              "type": "bytes32"
            },
            {
              "internalType": "bytes32",
              "name": "secret",
              "type": "bytes32"
            },
            {
              "internalType": "string",
              "name": "imageUri",
              "type": "string"
            },
            {
              "internalType": "uint128",
              "name": "startDate",
              "type": "uint128"
            },
            {
              "internalType": "uint128",
              "name": "endDate",
              "type": "uint128"
            },
            {
              "internalType": "uint256",
              "name": "awards",
              "type": "uint256"
            },
            {
              "internalType": "address",
              "name": "winner",
              "type": "address"
            }
          ],
          "internalType": "struct NftData[]",
          "name": "data",
          "type": "tuple[]"
        }
      ],
      "stateMutability": "view",
      "type": "function"
    },
    {
      "inputs": [
        {
          "internalType": "uint256",
          "name": "topk",
          "type": "uint256"
        }
      ],
      "name": "getTopSolvers",
      "outputs": [
        {
          "internalType": "address[]",
          "name": "solvers",
          "type": "address[]"
        },
        {
          "internalType": "uint256[]",
          "name": "counts",
          "type": "uint256[]"
        },
        {
          "internalType": "uint256[]",
          "name": "awards",
          "type": "uint256[]"
        }
      ],
      "stateMutability": "view",
      "type": "function"
    }
  ],
  "bytecode": "0x60a060405234801561001057600080fd5b50604051620023793803806200237983398101604081905261003191610042565b6001600160a01b0316608052610072565b60006020828403121561005457600080fd5b81516001600160a01b038116811461006b57600080fd5b9392505050565b608051612221620001586000396000818160f2015281816101480152818161031f015281816103ab015281816103da015281816104f8015281816105270152818161063d0152818161066c015281816107a1015281816108c4015281816109ab01528181610a5301528181610b1201528181610c0701528181610cb801528181610dcd01528181610f0e01528181610f900152818161101201528181611094015281816111470152818161123c015281816112cd0152818161135c01528181611471015281816115af015281816116be01528181611755015261186a01526122216000f3fe608060405234801561001057600080fd5b50600436106100625760003560e01c80631cb04b7814610067578063572edf7914610092578063722fed7e146100b2578063a4abc3f9146100da578063d3f33009146100ed578063fac6350d1461012c575b600080fd5b61007a610075366004611bb0565b61013f565b60405161008993929190611c05565b60405180910390f35b6100a56100a0366004611c93565b610aed565b6040516100899190611d07565b6100ba610f06565b604080519485526020850193909352918301526060820152608001610089565b6100a56100e8366004611c93565b611122565b6101147f000000000000000000000000000000000000000000000000000000000000000081565b6040516001600160a01b039091168152602001610089565b6100a561013a366004611e34565b6115a9565b606080606060007f00000000000000000000000000000000000000000000000000000000000000006001600160a01b0316637b80e8e66040518163ffffffff1660e01b8152600401602060405180830381865afa1580156101a4573d6000803e3d6000fd5b505050506040513d601f19601f820116820180604052508101906101c89190611e56565b9050808511156101d6578094505b50836001600160401b038111156101ef576101ef611e6f565b604051908082528060200260200182016040528015610218578160200160208202803683370190505b509250836001600160401b0381111561023357610233611e6f565b60405190808252806020026020018201604052801561025c578160200160208202803683370190505b509150836001600160401b0381111561027757610277611e6f565b6040519080825280602002602001820160405280156102a0578160200160208202803683370190505b5090506000846001600160401b038111156102bd576102bd611e6f565b6040519080825280602002602001820160405280156102e6578160200160208202803683370190505b50905060005b8581101561031a578082828151811061030757610307611e85565b60209081029190910101526001016102ec565b50845b7f00000000000000000000000000000000000000000000000000000000000000006001600160a01b0316637b80e8e66040518163ffffffff1660e01b8152600401602060405180830381865afa15801561037b573d6000803e3d6000fd5b505050506040513d601f19601f8201168201806040525081019061039f9190611e56565b8110156108b4576000807f00000000000000000000000000000000000000000000000000000000000000006001600160a01b031663415fa50a7f00000000000000000000000000000000000000000000000000000000000000006001600160a01b031663fe7f43da87868151811061041957610419611e85565b60200260200101516040518263ffffffff1660e01b815260040161043f91815260200190565b602060405180830381865afa15801561045c573d6000803e3d6000fd5b505050506040513d601f19601f820116820180604052508101906104809190611eab565b6040516001600160e01b031960e084901b1681526001600160a01b039091166004820152602401602060405180830381865afa1580156104c4573d6000803e3d6000fd5b505050506040513d601f19601f820116820180604052508101906104e89190611e56565b905060015b8881101561078857817f00000000000000000000000000000000000000000000000000000000000000006001600160a01b031663415fa50a7f00000000000000000000000000000000000000000000000000000000000000006001600160a01b031663fe7f43da89868151811061056657610566611e85565b60200260200101516040518263ffffffff1660e01b815260040161058c91815260200190565b602060405180830381865afa1580156105a9573d6000803e3d6000fd5b505050506040513d601f19601f820116820180604052508101906105cd9190611eab565b6040516001600160e01b031960e084901b1681526001600160a01b039091166004820152602401602060405180830381865afa158015610611573d6000803e3d6000fd5b505050506040513d601f19601f820116820180604052508101906106359190611e56565b1015610780577f00000000000000000000000000000000000000000000000000000000000000006001600160a01b031663415fa50a7f00000000000000000000000000000000000000000000000000000000000000006001600160a01b031663fe7f43da8885815181106106ab576106ab611e85565b60200260200101516040518263ffffffff1660e01b81526004016106d191815260200190565b602060405180830381865afa1580156106ee573d6000803e3d6000fd5b505050506040513d601f19601f820116820180604052508101906107129190611eab565b6040516001600160e01b031960e084901b1681526001600160a01b039091166004820152602401602060405180830381865afa158015610756573d6000803e3d6000fd5b505050506040513d601f19601f8201168201806040525081019061077a9190611e56565b91508092505b6001016104ed565b50604051637f3fa1ed60e11b81526004810184905281907f00000000000000000000000000000000000000000000000000000000000000006001600160a01b03169063415fa50a90829063fe7f43da90602401602060405180830381865afa1580156107f8573d6000803e3d6000fd5b505050506040513d601f19601f8201168201806040525081019061081c9190611eab565b6040516001600160e01b031960e084901b1681526001600160a01b039091166004820152602401602060405180830381865afa158015610860573d6000803e3d6000fd5b505050506040513d601f19601f820116820180604052508101906108849190611e56565b11156108aa578284838151811061089d5761089d611e85565b6020026020010181815250505b505060010161031d565b5060005b85811015610ae45760007f00000000000000000000000000000000000000000000000000000000000000006001600160a01b031663fe7f43da84848151811061090357610903611e85565b60200260200101516040518263ffffffff1660e01b815260040161092991815260200190565b602060405180830381865afa158015610946573d6000803e3d6000fd5b505050506040513d601f19601f8201168201806040525081019061096a9190611eab565b90508086838151811061097f5761097f611e85565b6001600160a01b039283166020918202929092010152604051623e4a5b60e11b815282821660048201527f000000000000000000000000000000000000000000000000000000000000000090911690627c94b690602401602060405180830381865afa1580156109f3573d6000803e3d6000fd5b505050506040513d601f19601f82011682018060405250810190610a179190611e56565b858381518110610a2957610a29611e85565b60209081029190910101526040516320afd28560e11b81526001600160a01b0382811660048301527f0000000000000000000000000000000000000000000000000000000000000000169063415fa50a90602401602060405180830381865afa158015610a9a573d6000803e3d6000fd5b505050506040513d601f19601f82011682018060405250810190610abe9190611e56565b848381518110610ad057610ad0611e85565b6020908102919091010152506001016108b8565b50509193909250565b60405163215812e960e21b81526001600160a01b0382811660048301526060916000917f000000000000000000000000000000000000000000000000000000000000000016906385604ba490602401600060405180830381865afa158015610b59573d6000803e3d6000fd5b505050506040513d6000823e601f3d908101601f19168201604052610b819190810190611f21565b8051909150806001600160401b03811115610b9e57610b9e611e6f565b604051908082528060200260200182016040528015610bd757816020015b610bc4611b35565b815260200190600190039081610bbc5790505b50925060005b81811015610efe576000838281518110610bf957610bf9611e85565b6020026020010151905060007f00000000000000000000000000000000000000000000000000000000000000006001600160a01b03166354c87af4836040518263ffffffff1660e01b8152600401610c5391815260200190565b602060405180830381865afa158015610c70573d6000803e3d6000fd5b505050506040513d601f19601f82011682018060405250810190610c949190611e56565b60405163277ecfbb60e01b8152600481018490529091506000906001600160a01b037f0000000000000000000000000000000000000000000000000000000000000000169063277ecfbb90602401600060405180830381865afa158015610cff573d6000803e3d6000fd5b505050506040513d6000823e601f3d908101601f19168201604052610d279190810190612048565b905060006040518061016001604052808481526020018360000151815260200183602001518152602001836040015181526020018360600151815260200183608001518152602001610d776119aa565b610d80866119ca565b604051602001610d91929190612144565b60405160208183030381529060405281526020018360a001516001600160801b031681526020018360c001516001600160801b031681526020017f00000000000000000000000000000000000000000000000000000000000000006001600160a01b031663d2da7bca6040518163ffffffff1660e01b8152600401602060405180830381865afa158015610e29573d6000803e3d6000fd5b505050506040513d601f19601f82011682018060405250810190610e4d9190611eab565b6040516370a0823160e01b81526001600160a01b03888116600483015291909116906370a0823190602401602060405180830381865afa158015610e95573d6000803e3d6000fd5b505050506040513d601f19601f82011682018060405250810190610eb99190611e56565b81526020018360e001516001600160a01b0316815250905080888681518110610ee457610ee4611e85565b602002602001018190525084600101945050505050610bdd565b505050919050565b6000806000807f00000000000000000000000000000000000000000000000000000000000000006001600160a01b03166318160ddd6040518163ffffffff1660e01b8152600401602060405180830381865afa158015610f6a573d6000803e3d6000fd5b505050506040513d601f19601f82011682018060405250810190610f8e9190611e56565b7f00000000000000000000000000000000000000000000000000000000000000006001600160a01b031663ef7926626040518163ffffffff1660e01b8152600401602060405180830381865afa158015610fec573d6000803e3d6000fd5b505050506040513d601f19601f820116820180604052508101906110109190611e56565b7f00000000000000000000000000000000000000000000000000000000000000006001600160a01b031663c516e1566040518163ffffffff1660e01b8152600401602060405180830381865afa15801561106e573d6000803e3d6000fd5b505050506040513d601f19601f820116820180604052508101906110929190611e56565b7f00000000000000000000000000000000000000000000000000000000000000006001600160a01b031663fe9eba156040518163ffffffff1660e01b8152600401602060405180830381865afa1580156110f0573d6000803e3d6000fd5b505050506040513d601f19601f820116820180604052508101906111149190611e56565b935093509350935090919293565b6040516370a0823160e01b81526001600160a01b0382811660048301526060916000917f000000000000000000000000000000000000000000000000000000000000000016906370a0823190602401602060405180830381865afa15801561118e573d6000803e3d6000fd5b505050506040513d601f19601f820116820180604052508101906111b29190611e56565b9050806001600160401b038111156111cc576111cc611e6f565b60405190808252806020026020018201604052801561120557816020015b6111f2611b35565b8152602001906001900390816111ea5790505b50915060005b818110156115a257604051632f745c5960e01b81526001600160a01b038581166004830152602482018390526000917f000000000000000000000000000000000000000000000000000000000000000090911690632f745c5990604401602060405180830381865afa158015611285573d6000803e3d6000fd5b505050506040513d601f19601f820116820180604052508101906112a99190611e56565b6040516315321ebd60e21b8152600481018290529091506000906001600160a01b037f000000000000000000000000000000000000000000000000000000000000000016906354c87af490602401602060405180830381865afa158015611314573d6000803e3d6000fd5b505050506040513d601f19601f820116820180604052508101906113389190611e56565b60405163277ecfbb60e01b8152600481018490529091506000906001600160a01b037f0000000000000000000000000000000000000000000000000000000000000000169063277ecfbb90602401600060405180830381865afa1580156113a3573d6000803e3d6000fd5b505050506040513d6000823e601f3d908101601f191682016040526113cb9190810190612048565b90506000604051806101600160405280848152602001836000015181526020018360200151815260200183604001518152602001836060015181526020018360800151815260200161141b6119aa565b611424866119ca565b604051602001611435929190612144565b60405160208183030381529060405281526020018360a001516001600160801b031681526020018360c001516001600160801b031681526020017f00000000000000000000000000000000000000000000000000000000000000006001600160a01b031663d2da7bca6040518163ffffffff1660e01b8152600401602060405180830381865afa1580156114cd573d6000803e3d6000fd5b505050506040513d601f19601f820116820180604052508101906114f19190611eab565b6040516370a0823160e01b81526001600160a01b03888116600483015291909116906370a0823190602401602060405180830381865afa158015611539573d6000803e3d6000fd5b505050506040513d601f19601f8201168201806040525081019061155d9190611e56565b81526020018360e001516001600160a01b031681525090508087868151811061158857611588611e85565b60200260200101819052508460010194505050505061120b565b5050919050565b606060007f00000000000000000000000000000000000000000000000000000000000000006001600160a01b03166318160ddd6040518163ffffffff1660e01b8152600401602060405180830381865afa15801561160b573d6000803e3d6000fd5b505050506040513d601f19601f8201168201806040525081019061162f9190611e56565b90508083111561163d578092505b506116488383612182565b6001600160401b0381111561165f5761165f611e6f565b60405190808252806020026020018201604052801561169857816020015b611685611b35565b81526020019060019003908161167d5790505b509050825b828110156119a357604051639dd3e25560e01b8152600481018290526000907f00000000000000000000000000000000000000000000000000000000000000006001600160a01b031690639dd3e25590602401602060405180830381865afa15801561170d573d6000803e3d6000fd5b505050506040513d601f19601f820116820180604052508101906117319190611e56565b60405163277ecfbb60e01b8152600481018290529091506000906001600160a01b037f0000000000000000000000000000000000000000000000000000000000000000169063277ecfbb90602401600060405180830381865afa15801561179c573d6000803e3d6000fd5b505050506040513d6000823e601f3d908101601f191682016040526117c49190810190612048565b9050600060405180610160016040528085815260200183600001518152602001836020015181526020018360400151815260200183606001518152602001836080015181526020016118146119aa565b61181d876119ca565b60405160200161182e929190612144565b60405160208183030381529060405281526020018360a001516001600160801b031681526020018360c001516001600160801b031681526020017f00000000000000000000000000000000000000000000000000000000000000006001600160a01b031663d2da7bca6040518163ffffffff1660e01b8152600401602060405180830381865afa1580156118c6573d6000803e3d6000fd5b505050506040513d601f19601f820116820180604052508101906118ea9190611eab565b6040516370a0823160e01b81526001600160a01b03878116600483015291909116906370a0823190602401602060405180830381865afa158015611932573d6000803e3d6000fd5b505050506040513d601f19601f820116820180604052508101906119569190611e56565b815260e08401516001600160a01b03166020909101529050808561197a8987612182565b8151811061198a5761198a611e85565b602002602001018190525083600101935050505061169d565b5092915050565b60606040518060800160405280604881526020016121a460489139905090565b606060006119d783611a5c565b60010190506000816001600160401b038111156119f6576119f6611e6f565b6040519080825280601f01601f191660200182016040528015611a20576020820181803683370190505b5090508181016020015b600019016f181899199a1a9b1b9c1cb0b131b232b360811b600a86061a8153600a8504945084611a2a57509392505050565b60008072184f03e93ff9f4daa797ed6e38ed64bf6a1f0160401b8310611a9b5772184f03e93ff9f4daa797ed6e38ed64bf6a1f0160401b830492506040015b6d04ee2d6d415b85acef81000000008310611ac7576d04ee2d6d415b85acef8100000000830492506020015b662386f26fc100008310611ae557662386f26fc10000830492506010015b6305f5e1008310611afd576305f5e100830492506008015b6127108310611b1157612710830492506004015b60648310611b23576064830492506002015b600a8310611b2f576001015b92915050565b6040518061016001604052806000815260200160608152602001606081526020016060815260200160008019168152602001600080191681526020016060815260200160006001600160801b0316815260200160006001600160801b031681526020016000815260200160006001600160a01b031681525090565b600060208284031215611bc257600080fd5b5035919050565b60008151808452602080850194506020840160005b83811015611bfa57815187529582019590820190600101611bde565b509495945050505050565b606080825284519082018190526000906020906080840190828801845b82811015611c475781516001600160a01b031684529284019290840190600101611c22565b5050508381036020850152611c5c8187611bc9565b9150508281036040840152611c718185611bc9565b9695505050505050565b6001600160a01b0381168114611c9057600080fd5b50565b600060208284031215611ca557600080fd5b8135611cb081611c7b565b9392505050565b60005b83811015611cd2578181015183820152602001611cba565b50506000910152565b60008151808452611cf3816020860160208601611cb7565b601f01601f19169290920160200192915050565b600060208083018184528085518083526040925060408601915060408160051b87010184880160005b83811015611e2657603f1989840301855281516101608151855288820151818a870152611d5f82870182611cdb565b9150508782015185820389870152611d778282611cdb565b91505060608083015186830382880152611d918382611cdb565b92505050608080830151818701525060a080830151818701525060c08083015186830382880152611dc28382611cdb565b9250505060e080830151611de0828801826001600160801b03169052565b5050610100828101516001600160801b0316908601526101208083015190860152610140918201516001600160a01b031691909401529386019390860190600101611d30565b509098975050505050505050565b60008060408385031215611e4757600080fd5b50508035926020909101359150565b600060208284031215611e6857600080fd5b5051919050565b634e487b7160e01b600052604160045260246000fd5b634e487b7160e01b600052603260045260246000fd5b8051611ea681611c7b565b919050565b600060208284031215611ebd57600080fd5b8151611cb081611c7b565b60405161010081016001600160401b0381118282101715611eeb57611eeb611e6f565b60405290565b604051601f8201601f191681016001600160401b0381118282101715611f1957611f19611e6f565b604052919050565b60006020808385031215611f3457600080fd5b82516001600160401b0380821115611f4b57600080fd5b818501915085601f830112611f5f57600080fd5b815181811115611f7157611f71611e6f565b8060051b9150611f82848301611ef1565b8181529183018401918481019088841115611f9c57600080fd5b938501935b83851015611fba57845182529385019390850190611fa1565b98975050505050505050565b600082601f830112611fd757600080fd5b81516001600160401b03811115611ff057611ff0611e6f565b612003601f8201601f1916602001611ef1565b81815284602083860101111561201857600080fd5b612029826020830160208701611cb7565b949350505050565b80516001600160801b0381168114611ea657600080fd5b60006020828403121561205a57600080fd5b81516001600160401b038082111561207157600080fd5b90830190610100828603121561208657600080fd5b61208e611ec8565b82518281111561209d57600080fd5b6120a987828601611fc6565b8252506020830151828111156120be57600080fd5b6120ca87828601611fc6565b6020830152506040830151828111156120e257600080fd5b6120ee87828601611fc6565b604083015250606083015160608201526080830151608082015261211460a08401612031565b60a082015261212560c08401612031565b60c082015261213660e08401611e9b565b60e082015295945050505050565b60008351612156818460208801611cb7565b83519083019061216a818360208801611cb7565b632e706e6760e01b9101908152600401949350505050565b81810381811115611b2f57634e487b7160e01b600052601160045260246000fdfe68747470733a2f2f7261772e67697468756275736572636f6e74656e742e636f6d2f70726f6d70746f7765722f7765626170702f6d61696e2f7372632f6173736574732f6e66742fa26469706673582212205988eb63e2ac9dea0c1cd31ea856f42423b5430d856efedab6217c95a47ca08464736f6c63430008180033",
  "linkReferences": {},
  "deployedLinkReferences": {}
}