{
  "_format": "hh-sol-artifact-1",
  "contractName": "Game",
  "sourceName": "contracts/Game.sol",
  "abi": [
    {
      "inputs": [],
      "stateMutability": "nonpayable",
      "type": "constructor"
    },
    {
      "inputs": [
        {
          "internalType": "address",
          "name": "target",
          "type": "address"
        }
      ],
      "name": "AddressEmptyCode",
      "type": "error"
    },
    {
      "inputs": [],
      "name": "ERC721EnumerableForbiddenBatchMint",
      "type": "error"
    },
    {
      "inputs": [
        {
          "internalType": "address",
          "name": "sender",
          "type": "address"
        },
        {
          "internalType": "uint256",
          "name": "tokenId",
          "type": "uint256"
        },
        {
          "internalType": "address",
          "name": "owner",
          "type": "address"
        }
      ],
      "name": "ERC721IncorrectOwner",
      "type": "error"
    },
    {
      "inputs": [
        {
          "internalType": "address",
          "name": "operator",
          "type": "address"
        },
        {
          "internalType": "uint256",
          "name": "tokenId",
          "type": "uint256"
        }
      ],
      "name": "ERC721InsufficientApproval",
      "type": "error"
    },
    {
      "inputs": [
        {
          "internalType": "address",
          "name": "approver",
          "type": "address"
        }
      ],
      "name": "ERC721InvalidApprover",
      "type": "error"
    },
    {
      "inputs": [
        {
          "internalType": "address",
          "name": "operator",
          "type": "address"
        }
      ],
      "name": "ERC721InvalidOperator",
      "type": "error"
    },
    {
      "inputs": [
        {
          "internalType": "address",
          "name": "owner",
          "type": "address"
        }
      ],
      "name": "ERC721InvalidOwner",
      "type": "error"
    },
    {
      "inputs": [
        {
          "internalType": "address",
          "name": "receiver",
          "type": "address"
        }
      ],
      "name": "ERC721InvalidReceiver",
      "type": "error"
    },
    {
      "inputs": [
        {
          "internalType": "address",
          "name": "sender",
          "type": "address"
        }
      ],
      "name": "ERC721InvalidSender",
      "type": "error"
    },
    {
      "inputs": [
        {
          "internalType": "uint256",
          "name": "tokenId",
          "type": "uint256"
        }
      ],
      "name": "ERC721NonexistentToken",
      "type": "error"
    },
    {
      "inputs": [
        {
          "internalType": "address",
          "name": "owner",
          "type": "address"
        },
        {
          "internalType": "uint256",
          "name": "index",
          "type": "uint256"
        }
      ],
      "name": "ERC721OutOfBoundsIndex",
      "type": "error"
    },
    {
      "inputs": [],
      "name": "FailedInnerCall",
      "type": "error"
    },
    {
      "inputs": [],
      "name": "InvalidInitialization",
      "type": "error"
    },
    {
      "inputs": [],
      "name": "NotInitializing",
      "type": "error"
    },
    {
      "inputs": [
        {
          "internalType": "address",
          "name": "owner",
          "type": "address"
        }
      ],
      "name": "OwnableInvalidOwner",
      "type": "error"
    },
    {
      "inputs": [
        {
          "internalType": "address",
          "name": "account",
          "type": "address"
        }
      ],
      "name": "OwnableUnauthorizedAccount",
      "type": "error"
    },
    {
      "inputs": [
        {
          "internalType": "uint256",
          "name": "value",
          "type": "uint256"
        },
        {
          "internalType": "uint256",
          "name": "length",
          "type": "uint256"
        }
      ],
      "name": "StringsInsufficientHexLength",
      "type": "error"
    },
    {
      "anonymous": false,
      "inputs": [
        {
          "indexed": true,
          "internalType": "address",
          "name": "owner",
          "type": "address"
        },
        {
          "indexed": true,
          "internalType": "address",
          "name": "approved",
          "type": "address"
        },
        {
          "indexed": true,
          "internalType": "uint256",
          "name": "tokenId",
          "type": "uint256"
        }
      ],
      "name": "Approval",
      "type": "event"
    },
    {
      "anonymous": false,
      "inputs": [
        {
          "indexed": true,
          "internalType": "address",
          "name": "owner",
          "type": "address"
        },
        {
          "indexed": true,
          "internalType": "address",
          "name": "operator",
          "type": "address"
        },
        {
          "indexed": false,
          "internalType": "bool",
          "name": "approved",
          "type": "bool"
        }
      ],
      "name": "ApprovalForAll",
      "type": "event"
    },
    {
      "anonymous": false,
      "inputs": [
        {
          "indexed": false,
          "internalType": "uint64",
          "name": "version",
          "type": "uint64"
        }
      ],
      "name": "Initialized",
      "type": "event"
    },
    {
      "anonymous": false,
      "inputs": [
        {
          "indexed": true,
          "internalType": "address",
          "name": "previousOwner",
          "type": "address"
        },
        {
          "indexed": true,
          "internalType": "address",
          "name": "newOwner",
          "type": "address"
        }
      ],
      "name": "OwnershipTransferred",
      "type": "event"
    },
    {
      "anonymous": false,
      "inputs": [
        {
          "indexed": true,
          "internalType": "address",
          "name": "from",
          "type": "address"
        },
        {
          "indexed": true,
          "internalType": "address",
          "name": "to",
          "type": "address"
        },
        {
          "indexed": true,
          "internalType": "uint256",
          "name": "tokenId",
          "type": "uint256"
        }
      ],
      "name": "Transfer",
      "type": "event"
    },
    {
      "inputs": [],
      "name": "accountImplementation",
      "outputs": [
        {
          "internalType": "contract Wallet",
          "name": "",
          "type": "address"
        }
      ],
      "stateMutability": "view",
      "type": "function"
    },
    {
      "inputs": [
        {
          "internalType": "address",
          "name": "to",
          "type": "address"
        },
        {
          "internalType": "uint256",
          "name": "tokenId",
          "type": "uint256"
        }
      ],
      "name": "approve",
      "outputs": [],
      "stateMutability": "nonpayable",
      "type": "function"
    },
    {
      "inputs": [],
      "name": "awardToken",
      "outputs": [
        {
          "internalType": "address",
          "name": "",
          "type": "address"
        }
      ],
      "stateMutability": "view",
      "type": "function"
    },
    {
      "inputs": [
        {
          "internalType": "address",
          "name": "owner",
          "type": "address"
        }
      ],
      "name": "balanceOf",
      "outputs": [
        {
          "internalType": "uint256",
          "name": "",
          "type": "uint256"
        }
      ],
      "stateMutability": "view",
      "type": "function"
    },
    {
      "inputs": [
        {
          "internalType": "uint256",
          "name": "counter",
          "type": "uint256"
        }
      ],
      "name": "counterToTokenId",
      "outputs": [
        {
          "internalType": "uint256",
          "name": "tokenId",
          "type": "uint256"
        }
      ],
      "stateMutability": "view",
      "type": "function"
    },
    {
      "inputs": [
        {
          "internalType": "address",
          "name": "owner",
          "type": "address"
        }
      ],
      "name": "createAccount",
      "outputs": [
        {
          "internalType": "contract Wallet",
          "name": "ret",
          "type": "address"
        }
      ],
      "stateMutability": "nonpayable",
      "type": "function"
    },
    {
      "inputs": [
        {
          "internalType": "address",
          "name": "owner",
          "type": "address"
        },
        {
          "internalType": "uint256",
          "name": "salt",
          "type": "uint256"
        }
      ],
      "name": "getAccountAddress",
      "outputs": [
        {
          "internalType": "address",
          "name": "",
          "type": "address"
        }
      ],
      "stateMutability": "view",
      "type": "function"
    },
    {
      "inputs": [
        {
          "internalType": "address",
          "name": "owner",
          "type": "address"
        }
      ],
      "name": "getAccountAddress",
      "outputs": [
        {
          "internalType": "address",
          "name": "",
          "type": "address"
        }
      ],
      "stateMutability": "view",
      "type": "function"
    },
    {
      "inputs": [
        {
          "internalType": "uint256",
          "name": "tokenId",
          "type": "uint256"
        }
      ],
      "name": "getApproved",
      "outputs": [
        {
          "internalType": "address",
          "name": "",
          "type": "address"
        }
      ],
      "stateMutability": "view",
      "type": "function"
    },
    {
      "inputs": [
        {
          "internalType": "uint256",
          "name": "tokenId",
          "type": "uint256"
        },
        {
          "internalType": "address",
          "name": "nftAddress",
          "type": "address"
        }
      ],
      "name": "hasBadge",
      "outputs": [
        {
          "internalType": "bool",
          "name": "",
          "type": "bool"
        }
      ],
      "stateMutability": "view",
      "type": "function"
    },
    {
      "inputs": [
        {
          "internalType": "address",
          "name": "initialOwner_",
          "type": "address"
        },
        {
          "internalType": "address",
          "name": "awardToken_",
          "type": "address"
        }
      ],
      "name": "initialize",
      "outputs": [],
      "stateMutability": "nonpayable",
      "type": "function"
    },
    {
      "inputs": [
        {
          "internalType": "string",
          "name": "name_",
          "type": "string"
        },
        {
          "internalType": "string",
          "name": "symbol_",
          "type": "string"
        }
      ],
      "name": "initialize",
      "outputs": [],
      "stateMutability": "nonpayable",
      "type": "function"
    },
    {
      "inputs": [
        {
          "internalType": "address",
          "name": "owner",
          "type": "address"
        },
        {
          "internalType": "address",
          "name": "operator",
          "type": "address"
        }
      ],
      "name": "isApprovedForAll",
      "outputs": [
        {
          "internalType": "bool",
          "name": "",
          "type": "bool"
        }
      ],
      "stateMutability": "view",
      "type": "function"
    },
    {
      "inputs": [
        {
          "internalType": "uint256",
          "name": "tokenId",
          "type": "uint256"
        }
      ],
      "name": "isEnded",
      "outputs": [
        {
          "internalType": "bool",
          "name": "",
          "type": "bool"
        }
      ],
      "stateMutability": "view",
      "type": "function"
    },
    {
      "inputs": [
        {
          "internalType": "uint256",
          "name": "tokenId",
          "type": "uint256"
        }
      ],
      "name": "isOngoing",
      "outputs": [
        {
          "internalType": "bool",
          "name": "",
          "type": "bool"
        }
      ],
      "stateMutability": "view",
      "type": "function"
    },
    {
      "inputs": [
        {
          "internalType": "uint256",
          "name": "tokenId",
          "type": "uint256"
        }
      ],
      "name": "isSolved",
      "outputs": [
        {
          "internalType": "bool",
          "name": "",
          "type": "bool"
        }
      ],
      "stateMutability": "view",
      "type": "function"
    },
    {
      "inputs": [
        {
          "internalType": "uint256",
          "name": "id",
          "type": "uint256"
        }
      ],
      "name": "metas",
      "outputs": [
        {
          "components": [
            {
              "internalType": "string",
              "name": "name",
              "type": "string"
            },
            {
              "internalType": "string",
              "name": "description",
              "type": "string"
            },
            {
              "internalType": "string",
              "name": "gameType",
              "type": "string"
            },
            {
              "internalType": "bytes32",
              "name": "prompt",
              "type": "bytes32"
            },
            {
              "internalType": "bytes32",
              "name": "secret",
              "type": "bytes32"
            },
            {
              "internalType": "uint128",
              "name": "start",
              "type": "uint128"
            },
            {
              "internalType": "uint128",
              "name": "end",
              "type": "uint128"
            },
            {
              "internalType": "address",
              "name": "winner",
              "type": "address"
            }
          ],
          "internalType": "struct Metadata",
          "name": "",
          "type": "tuple"
        }
      ],
      "stateMutability": "view",
      "type": "function"
    },
    {
      "inputs": [
        {
          "internalType": "address",
          "name": "to",
          "type": "address"
        }
      ],
      "name": "mint",
      "outputs": [
        {
          "internalType": "uint256",
          "name": "tokenId",
          "type": "uint256"
        }
      ],
      "stateMutability": "pure",
      "type": "function"
    },
    {
      "inputs": [
        {
          "internalType": "address",
          "name": "to",
          "type": "address"
        },
        {
          "components": [
            {
              "internalType": "string",
              "name": "name",
              "type": "string"
            },
            {
              "internalType": "string",
              "name": "description",
              "type": "string"
            },
            {
              "internalType": "string",
              "name": "gameType",
              "type": "string"
            },
            {
              "internalType": "bytes32",
              "name": "prompt",
              "type": "bytes32"
            },
            {
              "internalType": "bytes32",
              "name": "secret",
              "type": "bytes32"
            },
            {
              "internalType": "uint128",
              "name": "start",
              "type": "uint128"
            },
            {
              "internalType": "uint128",
              "name": "end",
              "type": "uint128"
            },
            {
              "internalType": "address",
              "name": "winner",
              "type": "address"
            }
          ],
          "internalType": "struct Metadata",
          "name": "metadata",
          "type": "tuple"
        },
        {
          "internalType": "uint256",
          "name": "awards",
          "type": "uint256"
        }
      ],
      "name": "mint",
      "outputs": [
        {
          "internalType": "uint256",
          "name": "tokenId",
          "type": "uint256"
        }
      ],
      "stateMutability": "nonpayable",
      "type": "function"
    },
    {
      "inputs": [
        {
          "internalType": "bytes[]",
          "name": "data",
          "type": "bytes[]"
        }
      ],
      "name": "multicall",
      "outputs": [
        {
          "internalType": "bytes[]",
          "name": "results",
          "type": "bytes[]"
        }
      ],
      "stateMutability": "nonpayable",
      "type": "function"
    },
    {
      "inputs": [],
      "name": "name",
      "outputs": [
        {
          "internalType": "string",
          "name": "",
          "type": "string"
        }
      ],
      "stateMutability": "view",
      "type": "function"
    },
    {
      "inputs": [],
      "name": "owner",
      "outputs": [
        {
          "internalType": "address",
          "name": "",
          "type": "address"
        }
      ],
      "stateMutability": "view",
      "type": "function"
    },
    {
      "inputs": [
        {
          "internalType": "uint256",
          "name": "tokenId",
          "type": "uint256"
        }
      ],
      "name": "ownerOf",
      "outputs": [
        {
          "internalType": "address",
          "name": "",
          "type": "address"
        }
      ],
      "stateMutability": "view",
      "type": "function"
    },
    {
      "inputs": [
        {
          "internalType": "address",
          "name": "solver",
          "type": "address"
        }
      ],
      "name": "registeredSolver",
      "outputs": [
        {
          "internalType": "bool",
          "name": "registered",
          "type": "bool"
        }
      ],
      "stateMutability": "view",
      "type": "function"
    },
    {
      "inputs": [],
      "name": "renounceOwnership",
      "outputs": [],
      "stateMutability": "nonpayable",
      "type": "function"
    },
    {
      "inputs": [
        {
          "internalType": "address",
          "name": "from",
          "type": "address"
        },
        {
          "internalType": "address",
          "name": "to",
          "type": "address"
        },
        {
          "internalType": "uint256",
          "name": "tokenId",
          "type": "uint256"
        }
      ],
      "name": "safeTransferFrom",
      "outputs": [],
      "stateMutability": "nonpayable",
      "type": "function"
    },
    {
      "inputs": [
        {
          "internalType": "address",
          "name": "from",
          "type": "address"
        },
        {
          "internalType": "address",
          "name": "to",
          "type": "address"
        },
        {
          "internalType": "uint256",
          "name": "tokenId",
          "type": "uint256"
        },
        {
          "internalType": "bytes",
          "name": "data",
          "type": "bytes"
        }
      ],
      "name": "safeTransferFrom",
      "outputs": [],
      "stateMutability": "nonpayable",
      "type": "function"
    },
    {
      "inputs": [
        {
          "internalType": "address",
          "name": "",
          "type": "address"
        }
      ],
      "name": "salts",
      "outputs": [
        {
          "internalType": "uint256",
          "name": "",
          "type": "uint256"
        }
      ],
      "stateMutability": "view",
      "type": "function"
    },
    {
      "inputs": [
        {
          "internalType": "address",
          "name": "operator",
          "type": "address"
        },
        {
          "internalType": "bool",
          "name": "approved",
          "type": "bool"
        }
      ],
      "name": "setApprovalForAll",
      "outputs": [],
      "stateMutability": "nonpayable",
      "type": "function"
    },
    {
      "inputs": [
        {
          "internalType": "uint256",
          "name": "tokenId",
          "type": "uint256"
        },
        {
          "internalType": "address",
          "name": "winner",
          "type": "address"
        },
        {
          "internalType": "bytes",
          "name": "signature",
          "type": "bytes"
        }
      ],
      "name": "solved",
      "outputs": [],
      "stateMutability": "nonpayable",
      "type": "function"
    },
    {
      "inputs": [
        {
          "internalType": "address",
          "name": "solver",
          "type": "address"
        }
      ],
      "name": "solvedAwards",
      "outputs": [
        {
          "internalType": "uint256",
          "name": "totalAwards",
          "type": "uint256"
        }
      ],
      "stateMutability": "view",
      "type": "function"
    },
    {
      "inputs": [
        {
          "internalType": "address",
          "name": "solver",
          "type": "address"
        }
      ],
      "name": "solvedCounts",
      "outputs": [
        {
          "internalType": "uint256",
          "name": "count",
          "type": "uint256"
        }
      ],
      "stateMutability": "view",
      "type": "function"
    },
    {
      "inputs": [
        {
          "internalType": "address",
          "name": "solver",
          "type": "address"
        },
        {
          "internalType": "uint256",
          "name": "",
          "type": "uint256"
        }
      ],
      "name": "solvedGames",
      "outputs": [
        {
          "internalType": "uint256",
          "name": "tokenIds",
          "type": "uint256"
        }
      ],
      "stateMutability": "view",
      "type": "function"
    },
    {
      "inputs": [
        {
          "internalType": "address",
          "name": "user",
          "type": "address"
        }
      ],
      "name": "solvedGamesTokenIds",
      "outputs": [
        {
          "internalType": "uint256[]",
          "name": "",
          "type": "uint256[]"
        }
      ],
      "stateMutability": "view",
      "type": "function"
    },
    {
      "inputs": [
        {
          "internalType": "uint256",
          "name": "",
          "type": "uint256"
        }
      ],
      "name": "solverList",
      "outputs": [
        {
          "internalType": "address",
          "name": "",
          "type": "address"
        }
      ],
      "stateMutability": "view",
      "type": "function"
    },
    {
      "inputs": [],
      "name": "solverListLength",
      "outputs": [
        {
          "internalType": "uint256",
          "name": "",
          "type": "uint256"
        }
      ],
      "stateMutability": "view",
      "type": "function"
    },
    {
      "inputs": [
        {
          "internalType": "bytes4",
          "name": "interfaceId",
          "type": "bytes4"
        }
      ],
      "name": "supportsInterface",
      "outputs": [
        {
          "internalType": "bool",
          "name": "",
          "type": "bool"
        }
      ],
      "stateMutability": "view",
      "type": "function"
    },
    {
      "inputs": [],
      "name": "symbol",
      "outputs": [
        {
          "internalType": "string",
          "name": "",
          "type": "string"
        }
      ],
      "stateMutability": "view",
      "type": "function"
    },
    {
      "inputs": [
        {
          "internalType": "uint256",
          "name": "index",
          "type": "uint256"
        }
      ],
      "name": "tokenByIndex",
      "outputs": [
        {
          "internalType": "uint256",
          "name": "",
          "type": "uint256"
        }
      ],
      "stateMutability": "view",
      "type": "function"
    },
    {
      "inputs": [
        {
          "internalType": "uint256",
          "name": "tokenId",
          "type": "uint256"
        }
      ],
      "name": "tokenIdToCounter",
      "outputs": [
        {
          "internalType": "uint256",
          "name": "counter",
          "type": "uint256"
        }
      ],
      "stateMutability": "view",
      "type": "function"
    },
    {
      "inputs": [
        {
          "internalType": "address",
          "name": "owner",
          "type": "address"
        },
        {
          "internalType": "uint256",
          "name": "index",
          "type": "uint256"
        }
      ],
      "name": "tokenOfOwnerByIndex",
      "outputs": [
        {
          "internalType": "uint256",
          "name": "",
          "type": "uint256"
        }
      ],
      "stateMutability": "view",
      "type": "function"
    },
    {
      "inputs": [
        {
          "internalType": "uint256",
          "name": "tokenId",
          "type": "uint256"
        }
      ],
      "name": "tokenURI",
      "outputs": [
        {
          "internalType": "string",
          "name": "",
          "type": "string"
        }
      ],
      "stateMutability": "view",
      "type": "function"
    },
    {
      "inputs": [],
      "name": "totalEnd",
      "outputs": [
        {
          "internalType": "uint256",
          "name": "",
          "type": "uint256"
        }
      ],
      "stateMutability": "view",
      "type": "function"
    },
    {
      "inputs": [],
      "name": "totalOngoing",
      "outputs": [
        {
          "internalType": "uint256",
          "name": "",
          "type": "uint256"
        }
      ],
      "stateMutability": "view",
      "type": "function"
    },
    {
      "inputs": [],
      "name": "totalSolved",
      "outputs": [
        {
          "internalType": "uint256",
          "name": "",
          "type": "uint256"
        }
      ],
      "stateMutability": "view",
      "type": "function"
    },
    {
      "inputs": [],
      "name": "totalSupply",
      "outputs": [
        {
          "internalType": "uint256",
          "name": "",
          "type": "uint256"
        }
      ],
      "stateMutability": "view",
      "type": "function"
    },
    {
      "inputs": [],
      "name": "totalVerified",
      "outputs": [
        {
          "internalType": "uint256",
          "name": "",
          "type": "uint256"
        }
      ],
      "stateMutability": "view",
      "type": "function"
    },
    {
      "inputs": [
        {
          "internalType": "address",
          "name": "from",
          "type": "address"
        },
        {
          "internalType": "address",
          "name": "to",
          "type": "address"
        },
        {
          "internalType": "uint256",
          "name": "tokenId",
          "type": "uint256"
        }
      ],
      "name": "transferFrom",
      "outputs": [],
      "stateMutability": "nonpayable",
      "type": "function"
    },
    {
      "inputs": [
        {
          "internalType": "address",
          "name": "newOwner",
          "type": "address"
        }
      ],
      "name": "transferOwnership",
      "outputs": [],
      "stateMutability": "nonpayable",
      "type": "function"
    },
    {
      "inputs": [
        {
          "internalType": "uint256",
          "name": "tokenId",
          "type": "uint256"
        },
        {
          "internalType": "address",
          "name": "nftAddress",
          "type": "address"
        }
      ],
      "name": "verified",
      "outputs": [],
      "stateMutability": "nonpayable",
      "type": "function"
    }
  ],
  "bytecode": "0x60806040523480156200001157600080fd5b506200001c6200002c565b620000266200002c565b620000e0565b7ff0c57e16840df040f15088dc2f81fe391c3923bec73e23a9662efc9c229c6a00805468010000000000000000900460ff16156200007d5760405163f92ee8a960e01b815260040160405180910390fd5b80546001600160401b0390811614620000dd5780546001600160401b0319166001600160401b0390811782556040519081527fc7f505b2f371ae2175ee4913f4499e1f2633a7b5936321eed1cdaeb6115181d29060200160405180910390a15b50565b6156c280620000f06000396000f3fe60806040523480156200001157600080fd5b5060043610620003125760003560e01c8063715018a611620001a2578063b23e448011620000fc578063e715de2811620000af578063f2fde38b1162000086578063f2fde38b14620007dd578063f9bc3f4014620007f4578063fe7f43da14620007fe578063fe9eba15146200081557600080fd5b8063e715de2814620007a5578063e985e9c514620007bc578063ef79266214620007d357600080fd5b8063b23e44801462000720578063b66f7a8b1462000743578063b88d4fde146200075a578063c516e1561462000771578063c87b56dd146200077a578063d2da7bca146200079157600080fd5b806395d89b41116200015557806395d89b41146200068857806395ecc64214620006925780639859387b14620006a95780639dd3e25514620006c0578063a22cb46514620006e3578063ac9650d814620006fa57600080fd5b8063715018a614620005f057806374de69e314620005fa5780637b80e8e6146200061157806385604ba4146200061a5780638ad4154d14620006405780638da5cb5b146200065757600080fd5b80632f745c591162000271578063502c040b11620002245780636352211e11620001fb5780636352211e1462000585578063676db981146200059c5780636a62784214620005c257806370a0823114620005d957600080fd5b8063502c040b146200053457806354c87af4146200054b5780635872fe45146200056e57600080fd5b80632f745c59146200049e578063415fa50a14620004b557806342842e0e14620004d8578063485cc95514620004ef5780634cd88b7614620005065780634f6ccce7146200051d57600080fd5b80630d253d7611620002ca5780630d253d76146200040857806311464fbe146200041f57806318160ddd146200043357806323b872dd146200044a57806324d735671462000461578063277ecfbb146200047857600080fd5b80627c94b6146200031757806301ffc9a7146200034d5780630661d1dc146200037557806306fdde0314620003a6578063081812fc14620003bf578063095ea7b314620003ef575b600080fd5b6200033a62000328366004620036e7565b60096020526000908152604090205481565b6040519081526020015b60405180910390f35b620003646200035e3660046200371c565b6200081e565b604051901515815260200162000344565b62000364620003863660046200373c565b6000908152600360205260409020600601546001600160a01b0316151590565b620003b06200084c565b604051620003449190620037aa565b620003d6620003d03660046200373c565b620008f9565b6040516001600160a01b03909116815260200162000344565b6200040662000400366004620037bf565b62000912565b005b620003d662000419366004620037bf565b62000923565b600054620003d6906001600160a01b031681565b6000805160206200566d833981519152546200033a565b620004066200045b366004620037ec565b620009eb565b62000406620004723660046200382d565b62000a80565b6200048f620004893660046200373c565b62000c73565b6040516200034491906200385c565b6200033a620004af366004620037bf565b62000eed565b6200033a620004c6366004620036e7565b600a6020526000908152604090205481565b62000406620004e9366004620037ec565b62000f66565b620004066200050036600462003922565b62000f88565b620004066200051736600462003a27565b6200111a565b6200033a6200052e3660046200373c565b620011f6565b62000364620005453660046200382d565b62001276565b6200033a6200055c3660046200373c565b60056020526000908152604090205481565b620003d66200057f366004620036e7565b620012f0565b620003d6620005963660046200373c565b62001353565b62000364620005ad366004620036e7565b600b6020526000908152604090205460ff1681565b6200033a620005d3366004620036e7565b62001360565b6200033a620005ea366004620036e7565b62001398565b62000406620013f7565b6200033a6200060b366004620037bf565b6200140f565b600c546200033a565b620006316200062b366004620036e7565b62001441565b60405162000344919062003a91565b620004066200065136600462003ad7565b620014af565b7f9016d09d72d40fdae2fd8ceac6b6234c7706214fd39c1cd1e609a0528c199300546001600160a01b0316620003d6565b620003b0620017c5565b62000364620006a33660046200373c565b62001807565b620003d6620006ba366004620036e7565b62001a68565b6200033a620006d13660046200373c565b60046020526000908152604090205481565b62000406620006f436600462003b42565b62001b45565b620007116200070b36600462003b7e565b62001b52565b60405162000344919062003bf7565b6200033a62000731366004620036e7565b60016020526000908152604090205481565b62000364620007543660046200373c565b62001c4c565b620004066200076b36600462003c5f565b62001e93565b6006546200033a565b620003b06200078b3660046200373c565b62001eae565b600254620003d6906001600160a01b031681565b6200033a620007b636600462003ce6565b62002244565b62000364620007cd36600462003922565b62002453565b6200033a620024a0565b62000406620007ee366004620036e7565b620024ce565b6200033a62002512565b620003d66200080f3660046200373c565b62002526565b6007546200033a565b60006001600160e01b0319821663780e9d6360e01b1480620008465750620008468262002551565b92915050565b600080516020620055c583398151915280546060919081906200086f9062003e13565b80601f01602080910402602001604051908101604052809291908181526020018280546200089d9062003e13565b8015620008ee5780601f10620008c257610100808354040283529160200191620008ee565b820191906000526020600020905b815481529060010190602001808311620008d057829003601f168201915b505050505091505090565b60006200090682620025a4565b506200084682620025e0565b6200091f8282336200261a565b5050565b6000620009e48260001b604051806020016200093f90620036ae565b601f1982820381018352601f9091011660408190526000546001600160a01b03888116602484015216906044015b60408051601f19818403018152918152602080830180516001600160e01b031663189acdbd60e31b1790529051620009a89392910162003e4f565b60408051601f1981840301815290829052620009c8929160200162003e93565b6040516020818303038152906040528051906020012062002629565b9392505050565b6001600160a01b03821662000a1b57604051633250574960e11b8152600060048201526024015b60405180910390fd5b600062000a2a83833362002638565b9050836001600160a01b0316816001600160a01b03161462000a7a576040516364283d7b60e01b81526001600160a01b038086166004830152602482018490528216604482015260640162000a12565b50505050565b62000a8a62002749565b60008281526003602052604090206005810154426001600160801b03909116111562000ae45760405162461bcd60e51b81526020600482015260086024820152672737ba103cb2ba1760c11b604482015260640162000a12565b600581015442600160801b9091046001600160801b0316101562000b375760405162461bcd60e51b815260206004820152600960248201526827baba3230ba32b21760b91b604482015260640162000a12565b60068101546001600160a01b03161562000b865760405162461bcd60e51b815260206004820152600f60248201526e20b63932b0b23c9039b7b63b32b21760891b604482015260640162000a12565b6040516370a0823160e01b81526001600160a01b0384811660048301528316906370a0823190602401602060405180830381865afa15801562000bcd573d6000803e3d6000fd5b505050506040513d601f19601f8201168201806040525081019062000bf3919062003ec6565b60000362000c365760405162461bcd60e51b815260206004820152600f60248201526e2430bb32903737903130b233b2b99760891b604482015260640162000a12565b6006810180546001600160a01b0319166001600160a01b03179055600780546001919060009062000c6990849062003ef6565b9091555050505050565b604080516101008101825260608082526020820181905291810182905260009181018290526080810182905260a0810182905260c0810182905260e0810191909152600082815260036020526040908190208151610100810190925280548290829062000ce09062003e13565b80601f016020809104026020016040519081016040528092919081815260200182805462000d0e9062003e13565b801562000d5f5780601f1062000d335761010080835404028352916020019162000d5f565b820191906000526020600020905b81548152906001019060200180831162000d4157829003601f168201915b5050505050815260200160018201805462000d7a9062003e13565b80601f016020809104026020016040519081016040528092919081815260200182805462000da89062003e13565b801562000df95780601f1062000dcd5761010080835404028352916020019162000df9565b820191906000526020600020905b81548152906001019060200180831162000ddb57829003601f168201915b5050505050815260200160028201805462000e149062003e13565b80601f016020809104026020016040519081016040528092919081815260200182805462000e429062003e13565b801562000e935780601f1062000e675761010080835404028352916020019162000e93565b820191906000526020600020905b81548152906001019060200180831162000e7557829003601f168201915b5050509183525050600382015460208201526004820154604082015260058201546001600160801b038082166060840152600160801b9091041660808201526006909101546001600160a01b031660a09091015292915050565b6000600080516020620055a583398151915262000f0a8462001398565b831062000f3d5760405163295f44f760e21b81526001600160a01b03851660048201526024810184905260440162000a12565b6001600160a01b0384166000908152602091825260408082208583529092522054905092915050565b62000f838383836040518060200160405280600081525062001e93565b505050565b7ff0c57e16840df040f15088dc2f81fe391c3923bec73e23a9662efc9c229c6a008054600160401b810460ff1615906001600160401b031660008115801562000fce5750825b90506000826001600160401b0316600114801562000feb5750303b155b90508115801562000ffa575080155b15620010195760405163f92ee8a960e01b815260040160405180910390fd5b845467ffffffffffffffff1916600117855583156200104457845460ff60401b1916600160401b1785555b620010a06040518060400160405280601781526020017f436170747572652d7468652d50726f6d70742047616d650000000000000000008152506040518060400160405280600381526020016204354560ec1b815250620027a7565b620010aa620027df565b620010b4620027e9565b620010bf87620027fd565b620010ca8662002807565b83156200111157845460ff60401b19168555604051600181527fc7f505b2f371ae2175ee4913f4499e1f2633a7b5936321eed1cdaeb6115181d29060200160405180910390a15b50505050505050565b7ff0c57e16840df040f15088dc2f81fe391c3923bec73e23a9662efc9c229c6a008054600160401b810460ff1615906001600160401b0316600081158015620011605750825b90506000826001600160401b031660011480156200117d5750303b155b9050811580156200118c575080155b15620011ab5760405163f92ee8a960e01b815260040160405180910390fd5b845467ffffffffffffffff191660011785558315620011d657845460ff60401b1916600160401b1785555b620011e28787620027a7565b620011ec620027df565b620010ca620027e9565b6000600080516020620055a5833981519152620012206000805160206200566d8339815191525490565b83106200124b5760405163295f44f760e21b8152600060048201526024810184905260440162000a12565b80600201838154811062001263576200126362003f0c565b9060005260206000200154915050919050565b6040516370a0823160e01b81526001600160a01b038381166004830152600091908316906370a0823190602401602060405180830381865afa158015620012c1573d6000803e3d6000fd5b505050506040513d601f19601f82011682018060405250810190620012e7919062003ec6565b15159392505050565b6001600160a01b0381166000908152600160209081526040808320549051620008469262001320908201620036ae565b601f1982820381018352601f9091011660408190526000546001600160a01b03878116602484015216906044016200096d565b60006200084682620025a4565b60405162461bcd60e51b81526020600482015260096024820152682234b9b0b13632b21760b91b604482015260009060640162000a12565b6000600080516020620055c58339815191526001600160a01b038316620013d6576040516322718ad960e21b81526000600482015260240162000a12565b6001600160a01b039092166000908152600390920160205250604090205490565b6200140162002749565b6200140d600062002833565b565b600860205281600052604060002081815481106200142c57600080fd5b90600052602060002001600091509150505481565b6001600160a01b038116600090815260086020908152604091829020805483518184028101840190945280845260609392830182828015620014a357602002820191906000526020600020905b8154815260200190600101908083116200148e575b50505050509050919050565b620014b962002749565b60008381526003602052604090206005810154426001600160801b039091161115620015135760405162461bcd60e51b81526020600482015260086024820152672737ba103cb2ba1760c11b604482015260640162000a12565b600581015442600160801b9091046001600160801b03161015620015665760405162461bcd60e51b815260206004820152600960248201526827baba3230ba32b21760b91b604482015260640162000a12565b60068101546001600160a01b031615620015b55760405162461bcd60e51b815260206004820152600f60248201526e20b63932b0b23c9039b7b63b32b21760891b604482015260640162000a12565b600681810180546001600160a01b0319166001600160a01b038616179055805460019190600090620015e990849062003ef6565b90915550506001600160a01b0383166000818152600860209081526040808320805460018181018355918552838520018990559383526009909152812080549091906200163890849062003ef6565b90915550506002546040516370a0823160e01b81526001600160a01b038681166004830152909116906370a0823190602401602060405180830381865afa15801562001688573d6000803e3d6000fd5b505050506040513d601f19601f82011682018060405250810190620016ae919062003ec6565b6001600160a01b0384166000908152600a602052604081208054909190620016d890849062003ef6565b909155505060405163189acdbd60e31b81526001600160a01b03848116600483015285169063c4d66de890602401600060405180830381600087803b1580156200172157600080fd5b505af115801562001736573d6000803e3d6000fd5b505050506001600160a01b0383166000908152600b602052604090205460ff1662000a7a57600c805460018181019092557fdf6966c971051c3d54ec59162606531493a51404a002842f56009d7e5cf4a8c70180546001600160a01b0386166001600160a01b031990911681179091556000908152600b60205260409020805460ff1916909117905550505050565b7f80bb2b638cc20bc4d0a60d66940f3ab4a00c1d7b313497ca82fb0b4ab00793018054606091600080516020620055c5833981519152916200086f9062003e13565b6000818152600360205260408082208151610100810190925280548392919082908290620018359062003e13565b80601f0160208091040260200160405190810160405280929190818152602001828054620018639062003e13565b8015620018b45780601f106200188857610100808354040283529160200191620018b4565b820191906000526020600020905b8154815290600101906020018083116200189657829003601f168201915b50505050508152602001600182018054620018cf9062003e13565b80601f0160208091040260200160405190810160405280929190818152602001828054620018fd9062003e13565b80156200194e5780601f1062001922576101008083540402835291602001916200194e565b820191906000526020600020905b8154815290600101906020018083116200193057829003601f168201915b50505050508152602001600282018054620019699062003e13565b80601f0160208091040260200160405190810160405280929190818152602001828054620019979062003e13565b8015620019e85780601f10620019bc57610100808354040283529160200191620019e8565b820191906000526020600020905b815481529060010190602001808311620019ca57829003601f168201915b5050509183525050600382015460208201526004820154604082015260058201546001600160801b038082166060840152600160801b909104811660808301526006909201546001600160a01b031660a09182015282015191925042911611801590620009e45750428160c001516001600160801b031610159392505050565b60008062001a7683620012f0565b90506001600160a01b0381163b801562001a91575092915050565b6001600160a01b038416600090815260016020526040812080549162001ab78362003f22565b909155506000546040516001600160a01b0387811660248301529091169060440160408051601f198184030181529181526020820180516001600160e01b031663189acdbd60e31b1790525162001b0e90620036ae565b62001b1b92919062003e4f565b8190604051809103906000f590508015801562001b3c573d6000803e3d6000fd5b50949350505050565b6200091f338383620028a4565b604080516000815260208101909152606090826001600160401b0381111562001b7f5762001b7f62003951565b60405190808252806020026020018201604052801562001bb457816020015b606081526020019060019003908162001b9e5790505b50915060005b8381101562001c445762001c1b3086868481811062001bdd5762001bdd62003f0c565b905060200281019062001bf1919062003f54565b8560405160200162001c069392919062003fa4565b60405160208183030381529060405262002958565b83828151811062001c305762001c3062003f0c565b602090810291909101015260010162001bba565b505092915050565b600081815260036020526040808220815161010081019092528054839291908290829062001c7a9062003e13565b80601f016020809104026020016040519081016040528092919081815260200182805462001ca89062003e13565b801562001cf95780601f1062001ccd5761010080835404028352916020019162001cf9565b820191906000526020600020905b81548152906001019060200180831162001cdb57829003601f168201915b5050505050815260200160018201805462001d149062003e13565b80601f016020809104026020016040519081016040528092919081815260200182805462001d429062003e13565b801562001d935780601f1062001d675761010080835404028352916020019162001d93565b820191906000526020600020905b81548152906001019060200180831162001d7557829003601f168201915b5050505050815260200160028201805462001dae9062003e13565b80601f016020809104026020016040519081016040528092919081815260200182805462001ddc9062003e13565b801562001e2d5780601f1062001e015761010080835404028352916020019162001e2d565b820191906000526020600020905b81548152906001019060200180831162001e0f57829003601f168201915b5050509183525050600382015460208201526004820154604082015260058201546001600160801b038082166060840152600160801b909104811660808301526006909201546001600160a01b031660a09091015260c090910151429116109392505050565b62001ea0848484620009eb565b62000a7a84848484620029d4565b606062001ebb82620025a4565b506000828152600360205260408082208151610100810190925280548290829062001ee69062003e13565b80601f016020809104026020016040519081016040528092919081815260200182805462001f149062003e13565b801562001f655780601f1062001f395761010080835404028352916020019162001f65565b820191906000526020600020905b81548152906001019060200180831162001f4757829003601f168201915b5050505050815260200160018201805462001f809062003e13565b80601f016020809104026020016040519081016040528092919081815260200182805462001fae9062003e13565b801562001fff5780601f1062001fd35761010080835404028352916020019162001fff565b820191906000526020600020905b81548152906001019060200180831162001fe157829003601f168201915b505050505081526020016002820180546200201a9062003e13565b80601f0160208091040260200160405190810160405280929190818152602001828054620020489062003e13565b8015620020995780601f106200206d5761010080835404028352916020019162002099565b820191906000526020600020905b8154815290600101906020018083116200207b57829003601f168201915b505050918352505060038201546020808301919091526004830154604083015260058301546001600160801b03808216606080860191909152600160801b9092041660808401526006909301546001600160a01b031660a09092019190915282820151929350909160009162002110919062002b0a565b60808401516200212290602062002b0a565b6040516020016200213592919062003fcd565b6040516020818303038152906040529050826040015181620021648560a001516001600160801b031662002c9f565b6200217c8660c001516001600160801b031662002c9f565b620021948760e001516001600160a01b031662002d38565b604051602001620021aa9594939291906200407f565b6040516020818303038152906040529150506200221a82600001518360200151620021d462002d50565b600088815260056020526040902054620021ee9062002c9f565b85604051602001620022059594939291906200425f565b60405160208183030381529060405262002d71565b6040516020016200222c919062004383565b60405160208183030381529060405292505050919050565b600080620022528562001a68565b9050806001600160a01b031691506200226c858362002ee2565b8215620022f5576002546040516323b872dd60e01b81523360048201526001600160a01b03838116602483015260448201869052909116906323b872dd906064016020604051808303816000875af1158015620022cd573d6000803e3d6000fd5b505050506040513d601f19601f82011682018060405250810190620022f39190620043ca565b505b5060006001620023126000805160206200566d8339815191525490565b6200231e919062003f3e565b600081815260046020908152604080832086905585835260058252808320939093558251610100810184528751815287820151818301528784015181850152606080890151908201526080808901519082015260a0808901516001600160801b039081169183019190915260c0808a01519091169082015260e0810183905285835260039091529190208151919250908190620023bc90826200443e565b5060208201516001820190620023d390826200443e565b5060408201516002820190620023ea90826200443e565b50606082015160038201556080820151600482015560a082015160c08301516001600160801b03908116600160801b02911617600582015560e090910151600690910180546001600160a01b039092166001600160a01b03199092169190911790559392505050565b6001600160a01b0391821660009081527f80bb2b638cc20bc4d0a60d66940f3ab4a00c1d7b313497ca82fb0b4ab00793056020908152604080832093909416825291909152205460ff1690565b6000620024ac62002512565b6000805160206200566d83398151915254620024c9919062003f3e565b905090565b620024d862002749565b6001600160a01b0381166200250457604051631e4fbdf760e01b81526000600482015260240162000a12565b6200250f8162002833565b50565b6000600754600654620024c9919062003ef6565b600c81815481106200253757600080fd5b6000918252602090912001546001600160a01b0316905081565b60006001600160e01b031982166380ac58cd60e01b14806200258357506001600160e01b03198216635b5e139f60e01b145b806200084657506301ffc9a760e01b6001600160e01b031983161462000846565b600080620025b28362002f4d565b90506001600160a01b0381166200084657604051637e27328960e01b81526004810184905260240162000a12565b60009081527f80bb2b638cc20bc4d0a60d66940f3ab4a00c1d7b313497ca82fb0b4ab007930460205260409020546001600160a01b031690565b62000f83838383600162002f87565b6000620009e4838330620030a9565b60008062002648858585620030d3565b90506001600160a01b038116620026d557620026cf846000805160206200566d833981519152805460008381527f645e039705490088daad89bae25049a34f4a9072d398537b1ab2425f24cbed0360205260408120829055600182018355919091527fa42f15e5d656f8155fd7419d740a6073999f19cd6e061449ce4a257150545bf20155565b620026fb565b846001600160a01b0316816001600160a01b031614620026fb57620026fb8185620031e7565b6001600160a01b0385166200271b5762002715846200328f565b62002741565b846001600160a01b0316816001600160a01b031614620027415762002741858562003373565b949350505050565b336200277c7f9016d09d72d40fdae2fd8ceac6b6234c7706214fd39c1cd1e609a0528c199300546001600160a01b031690565b6001600160a01b0316146200140d5760405163118cdaa760e01b815233600482015260240162000a12565b620027b1620033d3565b600080516020620055c583398151915280620027ce84826200443e565b506001810162000a7a83826200443e565b6200140d620033d3565b620027f3620033d3565b6200140d6200341d565b620024d8620033d3565b62002811620033d3565b600280546001600160a01b0319166001600160a01b0392909216919091179055565b7f9016d09d72d40fdae2fd8ceac6b6234c7706214fd39c1cd1e609a0528c19930080546001600160a01b031981166001600160a01b03848116918217845560405192169182907f8be0079c531659141344cd1fd0a4f28419497f9722a3daafe3b4186f6b6457e090600090a3505050565b600080516020620055c58339815191526001600160a01b038316620028e857604051630b61174360e31b81526001600160a01b038416600482015260240162000a12565b6001600160a01b038481166000818152600584016020908152604080832094881680845294825291829020805460ff191687151590811790915591519182527f17307eab39ab6107e8899845ad3d59bd9653f200f220920489ca2b5937696c31910160405180910390a350505050565b6060600080846001600160a01b0316846040516200297791906200450a565b600060405180830381855af49150503d8060008114620029b4576040519150601f19603f3d011682016040523d82523d6000602084013e620029b9565b606091505b5091509150620029cb8583836200346b565b95945050505050565b6001600160a01b0383163b1562000a7a57604051630a85bd0160e11b81526001600160a01b0384169063150b7a029062002a1990339088908790879060040162004528565b6020604051808303816000875af192505050801562002a57575060408051601f3d908101601f1916820190925262002a549181019062004567565b60015b62002ac5573d80801562002a88576040519150601f19603f3d011682016040523d82523d6000602084013e62002a8d565b606091505b50805160000362002abd57604051633250574960e11b81526001600160a01b038516600482015260240162000a12565b805181602001fd5b6001600160e01b03198116630a85bd0160e11b1462002b0357604051633250574960e11b81526001600160a01b038516600482015260240162000a12565b5050505050565b606082600062002b1c84600262004587565b62002b2990600262003ef6565b6001600160401b0381111562002b435762002b4362003951565b6040519080825280601f01601f19166020018201604052801562002b6e576020820181803683370190505b509050600360fc1b8160008151811062002b8c5762002b8c62003f0c565b60200101906001600160f81b031916908160001a905350600f60fb1b8160018151811062002bbe5762002bbe62003f0c565b60200101906001600160f81b031916908160001a905350600062002be485600262004587565b62002bf190600162003ef6565b90505b600181111562002c73576f181899199a1a9b1b9c1cb0b131b232b360811b83600f166010811062002c295762002c2962003f0c565b1a60f81b82828151811062002c425762002c4262003f0c565b60200101906001600160f81b031916908160001a90535060049290921c9162002c6b81620045a1565b905062002bf4565b508115620027415760405163e22e27eb60e01b8152600481018690526024810185905260440162000a12565b6060600062002cae83620034cf565b60010190506000816001600160401b0381111562002cd05762002cd062003951565b6040519080825280601f01601f19166020018201604052801562002cfb576020820181803683370190505b5090508181016020015b600019016f181899199a1a9b1b9c1cb0b131b232b360811b600a86061a8153600a850494508462002d0557509392505050565b6060620008466001600160a01b038316601462002b0a565b6060604051806080016040528060488152602001620055e560489139905090565b6060815160000362002d9157505060408051602081019091526000815290565b60006040518060600160405280604081526020016200562d604091399050600060038451600262002dc3919062003ef6565b62002dcf9190620045bb565b62002ddc90600462004587565b6001600160401b0381111562002df65762002df662003951565b6040519080825280601f01601f19166020018201604052801562002e21576020820181803683370190505b50905060018201602082018586518701602081018051600082525b8284101562002e99576003840193508351603f8160121c168701518653600186019550603f81600c1c168701518653600186019550603f8160061c168701518653600186019550603f811687015186535060018501945062002e3c565b905250508551600390066001811462002ebb576002811462002ecf5762002ed7565b603d6001830353603d600283035362002ed7565b603d60018303535b509195945050505050565b6001600160a01b03821662002f0e57604051633250574960e11b81526000600482015260240162000a12565b600062002f1e8383600062002638565b90506001600160a01b0381161562000f83576040516339e3563760e11b81526000600482015260240162000a12565b60009081527f80bb2b638cc20bc4d0a60d66940f3ab4a00c1d7b313497ca82fb0b4ab007930260205260409020546001600160a01b031690565b600080516020620055c5833981519152818062002fac57506001600160a01b03831615155b156200307857600062002fbf85620025a4565b90506001600160a01b0384161580159062002fec5750836001600160a01b0316816001600160a01b031614155b801562003002575062003000818562002453565b155b156200302d5760405163a9fbf51f60e01b81526001600160a01b038516600482015260240162000a12565b8215620030765784866001600160a01b0316826001600160a01b03167f8c5be1e5ebec7d5bd14f71427d1e84f3dd0314c0f7b2291e5b200ac8c7c3b92560405160405180910390a45b505b600093845260040160205250506040902080546001600160a01b0319166001600160a01b0392909216919091179055565b6000604051836040820152846020820152828152600b8101905060ff815360559020949350505050565b6000600080516020620055c583398151915281620030f18562002f4d565b90506001600160a01b03841615620031105762003110818587620035ae565b6001600160a01b0381161562003153576200313060008660008062002f87565b6001600160a01b0381166000908152600383016020526040902080546000190190555b6001600160a01b0386161562003185576001600160a01b03861660009081526003830160205260409020805460010190555b600085815260028301602052604080822080546001600160a01b0319166001600160a01b038a811691821790925591518893918516917fddf252ad1be2c89b69c2b068fc378daa952ba7f163c4a11628f55a4df523b3ef91a495945050505050565b600080516020620055a58339815191526000620032048462001398565b60008481526001840160205260409020549091508082146200325a576001600160a01b03851660009081526020848152604080832085845282528083205484845281842081905583526001860190915290208190555b50600092835260018201602090815260408085208590556001600160a01b039095168452918252838320908352905290812055565b6000805160206200566d83398151915254600080516020620055a583398151915290600090620032c29060019062003f3e565b6000848152600384016020526040812054600285018054939450909284908110620032f157620032f162003f0c565b906000526020600020015490508084600201838154811062003317576200331762003f0c565b600091825260208083209091019290925582815260038601909152604080822084905586825281205560028401805480620033565762003356620045de565b600190038181906000526020600020016000905590555050505050565b600080516020620055a583398151915260006001620033928562001398565b6200339e919062003f3e565b6001600160a01b0390941660009081526020838152604080832087845282528083208690559482526001909301909252502055565b7ff0c57e16840df040f15088dc2f81fe391c3923bec73e23a9662efc9c229c6a0054600160401b900460ff166200140d57604051631afcd79f60e31b815260040160405180910390fd5b6040516200342b90620036bc565b604051809103906000f08015801562003448573d6000803e3d6000fd5b50600080546001600160a01b0319166001600160a01b0392909216919091179055565b60608262003484576200347e8262003618565b620009e4565b81511580156200349c57506001600160a01b0384163b155b15620034c757604051639996b31560e01b81526001600160a01b038516600482015260240162000a12565b5080620009e4565b60008072184f03e93ff9f4daa797ed6e38ed64bf6a1f0160401b83106200350f5772184f03e93ff9f4daa797ed6e38ed64bf6a1f0160401b830492506040015b6d04ee2d6d415b85acef810000000083106200353c576d04ee2d6d415b85acef8100000000830492506020015b662386f26fc1000083106200355b57662386f26fc10000830492506010015b6305f5e100831062003574576305f5e100830492506008015b61271083106200358957612710830492506004015b606483106200359c576064830492506002015b600a8310620008465760010192915050565b620035bb83838362003642565b62000f83576001600160a01b038316620035ec57604051637e27328960e01b81526004810182905260240162000a12565b60405163177e802f60e01b81526001600160a01b03831660048201526024810182905260440162000a12565b805115620036295780518082602001fd5b604051630a12f52160e11b815260040160405180910390fd5b60006001600160a01b03831615801590620027415750826001600160a01b0316846001600160a01b0316148062003680575062003680848462002453565b80620027415750826001600160a01b03166200369c83620025e0565b6001600160a01b031614949350505050565b61040a80620045f583390190565b610ba680620049ff83390190565b80356001600160a01b0381168114620036e257600080fd5b919050565b600060208284031215620036fa57600080fd5b620009e482620036ca565b6001600160e01b0319811681146200250f57600080fd5b6000602082840312156200372f57600080fd5b8135620009e48162003705565b6000602082840312156200374f57600080fd5b5035919050565b60005b838110156200377357818101518382015260200162003759565b50506000910152565b600081518084526200379681602086016020860162003756565b601f01601f19169290920160200192915050565b602081526000620009e460208301846200377c565b60008060408385031215620037d357600080fd5b620037de83620036ca565b946020939093013593505050565b6000806000606084860312156200380257600080fd5b6200380d84620036ca565b92506200381d60208501620036ca565b9150604084013590509250925092565b600080604083850312156200384157600080fd5b823591506200385360208401620036ca565b90509250929050565b60208152600082516101008060208501526200387d6101208501836200377c565b91506020850151601f19808685030160408701526200389d84836200377c565b9350604087015191508086850301606087015250620038bd83826200377c565b92505060608501516080850152608085015160a085015260a0850151620038ef60c08601826001600160801b03169052565b5060c08501516001600160801b03811660e08601525060e08501516001600160a01b038116858301525090949350505050565b600080604083850312156200393657600080fd5b6200394183620036ca565b91506200385360208401620036ca565b634e487b7160e01b600052604160045260246000fd5b60405161010081016001600160401b03811182821017156200398d576200398d62003951565b60405290565b600082601f830112620039a557600080fd5b81356001600160401b0380821115620039c257620039c262003951565b604051601f8301601f19908116603f01168101908282118183101715620039ed57620039ed62003951565b8160405283815286602085880101111562003a0757600080fd5b836020870160208301376000602085830101528094505050505092915050565b6000806040838503121562003a3b57600080fd5b82356001600160401b038082111562003a5357600080fd5b62003a618683870162003993565b9350602085013591508082111562003a7857600080fd5b5062003a878582860162003993565b9150509250929050565b6020808252825182820181905260009190848201906040850190845b8181101562003acb5783518352928401929184019160010162003aad565b50909695505050505050565b60008060006060848603121562003aed57600080fd5b8335925062003aff60208501620036ca565b915060408401356001600160401b0381111562003b1b57600080fd5b62003b298682870162003993565b9150509250925092565b80151581146200250f57600080fd5b6000806040838503121562003b5657600080fd5b62003b6183620036ca565b9150602083013562003b738162003b33565b809150509250929050565b6000806020838503121562003b9257600080fd5b82356001600160401b038082111562003baa57600080fd5b818501915085601f83011262003bbf57600080fd5b81358181111562003bcf57600080fd5b8660208260051b850101111562003be557600080fd5b60209290920196919550909350505050565b600060208083016020845280855180835260408601915060408160051b87010192506020870160005b8281101562003c5257603f1988860301845262003c3f8583516200377c565b9450928501929085019060010162003c20565b5092979650505050505050565b6000806000806080858703121562003c7657600080fd5b62003c8185620036ca565b935062003c9160208601620036ca565b92506040850135915060608501356001600160401b0381111562003cb457600080fd5b62003cc28782880162003993565b91505092959194509250565b80356001600160801b0381168114620036e257600080fd5b60008060006060848603121562003cfc57600080fd5b62003d0784620036ca565b925060208401356001600160401b038082111562003d2457600080fd5b90850190610100828803121562003d3a57600080fd5b62003d4462003967565b82358281111562003d5457600080fd5b62003d628982860162003993565b82525060208301358281111562003d7857600080fd5b62003d868982860162003993565b60208301525060408301358281111562003d9f57600080fd5b62003dad8982860162003993565b604083015250606083013560608201526080830135608082015262003dd560a0840162003cce565b60a082015262003de860c0840162003cce565b60c082015262003dfb60e08401620036ca565b60e08201529497949650505050604092909201359150565b600181811c9082168062003e2857607f821691505b60208210810362003e4957634e487b7160e01b600052602260045260246000fd5b50919050565b6001600160a01b038316815260406020820181905260009062002741908301846200377c565b6000815162003e8981856020860162003756565b9290920192915050565b6000835162003ea781846020880162003756565b83519083019062003ebd81836020880162003756565b01949350505050565b60006020828403121562003ed957600080fd5b5051919050565b634e487b7160e01b600052601160045260246000fd5b8082018082111562000846576200084662003ee0565b634e487b7160e01b600052603260045260246000fd5b60006001820162003f375762003f3762003ee0565b5060010190565b8181038181111562000846576200084662003ee0565b6000808335601e1984360301811262003f6c57600080fd5b8301803591506001600160401b0382111562003f8757600080fd5b60200191503681900382131562003f9d57600080fd5b9250929050565b82848237600083820160008152835162003fc381836020880162003756565b0195945050505050565b7f7b2274726169745f74797065223a202250726f6d7074222c202276616c75652281526000621d101160e91b80602084015284516200401481602386016020890162003756565b62089f4b60ea1b60239185019182018190527f7b2274726169745f74797065223a2022536563726574222c202276616c756522602683015260468201929092528451916200406a83604984016020890162003756565b91016049810191909152604c01949350505050565b605b60f81b81527f7b2274726169745f74797065223a202254797065222c202276616c7565223a206001820152601160f91b60218201528551600090620040ce816022850160208b0162003756565b62089f4b60ea1b6022918401918201528651620040f3816025840160208b0162003756565b7f7b22646973706c61795f74797065223a202264617465222c202274726169745f602592909101918201527f74797065223a202253746172742064617465222c202276616c7565223a2022006045820152855162004159816064840160208a0162003756565b62004252620042456200423762004230620041f3620041e4620041dd6200418e6064898b010162089f4b60ea1b815260030190565b7f7b22646973706c61795f74797065223a202264617465222c202274726169745f81527f74797065223a2022456e642064617465222c202276616c7565223a20220000006020820152603d0190565b8c62003e75565b62089f4b60ea1b815260030190565b7f7b2274726169745f74797065223a202257696e6e65722061646472657373222c81526a10113b30b63ab2911d101160a91b6020820152602b0190565b8862003e75565b61227d60f01b815260020190565b605d60f81b815260010190565b9998505050505050505050565b607b60f81b815268113730b6b2911d101160b91b600182015285516000906200429081600a850160208b0162003756565b6201116160ed1b600a9184019182018190526f113232b9b1b934b83a34b7b7111d101160811b600d8301528751620042d081601d850160208c0162003756565b80830192505080601d83015250691134b6b0b3b2911d101160b11b602082015285516200430581602a840160208a0162003756565b85519101906200431d81602a84016020890162003756565b62004252620043766200436f6200435662004347602a86880101632e706e6760e01b815260040190565b6201116160ed1b815260030190565b6c1130ba3a3934b13aba32b9911d60991b8152600d0190565b8762003e75565b607d60f81b815260010190565b7f646174613a6170706c69636174696f6e2f6a736f6e3b6261736536342c000000815260008251620043bd81601d85016020870162003756565b91909101601d0192915050565b600060208284031215620043dd57600080fd5b8151620009e48162003b33565b601f82111562000f83576000816000526020600020601f850160051c81016020861015620044155750805b601f850160051c820191505b81811015620044365782815560010162004421565b505050505050565b81516001600160401b038111156200445a576200445a62003951565b62004472816200446b845462003e13565b84620043ea565b602080601f831160018114620044aa5760008415620044915750858301515b600019600386901b1c1916600185901b17855562004436565b600085815260208120601f198616915b82811015620044db57888601518255948401946001909101908401620044ba565b5085821015620044fa5787850151600019600388901b60f8161c191681555b5050505050600190811b01905550565b600082516200451e81846020870162003756565b9190910192915050565b6001600160a01b03858116825284166020820152604081018390526080606082018190526000906200455d908301846200377c565b9695505050505050565b6000602082840312156200457a57600080fd5b8151620009e48162003705565b808202811582820484141762000846576200084662003ee0565b600081620045b357620045b362003ee0565b506000190190565b600082620045d957634e487b7160e01b600052601260045260246000fd5b500490565b634e487b7160e01b600052603160045260246000fdfe608060405260405161040a38038061040a83398101604081905261002291610268565b61002c8282610033565b5050610352565b61003c82610092565b6040516001600160a01b038316907fbc7cd75a20ee27fd9adebab32041f755214dbc6bffa90cc0225b39da2e5c2d3b90600090a280511561008657610081828261010e565b505050565b61008e610185565b5050565b806001600160a01b03163b6000036100cd57604051634c9c8ce360e01b81526001600160a01b03821660048201526024015b60405180910390fd5b7f360894a13ba1a3210667c828492db98dca3e2076cc3735a920a3ca505d382bbc80546001600160a01b0319166001600160a01b0392909216919091179055565b6060600080846001600160a01b03168460405161012b9190610336565b600060405180830381855af49150503d8060008114610166576040519150601f19603f3d011682016040523d82523d6000602084013e61016b565b606091505b50909250905061017c8583836101a6565b95945050505050565b34156101a45760405163b398979f60e01b815260040160405180910390fd5b565b6060826101bb576101b682610205565b6101fe565b81511580156101d257506001600160a01b0384163b155b156101fb57604051639996b31560e01b81526001600160a01b03851660048201526024016100c4565b50805b9392505050565b8051156102155780518082602001fd5b604051630a12f52160e11b815260040160405180910390fd5b634e487b7160e01b600052604160045260246000fd5b60005b8381101561025f578181015183820152602001610247565b50506000910152565b6000806040838503121561027b57600080fd5b82516001600160a01b038116811461029257600080fd5b60208401519092506001600160401b03808211156102af57600080fd5b818501915085601f8301126102c357600080fd5b8151818111156102d5576102d561022e565b604051601f8201601f19908116603f011681019083821181831017156102fd576102fd61022e565b8160405282815288602084870101111561031657600080fd5b610327836020830160208801610244565b80955050505050509250929050565b60008251610348818460208701610244565b9190910192915050565b60aa806103606000396000f3fe6080604052600a600c565b005b60186014601a565b6051565b565b6000604c7f360894a13ba1a3210667c828492db98dca3e2076cc3735a920a3ca505d382bbc546001600160a01b031690565b905090565b3660008037600080366000845af43d6000803e808015606f573d6000f35b3d6000fdfea2646970667358221220bd42728c374f7f0ddc17b53ec61cdb40d51094c5fa601cbd894add86d0771b8264736f6c6343000818003360a060405234801561001057600080fd5b50338061003757604051631e4fbdf760e01b81526000600482015260240160405180910390fd5b6100408161004a565b503360805261009a565b600080546001600160a01b038381166001600160a01b0319831681178455604051919092169283917f8be0079c531659141344cd1fd0a4f28419497f9722a3daafe3b4186f6b6457e09190a35050565b608051610aea6100bc6000396000818161017001526104d40152610aea6000f3fe60806040526004361061007f5760003560e01c8063b61d27f61161004e578063b61d27f61461013e578063c45a01551461015e578063c4d66de814610192578063f2fde38b146101b257600080fd5b8063150b7a021461008b57806347e1da2a146100d5578063715018a6146100f55780638da5cb5b1461010c57600080fd5b3661008657005b600080fd5b34801561009757600080fd5b506100b76100a63660046106e7565b630a85bd0160e11b95945050505050565b6040516001600160e01b031990911681526020015b60405180910390f35b6100e86100e336600461079b565b6101d2565b6040516100cc9190610885565b34801561010157600080fd5b5061010a610461565b005b34801561011857600080fd5b506000546001600160a01b03165b6040516001600160a01b0390911681526020016100cc565b61015161014c3660046108e9565b610475565b6040516100cc9190610943565b34801561016a57600080fd5b506101267f000000000000000000000000000000000000000000000000000000000000000081565b34801561019e57600080fd5b5061010a6101ad36600461095d565b6104c9565b3480156101be57600080fd5b5061010a6101cd36600461095d565b610520565b60606101dc610552565b85821480156101f257508315806101f257508382145b6102385760405162461bcd60e51b81526020600482015260126024820152710eee4dedcce40c2e4e4c2f240d8cadccee8d60731b60448201526064015b60405180910390fd5b8167ffffffffffffffff81111561025157610251610978565b60405190808252806020026020018201604052801561028457816020015b606081526020019060019003908161026f5790505b509050600084900361036a5760005b868110156103645760008888838181106102af576102af61098e565b90506020020160208101906102c4919061095d565b90503660008686858181106102db576102db61098e565b90506020028101906102ed91906109a4565b91509150600061033584600085858080601f01602080910402602001604051908101604052809392919081815260200183838082843760009201919091525061057f92505050565b90508086868151811061034a5761034a61098e565b602002602001018190525084600101945050505050610293565b50610457565b60005b868110156104555760008888838181106103895761038961098e565b905060200201602081019061039e919061095d565b90503660008686858181106103b5576103b561098e565b90506020028101906103c791906109a4565b915091506000610426848b8b888181106103e3576103e361098e565b9050602002013585858080601f01602080910402602001604051908101604052809392919081815260200183838082843760009201919091525061057f92505050565b90508086868151811061043b5761043b61098e565b60200260200101819052508460010194505050505061036d565b505b9695505050505050565b610469610552565b6104736000610632565b565b606061047f610552565b6104c0858585858080601f01602080910402602001604051908101604052809392919081815260200183838082843760009201919091525061057f92505050565b95945050505050565b336001600160a01b037f000000000000000000000000000000000000000000000000000000000000000016146105145760405163118cdaa760e01b815233600482015260240161022f565b61051d81610632565b50565b610528610552565b6001600160a01b03811661051457604051631e4fbdf760e01b81526000600482015260240161022f565b6000546001600160a01b031633146104735760405163118cdaa760e01b815233600482015260240161022f565b60606000846001600160a01b0316848460405161059c91906109eb565b60006040518083038185875af1925050503d80600081146105d9576040519150601f19603f3d011682016040523d82523d6000602084013e6105de565b606091505b50925090508061062a576044825110156105f757600080fd5b600482019150818060200190518101906106119190610a07565b60405162461bcd60e51b815260040161022f9190610943565b509392505050565b600080546001600160a01b038381166001600160a01b0319831681178455604051919092169283917f8be0079c531659141344cd1fd0a4f28419497f9722a3daafe3b4186f6b6457e09190a35050565b80356001600160a01b038116811461069957600080fd5b919050565b60008083601f8401126106b057600080fd5b50813567ffffffffffffffff8111156106c857600080fd5b6020830191508360208285010111156106e057600080fd5b9250929050565b6000806000806000608086880312156106ff57600080fd5b61070886610682565b945061071660208701610682565b935060408601359250606086013567ffffffffffffffff81111561073957600080fd5b6107458882890161069e565b969995985093965092949392505050565b60008083601f84011261076857600080fd5b50813567ffffffffffffffff81111561078057600080fd5b6020830191508360208260051b85010111156106e057600080fd5b600080600080600080606087890312156107b457600080fd5b863567ffffffffffffffff808211156107cc57600080fd5b6107d88a838b01610756565b909850965060208901359150808211156107f157600080fd5b6107fd8a838b01610756565b9096509450604089013591508082111561081657600080fd5b5061082389828a01610756565b979a9699509497509295939492505050565b60005b83811015610850578181015183820152602001610838565b50506000910152565b60008151808452610871816020860160208601610835565b601f01601f19169290920160200192915050565b600060208083016020845280855180835260408601915060408160051b87010192506020870160005b828110156108dc57603f198886030184526108ca858351610859565b945092850192908501906001016108ae565b5092979650505050505050565b600080600080606085870312156108ff57600080fd5b61090885610682565b935060208501359250604085013567ffffffffffffffff81111561092b57600080fd5b6109378782880161069e565b95989497509550505050565b6020815260006109566020830184610859565b9392505050565b60006020828403121561096f57600080fd5b61095682610682565b634e487b7160e01b600052604160045260246000fd5b634e487b7160e01b600052603260045260246000fd5b6000808335601e198436030181126109bb57600080fd5b83018035915067ffffffffffffffff8211156109d657600080fd5b6020019150368190038213156106e057600080fd5b600082516109fd818460208701610835565b9190910192915050565b600060208284031215610a1957600080fd5b815167ffffffffffffffff80821115610a3157600080fd5b818401915084601f830112610a4557600080fd5b815181811115610a5757610a57610978565b604051601f8201601f19908116603f01168101908382118183101715610a7f57610a7f610978565b81604052828152876020848701011115610a9857600080fd5b610aa9836020830160208801610835565b97965050505050505056fea26469706673582212209388cc9441e0986bee120b32be1c29eda96e129a50bcb254300c50efe2aac76364736f6c63430008180033645e039705490088daad89bae25049a34f4a9072d398537b1ab2425f24cbed0080bb2b638cc20bc4d0a60d66940f3ab4a00c1d7b313497ca82fb0b4ab007930068747470733a2f2f7261772e67697468756275736572636f6e74656e742e636f6d2f70726f6d70746f7765722f7765626170702f6d61696e2f7372632f6173736574732f6e66742f4142434445464748494a4b4c4d4e4f505152535455565758595a6162636465666768696a6b6c6d6e6f707172737475767778797a303132333435363738392b2f645e039705490088daad89bae25049a34f4a9072d398537b1ab2425f24cbed02a2646970667358221220b63b207e721d0c10cfdcc2ee3a74231053bbd6bdf41f94340c2f4a42a645297264736f6c63430008180033",
  "linkReferences": {},
  "deployedLinkReferences": {}
}