{
  "_format": "hh-sol-artifact-1",
  "contractName": "Verified",
  "sourceName": "contracts/Badge.sol",
  "abi": [
    {
      "inputs": [],
      "stateMutability": "nonpayable",
      "type": "constructor"
    },
    {
      "inputs": [
        {
          "internalType": "address",
          "name": "sender",
          "type": "address"
        },
        {
          "internalType": "uint256",
          "name": "tokenId",
          "type": "uint256"
        },
        {
          "internalType": "address",
          "name": "owner",
          "type": "address"
        }
      ],
      "name": "ERC721IncorrectOwner",
      "type": "error"
    },
    {
      "inputs": [
        {
          "internalType": "address",
          "name": "operator",
          "type": "address"
        },
        {
          "internalType": "uint256",
          "name": "tokenId",
          "type": "uint256"
        }
      ],
      "name": "ERC721InsufficientApproval",
      "type": "error"
    },
    {
      "inputs": [
        {
          "internalType": "address",
          "name": "approver",
          "type": "address"
        }
      ],
      "name": "ERC721InvalidApprover",
      "type": "error"
    },
    {
      "inputs": [
        {
          "internalType": "address",
          "name": "operator",
          "type": "address"
        }
      ],
      "name": "ERC721InvalidOperator",
      "type": "error"
    },
    {
      "inputs": [
        {
          "internalType": "address",
          "name": "owner",
          "type": "address"
        }
      ],
      "name": "ERC721InvalidOwner",
      "type": "error"
    },
    {
      "inputs": [
        {
          "internalType": "address",
          "name": "receiver",
          "type": "address"
        }
      ],
      "name": "ERC721InvalidReceiver",
      "type": "error"
    },
    {
      "inputs": [
        {
          "internalType": "address",
          "name": "sender",
          "type": "address"
        }
      ],
      "name": "ERC721InvalidSender",
      "type": "error"
    },
    {
      "inputs": [
        {
          "internalType": "uint256",
          "name": "tokenId",
          "type": "uint256"
        }
      ],
      "name": "ERC721NonexistentToken",
      "type": "error"
    },
    {
      "inputs": [
        {
          "internalType": "address",
          "name": "owner",
          "type": "address"
        }
      ],
      "name": "OwnableInvalidOwner",
      "type": "error"
    },
    {
      "inputs": [
        {
          "internalType": "address",
          "name": "account",
          "type": "address"
        }
      ],
      "name": "OwnableUnauthorizedAccount",
      "type": "error"
    },
    {
      "anonymous": false,
      "inputs": [
        {
          "indexed": true,
          "internalType": "address",
          "name": "owner",
          "type": "address"
        },
        {
          "indexed": true,
          "internalType": "address",
          "name": "approved",
          "type": "address"
        },
        {
          "indexed": true,
          "internalType": "uint256",
          "name": "tokenId",
          "type": "uint256"
        }
      ],
      "name": "Approval",
      "type": "event"
    },
    {
      "anonymous": false,
      "inputs": [
        {
          "indexed": true,
          "internalType": "address",
          "name": "owner",
          "type": "address"
        },
        {
          "indexed": true,
          "internalType": "address",
          "name": "operator",
          "type": "address"
        },
        {
          "indexed": false,
          "internalType": "bool",
          "name": "approved",
          "type": "bool"
        }
      ],
      "name": "ApprovalForAll",
      "type": "event"
    },
    {
      "anonymous": false,
      "inputs": [
        {
          "indexed": true,
          "internalType": "address",
          "name": "previousOwner",
          "type": "address"
        },
        {
          "indexed": true,
          "internalType": "address",
          "name": "newOwner",
          "type": "address"
        }
      ],
      "name": "OwnershipTransferred",
      "type": "event"
    },
    {
      "anonymous": false,
      "inputs": [
        {
          "indexed": true,
          "internalType": "address",
          "name": "from",
          "type": "address"
        },
        {
          "indexed": true,
          "internalType": "address",
          "name": "to",
          "type": "address"
        },
        {
          "indexed": true,
          "internalType": "uint256",
          "name": "tokenId",
          "type": "uint256"
        }
      ],
      "name": "Transfer",
      "type": "event"
    },
    {
      "inputs": [
        {
          "internalType": "address",
          "name": "to",
          "type": "address"
        },
        {
          "internalType": "uint256",
          "name": "tokenId",
          "type": "uint256"
        }
      ],
      "name": "approve",
      "outputs": [],
      "stateMutability": "nonpayable",
      "type": "function"
    },
    {
      "inputs": [
        {
          "internalType": "address",
          "name": "owner",
          "type": "address"
        }
      ],
      "name": "balanceOf",
      "outputs": [
        {
          "internalType": "uint256",
          "name": "",
          "type": "uint256"
        }
      ],
      "stateMutability": "view",
      "type": "function"
    },
    {
      "inputs": [
        {
          "internalType": "uint256",
          "name": "tokenId",
          "type": "uint256"
        }
      ],
      "name": "getApproved",
      "outputs": [
        {
          "internalType": "address",
          "name": "",
          "type": "address"
        }
      ],
      "stateMutability": "view",
      "type": "function"
    },
    {
      "inputs": [
        {
          "internalType": "address",
          "name": "owner",
          "type": "address"
        },
        {
          "internalType": "address",
          "name": "operator",
          "type": "address"
        }
      ],
      "name": "isApprovedForAll",
      "outputs": [
        {
          "internalType": "bool",
          "name": "",
          "type": "bool"
        }
      ],
      "stateMutability": "view",
      "type": "function"
    },
    {
      "inputs": [
        {
          "internalType": "address",
          "name": "to",
          "type": "address"
        }
      ],
      "name": "mint",
      "outputs": [],
      "stateMutability": "nonpayable",
      "type": "function"
    },
    {
      "inputs": [],
      "name": "name",
      "outputs": [
        {
          "internalType": "string",
          "name": "",
          "type": "string"
        }
      ],
      "stateMutability": "view",
      "type": "function"
    },
    {
      "inputs": [],
      "name": "owner",
      "outputs": [
        {
          "internalType": "address",
          "name": "",
          "type": "address"
        }
      ],
      "stateMutability": "view",
      "type": "function"
    },
    {
      "inputs": [
        {
          "internalType": "uint256",
          "name": "tokenId",
          "type": "uint256"
        }
      ],
      "name": "ownerOf",
      "outputs": [
        {
          "internalType": "address",
          "name": "",
          "type": "address"
        }
      ],
      "stateMutability": "view",
      "type": "function"
    },
    {
      "inputs": [],
      "name": "renounceOwnership",
      "outputs": [],
      "stateMutability": "nonpayable",
      "type": "function"
    },
    {
      "inputs": [
        {
          "internalType": "address",
          "name": "from",
          "type": "address"
        },
        {
          "internalType": "address",
          "name": "to",
          "type": "address"
        },
        {
          "internalType": "uint256",
          "name": "tokenId",
          "type": "uint256"
        }
      ],
      "name": "safeTransferFrom",
      "outputs": [],
      "stateMutability": "nonpayable",
      "type": "function"
    },
    {
      "inputs": [
        {
          "internalType": "address",
          "name": "from",
          "type": "address"
        },
        {
          "internalType": "address",
          "name": "to",
          "type": "address"
        },
        {
          "internalType": "uint256",
          "name": "tokenId",
          "type": "uint256"
        },
        {
          "internalType": "bytes",
          "name": "data",
          "type": "bytes"
        }
      ],
      "name": "safeTransferFrom",
      "outputs": [],
      "stateMutability": "nonpayable",
      "type": "function"
    },
    {
      "inputs": [
        {
          "internalType": "address",
          "name": "operator",
          "type": "address"
        },
        {
          "internalType": "bool",
          "name": "approved",
          "type": "bool"
        }
      ],
      "name": "setApprovalForAll",
      "outputs": [],
      "stateMutability": "nonpayable",
      "type": "function"
    },
    {
      "inputs": [
        {
          "internalType": "bytes4",
          "name": "interfaceId",
          "type": "bytes4"
        }
      ],
      "name": "supportsInterface",
      "outputs": [
        {
          "internalType": "bool",
          "name": "",
          "type": "bool"
        }
      ],
      "stateMutability": "view",
      "type": "function"
    },
    {
      "inputs": [],
      "name": "symbol",
      "outputs": [
        {
          "internalType": "string",
          "name": "",
          "type": "string"
        }
      ],
      "stateMutability": "view",
      "type": "function"
    },
    {
      "inputs": [
        {
          "internalType": "uint256",
          "name": "tokenId",
          "type": "uint256"
        }
      ],
      "name": "tokenURI",
      "outputs": [
        {
          "internalType": "string",
          "name": "",
          "type": "string"
        }
      ],
      "stateMutability": "view",
      "type": "function"
    },
    {
      "inputs": [],
      "name": "totalSupply",
      "outputs": [
        {
          "internalType": "uint256",
          "name": "",
          "type": "uint256"
        }
      ],
      "stateMutability": "view",
      "type": "function"
    },
    {
      "inputs": [
        {
          "internalType": "address",
          "name": "from",
          "type": "address"
        },
        {
          "internalType": "address",
          "name": "to",
          "type": "address"
        },
        {
          "internalType": "uint256",
          "name": "tokenId",
          "type": "uint256"
        }
      ],
      "name": "transferFrom",
      "outputs": [],
      "stateMutability": "nonpayable",
      "type": "function"
    },
    {
      "inputs": [
        {
          "internalType": "address",
          "name": "newOwner",
          "type": "address"
        }
      ],
      "name": "transferOwnership",
      "outputs": [],
      "stateMutability": "nonpayable",
      "type": "function"
    }
  ],
  "bytecode": "0x60806040523480156200001157600080fd5b50336040518060400160405280600e81526020016d566572696669656420426164676560901b8152506040518060400160405280600881526020016715995c9a599a595960c21b81525081600090816200006c9190620001b8565b5060016200007b8282620001b8565b5050506001600160a01b038116620000ad57604051631e4fbdf760e01b81526000600482015260240160405180910390fd5b620000b881620000bf565b5062000284565b600680546001600160a01b038381166001600160a01b0319831681179093556040519116919082907f8be0079c531659141344cd1fd0a4f28419497f9722a3daafe3b4186f6b6457e090600090a35050565b634e487b7160e01b600052604160045260246000fd5b600181811c908216806200013c57607f821691505b6020821081036200015d57634e487b7160e01b600052602260045260246000fd5b50919050565b601f821115620001b3576000816000526020600020601f850160051c810160208610156200018e5750805b601f850160051c820191505b81811015620001af578281556001016200019a565b5050505b505050565b81516001600160401b03811115620001d457620001d462000111565b620001ec81620001e5845462000127565b8462000163565b602080601f8311600181146200022457600084156200020b5750858301515b600019600386901b1c1916600185901b178555620001af565b600085815260208120601f198616915b82811015620002555788860151825594840194600190910190840162000234565b5085821015620002745787850151600019600388901b60f8161c191681555b5050505050600190811b01905550565b61105880620002946000396000f3fe608060405234801561001057600080fd5b50600436106101165760003560e01c806370a08231116100a2578063a22cb46511610071578063a22cb4651461022f578063b88d4fde14610242578063c87b56dd14610255578063e985e9c514610268578063f2fde38b1461027b57600080fd5b806370a08231146101fb578063715018a61461020e5780638da5cb5b1461021657806395d89b411461022757600080fd5b806318160ddd116100e957806318160ddd1461019857806323b872dd146101af57806342842e0e146101c25780636352211e146101d55780636a627842146101e857600080fd5b806301ffc9a71461011b57806306fdde0314610143578063081812fc14610158578063095ea7b314610183575b600080fd5b61012e610129366004610ca1565b61028e565b60405190151581526020015b60405180910390f35b61014b6102e0565b60405161013a9190610d0e565b61016b610166366004610d21565b610372565b6040516001600160a01b03909116815260200161013a565b610196610191366004610d56565b61039b565b005b6101a160075481565b60405190815260200161013a565b6101966101bd366004610d80565b505050565b6101966101d0366004610d80565b6103aa565b61016b6101e3366004610d21565b6103c5565b6101966101f6366004610dbc565b6103d0565b6101a1610209366004610dbc565b6103fa565b610196610447565b6006546001600160a01b031661016b565b61014b61045b565b61019661023d366004610dd7565b61046a565b610196610250366004610e29565b610475565b61014b610263366004610d21565b610487565b61012e610276366004610f05565b6104fc565b610196610289366004610dbc565b61052a565b60006001600160e01b031982166380ac58cd60e01b14806102bf57506001600160e01b03198216635b5e139f60e01b145b806102da57506301ffc9a760e01b6001600160e01b03198316145b92915050565b6060600080546102ef90610f38565b80601f016020809104026020016040519081016040528092919081815260200182805461031b90610f38565b80156103685780601f1061033d57610100808354040283529160200191610368565b820191906000526020600020905b81548152906001019060200180831161034b57829003601f168201915b5050505050905090565b600061037d82610565565b506000828152600460205260409020546001600160a01b03166102da565b6103a682823361059e565b5050565b6101bd83838360405180602001604052806000815250610475565b60006102da82610565565b6103d86105ab565b600780546103f79183919060006103ee83610f72565b919050556105d8565b50565b60006001600160a01b03821661042b576040516322718ad960e21b8152600060048201526024015b60405180910390fd5b506001600160a01b031660009081526003602052604090205490565b61044f6105ab565b610459600061063d565b565b6060600180546102ef90610f38565b6103a633838361068f565b6104818484848461072e565b50505050565b606061049282610565565b5060006104aa60408051602081019091526000815290565b905060008151116104ca57604051806020016040528060008152506104f5565b806104d484610857565b6040516020016104e5929190610f99565b6040516020818303038152906040525b9392505050565b6001600160a01b03918216600090815260056020908152604080832093909416825291909152205460ff1690565b6105326105ab565b6001600160a01b03811661055c57604051631e4fbdf760e01b815260006004820152602401610422565b6103f78161063d565b6000818152600260205260408120546001600160a01b0316806102da57604051637e27328960e01b815260048101849052602401610422565b6101bd83838360016108ea565b6006546001600160a01b031633146104595760405163118cdaa760e01b8152336004820152602401610422565b6001600160a01b03821661060257604051633250574960e11b815260006004820152602401610422565b6000610610838360006109f0565b90506001600160a01b038116156101bd576040516339e3563760e11b815260006004820152602401610422565b600680546001600160a01b038381166001600160a01b0319831681179093556040519116919082907f8be0079c531659141344cd1fd0a4f28419497f9722a3daafe3b4186f6b6457e090600090a35050565b6001600160a01b0382166106c157604051630b61174360e31b81526001600160a01b0383166004820152602401610422565b6001600160a01b03838116600081815260056020908152604080832094871680845294825291829020805460ff191686151590811790915591519182527f17307eab39ab6107e8899845ad3d59bd9653f200f220920489ca2b5937696c31910160405180910390a3505050565b6001600160a01b0383163b1561048157604051630a85bd0160e11b81526001600160a01b0384169063150b7a0290610770903390889087908790600401610fc8565b6020604051808303816000875af19250505080156107ab575060408051601f3d908101601f191682019092526107a891810190611005565b60015b610814573d8080156107d9576040519150601f19603f3d011682016040523d82523d6000602084013e6107de565b606091505b50805160000361080c57604051633250574960e11b81526001600160a01b0385166004820152602401610422565b805181602001fd5b6001600160e01b03198116630a85bd0160e11b1461085057604051633250574960e11b81526001600160a01b0385166004820152602401610422565b5050505050565b6060600061086483610ae9565b600101905060008167ffffffffffffffff81111561088457610884610e13565b6040519080825280601f01601f1916602001820160405280156108ae576020820181803683370190505b5090508181016020015b600019016f181899199a1a9b1b9c1cb0b131b232b360811b600a86061a8153600a85049450846108b857509392505050565b80806108fe57506001600160a01b03821615155b156109c057600061090e84610565565b90506001600160a01b0383161580159061093a5750826001600160a01b0316816001600160a01b031614155b801561094d575061094b81846104fc565b155b156109765760405163a9fbf51f60e01b81526001600160a01b0384166004820152602401610422565b81156109be5783856001600160a01b0316826001600160a01b03167f8c5be1e5ebec7d5bd14f71427d1e84f3dd0314c0f7b2291e5b200ac8c7c3b92560405160405180910390a45b505b5050600090815260046020526040902080546001600160a01b0319166001600160a01b0392909216919091179055565b6000828152600260205260408120546001600160a01b0390811690831615610a1d57610a1d818486610bc1565b6001600160a01b03811615610a5b57610a3a6000856000806108ea565b6001600160a01b038116600090815260036020526040902080546000190190555b6001600160a01b03851615610a8a576001600160a01b0385166000908152600360205260409020805460010190555b60008481526002602052604080822080546001600160a01b0319166001600160a01b0389811691821790925591518793918516917fddf252ad1be2c89b69c2b068fc378daa952ba7f163c4a11628f55a4df523b3ef91a4949350505050565b60008072184f03e93ff9f4daa797ed6e38ed64bf6a1f0160401b8310610b285772184f03e93ff9f4daa797ed6e38ed64bf6a1f0160401b830492506040015b6d04ee2d6d415b85acef81000000008310610b54576d04ee2d6d415b85acef8100000000830492506020015b662386f26fc100008310610b7257662386f26fc10000830492506010015b6305f5e1008310610b8a576305f5e100830492506008015b6127108310610b9e57612710830492506004015b60648310610bb0576064830492506002015b600a83106102da5760010192915050565b610bcc838383610c25565b6101bd576001600160a01b038316610bfa57604051637e27328960e01b815260048101829052602401610422565b60405163177e802f60e01b81526001600160a01b038316600482015260248101829052604401610422565b60006001600160a01b03831615801590610c835750826001600160a01b0316846001600160a01b03161480610c5f5750610c5f84846104fc565b80610c8357506000828152600460205260409020546001600160a01b038481169116145b949350505050565b6001600160e01b0319811681146103f757600080fd5b600060208284031215610cb357600080fd5b81356104f581610c8b565b60005b83811015610cd9578181015183820152602001610cc1565b50506000910152565b60008151808452610cfa816020860160208601610cbe565b601f01601f19169290920160200192915050565b6020815260006104f56020830184610ce2565b600060208284031215610d3357600080fd5b5035919050565b80356001600160a01b0381168114610d5157600080fd5b919050565b60008060408385031215610d6957600080fd5b610d7283610d3a565b946020939093013593505050565b600080600060608486031215610d9557600080fd5b610d9e84610d3a565b9250610dac60208501610d3a565b9150604084013590509250925092565b600060208284031215610dce57600080fd5b6104f582610d3a565b60008060408385031215610dea57600080fd5b610df383610d3a565b915060208301358015158114610e0857600080fd5b809150509250929050565b634e487b7160e01b600052604160045260246000fd5b60008060008060808587031215610e3f57600080fd5b610e4885610d3a565b9350610e5660208601610d3a565b925060408501359150606085013567ffffffffffffffff80821115610e7a57600080fd5b818701915087601f830112610e8e57600080fd5b813581811115610ea057610ea0610e13565b604051601f8201601f19908116603f01168101908382118183101715610ec857610ec8610e13565b816040528281528a6020848701011115610ee157600080fd5b82602086016020830137600060208483010152809550505050505092959194509250565b60008060408385031215610f1857600080fd5b610f2183610d3a565b9150610f2f60208401610d3a565b90509250929050565b600181811c90821680610f4c57607f821691505b602082108103610f6c57634e487b7160e01b600052602260045260246000fd5b50919050565b600060018201610f9257634e487b7160e01b600052601160045260246000fd5b5060010190565b60008351610fab818460208801610cbe565b835190830190610fbf818360208801610cbe565b01949350505050565b6001600160a01b0385811682528416602082015260408101839052608060608201819052600090610ffb90830184610ce2565b9695505050505050565b60006020828403121561101757600080fd5b81516104f581610c8b56fea26469706673582212208f9a717e2cbf98235563a6a08a313e349156f2b942a7af6d8bf4e79e4b3614a064736f6c63430008180033",
  "linkReferences": {},
  "deployedLinkReferences": {}
}