{
  "_format": "hh-sol-artifact-1",
  "contractName": "Verified",
  "sourceName": "contracts/Badge.sol",
  "abi": [
    {
      "inputs": [],
      "stateMutability": "nonpayable",
      "type": "constructor"
    },
    {
      "inputs": [
        {
          "internalType": "address",
          "name": "sender",
          "type": "address"
        },
        {
          "internalType": "uint256",
          "name": "tokenId",
          "type": "uint256"
        },
        {
          "internalType": "address",
          "name": "owner",
          "type": "address"
        }
      ],
      "name": "ERC721IncorrectOwner",
      "type": "error"
    },
    {
      "inputs": [
        {
          "internalType": "address",
          "name": "operator",
          "type": "address"
        },
        {
          "internalType": "uint256",
          "name": "tokenId",
          "type": "uint256"
        }
      ],
      "name": "ERC721InsufficientApproval",
      "type": "error"
    },
    {
      "inputs": [
        {
          "internalType": "address",
          "name": "approver",
          "type": "address"
        }
      ],
      "name": "ERC721InvalidApprover",
      "type": "error"
    },
    {
      "inputs": [
        {
          "internalType": "address",
          "name": "operator",
          "type": "address"
        }
      ],
      "name": "ERC721InvalidOperator",
      "type": "error"
    },
    {
      "inputs": [
        {
          "internalType": "address",
          "name": "owner",
          "type": "address"
        }
      ],
      "name": "ERC721InvalidOwner",
      "type": "error"
    },
    {
      "inputs": [
        {
          "internalType": "address",
          "name": "receiver",
          "type": "address"
        }
      ],
      "name": "ERC721InvalidReceiver",
      "type": "error"
    },
    {
      "inputs": [
        {
          "internalType": "address",
          "name": "sender",
          "type": "address"
        }
      ],
      "name": "ERC721InvalidSender",
      "type": "error"
    },
    {
      "inputs": [
        {
          "internalType": "uint256",
          "name": "tokenId",
          "type": "uint256"
        }
      ],
      "name": "ERC721NonexistentToken",
      "type": "error"
    },
    {
      "inputs": [
        {
          "internalType": "address",
          "name": "owner",
          "type": "address"
        }
      ],
      "name": "OwnableInvalidOwner",
      "type": "error"
    },
    {
      "inputs": [
        {
          "internalType": "address",
          "name": "account",
          "type": "address"
        }
      ],
      "name": "OwnableUnauthorizedAccount",
      "type": "error"
    },
    {
      "anonymous": false,
      "inputs": [
        {
          "indexed": true,
          "internalType": "address",
          "name": "owner",
          "type": "address"
        },
        {
          "indexed": true,
          "internalType": "address",
          "name": "approved",
          "type": "address"
        },
        {
          "indexed": true,
          "internalType": "uint256",
          "name": "tokenId",
          "type": "uint256"
        }
      ],
      "name": "Approval",
      "type": "event"
    },
    {
      "anonymous": false,
      "inputs": [
        {
          "indexed": true,
          "internalType": "address",
          "name": "owner",
          "type": "address"
        },
        {
          "indexed": true,
          "internalType": "address",
          "name": "operator",
          "type": "address"
        },
        {
          "indexed": false,
          "internalType": "bool",
          "name": "approved",
          "type": "bool"
        }
      ],
      "name": "ApprovalForAll",
      "type": "event"
    },
    {
      "anonymous": false,
      "inputs": [
        {
          "indexed": true,
          "internalType": "address",
          "name": "previousOwner",
          "type": "address"
        },
        {
          "indexed": true,
          "internalType": "address",
          "name": "newOwner",
          "type": "address"
        }
      ],
      "name": "OwnershipTransferred",
      "type": "event"
    },
    {
      "anonymous": false,
      "inputs": [
        {
          "indexed": true,
          "internalType": "address",
          "name": "from",
          "type": "address"
        },
        {
          "indexed": true,
          "internalType": "address",
          "name": "to",
          "type": "address"
        },
        {
          "indexed": true,
          "internalType": "uint256",
          "name": "tokenId",
          "type": "uint256"
        }
      ],
      "name": "Transfer",
      "type": "event"
    },
    {
      "inputs": [
        {
          "internalType": "address",
          "name": "to",
          "type": "address"
        },
        {
          "internalType": "uint256",
          "name": "tokenId",
          "type": "uint256"
        }
      ],
      "name": "approve",
      "outputs": [],
      "stateMutability": "nonpayable",
      "type": "function"
    },
    {
      "inputs": [
        {
          "internalType": "address",
          "name": "owner",
          "type": "address"
        }
      ],
      "name": "balanceOf",
      "outputs": [
        {
          "internalType": "uint256",
          "name": "",
          "type": "uint256"
        }
      ],
      "stateMutability": "view",
      "type": "function"
    },
    {
      "inputs": [
        {
          "internalType": "uint256",
          "name": "tokenId",
          "type": "uint256"
        }
      ],
      "name": "getApproved",
      "outputs": [
        {
          "internalType": "address",
          "name": "",
          "type": "address"
        }
      ],
      "stateMutability": "view",
      "type": "function"
    },
    {
      "inputs": [
        {
          "internalType": "address",
          "name": "owner",
          "type": "address"
        },
        {
          "internalType": "address",
          "name": "operator",
          "type": "address"
        }
      ],
      "name": "isApprovedForAll",
      "outputs": [
        {
          "internalType": "bool",
          "name": "",
          "type": "bool"
        }
      ],
      "stateMutability": "view",
      "type": "function"
    },
    {
      "inputs": [
        {
          "internalType": "address",
          "name": "to",
          "type": "address"
        }
      ],
      "name": "mint",
      "outputs": [],
      "stateMutability": "nonpayable",
      "type": "function"
    },
    {
      "inputs": [],
      "name": "name",
      "outputs": [
        {
          "internalType": "string",
          "name": "",
          "type": "string"
        }
      ],
      "stateMutability": "view",
      "type": "function"
    },
    {
      "inputs": [],
      "name": "owner",
      "outputs": [
        {
          "internalType": "address",
          "name": "",
          "type": "address"
        }
      ],
      "stateMutability": "view",
      "type": "function"
    },
    {
      "inputs": [
        {
          "internalType": "uint256",
          "name": "tokenId",
          "type": "uint256"
        }
      ],
      "name": "ownerOf",
      "outputs": [
        {
          "internalType": "address",
          "name": "",
          "type": "address"
        }
      ],
      "stateMutability": "view",
      "type": "function"
    },
    {
      "inputs": [],
      "name": "renounceOwnership",
      "outputs": [],
      "stateMutability": "nonpayable",
      "type": "function"
    },
    {
      "inputs": [
        {
          "internalType": "address",
          "name": "from",
          "type": "address"
        },
        {
          "internalType": "address",
          "name": "to",
          "type": "address"
        },
        {
          "internalType": "uint256",
          "name": "tokenId",
          "type": "uint256"
        }
      ],
      "name": "safeTransferFrom",
      "outputs": [],
      "stateMutability": "nonpayable",
      "type": "function"
    },
    {
      "inputs": [
        {
          "internalType": "address",
          "name": "from",
          "type": "address"
        },
        {
          "internalType": "address",
          "name": "to",
          "type": "address"
        },
        {
          "internalType": "uint256",
          "name": "tokenId",
          "type": "uint256"
        },
        {
          "internalType": "bytes",
          "name": "data",
          "type": "bytes"
        }
      ],
      "name": "safeTransferFrom",
      "outputs": [],
      "stateMutability": "nonpayable",
      "type": "function"
    },
    {
      "inputs": [
        {
          "internalType": "address",
          "name": "operator",
          "type": "address"
        },
        {
          "internalType": "bool",
          "name": "approved",
          "type": "bool"
        }
      ],
      "name": "setApprovalForAll",
      "outputs": [],
      "stateMutability": "nonpayable",
      "type": "function"
    },
    {
      "inputs": [
        {
          "internalType": "bytes4",
          "name": "interfaceId",
          "type": "bytes4"
        }
      ],
      "name": "supportsInterface",
      "outputs": [
        {
          "internalType": "bool",
          "name": "",
          "type": "bool"
        }
      ],
      "stateMutability": "view",
      "type": "function"
    },
    {
      "inputs": [],
      "name": "symbol",
      "outputs": [
        {
          "internalType": "string",
          "name": "",
          "type": "string"
        }
      ],
      "stateMutability": "view",
      "type": "function"
    },
    {
      "inputs": [
        {
          "internalType": "uint256",
          "name": "tokenId",
          "type": "uint256"
        }
      ],
      "name": "tokenURI",
      "outputs": [
        {
          "internalType": "string",
          "name": "",
          "type": "string"
        }
      ],
      "stateMutability": "view",
      "type": "function"
    },
    {
      "inputs": [],
      "name": "totalSupply",
      "outputs": [
        {
          "internalType": "uint256",
          "name": "",
          "type": "uint256"
        }
      ],
      "stateMutability": "view",
      "type": "function"
    },
    {
      "inputs": [
        {
          "internalType": "address",
          "name": "from",
          "type": "address"
        },
        {
          "internalType": "address",
          "name": "to",
          "type": "address"
        },
        {
          "internalType": "uint256",
          "name": "tokenId",
          "type": "uint256"
        }
      ],
      "name": "transferFrom",
      "outputs": [],
      "stateMutability": "nonpayable",
      "type": "function"
    },
    {
      "inputs": [
        {
          "internalType": "address",
          "name": "newOwner",
          "type": "address"
        }
      ],
      "name": "transferOwnership",
      "outputs": [],
      "stateMutability": "nonpayable",
      "type": "function"
    }
  ],
  "bytecode": "0x6080346200037f576001600160401b039060408181018381118382101762000369578152600e82526020916d566572696669656420426164676560901b838201528151938285018581108282111762000369578352600885526715995c9a599a595960c21b84860152815181811162000369576000948554916001948584811c941680156200035e575b838510146200034a578190601f94858111620002f7575b5083908583116001146200029357899262000287575b5050600019600383901b1c191690851b1786555b8651928311620002735783548481811c9116801562000268575b8282101462000254578281116200020c575b5080918311600114620001a557508495829394959262000199575b5050600019600383901b1c191690821b1790555b3315620001815760068054336001600160a01b03198216811790925591519290916001600160a01b0316907f8be0079c531659141344cd1fd0a4f28419497f9722a3daafe3b4186f6b6457e09080a36112919081620003858239f35b51631e4fbdf760e01b81526004810191909152602490fd5b01519050388062000111565b90601f198316968487528287209287905b898210620001f4575050838596979810620001da575b505050811b01905562000125565b015160001960f88460031b161c19169055388080620001cc565b808785968294968601518155019501930190620001b6565b8487528187208380860160051c8201928487106200024a575b0160051c019085905b8281106200023e575050620000f6565b8881550185906200022e565b9250819262000225565b634e487b7160e01b87526022600452602487fd5b90607f1690620000e4565b634e487b7160e01b86526041600452602486fd5b015190503880620000b6565b898052848a208894509190601f1984168b5b87828210620002e05750508411620002c6575b505050811b018655620000ca565b015160001960f88460031b161c19169055388080620002b8565b8385015186558b97909501949384019301620002a5565b9091508880528389208580850160051c82019286861062000340575b918991869594930160051c01915b82811062000331575050620000a0565b8b815585945089910162000321565b9250819262000313565b634e487b7160e01b88526022600452602488fd5b93607f169362000089565b634e487b7160e01b600052604160045260246000fd5b600080fdfe6080604081815260048036101561001557600080fd5b600092833560e01c90816301ffc9a714610eec5750806306fdde0314610e01578063081812fc14610d9d578063095ea7b314610c4d57806318160ddd14610c1057806323b872dd14610bfb57806342842e0e14610b605780636352211e14610b055780636a6278421461091f57806370a0823114610886578063715018a6146107e85780638da5cb5b1461079557806395d89b4114610623578063a22cb46514610520578063b88d4fde146102be578063c87b56dd1461024d578063e985e9c5146101d05763f2fde38b146100e957600080fd5b346101cc5760207ffffffffffffffffffffffffffffffffffffffffffffffffffffffffffffffffc3601126101cc57610120611038565b9061012961120a565b73ffffffffffffffffffffffffffffffffffffffff80921692831561019d575050600654827fffffffffffffffffffffffff0000000000000000000000000000000000000000821617600655167f8be0079c531659141344cd1fd0a4f28419497f9722a3daafe3b4186f6b6457e08380a380f35b908460249251917f1e4fbdf7000000000000000000000000000000000000000000000000000000008352820152fd5b8280fd5b50503461024957807ffffffffffffffffffffffffffffffffffffffffffffffffffffffffffffffffc3601126102495760ff8160209361020e611038565b610216611060565b73ffffffffffffffffffffffffffffffffffffffff91821683526005875283832091168252855220549151911615158152f35b5080fd5b509190346102495760207ffffffffffffffffffffffffffffffffffffffffffffffffffffffffffffffffc3601126102495761028c6102ba93356111a9565b50818151610299816110e3565b528051916102a6836110e3565b825251918291602083526020830190610fda565b0390f35b50346101cc5760807ffffffffffffffffffffffffffffffffffffffffffffffffffffffffffffffffc3601126101cc576102f6611038565b916102ff611060565b906064359367ffffffffffffffff851161051c573660238601121561051c5784840135948661032d8761116f565b9161033a8551938461112e565b87835260209736602482840101116101cc578060248a93018386013783010152833b610364578680f35b856103d89173ffffffffffffffffffffffffffffffffffffffff98949596979880971696865193849283927f150b7a020000000000000000000000000000000000000000000000000000000097888552338d8601521660248401526044356044840152608060648401526084830190610fda565b038186895af18391816104c0575b5061045a5750503d15610452573d6103fd8161116f565b9061040a8451928361112e565b81528091863d92013e5b8051948561044c5750506024935051917f64a0ae92000000000000000000000000000000000000000000000000000000008352820152fd5b85925001fd5b506060610414565b7fffffffff00000000000000000000000000000000000000000000000000000000919296501603610492575050503880808080808680f35b6024935051917f64a0ae92000000000000000000000000000000000000000000000000000000008352820152fd5b9091508781813d8311610515575b6104d8818361112e565b8101031261051157517fffffffff00000000000000000000000000000000000000000000000000000000811681036105115790386103e6565b8380fd5b503d6104ce565b8580fd5b5090346101cc57807ffffffffffffffffffffffffffffffffffffffffffffffffffffffffffffffffc3601126101cc57610558611038565b906024359182151580930361061f5773ffffffffffffffffffffffffffffffffffffffff169283156105f1575033845260056020528084208385526020528084207fffffffffffffffffffffffffffffffffffffffffffffffffffffffffffffff0081541660ff8416179055519081527f17307eab39ab6107e8899845ad3d59bd9653f200f220920489ca2b5937696c3160203392a380f35b8360249251917f5b08ba18000000000000000000000000000000000000000000000000000000008352820152fd5b8480fd5b50913461079257807ffffffffffffffffffffffffffffffffffffffffffffffffffffffffffffffffc3601126107925781519181600192600154938460011c9160018616958615610788575b602096878510811461075c578899509688969785829a5291826000146107175750506001146106bb575b5050506102ba92916106ac91038561112e565b51928284938452830190610fda565b9190869350600183527fb10e2d527612073b26eecdfd717e6a320cf44b4afac2b0732d9fcbe2b7fa0cf65b8284106106ff57505050820101816106ac6102ba610699565b8054848a0186015288955087949093019281016106e6565b7fffffffffffffffffffffffffffffffffffffffffffffffffffffffffffffff00168782015293151560051b860190930193508492506106ac91506102ba9050610699565b60248360228c7f4e487b7100000000000000000000000000000000000000000000000000000000835252fd5b92607f169261066f565b80fd5b50503461024957817ffffffffffffffffffffffffffffffffffffffffffffffffffffffffffffffffc3601126102495760209073ffffffffffffffffffffffffffffffffffffffff600654169051908152f35b833461079257807ffffffffffffffffffffffffffffffffffffffffffffffffffffffffffffffffc3601126107925761081f61120a565b8073ffffffffffffffffffffffffffffffffffffffff6006547fffffffffffffffffffffffff00000000000000000000000000000000000000008116600655167f8be0079c531659141344cd1fd0a4f28419497f9722a3daafe3b4186f6b6457e08280a380f35b5091346107925760207ffffffffffffffffffffffffffffffffffffffffffffffffffffffffffffffffc3601126107925773ffffffffffffffffffffffffffffffffffffffff6108d4611038565b169283156108f15750806020938392526003845220549051908152f35b9060249251917f89c62b64000000000000000000000000000000000000000000000000000000008352820152fd5b50346101cc57602091827ffffffffffffffffffffffffffffffffffffffffffffffffffffffffffffffffc36011261051157610959611038565b61096161120a565b600754907fffffffffffffffffffffffffffffffffffffffffffffffffffffffffffffffff92838314610ad9576001830160075573ffffffffffffffffffffffffffffffffffffffff809216918215610aaa576002908489528188528289205416968715159586610a68575b50838952600381528289206001815401905584895252808720827fffffffffffffffffffffffff000000000000000000000000000000000000000082541617905551947fddf252ad1be2c89b69c2b068fc378daa952ba7f163c4a11628f55a4df523b3ef8780a4610a3c578280f35b916024927f73c6ac6e000000000000000000000000000000000000000000000000000000008352820152fd5b878252838a207fffffffffffffffffffffffff00000000000000000000000000000000000000008154169055888a5260038252838a20908154019055386109cd565b602486898451917f64a0ae92000000000000000000000000000000000000000000000000000000008352820152fd5b6024876011877f4e487b7100000000000000000000000000000000000000000000000000000000835252fd5b5091346107925760207ffffffffffffffffffffffffffffffffffffffffffffffffffffffffffffffffc360112610792575073ffffffffffffffffffffffffffffffffffffffff610b58602093356111a9565b915191168152f35b5090346101cc57610b7036611083565b9291908251610b7e816110e3565b868152813b610b8b578680f35b906103d896929173ffffffffffffffffffffffffffffffffffffffff809216958551927f150b7a020000000000000000000000000000000000000000000000000000000094858552338a86015216602484015260448301526080606483015281806020998a936084830190610fda565b833461079257610c0a36611083565b50505080f35b50503461024957817ffffffffffffffffffffffffffffffffffffffffffffffffffffffffffffffffc360112610249576020906007549051908152f35b5090346101cc57807ffffffffffffffffffffffffffffffffffffffffffffffffffffffffffffffffc3601126101cc57610c85611038565b91602435610c92816111a9565b33151580610d7d575b80610d48575b610d1957819073ffffffffffffffffffffffffffffffffffffffff809616958691167f8c5be1e5ebec7d5bd14f71427d1e84f3dd0314c0f7b2291e5b200ac8c7c3b9258880a484526020528220907fffffffffffffffffffffffff000000000000000000000000000000000000000082541617905580f35b83517fa9fbf51f0000000000000000000000000000000000000000000000000000000081523381850152602490fd5b5073ffffffffffffffffffffffffffffffffffffffff81168652600560205283862033875260205260ff848720541615610ca1565b503373ffffffffffffffffffffffffffffffffffffffff82161415610c9b565b50346101cc5760207ffffffffffffffffffffffffffffffffffffffffffffffffffffffffffffffffc3601126101cc57816020938273ffffffffffffffffffffffffffffffffffffffff9335610df2816111a9565b50825285522054169051908152f35b50913461079257807ffffffffffffffffffffffffffffffffffffffffffffffffffffffffffffffffc360112610792578151918182549260018460011c9160018616958615610ee2575b602096878510811461075c578899509688969785829a529182600014610717575050600114610e87575050506102ba92916106ac91038561112e565b91908693508280527f290decd9548b62a8d60345a988386fc84ba6bc95484008f6362f93160ef3e5635b828410610eca57505050820101816106ac6102ba610699565b8054848a018601528895508794909301928101610eb1565b92607f1692610e4b565b925050346101cc5760207ffffffffffffffffffffffffffffffffffffffffffffffffffffffffffffffffc3601126101cc57357fffffffff0000000000000000000000000000000000000000000000000000000081168091036101cc57602092507f80ac58cd000000000000000000000000000000000000000000000000000000008114908115610fb0575b8115610f86575b5015158152f35b7f01ffc9a70000000000000000000000000000000000000000000000000000000091501438610f7f565b7f5b5e139f0000000000000000000000000000000000000000000000000000000081149150610f78565b919082519283825260005b8481106110245750507fffffffffffffffffffffffffffffffffffffffffffffffffffffffffffffffe0601f8460006020809697860101520116010190565b602081830181015184830182015201610fe5565b6004359073ffffffffffffffffffffffffffffffffffffffff8216820361105b57565b600080fd5b6024359073ffffffffffffffffffffffffffffffffffffffff8216820361105b57565b7ffffffffffffffffffffffffffffffffffffffffffffffffffffffffffffffffc606091011261105b5773ffffffffffffffffffffffffffffffffffffffff90600435828116810361105b5791602435908116810361105b579060443590565b6020810190811067ffffffffffffffff8211176110ff57604052565b7f4e487b7100000000000000000000000000000000000000000000000000000000600052604160045260246000fd5b90601f7fffffffffffffffffffffffffffffffffffffffffffffffffffffffffffffffe0910116810190811067ffffffffffffffff8211176110ff57604052565b67ffffffffffffffff81116110ff57601f017fffffffffffffffffffffffffffffffffffffffffffffffffffffffffffffffe01660200190565b80600052600260205273ffffffffffffffffffffffffffffffffffffffff604060002054169081156111d9575090565b602490604051907f7e2732890000000000000000000000000000000000000000000000000000000082526004820152fd5b73ffffffffffffffffffffffffffffffffffffffff60065416330361122b57565b60246040517f118cdaa7000000000000000000000000000000000000000000000000000000008152336004820152fdfea2646970667358221220083e7fa1c032fb5a4bba76690b0323350a9739b613a134d4a7afbcd7453c0bb864736f6c63430008180033",
  "linkReferences": {},
  "deployedLinkReferences": {}
}